{"project/contracts/StudioToken.sol":{"StudioToken":{"abi":[{"inputs":[{"internalType":"address","name":"_platformTreasury","type":"address"},{"internalType":"address","name":"_creatorRewardsPool","type":"address"},{"internalType":"address","name":"_userRewardsPool","type":"address"},{"internalType":"address","name":"_governancePool","type":"address"},{"internalType":"address","name":"_usdcToken","type":"address"}],"stateMutability":"nonpayable","type":"constructor"},{"anonymous":false,"inputs":[{"indexed":true,"internalType":"address","name":"owner","type":"address"},{"indexed":true,"internalType":"address","name":"spender","type":"address"},{"indexed":false,"internalType":"uint256","name":"value","type":"uint256"}],"name":"Approval","type":"event"},{"anonymous":false,"inputs":[{"indexed":false,"internalType":"uint256","name":"usdcAmount","type":"uint256"}],"name":"BuybackExecuted","type":"event"},{"anonymous":false,"inputs":[{"indexed":true,"internalType":"address","name":"creator","type":"address"},{"indexed":false,"internalType":"uint256","name":"amount","type":"uint256"}],"name":"CreatorIncentivePaid","type":"event"},{"anonymous":false,"inputs":[{"indexed":true,"internalType":"address","name":"previousOwner","type":"address"},{"indexed":true,"internalType":"address","name":"newOwner","type":"address"}],"name":"OwnershipTransferred","type":"event"},{"anonymous":false,"inputs":[{"indexed":false,"internalType":"address","name":"account","type":"address"}],"name":"Paused","type":"event"},{"anonymous":false,"inputs":[{"indexed":false,"internalType":"uint256","name":"stcAmount","type":"uint256"},{"indexed":false,"internalType":"string","name":"poolType","type":"string"}],"name":"PoolReplenished","type":"event"},{"anonymous":false,"inputs":[{"indexed":false,"internalType":"uint256","name":"usdcAmount","type":"uint256"},{"indexed":false,"internalType":"uint256","name":"stcReceived","type":"uint256"},{"indexed":false,"internalType":"uint256","name":"timestamp","type":"uint256"}],"name":"RevenueReplenishment","type":"event"},{"anonymous":false,"inputs":[{"indexed":true,"internalType":"address","name":"user","type":"address"},{"indexed":false,"internalType":"uint256","name":"amount","type":"uint256"},{"indexed":false,"internalType":"string","name":"rewardType","type":"string"}],"name":"RewardClaimed","type":"event"},{"anonymous":false,"inputs":[{"indexed":true,"internalType":"address","name":"user","type":"address"},{"indexed":false,"internalType":"uint256","name":"discountPercentage","type":"uint256"}],"name":"SubscriptionDiscount","type":"event"},{"anonymous":false,"inputs":[{"indexed":true,"internalType":"address","name":"user","type":"address"},{"indexed":false,"internalType":"uint256","name":"amount","type":"uint256"},{"indexed":false,"internalType":"uint256","name":"lockPeriod","type":"uint256"}],"name":"TokensStaked","type":"event"},{"anonymous":false,"inputs":[{"indexed":true,"internalType":"address","name":"user","type":"address"},{"indexed":false,"internalType":"uint256","name":"amount","type":"uint256"}],"name":"TokensUnstaked","type":"event"},{"anonymous":false,"inputs":[{"indexed":true,"internalType":"address","name":"from","type":"address"},{"indexed":true,"internalType":"address","name":"to","type":"address"},{"indexed":false,"internalType":"uint256","name":"value","type":"uint256"}],"name":"Transfer","type":"event"},{"anonymous":false,"inputs":[{"indexed":false,"internalType":"address","name":"account","type":"address"}],"name":"Unpaused","type":"event"},{"inputs":[],"name":"COMMUNITY_GOVERNANCE_ALLOCATION","outputs":[{"internalType":"uint256","name":"","type":"uint256"}],"stateMutability":"view","type":"function"},{"inputs":[],"name":"CREATOR_INCENTIVES_ALLOCATION","outputs":[{"internalType":"uint256","name":"","type":"uint256"}],"stateMutability":"view","type":"function"},{"inputs":[],"name":"PLATFORM_DEVELOPMENT_ALLOCATION","outputs":[{"internalType":"uint256","name":"","type":"uint256"}],"stateMutability":"view","type":"function"},{"inputs":[],"name":"TOTAL_SUPPLY","outputs":[{"internalType":"uint256","name":"","type":"uint256"}],"stateMutability":"view","type":"function"},{"inputs":[],"name":"USER_REWARDS_ALLOCATION","outputs":[{"internalType":"uint256","name":"","type":"uint256"}],"stateMutability":"view","type":"function"},{"inputs":[{"internalType":"address","name":"owner","type":"address"},{"internalType":"address","name":"spender","type":"address"}],"name":"allowance","outputs":[{"internalType":"uint256","name":"","type":"uint256"}],"stateMutability":"view","type":"function"},{"inputs":[{"internalType":"address","name":"spender","type":"address"},{"internalType":"uint256","name":"amount","type":"uint256"}],"name":"approve","outputs":[{"internalType":"bool","name":"","type":"bool"}],"stateMutability":"nonpayable","type":"function"},{"inputs":[{"internalType":"uint256","name":"subscriptionRevenue","type":"uint256"},{"internalType":"uint256","name":"replenishPercentage","type":"uint256"}],"name":"autoReplenishFromRevenue","outputs":[],"stateMutability":"nonpayable","type":"function"},{"inputs":[{"internalType":"address","name":"account","type":"address"}],"name":"balanceOf","outputs":[{"internalType":"uint256","name":"","type":"uint256"}],"stateMutability":"view","type":"function"},{"inputs":[{"internalType":"uint256","name":"amount","type":"uint256"}],"name":"burn","outputs":[],"stateMutability":"nonpayable","type":"function"},{"inputs":[{"internalType":"uint256","name":"amount","type":"uint256"}],"name":"burnExcessSupply","outputs":[],"stateMutability":"nonpayable","type":"function"},{"inputs":[{"internalType":"address","name":"account","type":"address"},{"internalType":"uint256","name":"amount","type":"uint256"}],"name":"burnFrom","outputs":[],"stateMutability":"nonpayable","type":"function"},{"inputs":[{"internalType":"uint256","name":"usdcAmount","type":"uint256"}],"name":"buybackTokens","outputs":[],"stateMutability":"nonpayable","type":"function"},{"inputs":[{"internalType":"address","name":"","type":"address"}],"name":"creatorIncentivesEarned","outputs":[{"internalType":"uint256","name":"","type":"uint256"}],"stateMutability":"view","type":"function"},{"inputs":[],"name":"creatorRewardsPool","outputs":[{"internalType":"address","name":"","type":"address"}],"stateMutability":"view","type":"function"},{"inputs":[],"name":"dailyUserRewardLimit","outputs":[{"internalType":"uint256","name":"","type":"uint256"}],"stateMutability":"view","type":"function"},{"inputs":[],"name":"decimals","outputs":[{"internalType":"uint8","name":"","type":"uint8"}],"stateMutability":"view","type":"function"},{"inputs":[{"internalType":"address","name":"spender","type":"address"},{"internalType":"uint256","name":"subtractedValue","type":"uint256"}],"name":"decreaseAllowance","outputs":[{"internalType":"bool","name":"","type":"bool"}],"stateMutability":"nonpayable","type":"function"},{"inputs":[{"internalType":"uint256","name":"amount","type":"uint256"},{"internalType":"string","name":"fromPool","type":"string"}],"name":"emergencyPoolRebalance","outputs":[],"stateMutability":"nonpayable","type":"function"},{"inputs":[],"name":"getPoolSustainabilityMetrics","outputs":[{"internalType":"uint256","name":"userRewardsRemaining","type":"uint256"},{"internalType":"uint256","name":"dailyBurnRate","type":"uint256"},{"internalType":"uint256","name":"daysRemaining","type":"uint256"},{"internalType":"uint256","name":"monthlyReplenishmentRate","type":"uint256"},{"internalType":"bool","name":"isSustainable","type":"bool"}],"stateMutability":"view","type":"function"},{"inputs":[{"internalType":"address","name":"user","type":"address"}],"name":"getStakingInfo","outputs":[{"internalType":"uint256","name":"amount","type":"uint256"},{"internalType":"uint256","name":"stakingTime","type":"uint256"},{"internalType":"uint256","name":"lockPeriod","type":"uint256"},{"internalType":"uint256","name":"discountTier","type":"uint256"},{"internalType":"bool","name":"isUnlocked","type":"bool"}],"stateMutability":"view","type":"function"},{"inputs":[{"internalType":"address","name":"user","type":"address"}],"name":"getUserDiscount","outputs":[{"internalType":"uint256","name":"","type":"uint256"}],"stateMutability":"view","type":"function"},{"inputs":[],"name":"governancePool","outputs":[{"internalType":"address","name":"","type":"address"}],"stateMutability":"view","type":"function"},{"inputs":[{"internalType":"address","name":"spender","type":"address"},{"internalType":"uint256","name":"addedValue","type":"uint256"}],"name":"increaseAllowance","outputs":[{"internalType":"bool","name":"","type":"bool"}],"stateMutability":"nonpayable","type":"function"},{"inputs":[],"name":"lastReplenishmentTime","outputs":[{"internalType":"uint256","name":"","type":"uint256"}],"stateMutability":"view","type":"function"},{"inputs":[{"internalType":"address","name":"","type":"address"}],"name":"lastRewardClaim","outputs":[{"internalType":"uint256","name":"","type":"uint256"}],"stateMutability":"view","type":"function"},{"inputs":[],"name":"monthlyRevenue","outputs":[{"internalType":"uint256","name":"","type":"uint256"}],"stateMutability":"view","type":"function"},{"inputs":[],"name":"name","outputs":[{"internalType":"string","name":"","type":"string"}],"stateMutability":"view","type":"function"},{"inputs":[],"name":"owner","outputs":[{"internalType":"address","name":"","type":"address"}],"stateMutability":"view","type":"function"},{"inputs":[],"name":"pause","outputs":[],"stateMutability":"nonpayable","type":"function"},{"inputs":[],"name":"paused","outputs":[{"internalType":"bool","name":"","type":"bool"}],"stateMutability":"view","type":"function"},{"inputs":[{"internalType":"address","name":"creator","type":"address"},{"internalType":"uint256","name":"amount","type":"uint256"}],"name":"payCreatorIncentive","outputs":[],"stateMutability":"nonpayable","type":"function"},{"inputs":[],"name":"platformTreasury","outputs":[{"internalType":"address","name":"","type":"address"}],"stateMutability":"view","type":"function"},{"inputs":[],"name":"referralReward","outputs":[{"internalType":"uint256","name":"","type":"uint256"}],"stateMutability":"view","type":"function"},{"inputs":[],"name":"renounceOwnership","outputs":[],"stateMutability":"nonpayable","type":"function"},{"inputs":[{"internalType":"uint256","name":"usdcAmount","type":"uint256"}],"name":"replenishRewardsPool","outputs":[],"stateMutability":"nonpayable","type":"function"},{"inputs":[{"internalType":"address","name":"user","type":"address"},{"internalType":"uint256","name":"amount","type":"uint256"},{"internalType":"string","name":"rewardType","type":"string"}],"name":"rewardUser","outputs":[],"stateMutability":"nonpayable","type":"function"},{"inputs":[{"internalType":"address","name":"_tokenAMM","type":"address"}],"name":"setTokenAMM","outputs":[],"stateMutability":"nonpayable","type":"function"},{"inputs":[{"internalType":"uint256","name":"amount","type":"uint256"},{"internalType":"uint256","name":"lockPeriod","type":"uint256"}],"name":"stakeForDiscount","outputs":[],"stateMutability":"nonpayable","type":"function"},{"inputs":[{"internalType":"address","name":"","type":"address"}],"name":"stakingInfo","outputs":[{"internalType":"uint256","name":"amount","type":"uint256"},{"internalType":"uint256","name":"stakingTime","type":"uint256"},{"internalType":"uint256","name":"lockPeriod","type":"uint256"},{"internalType":"uint256","name":"discountTier","type":"uint256"}],"stateMutability":"view","type":"function"},{"inputs":[],"name":"symbol","outputs":[{"internalType":"string","name":"","type":"string"}],"stateMutability":"view","type":"function"},{"inputs":[],"name":"tokenAMM","outputs":[{"internalType":"contract TokenAMM","name":"","type":"address"}],"stateMutability":"view","type":"function"},{"inputs":[],"name":"totalBuybacks","outputs":[{"internalType":"uint256","name":"","type":"uint256"}],"stateMutability":"view","type":"function"},{"inputs":[],"name":"totalReplenished","outputs":[{"internalType":"uint256","name":"","type":"uint256"}],"stateMutability":"view","type":"function"},{"inputs":[],"name":"totalStaked","outputs":[{"internalType":"uint256","name":"","type":"uint256"}],"stateMutability":"view","type":"function"},{"inputs":[],"name":"totalSupply","outputs":[{"internalType":"uint256","name":"","type":"uint256"}],"stateMutability":"view","type":"function"},{"inputs":[{"internalType":"address","name":"to","type":"address"},{"internalType":"uint256","name":"amount","type":"uint256"}],"name":"transfer","outputs":[{"internalType":"bool","name":"","type":"bool"}],"stateMutability":"nonpayable","type":"function"},{"inputs":[{"internalType":"address","name":"from","type":"address"},{"internalType":"address","name":"to","type":"address"},{"internalType":"uint256","name":"amount","type":"uint256"}],"name":"transferFrom","outputs":[{"internalType":"bool","name":"","type":"bool"}],"stateMutability":"nonpayable","type":"function"},{"inputs":[{"internalType":"address","name":"newOwner","type":"address"}],"name":"transferOwnership","outputs":[],"stateMutability":"nonpayable","type":"function"},{"inputs":[],"name":"unpause","outputs":[],"stateMutability":"nonpayable","type":"function"},{"inputs":[],"name":"unstake","outputs":[],"stateMutability":"nonpayable","type":"function"},{"inputs":[{"internalType":"uint256","name":"_dailyLimit","type":"uint256"},{"internalType":"uint256","name":"_viewingRate","type":"uint256"},{"internalType":"uint256","name":"_referralReward","type":"uint256"}],"name":"updateRewardRates","outputs":[],"stateMutability":"nonpayable","type":"function"},{"inputs":[],"name":"usdcToken","outputs":[{"internalType":"address","name":"","type":"address"}],"stateMutability":"view","type":"function"},{"inputs":[{"internalType":"address","name":"","type":"address"}],"name":"userRewardsEarned","outputs":[{"internalType":"uint256","name":"","type":"uint256"}],"stateMutability":"view","type":"function"},{"inputs":[],"name":"userRewardsPool","outputs":[{"internalType":"address","name":"","type":"address"}],"stateMutability":"view","type":"function"},{"inputs":[],"name":"viewingRewardRate","outputs":[{"internalType":"uint256","name":"","type":"uint256"}],"stateMutability":"view","type":"function"}],"evm":{"bytecode":{"linkReferences":{},"object":"6080604052346106ac57612def60a0813803918261001c816106b0565b9384928339810103126106ac57610032816106d5565b61003e602083016106d5565b9161004b604082016106d5565b610063608061005c606085016106d5565b93016106d5565b9261006e60406106b0565b600c81526b29ba3ab234b7902a37b5b2b760a11b602082015261009160406106b0565b600381526253544360e81b6020820152815190916001600160401b0382116105af5760035490600182811c921680156106a2575b60208310146105915781601f849311610634575b50602090601f83116001146105ce575f926105c3575b50508160011b915f199060031b1c1916176003555b8051906001600160401b0382116105af5760045490600182811c921680156105a5575b60208310146105915781601f849311610523575b50602090601f83116001146104bd575f926104b2575b50508160011b915f199060031b1c1916176004555b60058054336001600160a01b0319821681179092556001600160a01b03167f8be0079c531659141344cd1fd0a4f28419497f9722a3daafe3b4186f6b6457e05f80a360016006556007805460ff191690556802b5e3af16b1880000601155674563918244f4000060125568056bc75e2d63100000601355600b80546001600160a01b03199081166001600160a01b03938416908117909255600c8054821697841697909717909655600d8054871693831693909317909255600e8054861693821693909317909255601080549094169290911691909117909155801561046d5760ff60075416610435576002546af8277896582678ac000000810180911161042157600255805f525f60205260405f206af8277896582678ac00000081540190555f5f516020612dcf5f395f51905f5260206040516af8277896582678ac0000008152a3600c546001600160a01b0316801561046d5760ff60075416610435576002546b019d971e4fe8401e74000000810180911161042157600255805f525f60205260405f206b019d971e4fe8401e7400000081540190555f5f516020612dcf5f395f51905f5260206040516b019d971e4fe8401e740000008152a3600d546001600160a01b0316801561046d5760ff60075416610435576002546b033b2e3c9fd0803ce8000000810180911161042157600255805f525f60205260405f206b033b2e3c9fd0803ce800000081540190555f5f516020612dcf5f395f51905f5260206040516b033b2e3c9fd0803ce80000008152a3600e546001600160a01b0316801561046d5760ff60075416610435576002546aa56fa5b99019a5c8000000810180911161042157600255805f525f60205260405f206aa56fa5b99019a5c800000081540190555f5f516020612dcf5f395f51905f5260206040516aa56fa5b99019a5c80000008152a36040516126e590816106ea8239f35b634e487b7160e01b5f52601160045260245ffd5b60405162461bcd60e51b815260206004820152601060248201526f14185d5cd8589b194e881c185d5cd95960821b6044820152606490fd5b60405162461bcd60e51b815260206004820152601f60248201527f45524332303a206d696e7420746f20746865207a65726f2061646472657373006044820152606490fd5b015190505f80610151565b60045f9081528281209350601f198516905b81811061050b57509084600195949392106104f3575b505050811b01600455610166565b01515f1960f88460031b161c191690555f80806104e5565b929360206001819287860151815501950193016104cf565b60045f529091507f8a35acfbc15ff81a39ae7d344fd709f28e8600b4aa8c65c6b64bfe7fe36bd19b601f840160051c81019160208510610587575b90601f859493920160051c01905b818110610579575061013b565b5f815584935060010161056c565b909150819061055e565b634e487b7160e01b5f52602260045260245ffd5b91607f1691610127565b634e487b7160e01b5f52604160045260245ffd5b015190505f806100ef565b60035f9081528281209350601f198516905b81811061061c5750908460019594939210610604575b505050811b01600355610104565b01515f1960f88460031b161c191690555f80806105f6565b929360206001819287860151815501950193016105e0565b60035f529091507fc2575a0e9e593c00f959f8c92f12db2869c3395a3b0502d05e2516446f71f85b601f840160051c81019160208510610698575b90601f859493920160051c01905b81811061068a57506100d9565b5f815584935060010161067d565b909150819061066f565b91607f16916100c5565b5f80fd5b6040519190601f01601f191682016001600160401b038111838210176105af57604052565b51906001600160a01b03821682036106ac5756fe6080806040526004361015610012575f80fd5b5f905f3560e01c908163057c4db814611ef95750806306fdde0314611e05578063095ea7b314611ddf5780630b71e00b14611dc25780630deb344814611da557806311eac85514611d7d57806318160ddd14611d605780631a5e3c9d14611d3a5780631bf3b46e14611c2057806323b872dd14611be85780632d25232514611bc05780632def662014611ab65780633034033714611a91578063313ce56714611a765780633950935114611a285780633ce62d9f14611a0b5780633f4ba83a1461197857806342966c681461195957806347c5cd2a146117845780634d683674146117675780635c975abb14611745578063624c0cdd1461160757806364906198146113dc5780636f7e3cc2146113be57806370a0823114611385578063715018a614611328578063778603eb1461115a57806379cc679014611126578063817b1cd2146111085780638456cb59146110ad57806384fb3a9a146110815780638da5cb5b14611058578063902d55a51461103157806394eecb5014610fd557806395d89b4114610ec85780639b6c701c14610e8f578063a457c2d714610dec578063a79775ed14610dc6578063a9059cbb14610d94578063aa4704f314610cf2578063b0c5900114610a53578063ba75909714610852578063bca671ed14610819578063bcc6cc41146107ea578063bea5b7951461062c578063cb31c6f914610603578063cb371f83146105e5578063cfdb2146146105bc578063d405d8d114610595578063d8ad52311461055c578063d93fd0ac14610472578063dd62ed3e1461041f578063de67507c14610401578063e0d571ce1461037a578063e138818c146103515763f2fde38b14610286575f80fd5b3461034e57602036600319011261034e5761029f611f40565b6102a761224d565b6001600160a01b031680156102fa57600580546001600160a01b0319811683179091556001600160a01b03167f8be0079c531659141344cd1fd0a4f28419497f9722a3daafe3b4186f6b6457e08380a380f35b60405162461bcd60e51b815260206004820152602660248201527f4f776e61626c653a206e6577206f776e657220697320746865207a65726f206160448201526564647265737360d01b6064820152608490fd5b80fd5b503461034e578060031936011261034e57600b546040516001600160a01b039091168152602090f35b503461034e57602036600319011261034e57610394611f40565b61039c61224d565b6001600160a01b031680156103c6576bffffffffffffffffffffffff60a01b600f541617600f5580f35b60405162461bcd60e51b8152602060048201526013602482015272496e76616c696420414d4d206164647265737360681b6044820152606490fd5b503461034e578060031936011261034e576020601754604051908152f35b503461034e57604036600319011261034e57604061043b611f40565b91610444611f56565b9260018060a01b031681526001602052209060018060a01b03165f52602052602060405f2054604051908152f35b503461034e578060031936011261034e57600d546001600160a01b03165f908152602081905260409020546011546103e88102918183046103e8148215171561054857801561054257821561052e578281045b60175490601e820293828504601e148315171561051a576175300294808604601e148115171561051a576040805194855260208501919091528301526060820152911115608082015290508060a081015b0390f35b634e487b7160e01b87526011600452602487fd5b634e487b7160e01b84526012600452602484fd5b836104c5565b634e487b7160e01b84526011600452602484fd5b503461034e57602036600319011261034e576020906040906001600160a01b03610584611f40565b168152600a83522054604051908152f35b503461034e578060031936011261034e5760206040516b033b2e3c9fd0803ce80000008152f35b503461034e578060031936011261034e57600e546040516001600160a01b039091168152602090f35b503461034e578060031936011261034e576020601654604051908152f35b503461034e578060031936011261034e57600f546040516001600160a01b039091168152602090f35b503461034e57602036600319011261034e5760043561064961224d565b61065481151561207e565b600b546001600160a01b03165f8181526020819052604090205490919081116107a5578115610752576106856122a5565b8183528260205260408320548181106106fe57828261dead9492859387528660205203604086205581855284602052604085208381540190555f5160206126905f395f51905f526020604051858152a3600b546040519182526001600160a01b0316905f5160206126905f395f51905f5290602090a380f35b60405162461bcd60e51b815260206004820152602660248201527f45524332303a207472616e7366657220616d6f756e7420657863656564732062604482015265616c616e636560d01b6064820152608490fd5b60405162461bcd60e51b815260206004820152602560248201527f45524332303a207472616e736665722066726f6d20746865207a65726f206164604482015264647265737360d81b6064820152608490fd5b60405162461bcd60e51b815260206004820152601d60248201527f496e73756666696369656e742074726561737572792062616c616e63650000006044820152606490fd5b503461034e57606036600319011261034e5761080461224d565b60043560115560243560125560443560135580f35b503461034e57602036600319011261034e576020906040906001600160a01b03610841611f40565b168152600983522054604051908152f35b503461034e5761086136611f6c565b610869612445565b6108716122a5565b8115610a1e576276a70081148015610a12575b8015610a05575b80156109f8575b156109c457338352826020528160408420541061098857816108b782610954946125d0565b913385526014602052604085206108cf83825461202a565b90553385526014602052426001604087200155338552601460205280600260408720015533855260146020528260036040872001556109108260155461202a565b60155561091e8230336122e9565b60405191825260208201527fdd2a19c3bdd089cbe77c04f5655f83de0504d6140d12c8667646f55d0557c4dc60403392a2612596565b6040519081527f166b66141eddf1022b455c0df20ff3fc626cc5a985b305ac9be44e4481e32e3b60203392a2600160065580f35b60405162461bcd60e51b8152602060048201526014602482015273496e73756666696369656e742062616c616e636560601b6044820152606490fd5b60405162461bcd60e51b815260206004820152600c60248201526b496e76616c6964206c6f636b60a01b6044820152606490fd5b506303c267008114610892565b506301e13380811461088b565b5062ed4e008114610884565b60405162461bcd60e51b815260206004820152600d60248201526c496e76616c6964207374616b6560981b6044820152606490fd5b503461034e57602036600319011261034e57600435610a7061224d565b610a78612445565b600f54610a8f906001600160a01b03161515612044565b610a9a81151561207e565b6010546040516323b872dd60e01b815233600482015230602482015260448101839052906020908290606490829087906001600160a01b03165af18015610cca57610cd5575b50601054600f5460405163095ea7b360e01b81526001600160a01b0391821660048201526024810184905291602091839160449183918891165af18015610cca57610c9d575b5030825281602052604082205482602060018060a01b03600f541660446040518094819363f10de81b60e01b83528860048401528160248401525af18015610c9257610c4f575b505f5160206126705f395f51905f52917f19d7be5674e942aab4e8ddacce8deac21b36cdba15a7741bd125850aa0dad417610c0e610bb9610c4494308852876020526040882054612037565b92610bcf8460018060a01b03600d5416306122e9565b610bdb8160165461202a565b601655610bea8460175461202a565b60175542601981905560408051928352602083018690528201529081906060820190565b0390a160405191829182608091815260406020820152600c60408201526b757365725f7265776172647360a01b60608201520190565b0390a1600160065580f35b916020833d602011610c8a575b81610c6960209383611fb2565b81010312610c865791505f5160206126705f395f51905f52610b6d565b5f80fd5b3d9150610c5c565b6040513d86823e3d90fd5b610cbe9060203d602011610cc3575b610cb68183611fb2565b8101906120bb565b610b26565b503d610cac565b6040513d85823e3d90fd5b610ced9060203d602011610cc357610cb68183611fb2565b610ae0565b503461034e57602036600319011261034e576040906001600160a01b03610d17611f40565b16815260146020522060405190610d2d82611f82565b6105168154918284526060600182015494856020820152600360028401549384604084015201549182910152610d63828661202a565b421015916040519586958693909594919260809360a086019786526020860152604085015260608401521515910152565b503461034e57604036600319011261034e57610dbb610db1611f40565b60243590336122e9565b602060405160018152f35b503461034e578060031936011261034e5760206040516aa56fa5b99019a5c80000008152f35b503461034e57604036600319011261034e57610e06611f40565b60406024359233815260016020522060018060a01b0382165f5260205260405f205491808310610e3c57610dbb92039033612149565b60405162461bcd60e51b815260206004820152602560248201527f45524332303a2064656372656173656420616c6c6f77616e63652062656c6f77604482015264207a65726f60d81b6064820152608490fd5b503461034e57602036600319011261034e576020906040906001600160a01b03610eb7611f40565b168152600883522054604051908152f35b503461034e578060031936011261034e576040519080600454908160011c91600181168015610fcb575b602084108114610fb757838652908115610f905750600114610f33575b61051684610f1f81860382611fb2565b604051918291602083526020830190611f1c565b600481527f8a35acfbc15ff81a39ae7d344fd709f28e8600b4aa8c65c6b64bfe7fe36bd19b939250905b808210610f7657509091508101602001610f1f82610f0f565b919260018160209254838588010152019101909291610f5d565b60ff191660208087019190915292151560051b85019092019250610f1f9150839050610f0f565b634e487b7160e01b83526022600452602483fd5b92607f1692610ef2565b503461034e57602036600319011261034e576080906040906001600160a01b03610ffd611f40565b1681526014602052208054906001810154906003600282015491015491604051938452602084015260408301526060820152f35b503461034e578060031936011261034e5760206040516b06765c793fa10079d00000008152f35b503461034e578060031936011261034e576005546040516001600160a01b039091168152602090f35b503461034e57602036600319011261034e5760206110a56110a0611f40565b6120d3565b604051908152f35b503461034e578060031936011261034e576110c661224d565b6110ce6122a5565b600160ff1960075416176007557f62e78cea01bee320cd4e420270b5ea74000d11b0c9f74754ebdbfc544b05a2586020604051338152a180f35b503461034e578060031936011261034e576020601554604051908152f35b503461034e57604036600319011261034e57611157611143611f40565b602435906111528233836123ad565b61249b565b80f35b503461034e57604036600319011261034e5760043560243567ffffffffffffffff81116113245761118f903690600401611fd4565b61119761224d565b6111a282151561207e565b805160208201908120916040926008602085516111bf8782611fb2565b8281520167706c6174666f726d60c01b815220145f146112ab575050600b546001600160a01b03165b6001600160a01b0381168452602084905281842054831161125b5791601360809261122d835f5160206126705f395f51905f529660018060a01b03600d5416906122e9565b805192835280602084015282015272656d657267656e63795f726562616c616e636560681b6060820152a180f35b815162461bcd60e51b815260206004820152602360248201527f496e73756666696369656e742062616c616e636520696e20736f7572636520706044820152621bdbdb60ea1b6064820152608490fd5b519020600a602083516112be8582611fb2565b8281520169676f7665726e616e636560b01b815220145f146112eb57600e546001600160a01b03166111e8565b5162461bcd60e51b8152602060048201526013602482015272125b9d985b1a59081cdbdd5c98d9481c1bdbdb606a1b6044820152606490fd5b8280fd5b503461034e578060031936011261034e5761134161224d565b600580546001600160a01b0319811690915581906001600160a01b03167f8be0079c531659141344cd1fd0a4f28419497f9722a3daafe3b4186f6b6457e08280a380f35b503461034e57602036600319011261034e5760206110a56113a4611f40565b6001600160a01b03165f9081526020819052604090205490565b503461034e578060031936011261034e576020601254604051908152f35b503461034e57606036600319011261034e576113f6611f40565b6024359060443567ffffffffffffffff81116116035761141a903690600401611fd4565b61142261224d565b61142a6122a5565b6001600160a01b0382169283156115cf57801561158a57838552600a60205260408520546201518081018091116115765742101561152f57838552600860205261147881604087205461202a565b601154106114f3576114d1817fc7207087d1b9602815027342116944238a53ba3db91a70042ead521a6fcff5c8945b8688526008602052604088206114be83825461202a565b9055600d546001600160a01b03166122e9565b6114ed6040519283928352604060208401526040830190611f1c565b0390a280f35b60405162461bcd60e51b815260206004820152601460248201527311185a5b1e481b1a5b5a5d08195e18d95959195960621b6044820152606490fd5b6114d1817fc7207087d1b9602815027342116944238a53ba3db91a70042ead521a6fcff5c8948688526008602052876040812055868852600a6020524260408920556114a7565b634e487b7160e01b86526011600452602486fd5b60405162461bcd60e51b815260206004820152601760248201527f526577617264206d75737420626520706f7369746976650000000000000000006044820152606490fd5b60405162461bcd60e51b815260206004820152600c60248201526b24b73b30b634b2103ab9b2b960a11b6044820152606490fd5b8380fd5b5034610c86576020366003190112610c865760043561162461224d565b600f5461168c9060209083906001600160a01b0316611644811515612044565b61164f82151561207e565b60105460405163095ea7b360e01b81526001600160a01b0392831660048201526024810193909352919384929091169082905f9082906044820190565b03925af1801561171d57611728575b50600f546001600160a01b0316803b15610c86575f8091602460405180948193636869c67360e01b83528760048401525af1801561171d57611707575b5060207fd2c5a6b66fbd4c28346666274dd95b77fd31d5c730deb119439b2b5482deafc991604051908152a180f35b6117149192505f90611fb2565b5f9060206116d8565b6040513d5f823e3d90fd5b6117409060203d602011610cc357610cb68183611fb2565b61169b565b34610c86575f366003190112610c8657602060ff600754166040519015158152f35b34610c86575f366003190112610c86576020601354604051908152f35b34610c865761179236611f6c565b61179a61224d565b6117a2612445565b6064811161191f5780820290828204148215171561190b5760646117ca91049160185461202a565b601855801515806117dd575b6001600655005b6020826118039261164f60018060a01b03600f5416916117fe831515612044565b61207e565b03925af1801561171d576118ee575b50305f525f60205260405f20545f602060018060a01b03600f541660446040518094819363f10de81b60e01b83528860048401528160248401525af1801561171d576118af575b505f5160206126705f395f51905f52917f19d7be5674e942aab4e8ddacce8deac21b36cdba15a7741bd125850aa0dad417610c0e610bb96118a594305f525f60205260405f2054612037565b0390a180806117d6565b916020833d6020116118e6575b816118c960209383611fb2565b81010312610c865791505f5160206126705f395f51905f52611859565b3d91506118bc565b6119069060203d602011610cc357610cb68183611fb2565b611812565b634e487b7160e01b5f52601160045260245ffd5b60405162461bcd60e51b8152602060048201526012602482015271496e76616c69642070657263656e7461676560701b6044820152606490fd5b34610c86576020366003190112610c86576119766004353361249b565b005b34610c86575f366003190112610c865761199061224d565b60075460ff8116156119cf5760ff19166007557f5db9ee0a495bf2e6ff9c91a7834c1ba4fdd244a5e8aa4e537bd38aeae4b073aa6020604051338152a1005b60405162461bcd60e51b815260206004820152601460248201527314185d5cd8589b194e881b9bdd081c185d5cd95960621b6044820152606490fd5b34610c86575f366003190112610c86576020601954604051908152f35b34610c86576040366003190112610c8657610dbb611a44611f40565b335f52600160205260405f2060018060a01b0382165f52602052611a6f60405f20602435905461202a565b9033612149565b34610c86575f366003190112610c8657602060405160128152f35b34610c86575f366003190112610c865760206040516af8277896582678ac0000008152f35b34610c86575f366003190112610c8657611ace612445565b335f52601460205260405f208054908115611b8a576001810190815490611afb600282019283549061202a565b4210611b5c575f60039281809581855555550155611b1b81601554612037565b601555611b298133306122e9565b6040519081527f9845e367b683334e5c0b12d7b81721ac518e649376fa65e3d68324e8f34f267960203392a26001600655005b60405162461bcd60e51b8152602060048201526006602482015265131bd8dad95960d21b6044820152606490fd5b60405162461bcd60e51b815260206004820152600e60248201526d139bdd1a1a5b99c81cdd185ad95960921b6044820152606490fd5b34610c86575f366003190112610c8657600c546040516001600160a01b039091168152602090f35b34610c86576060366003190112610c8657610dbb611c04611f40565b611c0c611f56565b60443591611c1b8333836123ad565b6122e9565b34610c86576040366003190112610c8657611c39611f40565b602435611c4461224d565b611c4c6122a5565b6001600160a01b038216918215611d03578115611cbe5781611cb57fe876cc410803e6d5fe8014d579482bf680a25d7d9b96f30d08634efaeb1f81bc93602093865f526009855260405f20611ca283825461202a565b9055600c546001600160a01b03166122e9565b604051908152a2005b60405162461bcd60e51b815260206004820152601a60248201527f496e63656e74697665206d75737420626520706f7369746976650000000000006044820152606490fd5b60405162461bcd60e51b815260206004820152600f60248201526e24b73b30b634b21031b932b0ba37b960891b6044820152606490fd5b34610c86575f366003190112610c865760206040516b019d971e4fe8401e740000008152f35b34610c86575f366003190112610c86576020600254604051908152f35b34610c86575f366003190112610c86576010546040516001600160a01b039091168152602090f35b34610c86575f366003190112610c86576020601154604051908152f35b34610c86575f366003190112610c86576020601854604051908152f35b34610c86576040366003190112610c8657610dbb611dfb611f40565b6024359033612149565b34610c86575f366003190112610c86576040515f6003548060011c90600181168015611eef575b602083108114611edb57828552908115611eb75750600114611e59575b61051683610f1f81850382611fb2565b91905060035f527fc2575a0e9e593c00f959f8c92f12db2869c3395a3b0502d05e2516446f71f85b915f905b808210611e9d57509091508101602001610f1f611e49565b919260018160209254838588010152019101909291611e85565b60ff191660208086019190915291151560051b84019091019150610f1f9050611e49565b634e487b7160e01b5f52602260045260245ffd5b91607f1691611e2c565b34610c86575f366003190112610c8657600d546001600160a01b03168152602090f35b805180835260209291819084018484015e5f828201840152601f01601f1916010190565b600435906001600160a01b0382168203610c8657565b602435906001600160a01b0382168203610c8657565b6040906003190112610c86576004359060243590565b6080810190811067ffffffffffffffff821117611f9e57604052565b634e487b7160e01b5f52604160045260245ffd5b90601f8019910116810190811067ffffffffffffffff821117611f9e57604052565b81601f82011215610c865780359067ffffffffffffffff8211611f9e5760405192612009601f8401601f191660200185611fb2565b82845260208383010111610c8657815f926020809301838601378301015290565b9190820180921161190b57565b9190820391821161190b57565b1561204b57565b60405162461bcd60e51b815260206004820152600b60248201526a105353481b9bdd081cd95d60aa1b6044820152606490fd5b1561208557565b60405162461bcd60e51b815260206004820152600e60248201526d125b9d985b1a5908185b5bdd5b9d60921b6044820152606490fd5b90816020910312610c8657518015158103610c865790565b60018060a01b03165f52601460205260405f20604051906120f382611f82565b8054908183526001810154918260208501526060600360028401549384604088015201549401938452156121425761212a9161202a565b421061213557505f90565b61213f9051612596565b90565b5050505f90565b6001600160a01b03169081156121fc576001600160a01b03169182156121ac5760207f8c5be1e5ebec7d5bd14f71427d1e84f3dd0314c0f7b2291e5b200ac8c7c3b92591835f526001825260405f20855f5282528060405f2055604051908152a3565b60405162461bcd60e51b815260206004820152602260248201527f45524332303a20617070726f766520746f20746865207a65726f206164647265604482015261737360f01b6064820152608490fd5b60405162461bcd60e51b8152602060048201526024808201527f45524332303a20617070726f76652066726f6d20746865207a65726f206164646044820152637265737360e01b6064820152608490fd5b6005546001600160a01b0316330361226157565b606460405162461bcd60e51b815260206004820152602060248201527f4f776e61626c653a2063616c6c6572206973206e6f7420746865206f776e65726044820152fd5b60ff600754166122b157565b60405162461bcd60e51b815260206004820152601060248201526f14185d5cd8589b194e881c185d5cd95960821b6044820152606490fd5b6001600160a01b0316908115610752576001600160a01b031691821561235c576123116122a5565b815f525f60205260405f20548181106106fe57815f5160206126905f395f51905f5292602092855f525f84520360405f2055845f525f825260405f20818154019055604051908152a3565b60405162461bcd60e51b815260206004820152602360248201527f45524332303a207472616e7366657220746f20746865207a65726f206164647260448201526265737360e81b6064820152608490fd5b9060018060a01b0382165f52600160205260405f2060018060a01b0382165f5260205260405f2054925f1984036123e5575b50505050565b808410612400576123f7930391612149565b5f8080806123df565b60405162461bcd60e51b815260206004820152601d60248201527f45524332303a20696e73756666696369656e7420616c6c6f77616e63650000006044820152606490fd5b600260065414612456576002600655565b60405162461bcd60e51b815260206004820152601f60248201527f5265656e7472616e637947756172643a207265656e7472616e742063616c6c006044820152606490fd5b6001600160a01b03168015612547576124b26122a5565b805f525f60205260405f2054918083106124f7576020815f5160206126905f395f51905f52925f958587528684520360408620558060025403600255604051908152a3565b60405162461bcd60e51b815260206004820152602260248201527f45524332303a206275726e20616d6f756e7420657863656564732062616c616e604482015261636560f01b6064820152608490fd5b60405162461bcd60e51b815260206004820152602160248201527f45524332303a206275726e2066726f6d20746865207a65726f206164647265736044820152607360f81b6064820152608490fd5b600181146125ca57600281146125c457600381146125be576004146125b9575f90565b603290565b50602390565b50601490565b50600a90565b691fc3842bd1f071c0000081101561265a57690a968163f0a57b4000008110156126455769032d26d12e980b6000008110156126305769010f0cf064dd59200000111561261c57505f90565b6303c267001161262b57600290565b600190565b506303c267001161264057600390565b600290565b506303c267001161265557600490565b600390565b506303c267001161266a57600490565b60049056fe2a9565427c30ec85c6645c285a5c911f49dcd2360efa9cb858979eadbc5700ecddf252ad1be2c89b69c2b068fc378daa952ba7f163c4a11628f55a4df523b3efa2646970667358221220c5ff08ecd32efedb49f1c7deeefe0a6d094412e03bc54604ff3931a85a6a5ea064736f6c634300081c0033ddf252ad1be2c89b69c2b068fc378daa952ba7f163c4a11628f55a4df523b3ef","opcodes":"PUSH1 0x80 PUSH1 0x40 MSTORE CALLVALUE PUSH2 0x6AC JUMPI PUSH2 0x2DEF PUSH1 0xA0 DUP2 CODESIZE SUB SWAP2 DUP3 PUSH2 0x1C DUP2 PUSH2 0x6B0 JUMP JUMPDEST SWAP4 DUP5 SWAP3 DUP4 CODECOPY DUP2 ADD SUB SLT PUSH2 0x6AC JUMPI PUSH2 0x32 DUP2 PUSH2 0x6D5 JUMP JUMPDEST PUSH2 0x3E PUSH1 0x20 DUP4 ADD PUSH2 0x6D5 JUMP JUMPDEST SWAP2 PUSH2 0x4B PUSH1 0x40 DUP3 ADD PUSH2 0x6D5 JUMP JUMPDEST PUSH2 0x63 PUSH1 0x80 PUSH2 0x5C PUSH1 0x60 DUP6 ADD PUSH2 0x6D5 JUMP JUMPDEST SWAP4 ADD PUSH2 0x6D5 JUMP JUMPDEST SWAP3 PUSH2 0x6E PUSH1 0x40 PUSH2 0x6B0 JUMP JUMPDEST PUSH1 0xC DUP2 MSTORE PUSH12 0x29BA3AB234B7902A37B5B2B7 PUSH1 0xA1 SHL PUSH1 0x20 DUP3 ADD MSTORE PUSH2 0x91 PUSH1 0x40 PUSH2 0x6B0 JUMP JUMPDEST PUSH1 0x3 DUP2 MSTORE PUSH3 0x535443 PUSH1 0xE8 SHL PUSH1 0x20 DUP3 ADD MSTORE DUP2 MLOAD SWAP1 SWAP2 PUSH1 0x1 PUSH1 0x1 PUSH1 0x40 SHL SUB DUP3 GT PUSH2 0x5AF JUMPI PUSH1 0x3 SLOAD SWAP1 PUSH1 0x1 DUP3 DUP2 SHR SWAP3 AND DUP1 ISZERO PUSH2 0x6A2 JUMPI JUMPDEST PUSH1 0x20 DUP4 LT EQ PUSH2 0x591 JUMPI DUP2 PUSH1 0x1F DUP5 SWAP4 GT PUSH2 0x634 JUMPI JUMPDEST POP PUSH1 0x20 SWAP1 PUSH1 0x1F DUP4 GT PUSH1 0x1 EQ PUSH2 0x5CE JUMPI PUSH0 SWAP3 PUSH2 0x5C3 JUMPI JUMPDEST POP POP DUP2 PUSH1 0x1 SHL SWAP2 PUSH0 NOT SWAP1 PUSH1 0x3 SHL SHR NOT AND OR PUSH1 0x3 SSTORE JUMPDEST DUP1 MLOAD SWAP1 PUSH1 0x1 PUSH1 0x1 PUSH1 0x40 SHL SUB DUP3 GT PUSH2 0x5AF JUMPI PUSH1 0x4 SLOAD SWAP1 PUSH1 0x1 DUP3 DUP2 SHR SWAP3 AND DUP1 ISZERO PUSH2 0x5A5 JUMPI JUMPDEST PUSH1 0x20 DUP4 LT EQ PUSH2 0x591 JUMPI DUP2 PUSH1 0x1F DUP5 SWAP4 GT PUSH2 0x523 JUMPI JUMPDEST POP PUSH1 0x20 SWAP1 PUSH1 0x1F DUP4 GT PUSH1 0x1 EQ PUSH2 0x4BD JUMPI PUSH0 SWAP3 PUSH2 0x4B2 JUMPI JUMPDEST POP POP DUP2 PUSH1 0x1 SHL SWAP2 PUSH0 NOT SWAP1 PUSH1 0x3 SHL SHR NOT AND OR PUSH1 0x4 SSTORE JUMPDEST PUSH1 0x5 DUP1 SLOAD CALLER PUSH1 0x1 PUSH1 0x1 PUSH1 0xA0 SHL SUB NOT DUP3 AND DUP2 OR SWAP1 SWAP3 SSTORE PUSH1 0x1 PUSH1 0x1 PUSH1 0xA0 SHL SUB AND PUSH32 0x8BE0079C531659141344CD1FD0A4F28419497F9722A3DAAFE3B4186F6B6457E0 PUSH0 DUP1 LOG3 PUSH1 0x1 PUSH1 0x6 SSTORE PUSH1 0x7 DUP1 SLOAD PUSH1 0xFF NOT AND SWAP1 SSTORE PUSH9 0x2B5E3AF16B1880000 PUSH1 0x11 SSTORE PUSH8 0x4563918244F40000 PUSH1 0x12 SSTORE PUSH9 0x56BC75E2D63100000 PUSH1 0x13 SSTORE PUSH1 0xB DUP1 SLOAD PUSH1 0x1 PUSH1 0x1 PUSH1 0xA0 SHL SUB NOT SWAP1 DUP2 AND PUSH1 0x1 PUSH1 0x1 PUSH1 0xA0 SHL SUB SWAP4 DUP5 AND SWAP1 DUP2 OR SWAP1 SWAP3 SSTORE PUSH1 0xC DUP1 SLOAD DUP3 AND SWAP8 DUP5 AND SWAP8 SWAP1 SWAP8 OR SWAP1 SWAP7 SSTORE PUSH1 0xD DUP1 SLOAD DUP8 AND SWAP4 DUP4 AND SWAP4 SWAP1 SWAP4 OR SWAP1 SWAP3 SSTORE PUSH1 0xE DUP1 SLOAD DUP7 AND SWAP4 DUP3 AND SWAP4 SWAP1 SWAP4 OR SWAP1 SWAP3 SSTORE PUSH1 0x10 DUP1 SLOAD SWAP1 SWAP5 AND SWAP3 SWAP1 SWAP2 AND SWAP2 SWAP1 SWAP2 OR SWAP1 SWAP2 SSTORE DUP1 ISZERO PUSH2 0x46D JUMPI PUSH1 0xFF PUSH1 0x7 SLOAD AND PUSH2 0x435 JUMPI PUSH1 0x2 SLOAD PUSH11 0xF8277896582678AC000000 DUP2 ADD DUP1 SWAP2 GT PUSH2 0x421 JUMPI PUSH1 0x2 SSTORE DUP1 PUSH0 MSTORE PUSH0 PUSH1 0x20 MSTORE PUSH1 0x40 PUSH0 KECCAK256 PUSH11 0xF8277896582678AC000000 DUP2 SLOAD ADD SWAP1 SSTORE PUSH0 PUSH0 MLOAD PUSH1 0x20 PUSH2 0x2DCF PUSH0 CODECOPY PUSH0 MLOAD SWAP1 PUSH0 MSTORE PUSH1 0x20 PUSH1 0x40 MLOAD PUSH11 0xF8277896582678AC000000 DUP2 MSTORE LOG3 PUSH1 0xC SLOAD PUSH1 0x1 PUSH1 0x1 PUSH1 0xA0 SHL SUB AND DUP1 ISZERO PUSH2 0x46D JUMPI PUSH1 0xFF PUSH1 0x7 SLOAD AND PUSH2 0x435 JUMPI PUSH1 0x2 SLOAD PUSH12 0x19D971E4FE8401E74000000 DUP2 ADD DUP1 SWAP2 GT PUSH2 0x421 JUMPI PUSH1 0x2 SSTORE DUP1 PUSH0 MSTORE PUSH0 PUSH1 0x20 MSTORE PUSH1 0x40 PUSH0 KECCAK256 PUSH12 0x19D971E4FE8401E74000000 DUP2 SLOAD ADD SWAP1 SSTORE PUSH0 PUSH0 MLOAD PUSH1 0x20 PUSH2 0x2DCF PUSH0 CODECOPY PUSH0 MLOAD SWAP1 PUSH0 MSTORE PUSH1 0x20 PUSH1 0x40 MLOAD PUSH12 0x19D971E4FE8401E74000000 DUP2 MSTORE LOG3 PUSH1 0xD SLOAD PUSH1 0x1 PUSH1 0x1 PUSH1 0xA0 SHL SUB AND DUP1 ISZERO PUSH2 0x46D JUMPI PUSH1 0xFF PUSH1 0x7 SLOAD AND PUSH2 0x435 JUMPI PUSH1 0x2 SLOAD PUSH12 0x33B2E3C9FD0803CE8000000 DUP2 ADD DUP1 SWAP2 GT PUSH2 0x421 JUMPI PUSH1 0x2 SSTORE DUP1 PUSH0 MSTORE PUSH0 PUSH1 0x20 MSTORE PUSH1 0x40 PUSH0 KECCAK256 PUSH12 0x33B2E3C9FD0803CE8000000 DUP2 SLOAD ADD SWAP1 SSTORE PUSH0 PUSH0 MLOAD PUSH1 0x20 PUSH2 0x2DCF PUSH0 CODECOPY PUSH0 MLOAD SWAP1 PUSH0 MSTORE PUSH1 0x20 PUSH1 0x40 MLOAD PUSH12 0x33B2E3C9FD0803CE8000000 DUP2 MSTORE LOG3 PUSH1 0xE SLOAD PUSH1 0x1 PUSH1 0x1 PUSH1 0xA0 SHL SUB AND DUP1 ISZERO PUSH2 0x46D JUMPI PUSH1 0xFF PUSH1 0x7 SLOAD AND PUSH2 0x435 JUMPI PUSH1 0x2 SLOAD PUSH11 0xA56FA5B99019A5C8000000 DUP2 ADD DUP1 SWAP2 GT PUSH2 0x421 JUMPI PUSH1 0x2 SSTORE DUP1 PUSH0 MSTORE PUSH0 PUSH1 0x20 MSTORE PUSH1 0x40 PUSH0 KECCAK256 PUSH11 0xA56FA5B99019A5C8000000 DUP2 SLOAD ADD SWAP1 SSTORE PUSH0 PUSH0 MLOAD PUSH1 0x20 PUSH2 0x2DCF PUSH0 CODECOPY PUSH0 MLOAD SWAP1 PUSH0 MSTORE PUSH1 0x20 PUSH1 0x40 MLOAD PUSH11 0xA56FA5B99019A5C8000000 DUP2 MSTORE LOG3 PUSH1 0x40 MLOAD PUSH2 0x26E5 SWAP1 DUP2 PUSH2 0x6EA DUP3 CODECOPY RETURN JUMPDEST PUSH4 0x4E487B71 PUSH1 0xE0 SHL PUSH0 MSTORE PUSH1 0x11 PUSH1 0x4 MSTORE PUSH1 0x24 PUSH0 REVERT JUMPDEST PUSH1 0x40 MLOAD PUSH3 0x461BCD PUSH1 0xE5 SHL DUP2 MSTORE PUSH1 0x20 PUSH1 0x4 DUP3 ADD MSTORE PUSH1 0x10 PUSH1 0x24 DUP3 ADD MSTORE PUSH16 0x14185D5CD8589B194E881C185D5CD959 PUSH1 0x82 SHL PUSH1 0x44 DUP3 ADD MSTORE PUSH1 0x64 SWAP1 REVERT JUMPDEST PUSH1 0x40 MLOAD PUSH3 0x461BCD PUSH1 0xE5 SHL DUP2 MSTORE PUSH1 0x20 PUSH1 0x4 DUP3 ADD MSTORE PUSH1 0x1F PUSH1 0x24 DUP3 ADD MSTORE PUSH32 0x45524332303A206D696E7420746F20746865207A65726F206164647265737300 PUSH1 0x44 DUP3 ADD MSTORE PUSH1 0x64 SWAP1 REVERT JUMPDEST ADD MLOAD SWAP1 POP PUSH0 DUP1 PUSH2 0x151 JUMP JUMPDEST PUSH1 0x4 PUSH0 SWAP1 DUP2 MSTORE DUP3 DUP2 KECCAK256 SWAP4 POP PUSH1 0x1F NOT DUP6 AND SWAP1 JUMPDEST DUP2 DUP2 LT PUSH2 0x50B JUMPI POP SWAP1 DUP5 PUSH1 0x1 SWAP6 SWAP5 SWAP4 SWAP3 LT PUSH2 0x4F3 JUMPI JUMPDEST POP POP POP DUP2 SHL ADD PUSH1 0x4 SSTORE PUSH2 0x166 JUMP JUMPDEST ADD MLOAD PUSH0 NOT PUSH1 0xF8 DUP5 PUSH1 0x3 SHL AND SHR NOT AND SWAP1 SSTORE PUSH0 DUP1 DUP1 PUSH2 0x4E5 JUMP JUMPDEST SWAP3 SWAP4 PUSH1 0x20 PUSH1 0x1 DUP2 SWAP3 DUP8 DUP7 ADD MLOAD DUP2 SSTORE ADD SWAP6 ADD SWAP4 ADD PUSH2 0x4CF JUMP JUMPDEST PUSH1 0x4 PUSH0 MSTORE SWAP1 SWAP2 POP PUSH32 0x8A35ACFBC15FF81A39AE7D344FD709F28E8600B4AA8C65C6B64BFE7FE36BD19B PUSH1 0x1F DUP5 ADD PUSH1 0x5 SHR DUP2 ADD SWAP2 PUSH1 0x20 DUP6 LT PUSH2 0x587 JUMPI JUMPDEST SWAP1 PUSH1 0x1F DUP6 SWAP5 SWAP4 SWAP3 ADD PUSH1 0x5 SHR ADD SWAP1 JUMPDEST DUP2 DUP2 LT PUSH2 0x579 JUMPI POP PUSH2 0x13B JUMP JUMPDEST PUSH0 DUP2 SSTORE DUP5 SWAP4 POP PUSH1 0x1 ADD PUSH2 0x56C JUMP JUMPDEST SWAP1 SWAP2 POP DUP2 SWAP1 PUSH2 0x55E JUMP JUMPDEST PUSH4 0x4E487B71 PUSH1 0xE0 SHL PUSH0 MSTORE PUSH1 0x22 PUSH1 0x4 MSTORE PUSH1 0x24 PUSH0 REVERT JUMPDEST SWAP2 PUSH1 0x7F AND SWAP2 PUSH2 0x127 JUMP JUMPDEST PUSH4 0x4E487B71 PUSH1 0xE0 SHL PUSH0 MSTORE PUSH1 0x41 PUSH1 0x4 MSTORE PUSH1 0x24 PUSH0 REVERT JUMPDEST ADD MLOAD SWAP1 POP PUSH0 DUP1 PUSH2 0xEF JUMP JUMPDEST PUSH1 0x3 PUSH0 SWAP1 DUP2 MSTORE DUP3 DUP2 KECCAK256 SWAP4 POP PUSH1 0x1F NOT DUP6 AND SWAP1 JUMPDEST DUP2 DUP2 LT PUSH2 0x61C JUMPI POP SWAP1 DUP5 PUSH1 0x1 SWAP6 SWAP5 SWAP4 SWAP3 LT PUSH2 0x604 JUMPI JUMPDEST POP POP POP DUP2 SHL ADD PUSH1 0x3 SSTORE PUSH2 0x104 JUMP JUMPDEST ADD MLOAD PUSH0 NOT PUSH1 0xF8 DUP5 PUSH1 0x3 SHL AND SHR NOT AND SWAP1 SSTORE PUSH0 DUP1 DUP1 PUSH2 0x5F6 JUMP JUMPDEST SWAP3 SWAP4 PUSH1 0x20 PUSH1 0x1 DUP2 SWAP3 DUP8 DUP7 ADD MLOAD DUP2 SSTORE ADD SWAP6 ADD SWAP4 ADD PUSH2 0x5E0 JUMP JUMPDEST PUSH1 0x3 PUSH0 MSTORE SWAP1 SWAP2 POP PUSH32 0xC2575A0E9E593C00F959F8C92F12DB2869C3395A3B0502D05E2516446F71F85B PUSH1 0x1F DUP5 ADD PUSH1 0x5 SHR DUP2 ADD SWAP2 PUSH1 0x20 DUP6 LT PUSH2 0x698 JUMPI JUMPDEST SWAP1 PUSH1 0x1F DUP6 SWAP5 SWAP4 SWAP3 ADD PUSH1 0x5 SHR ADD SWAP1 JUMPDEST DUP2 DUP2 LT PUSH2 0x68A JUMPI POP PUSH2 0xD9 JUMP JUMPDEST PUSH0 DUP2 SSTORE DUP5 SWAP4 POP PUSH1 0x1 ADD PUSH2 0x67D JUMP JUMPDEST SWAP1 SWAP2 POP DUP2 SWAP1 PUSH2 0x66F JUMP JUMPDEST SWAP2 PUSH1 0x7F AND SWAP2 PUSH2 0xC5 JUMP JUMPDEST PUSH0 DUP1 REVERT JUMPDEST PUSH1 0x40 MLOAD SWAP2 SWAP1 PUSH1 0x1F ADD PUSH1 0x1F NOT AND DUP3 ADD PUSH1 0x1 PUSH1 0x1 PUSH1 0x40 SHL SUB DUP2 GT DUP4 DUP3 LT OR PUSH2 0x5AF JUMPI PUSH1 0x40 MSTORE JUMP JUMPDEST MLOAD SWAP1 PUSH1 0x1 PUSH1 0x1 PUSH1 0xA0 SHL SUB DUP3 AND DUP3 SUB PUSH2 0x6AC JUMPI JUMP INVALID PUSH1 0x80 DUP1 PUSH1 0x40 MSTORE PUSH1 0x4 CALLDATASIZE LT ISZERO PUSH2 0x12 JUMPI PUSH0 DUP1 REVERT JUMPDEST PUSH0 SWAP1 PUSH0 CALLDATALOAD PUSH1 0xE0 SHR SWAP1 DUP2 PUSH4 0x57C4DB8 EQ PUSH2 0x1EF9 JUMPI POP DUP1 PUSH4 0x6FDDE03 EQ PUSH2 0x1E05 JUMPI DUP1 PUSH4 0x95EA7B3 EQ PUSH2 0x1DDF JUMPI DUP1 PUSH4 0xB71E00B EQ PUSH2 0x1DC2 JUMPI DUP1 PUSH4 0xDEB3448 EQ PUSH2 0x1DA5 JUMPI DUP1 PUSH4 0x11EAC855 EQ PUSH2 0x1D7D JUMPI DUP1 PUSH4 0x18160DDD EQ PUSH2 0x1D60 JUMPI DUP1 PUSH4 0x1A5E3C9D EQ PUSH2 0x1D3A JUMPI DUP1 PUSH4 0x1BF3B46E EQ PUSH2 0x1C20 JUMPI DUP1 PUSH4 0x23B872DD EQ PUSH2 0x1BE8 JUMPI DUP1 PUSH4 0x2D252325 EQ PUSH2 0x1BC0 JUMPI DUP1 PUSH4 0x2DEF6620 EQ PUSH2 0x1AB6 JUMPI DUP1 PUSH4 0x30340337 EQ PUSH2 0x1A91 JUMPI DUP1 PUSH4 0x313CE567 EQ PUSH2 0x1A76 JUMPI DUP1 PUSH4 0x39509351 EQ PUSH2 0x1A28 JUMPI DUP1 PUSH4 0x3CE62D9F EQ PUSH2 0x1A0B JUMPI DUP1 PUSH4 0x3F4BA83A EQ PUSH2 0x1978 JUMPI DUP1 PUSH4 0x42966C68 EQ PUSH2 0x1959 JUMPI DUP1 PUSH4 0x47C5CD2A EQ PUSH2 0x1784 JUMPI DUP1 PUSH4 0x4D683674 EQ PUSH2 0x1767 JUMPI DUP1 PUSH4 0x5C975ABB EQ PUSH2 0x1745 JUMPI DUP1 PUSH4 0x624C0CDD EQ PUSH2 0x1607 JUMPI DUP1 PUSH4 0x64906198 EQ PUSH2 0x13DC JUMPI DUP1 PUSH4 0x6F7E3CC2 EQ PUSH2 0x13BE JUMPI DUP1 PUSH4 0x70A08231 EQ PUSH2 0x1385 JUMPI DUP1 PUSH4 0x715018A6 EQ PUSH2 0x1328 JUMPI DUP1 PUSH4 0x778603EB EQ PUSH2 0x115A JUMPI DUP1 PUSH4 0x79CC6790 EQ PUSH2 0x1126 JUMPI DUP1 PUSH4 0x817B1CD2 EQ PUSH2 0x1108 JUMPI DUP1 PUSH4 0x8456CB59 EQ PUSH2 0x10AD JUMPI DUP1 PUSH4 0x84FB3A9A EQ PUSH2 0x1081 JUMPI DUP1 PUSH4 0x8DA5CB5B EQ PUSH2 0x1058 JUMPI DUP1 PUSH4 0x902D55A5 EQ PUSH2 0x1031 JUMPI DUP1 PUSH4 0x94EECB50 EQ PUSH2 0xFD5 JUMPI DUP1 PUSH4 0x95D89B41 EQ PUSH2 0xEC8 JUMPI DUP1 PUSH4 0x9B6C701C EQ PUSH2 0xE8F JUMPI DUP1 PUSH4 0xA457C2D7 EQ PUSH2 0xDEC JUMPI DUP1 PUSH4 0xA79775ED EQ PUSH2 0xDC6 JUMPI DUP1 PUSH4 0xA9059CBB EQ PUSH2 0xD94 JUMPI DUP1 PUSH4 0xAA4704F3 EQ PUSH2 0xCF2 JUMPI DUP1 PUSH4 0xB0C59001 EQ PUSH2 0xA53 JUMPI DUP1 PUSH4 0xBA759097 EQ PUSH2 0x852 JUMPI DUP1 PUSH4 0xBCA671ED EQ PUSH2 0x819 JUMPI DUP1 PUSH4 0xBCC6CC41 EQ PUSH2 0x7EA JUMPI DUP1 PUSH4 0xBEA5B795 EQ PUSH2 0x62C JUMPI DUP1 PUSH4 0xCB31C6F9 EQ PUSH2 0x603 JUMPI DUP1 PUSH4 0xCB371F83 EQ PUSH2 0x5E5 JUMPI DUP1 PUSH4 0xCFDB2146 EQ PUSH2 0x5BC JUMPI DUP1 PUSH4 0xD405D8D1 EQ PUSH2 0x595 JUMPI DUP1 PUSH4 0xD8AD5231 EQ PUSH2 0x55C JUMPI DUP1 PUSH4 0xD93FD0AC EQ PUSH2 0x472 JUMPI DUP1 PUSH4 0xDD62ED3E EQ PUSH2 0x41F JUMPI DUP1 PUSH4 0xDE67507C EQ PUSH2 0x401 JUMPI DUP1 PUSH4 0xE0D571CE EQ PUSH2 0x37A JUMPI DUP1 PUSH4 0xE138818C EQ PUSH2 0x351 JUMPI PUSH4 0xF2FDE38B EQ PUSH2 0x286 JUMPI PUSH0 DUP1 REVERT JUMPDEST CALLVALUE PUSH2 0x34E JUMPI PUSH1 0x20 CALLDATASIZE PUSH1 0x3 NOT ADD SLT PUSH2 0x34E JUMPI PUSH2 0x29F PUSH2 0x1F40 JUMP JUMPDEST PUSH2 0x2A7 PUSH2 0x224D JUMP JUMPDEST PUSH1 0x1 PUSH1 0x1 PUSH1 0xA0 SHL SUB AND DUP1 ISZERO PUSH2 0x2FA JUMPI PUSH1 0x5 DUP1 SLOAD PUSH1 0x1 PUSH1 0x1 PUSH1 0xA0 SHL SUB NOT DUP2 AND DUP4 OR SWAP1 SWAP2 SSTORE PUSH1 0x1 PUSH1 0x1 PUSH1 0xA0 SHL SUB AND PUSH32 0x8BE0079C531659141344CD1FD0A4F28419497F9722A3DAAFE3B4186F6B6457E0 DUP4 DUP1 LOG3 DUP1 RETURN JUMPDEST PUSH1 0x40 MLOAD PUSH3 0x461BCD PUSH1 0xE5 SHL DUP2 MSTORE PUSH1 0x20 PUSH1 0x4 DUP3 ADD MSTORE PUSH1 0x26 PUSH1 0x24 DUP3 ADD MSTORE PUSH32 0x4F776E61626C653A206E6577206F776E657220697320746865207A65726F2061 PUSH1 0x44 DUP3 ADD MSTORE PUSH6 0x646472657373 PUSH1 0xD0 SHL PUSH1 0x64 DUP3 ADD MSTORE PUSH1 0x84 SWAP1 REVERT JUMPDEST DUP1 REVERT JUMPDEST POP CALLVALUE PUSH2 0x34E JUMPI DUP1 PUSH1 0x3 NOT CALLDATASIZE ADD SLT PUSH2 0x34E JUMPI PUSH1 0xB SLOAD PUSH1 0x40 MLOAD PUSH1 0x1 PUSH1 0x1 PUSH1 0xA0 SHL SUB SWAP1 SWAP2 AND DUP2 MSTORE PUSH1 0x20 SWAP1 RETURN JUMPDEST POP CALLVALUE PUSH2 0x34E JUMPI PUSH1 0x20 CALLDATASIZE PUSH1 0x3 NOT ADD SLT PUSH2 0x34E JUMPI PUSH2 0x394 PUSH2 0x1F40 JUMP JUMPDEST PUSH2 0x39C PUSH2 0x224D JUMP JUMPDEST PUSH1 0x1 PUSH1 0x1 PUSH1 0xA0 SHL SUB AND DUP1 ISZERO PUSH2 0x3C6 JUMPI PUSH12 0xFFFFFFFFFFFFFFFFFFFFFFFF PUSH1 0xA0 SHL PUSH1 0xF SLOAD AND OR PUSH1 0xF SSTORE DUP1 RETURN JUMPDEST PUSH1 0x40 MLOAD PUSH3 0x461BCD PUSH1 0xE5 SHL DUP2 MSTORE PUSH1 0x20 PUSH1 0x4 DUP3 ADD MSTORE PUSH1 0x13 PUSH1 0x24 DUP3 ADD MSTORE PUSH19 0x496E76616C696420414D4D2061646472657373 PUSH1 0x68 SHL PUSH1 0x44 DUP3 ADD MSTORE PUSH1 0x64 SWAP1 REVERT JUMPDEST POP CALLVALUE PUSH2 0x34E JUMPI DUP1 PUSH1 0x3 NOT CALLDATASIZE ADD SLT PUSH2 0x34E JUMPI PUSH1 0x20 PUSH1 0x17 SLOAD PUSH1 0x40 MLOAD SWAP1 DUP2 MSTORE RETURN JUMPDEST POP CALLVALUE PUSH2 0x34E JUMPI PUSH1 0x40 CALLDATASIZE PUSH1 0x3 NOT ADD SLT PUSH2 0x34E JUMPI PUSH1 0x40 PUSH2 0x43B PUSH2 0x1F40 JUMP JUMPDEST SWAP2 PUSH2 0x444 PUSH2 0x1F56 JUMP JUMPDEST SWAP3 PUSH1 0x1 DUP1 PUSH1 0xA0 SHL SUB AND DUP2 MSTORE PUSH1 0x1 PUSH1 0x20 MSTORE KECCAK256 SWAP1 PUSH1 0x1 DUP1 PUSH1 0xA0 SHL SUB AND PUSH0 MSTORE PUSH1 0x20 MSTORE PUSH1 0x20 PUSH1 0x40 PUSH0 KECCAK256 SLOAD PUSH1 0x40 MLOAD SWAP1 DUP2 MSTORE RETURN JUMPDEST POP CALLVALUE PUSH2 0x34E JUMPI DUP1 PUSH1 0x3 NOT CALLDATASIZE ADD SLT PUSH2 0x34E JUMPI PUSH1 0xD SLOAD PUSH1 0x1 PUSH1 0x1 PUSH1 0xA0 SHL SUB AND PUSH0 SWAP1 DUP2 MSTORE PUSH1 0x20 DUP2 SWAP1 MSTORE PUSH1 0x40 SWAP1 KECCAK256 SLOAD PUSH1 0x11 SLOAD PUSH2 0x3E8 DUP2 MUL SWAP2 DUP2 DUP4 DIV PUSH2 0x3E8 EQ DUP3 ISZERO OR ISZERO PUSH2 0x548 JUMPI DUP1 ISZERO PUSH2 0x542 JUMPI DUP3 ISZERO PUSH2 0x52E JUMPI DUP3 DUP2 DIV JUMPDEST PUSH1 0x17 SLOAD SWAP1 PUSH1 0x1E DUP3 MUL SWAP4 DUP3 DUP6 DIV PUSH1 0x1E EQ DUP4 ISZERO OR ISZERO PUSH2 0x51A JUMPI PUSH2 0x7530 MUL SWAP5 DUP1 DUP7 DIV PUSH1 0x1E EQ DUP2 ISZERO OR ISZERO PUSH2 0x51A JUMPI PUSH1 0x40 DUP1 MLOAD SWAP5 DUP6 MSTORE PUSH1 0x20 DUP6 ADD SWAP2 SWAP1 SWAP2 MSTORE DUP4 ADD MSTORE PUSH1 0x60 DUP3 ADD MSTORE SWAP2 GT ISZERO PUSH1 0x80 DUP3 ADD MSTORE SWAP1 POP DUP1 PUSH1 0xA0 DUP2 ADD JUMPDEST SUB SWAP1 RETURN JUMPDEST PUSH4 0x4E487B71 PUSH1 0xE0 SHL DUP8 MSTORE PUSH1 0x11 PUSH1 0x4 MSTORE PUSH1 0x24 DUP8 REVERT JUMPDEST PUSH4 0x4E487B71 PUSH1 0xE0 SHL DUP5 MSTORE PUSH1 0x12 PUSH1 0x4 MSTORE PUSH1 0x24 DUP5 REVERT JUMPDEST DUP4 PUSH2 0x4C5 JUMP JUMPDEST PUSH4 0x4E487B71 PUSH1 0xE0 SHL DUP5 MSTORE PUSH1 0x11 PUSH1 0x4 MSTORE PUSH1 0x24 DUP5 REVERT JUMPDEST POP CALLVALUE PUSH2 0x34E JUMPI PUSH1 0x20 CALLDATASIZE PUSH1 0x3 NOT ADD SLT PUSH2 0x34E JUMPI PUSH1 0x20 SWAP1 PUSH1 0x40 SWAP1 PUSH1 0x1 PUSH1 0x1 PUSH1 0xA0 SHL SUB PUSH2 0x584 PUSH2 0x1F40 JUMP JUMPDEST AND DUP2 MSTORE PUSH1 0xA DUP4 MSTORE KECCAK256 SLOAD PUSH1 0x40 MLOAD SWAP1 DUP2 MSTORE RETURN JUMPDEST POP CALLVALUE PUSH2 0x34E JUMPI DUP1 PUSH1 0x3 NOT CALLDATASIZE ADD SLT PUSH2 0x34E JUMPI PUSH1 0x20 PUSH1 0x40 MLOAD PUSH12 0x33B2E3C9FD0803CE8000000 DUP2 MSTORE RETURN JUMPDEST POP CALLVALUE PUSH2 0x34E JUMPI DUP1 PUSH1 0x3 NOT CALLDATASIZE ADD SLT PUSH2 0x34E JUMPI PUSH1 0xE SLOAD PUSH1 0x40 MLOAD PUSH1 0x1 PUSH1 0x1 PUSH1 0xA0 SHL SUB SWAP1 SWAP2 AND DUP2 MSTORE PUSH1 0x20 SWAP1 RETURN JUMPDEST POP CALLVALUE PUSH2 0x34E JUMPI DUP1 PUSH1 0x3 NOT CALLDATASIZE ADD SLT PUSH2 0x34E JUMPI PUSH1 0x20 PUSH1 0x16 SLOAD PUSH1 0x40 MLOAD SWAP1 DUP2 MSTORE RETURN JUMPDEST POP CALLVALUE PUSH2 0x34E JUMPI DUP1 PUSH1 0x3 NOT CALLDATASIZE ADD SLT PUSH2 0x34E JUMPI PUSH1 0xF SLOAD PUSH1 0x40 MLOAD PUSH1 0x1 PUSH1 0x1 PUSH1 0xA0 SHL SUB SWAP1 SWAP2 AND DUP2 MSTORE PUSH1 0x20 SWAP1 RETURN JUMPDEST POP CALLVALUE PUSH2 0x34E JUMPI PUSH1 0x20 CALLDATASIZE PUSH1 0x3 NOT ADD SLT PUSH2 0x34E JUMPI PUSH1 0x4 CALLDATALOAD PUSH2 0x649 PUSH2 0x224D JUMP JUMPDEST PUSH2 0x654 DUP2 ISZERO ISZERO PUSH2 0x207E JUMP JUMPDEST PUSH1 0xB SLOAD PUSH1 0x1 PUSH1 0x1 PUSH1 0xA0 SHL SUB AND PUSH0 DUP2 DUP2 MSTORE PUSH1 0x20 DUP2 SWAP1 MSTORE PUSH1 0x40 SWAP1 KECCAK256 SLOAD SWAP1 SWAP2 SWAP1 DUP2 GT PUSH2 0x7A5 JUMPI DUP2 ISZERO PUSH2 0x752 JUMPI PUSH2 0x685 PUSH2 0x22A5 JUMP JUMPDEST DUP2 DUP4 MSTORE DUP3 PUSH1 0x20 MSTORE PUSH1 0x40 DUP4 KECCAK256 SLOAD DUP2 DUP2 LT PUSH2 0x6FE JUMPI DUP3 DUP3 PUSH2 0xDEAD SWAP5 SWAP3 DUP6 SWAP4 DUP8 MSTORE DUP7 PUSH1 0x20 MSTORE SUB PUSH1 0x40 DUP7 KECCAK256 SSTORE DUP2 DUP6 MSTORE DUP5 PUSH1 0x20 MSTORE PUSH1 0x40 DUP6 KECCAK256 DUP4 DUP2 SLOAD ADD SWAP1 SSTORE PUSH0 MLOAD PUSH1 0x20 PUSH2 0x2690 PUSH0 CODECOPY PUSH0 MLOAD SWAP1 PUSH0 MSTORE PUSH1 0x20 PUSH1 0x40 MLOAD DUP6 DUP2 MSTORE LOG3 PUSH1 0xB SLOAD PUSH1 0x40 MLOAD SWAP2 DUP3 MSTORE PUSH1 0x1 PUSH1 0x1 PUSH1 0xA0 SHL SUB AND SWAP1 PUSH0 MLOAD PUSH1 0x20 PUSH2 0x2690 PUSH0 CODECOPY PUSH0 MLOAD SWAP1 PUSH0 MSTORE SWAP1 PUSH1 0x20 SWAP1 LOG3 DUP1 RETURN JUMPDEST PUSH1 0x40 MLOAD PUSH3 0x461BCD PUSH1 0xE5 SHL DUP2 MSTORE PUSH1 0x20 PUSH1 0x4 DUP3 ADD MSTORE PUSH1 0x26 PUSH1 0x24 DUP3 ADD MSTORE PUSH32 0x45524332303A207472616E7366657220616D6F756E7420657863656564732062 PUSH1 0x44 DUP3 ADD MSTORE PUSH6 0x616C616E6365 PUSH1 0xD0 SHL PUSH1 0x64 DUP3 ADD MSTORE PUSH1 0x84 SWAP1 REVERT JUMPDEST PUSH1 0x40 MLOAD PUSH3 0x461BCD PUSH1 0xE5 SHL DUP2 MSTORE PUSH1 0x20 PUSH1 0x4 DUP3 ADD MSTORE PUSH1 0x25 PUSH1 0x24 DUP3 ADD MSTORE PUSH32 0x45524332303A207472616E736665722066726F6D20746865207A65726F206164 PUSH1 0x44 DUP3 ADD MSTORE PUSH5 0x6472657373 PUSH1 0xD8 SHL PUSH1 0x64 DUP3 ADD MSTORE PUSH1 0x84 SWAP1 REVERT JUMPDEST PUSH1 0x40 MLOAD PUSH3 0x461BCD PUSH1 0xE5 SHL DUP2 MSTORE PUSH1 0x20 PUSH1 0x4 DUP3 ADD MSTORE PUSH1 0x1D PUSH1 0x24 DUP3 ADD MSTORE PUSH32 0x496E73756666696369656E742074726561737572792062616C616E6365000000 PUSH1 0x44 DUP3 ADD MSTORE PUSH1 0x64 SWAP1 REVERT JUMPDEST POP CALLVALUE PUSH2 0x34E JUMPI PUSH1 0x60 CALLDATASIZE PUSH1 0x3 NOT ADD SLT PUSH2 0x34E JUMPI PUSH2 0x804 PUSH2 0x224D JUMP JUMPDEST PUSH1 0x4 CALLDATALOAD PUSH1 0x11 SSTORE PUSH1 0x24 CALLDATALOAD PUSH1 0x12 SSTORE PUSH1 0x44 CALLDATALOAD PUSH1 0x13 SSTORE DUP1 RETURN JUMPDEST POP CALLVALUE PUSH2 0x34E JUMPI PUSH1 0x20 CALLDATASIZE PUSH1 0x3 NOT ADD SLT PUSH2 0x34E JUMPI PUSH1 0x20 SWAP1 PUSH1 0x40 SWAP1 PUSH1 0x1 PUSH1 0x1 PUSH1 0xA0 SHL SUB PUSH2 0x841 PUSH2 0x1F40 JUMP JUMPDEST AND DUP2 MSTORE PUSH1 0x9 DUP4 MSTORE KECCAK256 SLOAD PUSH1 0x40 MLOAD SWAP1 DUP2 MSTORE RETURN JUMPDEST POP CALLVALUE PUSH2 0x34E JUMPI PUSH2 0x861 CALLDATASIZE PUSH2 0x1F6C JUMP JUMPDEST PUSH2 0x869 PUSH2 0x2445 JUMP JUMPDEST PUSH2 0x871 PUSH2 0x22A5 JUMP JUMPDEST DUP2 ISZERO PUSH2 0xA1E JUMPI PUSH3 0x76A700 DUP2 EQ DUP1 ISZERO PUSH2 0xA12 JUMPI JUMPDEST DUP1 ISZERO PUSH2 0xA05 JUMPI JUMPDEST DUP1 ISZERO PUSH2 0x9F8 JUMPI JUMPDEST ISZERO PUSH2 0x9C4 JUMPI CALLER DUP4 MSTORE DUP3 PUSH1 0x20 MSTORE DUP2 PUSH1 0x40 DUP5 KECCAK256 SLOAD LT PUSH2 0x988 JUMPI DUP2 PUSH2 0x8B7 DUP3 PUSH2 0x954 SWAP5 PUSH2 0x25D0 JUMP JUMPDEST SWAP2 CALLER DUP6 MSTORE PUSH1 0x14 PUSH1 0x20 MSTORE PUSH1 0x40 DUP6 KECCAK256 PUSH2 0x8CF DUP4 DUP3 SLOAD PUSH2 0x202A JUMP JUMPDEST SWAP1 SSTORE CALLER DUP6 MSTORE PUSH1 0x14 PUSH1 0x20 MSTORE TIMESTAMP PUSH1 0x1 PUSH1 0x40 DUP8 KECCAK256 ADD SSTORE CALLER DUP6 MSTORE PUSH1 0x14 PUSH1 0x20 MSTORE DUP1 PUSH1 0x2 PUSH1 0x40 DUP8 KECCAK256 ADD SSTORE CALLER DUP6 MSTORE PUSH1 0x14 PUSH1 0x20 MSTORE DUP3 PUSH1 0x3 PUSH1 0x40 DUP8 KECCAK256 ADD SSTORE PUSH2 0x910 DUP3 PUSH1 0x15 SLOAD PUSH2 0x202A JUMP JUMPDEST PUSH1 0x15 SSTORE PUSH2 0x91E DUP3 ADDRESS CALLER PUSH2 0x22E9 JUMP JUMPDEST PUSH1 0x40 MLOAD SWAP2 DUP3 MSTORE PUSH1 0x20 DUP3 ADD MSTORE PUSH32 0xDD2A19C3BDD089CBE77C04F5655F83DE0504D6140D12C8667646F55D0557C4DC PUSH1 0x40 CALLER SWAP3 LOG2 PUSH2 0x2596 JUMP JUMPDEST PUSH1 0x40 MLOAD SWAP1 DUP2 MSTORE PUSH32 0x166B66141EDDF1022B455C0DF20FF3FC626CC5A985B305AC9BE44E4481E32E3B PUSH1 0x20 CALLER SWAP3 LOG2 PUSH1 0x1 PUSH1 0x6 SSTORE DUP1 RETURN JUMPDEST PUSH1 0x40 MLOAD PUSH3 0x461BCD PUSH1 0xE5 SHL DUP2 MSTORE PUSH1 0x20 PUSH1 0x4 DUP3 ADD MSTORE PUSH1 0x14 PUSH1 0x24 DUP3 ADD MSTORE PUSH20 0x496E73756666696369656E742062616C616E6365 PUSH1 0x60 SHL PUSH1 0x44 DUP3 ADD MSTORE PUSH1 0x64 SWAP1 REVERT JUMPDEST PUSH1 0x40 MLOAD PUSH3 0x461BCD PUSH1 0xE5 SHL DUP2 MSTORE PUSH1 0x20 PUSH1 0x4 DUP3 ADD MSTORE PUSH1 0xC PUSH1 0x24 DUP3 ADD MSTORE PUSH12 0x496E76616C6964206C6F636B PUSH1 0xA0 SHL PUSH1 0x44 DUP3 ADD MSTORE PUSH1 0x64 SWAP1 REVERT JUMPDEST POP PUSH4 0x3C26700 DUP2 EQ PUSH2 0x892 JUMP JUMPDEST POP PUSH4 0x1E13380 DUP2 EQ PUSH2 0x88B JUMP JUMPDEST POP PUSH3 0xED4E00 DUP2 EQ PUSH2 0x884 JUMP JUMPDEST PUSH1 0x40 MLOAD PUSH3 0x461BCD PUSH1 0xE5 SHL DUP2 MSTORE PUSH1 0x20 PUSH1 0x4 DUP3 ADD MSTORE PUSH1 0xD PUSH1 0x24 DUP3 ADD MSTORE PUSH13 0x496E76616C6964207374616B65 PUSH1 0x98 SHL PUSH1 0x44 DUP3 ADD MSTORE PUSH1 0x64 SWAP1 REVERT JUMPDEST POP CALLVALUE PUSH2 0x34E JUMPI PUSH1 0x20 CALLDATASIZE PUSH1 0x3 NOT ADD SLT PUSH2 0x34E JUMPI PUSH1 0x4 CALLDATALOAD PUSH2 0xA70 PUSH2 0x224D JUMP JUMPDEST PUSH2 0xA78 PUSH2 0x2445 JUMP JUMPDEST PUSH1 0xF SLOAD PUSH2 0xA8F SWAP1 PUSH1 0x1 PUSH1 0x1 PUSH1 0xA0 SHL SUB AND ISZERO ISZERO PUSH2 0x2044 JUMP JUMPDEST PUSH2 0xA9A DUP2 ISZERO ISZERO PUSH2 0x207E JUMP JUMPDEST PUSH1 0x10 SLOAD PUSH1 0x40 MLOAD PUSH4 0x23B872DD PUSH1 0xE0 SHL DUP2 MSTORE CALLER PUSH1 0x4 DUP3 ADD MSTORE ADDRESS PUSH1 0x24 DUP3 ADD MSTORE PUSH1 0x44 DUP2 ADD DUP4 SWAP1 MSTORE SWAP1 PUSH1 0x20 SWAP1 DUP3 SWAP1 PUSH1 0x64 SWAP1 DUP3 SWAP1 DUP8 SWAP1 PUSH1 0x1 PUSH1 0x1 PUSH1 0xA0 SHL SUB AND GAS CALL DUP1 ISZERO PUSH2 0xCCA JUMPI PUSH2 0xCD5 JUMPI JUMPDEST POP PUSH1 0x10 SLOAD PUSH1 0xF SLOAD PUSH1 0x40 MLOAD PUSH4 0x95EA7B3 PUSH1 0xE0 SHL DUP2 MSTORE PUSH1 0x1 PUSH1 0x1 PUSH1 0xA0 SHL SUB SWAP2 DUP3 AND PUSH1 0x4 DUP3 ADD MSTORE PUSH1 0x24 DUP2 ADD DUP5 SWAP1 MSTORE SWAP2 PUSH1 0x20 SWAP2 DUP4 SWAP2 PUSH1 0x44 SWAP2 DUP4 SWAP2 DUP9 SWAP2 AND GAS CALL DUP1 ISZERO PUSH2 0xCCA JUMPI PUSH2 0xC9D JUMPI JUMPDEST POP ADDRESS DUP3 MSTORE DUP2 PUSH1 0x20 MSTORE PUSH1 0x40 DUP3 KECCAK256 SLOAD DUP3 PUSH1 0x20 PUSH1 0x1 DUP1 PUSH1 0xA0 SHL SUB PUSH1 0xF SLOAD AND PUSH1 0x44 PUSH1 0x40 MLOAD DUP1 SWAP5 DUP2 SWAP4 PUSH4 0xF10DE81B PUSH1 0xE0 SHL DUP4 MSTORE DUP9 PUSH1 0x4 DUP5 ADD MSTORE DUP2 PUSH1 0x24 DUP5 ADD MSTORE GAS CALL DUP1 ISZERO PUSH2 0xC92 JUMPI PUSH2 0xC4F JUMPI JUMPDEST POP PUSH0 MLOAD PUSH1 0x20 PUSH2 0x2670 PUSH0 CODECOPY PUSH0 MLOAD SWAP1 PUSH0 MSTORE SWAP2 PUSH32 0x19D7BE5674E942AAB4E8DDACCE8DEAC21B36CDBA15A7741BD125850AA0DAD417 PUSH2 0xC0E PUSH2 0xBB9 PUSH2 0xC44 SWAP5 ADDRESS DUP9 MSTORE DUP8 PUSH1 0x20 MSTORE PUSH1 0x40 DUP9 KECCAK256 SLOAD PUSH2 0x2037 JUMP JUMPDEST SWAP3 PUSH2 0xBCF DUP5 PUSH1 0x1 DUP1 PUSH1 0xA0 SHL SUB PUSH1 0xD SLOAD AND ADDRESS PUSH2 0x22E9 JUMP JUMPDEST PUSH2 0xBDB DUP2 PUSH1 0x16 SLOAD PUSH2 0x202A JUMP JUMPDEST PUSH1 0x16 SSTORE PUSH2 0xBEA DUP5 PUSH1 0x17 SLOAD PUSH2 0x202A JUMP JUMPDEST PUSH1 0x17 SSTORE TIMESTAMP PUSH1 0x19 DUP2 SWAP1 SSTORE PUSH1 0x40 DUP1 MLOAD SWAP3 DUP4 MSTORE PUSH1 0x20 DUP4 ADD DUP7 SWAP1 MSTORE DUP3 ADD MSTORE SWAP1 DUP2 SWAP1 PUSH1 0x60 DUP3 ADD SWAP1 JUMP JUMPDEST SUB SWAP1 LOG1 PUSH1 0x40 MLOAD SWAP2 DUP3 SWAP2 DUP3 PUSH1 0x80 SWAP2 DUP2 MSTORE PUSH1 0x40 PUSH1 0x20 DUP3 ADD MSTORE PUSH1 0xC PUSH1 0x40 DUP3 ADD MSTORE PUSH12 0x757365725F72657761726473 PUSH1 0xA0 SHL PUSH1 0x60 DUP3 ADD MSTORE ADD SWAP1 JUMP JUMPDEST SUB SWAP1 LOG1 PUSH1 0x1 PUSH1 0x6 SSTORE DUP1 RETURN JUMPDEST SWAP2 PUSH1 0x20 DUP4 RETURNDATASIZE PUSH1 0x20 GT PUSH2 0xC8A JUMPI JUMPDEST DUP2 PUSH2 0xC69 PUSH1 0x20 SWAP4 DUP4 PUSH2 0x1FB2 JUMP JUMPDEST DUP2 ADD SUB SLT PUSH2 0xC86 JUMPI SWAP2 POP PUSH0 MLOAD PUSH1 0x20 PUSH2 0x2670 PUSH0 CODECOPY PUSH0 MLOAD SWAP1 PUSH0 MSTORE PUSH2 0xB6D JUMP JUMPDEST PUSH0 DUP1 REVERT JUMPDEST RETURNDATASIZE SWAP2 POP PUSH2 0xC5C JUMP JUMPDEST PUSH1 0x40 MLOAD RETURNDATASIZE DUP7 DUP3 RETURNDATACOPY RETURNDATASIZE SWAP1 REVERT JUMPDEST PUSH2 0xCBE SWAP1 PUSH1 0x20 RETURNDATASIZE PUSH1 0x20 GT PUSH2 0xCC3 JUMPI JUMPDEST PUSH2 0xCB6 DUP2 DUP4 PUSH2 0x1FB2 JUMP JUMPDEST DUP2 ADD SWAP1 PUSH2 0x20BB JUMP JUMPDEST PUSH2 0xB26 JUMP JUMPDEST POP RETURNDATASIZE PUSH2 0xCAC JUMP JUMPDEST PUSH1 0x40 MLOAD RETURNDATASIZE DUP6 DUP3 RETURNDATACOPY RETURNDATASIZE SWAP1 REVERT JUMPDEST PUSH2 0xCED SWAP1 PUSH1 0x20 RETURNDATASIZE PUSH1 0x20 GT PUSH2 0xCC3 JUMPI PUSH2 0xCB6 DUP2 DUP4 PUSH2 0x1FB2 JUMP JUMPDEST PUSH2 0xAE0 JUMP JUMPDEST POP CALLVALUE PUSH2 0x34E JUMPI PUSH1 0x20 CALLDATASIZE PUSH1 0x3 NOT ADD SLT PUSH2 0x34E JUMPI PUSH1 0x40 SWAP1 PUSH1 0x1 PUSH1 0x1 PUSH1 0xA0 SHL SUB PUSH2 0xD17 PUSH2 0x1F40 JUMP JUMPDEST AND DUP2 MSTORE PUSH1 0x14 PUSH1 0x20 MSTORE KECCAK256 PUSH1 0x40 MLOAD SWAP1 PUSH2 0xD2D DUP3 PUSH2 0x1F82 JUMP JUMPDEST PUSH2 0x516 DUP2 SLOAD SWAP2 DUP3 DUP5 MSTORE PUSH1 0x60 PUSH1 0x1 DUP3 ADD SLOAD SWAP5 DUP6 PUSH1 0x20 DUP3 ADD MSTORE PUSH1 0x3 PUSH1 0x2 DUP5 ADD SLOAD SWAP4 DUP5 PUSH1 0x40 DUP5 ADD MSTORE ADD SLOAD SWAP2 DUP3 SWAP2 ADD MSTORE PUSH2 0xD63 DUP3 DUP7 PUSH2 0x202A JUMP JUMPDEST TIMESTAMP LT ISZERO SWAP2 PUSH1 0x40 MLOAD SWAP6 DUP7 SWAP6 DUP7 SWAP4 SWAP1 SWAP6 SWAP5 SWAP2 SWAP3 PUSH1 0x80 SWAP4 PUSH1 0xA0 DUP7 ADD SWAP8 DUP7 MSTORE PUSH1 0x20 DUP7 ADD MSTORE PUSH1 0x40 DUP6 ADD MSTORE PUSH1 0x60 DUP5 ADD MSTORE ISZERO ISZERO SWAP2 ADD MSTORE JUMP JUMPDEST POP CALLVALUE PUSH2 0x34E JUMPI PUSH1 0x40 CALLDATASIZE PUSH1 0x3 NOT ADD SLT PUSH2 0x34E JUMPI PUSH2 0xDBB PUSH2 0xDB1 PUSH2 0x1F40 JUMP JUMPDEST PUSH1 0x24 CALLDATALOAD SWAP1 CALLER PUSH2 0x22E9 JUMP JUMPDEST PUSH1 0x20 PUSH1 0x40 MLOAD PUSH1 0x1 DUP2 MSTORE RETURN JUMPDEST POP CALLVALUE PUSH2 0x34E JUMPI DUP1 PUSH1 0x3 NOT CALLDATASIZE ADD SLT PUSH2 0x34E JUMPI PUSH1 0x20 PUSH1 0x40 MLOAD PUSH11 0xA56FA5B99019A5C8000000 DUP2 MSTORE RETURN JUMPDEST POP CALLVALUE PUSH2 0x34E JUMPI PUSH1 0x40 CALLDATASIZE PUSH1 0x3 NOT ADD SLT PUSH2 0x34E JUMPI PUSH2 0xE06 PUSH2 0x1F40 JUMP JUMPDEST PUSH1 0x40 PUSH1 0x24 CALLDATALOAD SWAP3 CALLER DUP2 MSTORE PUSH1 0x1 PUSH1 0x20 MSTORE KECCAK256 PUSH1 0x1 DUP1 PUSH1 0xA0 SHL SUB DUP3 AND PUSH0 MSTORE PUSH1 0x20 MSTORE PUSH1 0x40 PUSH0 KECCAK256 SLOAD SWAP2 DUP1 DUP4 LT PUSH2 0xE3C JUMPI PUSH2 0xDBB SWAP3 SUB SWAP1 CALLER PUSH2 0x2149 JUMP JUMPDEST PUSH1 0x40 MLOAD PUSH3 0x461BCD PUSH1 0xE5 SHL DUP2 MSTORE PUSH1 0x20 PUSH1 0x4 DUP3 ADD MSTORE PUSH1 0x25 PUSH1 0x24 DUP3 ADD MSTORE PUSH32 0x45524332303A2064656372656173656420616C6C6F77616E63652062656C6F77 PUSH1 0x44 DUP3 ADD MSTORE PUSH5 0x207A65726F PUSH1 0xD8 SHL PUSH1 0x64 DUP3 ADD MSTORE PUSH1 0x84 SWAP1 REVERT JUMPDEST POP CALLVALUE PUSH2 0x34E JUMPI PUSH1 0x20 CALLDATASIZE PUSH1 0x3 NOT ADD SLT PUSH2 0x34E JUMPI PUSH1 0x20 SWAP1 PUSH1 0x40 SWAP1 PUSH1 0x1 PUSH1 0x1 PUSH1 0xA0 SHL SUB PUSH2 0xEB7 PUSH2 0x1F40 JUMP JUMPDEST AND DUP2 MSTORE PUSH1 0x8 DUP4 MSTORE KECCAK256 SLOAD PUSH1 0x40 MLOAD SWAP1 DUP2 MSTORE RETURN JUMPDEST POP CALLVALUE PUSH2 0x34E JUMPI DUP1 PUSH1 0x3 NOT CALLDATASIZE ADD SLT PUSH2 0x34E JUMPI PUSH1 0x40 MLOAD SWAP1 DUP1 PUSH1 0x4 SLOAD SWAP1 DUP2 PUSH1 0x1 SHR SWAP2 PUSH1 0x1 DUP2 AND DUP1 ISZERO PUSH2 0xFCB JUMPI JUMPDEST PUSH1 0x20 DUP5 LT DUP2 EQ PUSH2 0xFB7 JUMPI DUP4 DUP7 MSTORE SWAP1 DUP2 ISZERO PUSH2 0xF90 JUMPI POP PUSH1 0x1 EQ PUSH2 0xF33 JUMPI JUMPDEST PUSH2 0x516 DUP5 PUSH2 0xF1F DUP2 DUP7 SUB DUP3 PUSH2 0x1FB2 JUMP JUMPDEST PUSH1 0x40 MLOAD SWAP2 DUP3 SWAP2 PUSH1 0x20 DUP4 MSTORE PUSH1 0x20 DUP4 ADD SWAP1 PUSH2 0x1F1C JUMP JUMPDEST PUSH1 0x4 DUP2 MSTORE PUSH32 0x8A35ACFBC15FF81A39AE7D344FD709F28E8600B4AA8C65C6B64BFE7FE36BD19B SWAP4 SWAP3 POP SWAP1 JUMPDEST DUP1 DUP3 LT PUSH2 0xF76 JUMPI POP SWAP1 SWAP2 POP DUP2 ADD PUSH1 0x20 ADD PUSH2 0xF1F DUP3 PUSH2 0xF0F JUMP JUMPDEST SWAP2 SWAP3 PUSH1 0x1 DUP2 PUSH1 0x20 SWAP3 SLOAD DUP4 DUP6 DUP9 ADD ADD MSTORE ADD SWAP2 ADD SWAP1 SWAP3 SWAP2 PUSH2 0xF5D JUMP JUMPDEST PUSH1 0xFF NOT AND PUSH1 0x20 DUP1 DUP8 ADD SWAP2 SWAP1 SWAP2 MSTORE SWAP3 ISZERO ISZERO PUSH1 0x5 SHL DUP6 ADD SWAP1 SWAP3 ADD SWAP3 POP PUSH2 0xF1F SWAP2 POP DUP4 SWAP1 POP PUSH2 0xF0F JUMP JUMPDEST PUSH4 0x4E487B71 PUSH1 0xE0 SHL DUP4 MSTORE PUSH1 0x22 PUSH1 0x4 MSTORE PUSH1 0x24 DUP4 REVERT JUMPDEST SWAP3 PUSH1 0x7F AND SWAP3 PUSH2 0xEF2 JUMP JUMPDEST POP CALLVALUE PUSH2 0x34E JUMPI PUSH1 0x20 CALLDATASIZE PUSH1 0x3 NOT ADD SLT PUSH2 0x34E JUMPI PUSH1 0x80 SWAP1 PUSH1 0x40 SWAP1 PUSH1 0x1 PUSH1 0x1 PUSH1 0xA0 SHL SUB PUSH2 0xFFD PUSH2 0x1F40 JUMP JUMPDEST AND DUP2 MSTORE PUSH1 0x14 PUSH1 0x20 MSTORE KECCAK256 DUP1 SLOAD SWAP1 PUSH1 0x1 DUP2 ADD SLOAD SWAP1 PUSH1 0x3 PUSH1 0x2 DUP3 ADD SLOAD SWAP2 ADD SLOAD SWAP2 PUSH1 0x40 MLOAD SWAP4 DUP5 MSTORE PUSH1 0x20 DUP5 ADD MSTORE PUSH1 0x40 DUP4 ADD MSTORE PUSH1 0x60 DUP3 ADD MSTORE RETURN JUMPDEST POP CALLVALUE PUSH2 0x34E JUMPI DUP1 PUSH1 0x3 NOT CALLDATASIZE ADD SLT PUSH2 0x34E JUMPI PUSH1 0x20 PUSH1 0x40 MLOAD PUSH12 0x6765C793FA10079D0000000 DUP2 MSTORE RETURN JUMPDEST POP CALLVALUE PUSH2 0x34E JUMPI DUP1 PUSH1 0x3 NOT CALLDATASIZE ADD SLT PUSH2 0x34E JUMPI PUSH1 0x5 SLOAD PUSH1 0x40 MLOAD PUSH1 0x1 PUSH1 0x1 PUSH1 0xA0 SHL SUB SWAP1 SWAP2 AND DUP2 MSTORE PUSH1 0x20 SWAP1 RETURN JUMPDEST POP CALLVALUE PUSH2 0x34E JUMPI PUSH1 0x20 CALLDATASIZE PUSH1 0x3 NOT ADD SLT PUSH2 0x34E JUMPI PUSH1 0x20 PUSH2 0x10A5 PUSH2 0x10A0 PUSH2 0x1F40 JUMP JUMPDEST PUSH2 0x20D3 JUMP JUMPDEST PUSH1 0x40 MLOAD SWAP1 DUP2 MSTORE RETURN JUMPDEST POP CALLVALUE PUSH2 0x34E JUMPI DUP1 PUSH1 0x3 NOT CALLDATASIZE ADD SLT PUSH2 0x34E JUMPI PUSH2 0x10C6 PUSH2 0x224D JUMP JUMPDEST PUSH2 0x10CE PUSH2 0x22A5 JUMP JUMPDEST PUSH1 0x1 PUSH1 0xFF NOT PUSH1 0x7 SLOAD AND OR PUSH1 0x7 SSTORE PUSH32 0x62E78CEA01BEE320CD4E420270B5EA74000D11B0C9F74754EBDBFC544B05A258 PUSH1 0x20 PUSH1 0x40 MLOAD CALLER DUP2 MSTORE LOG1 DUP1 RETURN JUMPDEST POP CALLVALUE PUSH2 0x34E JUMPI DUP1 PUSH1 0x3 NOT CALLDATASIZE ADD SLT PUSH2 0x34E JUMPI PUSH1 0x20 PUSH1 0x15 SLOAD PUSH1 0x40 MLOAD SWAP1 DUP2 MSTORE RETURN JUMPDEST POP CALLVALUE PUSH2 0x34E JUMPI PUSH1 0x40 CALLDATASIZE PUSH1 0x3 NOT ADD SLT PUSH2 0x34E JUMPI PUSH2 0x1157 PUSH2 0x1143 PUSH2 0x1F40 JUMP JUMPDEST PUSH1 0x24 CALLDATALOAD SWAP1 PUSH2 0x1152 DUP3 CALLER DUP4 PUSH2 0x23AD JUMP JUMPDEST PUSH2 0x249B JUMP JUMPDEST DUP1 RETURN JUMPDEST POP CALLVALUE PUSH2 0x34E JUMPI PUSH1 0x40 CALLDATASIZE PUSH1 0x3 NOT ADD SLT PUSH2 0x34E JUMPI PUSH1 0x4 CALLDATALOAD PUSH1 0x24 CALLDATALOAD PUSH8 0xFFFFFFFFFFFFFFFF DUP2 GT PUSH2 0x1324 JUMPI PUSH2 0x118F SWAP1 CALLDATASIZE SWAP1 PUSH1 0x4 ADD PUSH2 0x1FD4 JUMP JUMPDEST PUSH2 0x1197 PUSH2 0x224D JUMP JUMPDEST PUSH2 0x11A2 DUP3 ISZERO ISZERO PUSH2 0x207E JUMP JUMPDEST DUP1 MLOAD PUSH1 0x20 DUP3 ADD SWAP1 DUP2 KECCAK256 SWAP2 PUSH1 0x40 SWAP3 PUSH1 0x8 PUSH1 0x20 DUP6 MLOAD PUSH2 0x11BF DUP8 DUP3 PUSH2 0x1FB2 JUMP JUMPDEST DUP3 DUP2 MSTORE ADD PUSH8 0x706C6174666F726D PUSH1 0xC0 SHL DUP2 MSTORE KECCAK256 EQ PUSH0 EQ PUSH2 0x12AB JUMPI POP POP PUSH1 0xB SLOAD PUSH1 0x1 PUSH1 0x1 PUSH1 0xA0 SHL SUB AND JUMPDEST PUSH1 0x1 PUSH1 0x1 PUSH1 0xA0 SHL SUB DUP2 AND DUP5 MSTORE PUSH1 0x20 DUP5 SWAP1 MSTORE DUP2 DUP5 KECCAK256 SLOAD DUP4 GT PUSH2 0x125B JUMPI SWAP2 PUSH1 0x13 PUSH1 0x80 SWAP3 PUSH2 0x122D DUP4 PUSH0 MLOAD PUSH1 0x20 PUSH2 0x2670 PUSH0 CODECOPY PUSH0 MLOAD SWAP1 PUSH0 MSTORE SWAP7 PUSH1 0x1 DUP1 PUSH1 0xA0 SHL SUB PUSH1 0xD SLOAD AND SWAP1 PUSH2 0x22E9 JUMP JUMPDEST DUP1 MLOAD SWAP3 DUP4 MSTORE DUP1 PUSH1 0x20 DUP5 ADD MSTORE DUP3 ADD MSTORE PUSH19 0x656D657267656E63795F726562616C616E6365 PUSH1 0x68 SHL PUSH1 0x60 DUP3 ADD MSTORE LOG1 DUP1 RETURN JUMPDEST DUP2 MLOAD PUSH3 0x461BCD PUSH1 0xE5 SHL DUP2 MSTORE PUSH1 0x20 PUSH1 0x4 DUP3 ADD MSTORE PUSH1 0x23 PUSH1 0x24 DUP3 ADD MSTORE PUSH32 0x496E73756666696369656E742062616C616E636520696E20736F757263652070 PUSH1 0x44 DUP3 ADD MSTORE PUSH3 0x1BDBDB PUSH1 0xEA SHL PUSH1 0x64 DUP3 ADD MSTORE PUSH1 0x84 SWAP1 REVERT JUMPDEST MLOAD SWAP1 KECCAK256 PUSH1 0xA PUSH1 0x20 DUP4 MLOAD PUSH2 0x12BE DUP6 DUP3 PUSH2 0x1FB2 JUMP JUMPDEST DUP3 DUP2 MSTORE ADD PUSH10 0x676F7665726E616E6365 PUSH1 0xB0 SHL DUP2 MSTORE KECCAK256 EQ PUSH0 EQ PUSH2 0x12EB JUMPI PUSH1 0xE SLOAD PUSH1 0x1 PUSH1 0x1 PUSH1 0xA0 SHL SUB AND PUSH2 0x11E8 JUMP JUMPDEST MLOAD PUSH3 0x461BCD PUSH1 0xE5 SHL DUP2 MSTORE PUSH1 0x20 PUSH1 0x4 DUP3 ADD MSTORE PUSH1 0x13 PUSH1 0x24 DUP3 ADD MSTORE PUSH19 0x125B9D985B1A59081CDBDD5C98D9481C1BDBDB PUSH1 0x6A SHL PUSH1 0x44 DUP3 ADD MSTORE PUSH1 0x64 SWAP1 REVERT JUMPDEST DUP3 DUP1 REVERT JUMPDEST POP CALLVALUE PUSH2 0x34E JUMPI DUP1 PUSH1 0x3 NOT CALLDATASIZE ADD SLT PUSH2 0x34E JUMPI PUSH2 0x1341 PUSH2 0x224D JUMP JUMPDEST PUSH1 0x5 DUP1 SLOAD PUSH1 0x1 PUSH1 0x1 PUSH1 0xA0 SHL SUB NOT DUP2 AND SWAP1 SWAP2 SSTORE DUP2 SWAP1 PUSH1 0x1 PUSH1 0x1 PUSH1 0xA0 SHL SUB AND PUSH32 0x8BE0079C531659141344CD1FD0A4F28419497F9722A3DAAFE3B4186F6B6457E0 DUP3 DUP1 LOG3 DUP1 RETURN JUMPDEST POP CALLVALUE PUSH2 0x34E JUMPI PUSH1 0x20 CALLDATASIZE PUSH1 0x3 NOT ADD SLT PUSH2 0x34E JUMPI PUSH1 0x20 PUSH2 0x10A5 PUSH2 0x13A4 PUSH2 0x1F40 JUMP JUMPDEST PUSH1 0x1 PUSH1 0x1 PUSH1 0xA0 SHL SUB AND PUSH0 SWAP1 DUP2 MSTORE PUSH1 0x20 DUP2 SWAP1 MSTORE PUSH1 0x40 SWAP1 KECCAK256 SLOAD SWAP1 JUMP JUMPDEST POP CALLVALUE PUSH2 0x34E JUMPI DUP1 PUSH1 0x3 NOT CALLDATASIZE ADD SLT PUSH2 0x34E JUMPI PUSH1 0x20 PUSH1 0x12 SLOAD PUSH1 0x40 MLOAD SWAP1 DUP2 MSTORE RETURN JUMPDEST POP CALLVALUE PUSH2 0x34E JUMPI PUSH1 0x60 CALLDATASIZE PUSH1 0x3 NOT ADD SLT PUSH2 0x34E JUMPI PUSH2 0x13F6 PUSH2 0x1F40 JUMP JUMPDEST PUSH1 0x24 CALLDATALOAD SWAP1 PUSH1 0x44 CALLDATALOAD PUSH8 0xFFFFFFFFFFFFFFFF DUP2 GT PUSH2 0x1603 JUMPI PUSH2 0x141A SWAP1 CALLDATASIZE SWAP1 PUSH1 0x4 ADD PUSH2 0x1FD4 JUMP JUMPDEST PUSH2 0x1422 PUSH2 0x224D JUMP JUMPDEST PUSH2 0x142A PUSH2 0x22A5 JUMP JUMPDEST PUSH1 0x1 PUSH1 0x1 PUSH1 0xA0 SHL SUB DUP3 AND SWAP3 DUP4 ISZERO PUSH2 0x15CF JUMPI DUP1 ISZERO PUSH2 0x158A JUMPI DUP4 DUP6 MSTORE PUSH1 0xA PUSH1 0x20 MSTORE PUSH1 0x40 DUP6 KECCAK256 SLOAD PUSH3 0x15180 DUP2 ADD DUP1 SWAP2 GT PUSH2 0x1576 JUMPI TIMESTAMP LT ISZERO PUSH2 0x152F JUMPI DUP4 DUP6 MSTORE PUSH1 0x8 PUSH1 0x20 MSTORE PUSH2 0x1478 DUP2 PUSH1 0x40 DUP8 KECCAK256 SLOAD PUSH2 0x202A JUMP JUMPDEST PUSH1 0x11 SLOAD LT PUSH2 0x14F3 JUMPI PUSH2 0x14D1 DUP2 PUSH32 0xC7207087D1B9602815027342116944238A53BA3DB91A70042EAD521A6FCFF5C8 SWAP5 JUMPDEST DUP7 DUP9 MSTORE PUSH1 0x8 PUSH1 0x20 MSTORE PUSH1 0x40 DUP9 KECCAK256 PUSH2 0x14BE DUP4 DUP3 SLOAD PUSH2 0x202A JUMP JUMPDEST SWAP1 SSTORE PUSH1 0xD SLOAD PUSH1 0x1 PUSH1 0x1 PUSH1 0xA0 SHL SUB AND PUSH2 0x22E9 JUMP JUMPDEST PUSH2 0x14ED PUSH1 0x40 MLOAD SWAP3 DUP4 SWAP3 DUP4 MSTORE PUSH1 0x40 PUSH1 0x20 DUP5 ADD MSTORE PUSH1 0x40 DUP4 ADD SWAP1 PUSH2 0x1F1C JUMP JUMPDEST SUB SWAP1 LOG2 DUP1 RETURN JUMPDEST PUSH1 0x40 MLOAD PUSH3 0x461BCD PUSH1 0xE5 SHL DUP2 MSTORE PUSH1 0x20 PUSH1 0x4 DUP3 ADD MSTORE PUSH1 0x14 PUSH1 0x24 DUP3 ADD MSTORE PUSH20 0x11185A5B1E481B1A5B5A5D08195E18D959591959 PUSH1 0x62 SHL PUSH1 0x44 DUP3 ADD MSTORE PUSH1 0x64 SWAP1 REVERT JUMPDEST PUSH2 0x14D1 DUP2 PUSH32 0xC7207087D1B9602815027342116944238A53BA3DB91A70042EAD521A6FCFF5C8 SWAP5 DUP7 DUP9 MSTORE PUSH1 0x8 PUSH1 0x20 MSTORE DUP8 PUSH1 0x40 DUP2 KECCAK256 SSTORE DUP7 DUP9 MSTORE PUSH1 0xA PUSH1 0x20 MSTORE TIMESTAMP PUSH1 0x40 DUP10 KECCAK256 SSTORE PUSH2 0x14A7 JUMP JUMPDEST PUSH4 0x4E487B71 PUSH1 0xE0 SHL DUP7 MSTORE PUSH1 0x11 PUSH1 0x4 MSTORE PUSH1 0x24 DUP7 REVERT JUMPDEST PUSH1 0x40 MLOAD PUSH3 0x461BCD PUSH1 0xE5 SHL DUP2 MSTORE PUSH1 0x20 PUSH1 0x4 DUP3 ADD MSTORE PUSH1 0x17 PUSH1 0x24 DUP3 ADD MSTORE PUSH32 0x526577617264206D75737420626520706F736974697665000000000000000000 PUSH1 0x44 DUP3 ADD MSTORE PUSH1 0x64 SWAP1 REVERT JUMPDEST PUSH1 0x40 MLOAD PUSH3 0x461BCD PUSH1 0xE5 SHL DUP2 MSTORE PUSH1 0x20 PUSH1 0x4 DUP3 ADD MSTORE PUSH1 0xC PUSH1 0x24 DUP3 ADD MSTORE PUSH12 0x24B73B30B634B2103AB9B2B9 PUSH1 0xA1 SHL PUSH1 0x44 DUP3 ADD MSTORE PUSH1 0x64 SWAP1 REVERT JUMPDEST DUP4 DUP1 REVERT JUMPDEST POP CALLVALUE PUSH2 0xC86 JUMPI PUSH1 0x20 CALLDATASIZE PUSH1 0x3 NOT ADD SLT PUSH2 0xC86 JUMPI PUSH1 0x4 CALLDATALOAD PUSH2 0x1624 PUSH2 0x224D JUMP JUMPDEST PUSH1 0xF SLOAD PUSH2 0x168C SWAP1 PUSH1 0x20 SWAP1 DUP4 SWAP1 PUSH1 0x1 PUSH1 0x1 PUSH1 0xA0 SHL SUB AND PUSH2 0x1644 DUP2 ISZERO ISZERO PUSH2 0x2044 JUMP JUMPDEST PUSH2 0x164F DUP3 ISZERO ISZERO PUSH2 0x207E JUMP JUMPDEST PUSH1 0x10 SLOAD PUSH1 0x40 MLOAD PUSH4 0x95EA7B3 PUSH1 0xE0 SHL DUP2 MSTORE PUSH1 0x1 PUSH1 0x1 PUSH1 0xA0 SHL SUB SWAP3 DUP4 AND PUSH1 0x4 DUP3 ADD MSTORE PUSH1 0x24 DUP2 ADD SWAP4 SWAP1 SWAP4 MSTORE SWAP2 SWAP4 DUP5 SWAP3 SWAP1 SWAP2 AND SWAP1 DUP3 SWAP1 PUSH0 SWAP1 DUP3 SWAP1 PUSH1 0x44 DUP3 ADD SWAP1 JUMP JUMPDEST SUB SWAP3 GAS CALL DUP1 ISZERO PUSH2 0x171D JUMPI PUSH2 0x1728 JUMPI JUMPDEST POP PUSH1 0xF SLOAD PUSH1 0x1 PUSH1 0x1 PUSH1 0xA0 SHL SUB AND DUP1 EXTCODESIZE ISZERO PUSH2 0xC86 JUMPI PUSH0 DUP1 SWAP2 PUSH1 0x24 PUSH1 0x40 MLOAD DUP1 SWAP5 DUP2 SWAP4 PUSH4 0x6869C673 PUSH1 0xE0 SHL DUP4 MSTORE DUP8 PUSH1 0x4 DUP5 ADD MSTORE GAS CALL DUP1 ISZERO PUSH2 0x171D JUMPI PUSH2 0x1707 JUMPI JUMPDEST POP PUSH1 0x20 PUSH32 0xD2C5A6B66FBD4C28346666274DD95B77FD31D5C730DEB119439B2B5482DEAFC9 SWAP2 PUSH1 0x40 MLOAD SWAP1 DUP2 MSTORE LOG1 DUP1 RETURN JUMPDEST PUSH2 0x1714 SWAP2 SWAP3 POP PUSH0 SWAP1 PUSH2 0x1FB2 JUMP JUMPDEST PUSH0 SWAP1 PUSH1 0x20 PUSH2 0x16D8 JUMP JUMPDEST PUSH1 0x40 MLOAD RETURNDATASIZE PUSH0 DUP3 RETURNDATACOPY RETURNDATASIZE SWAP1 REVERT JUMPDEST PUSH2 0x1740 SWAP1 PUSH1 0x20 RETURNDATASIZE PUSH1 0x20 GT PUSH2 0xCC3 JUMPI PUSH2 0xCB6 DUP2 DUP4 PUSH2 0x1FB2 JUMP JUMPDEST PUSH2 0x169B JUMP JUMPDEST CALLVALUE PUSH2 0xC86 JUMPI PUSH0 CALLDATASIZE PUSH1 0x3 NOT ADD SLT PUSH2 0xC86 JUMPI PUSH1 0x20 PUSH1 0xFF PUSH1 0x7 SLOAD AND PUSH1 0x40 MLOAD SWAP1 ISZERO ISZERO DUP2 MSTORE RETURN JUMPDEST CALLVALUE PUSH2 0xC86 JUMPI PUSH0 CALLDATASIZE PUSH1 0x3 NOT ADD SLT PUSH2 0xC86 JUMPI PUSH1 0x20 PUSH1 0x13 SLOAD PUSH1 0x40 MLOAD SWAP1 DUP2 MSTORE RETURN JUMPDEST CALLVALUE PUSH2 0xC86 JUMPI PUSH2 0x1792 CALLDATASIZE PUSH2 0x1F6C JUMP JUMPDEST PUSH2 0x179A PUSH2 0x224D JUMP JUMPDEST PUSH2 0x17A2 PUSH2 0x2445 JUMP JUMPDEST PUSH1 0x64 DUP2 GT PUSH2 0x191F JUMPI DUP1 DUP3 MUL SWAP1 DUP3 DUP3 DIV EQ DUP3 ISZERO OR ISZERO PUSH2 0x190B JUMPI PUSH1 0x64 PUSH2 0x17CA SWAP2 DIV SWAP2 PUSH1 0x18 SLOAD PUSH2 0x202A JUMP JUMPDEST PUSH1 0x18 SSTORE DUP1 ISZERO ISZERO DUP1 PUSH2 0x17DD JUMPI JUMPDEST PUSH1 0x1 PUSH1 0x6 SSTORE STOP JUMPDEST PUSH1 0x20 DUP3 PUSH2 0x1803 SWAP3 PUSH2 0x164F PUSH1 0x1 DUP1 PUSH1 0xA0 SHL SUB PUSH1 0xF SLOAD AND SWAP2 PUSH2 0x17FE DUP4 ISZERO ISZERO PUSH2 0x2044 JUMP JUMPDEST PUSH2 0x207E JUMP JUMPDEST SUB SWAP3 GAS CALL DUP1 ISZERO PUSH2 0x171D JUMPI PUSH2 0x18EE JUMPI JUMPDEST POP ADDRESS PUSH0 MSTORE PUSH0 PUSH1 0x20 MSTORE PUSH1 0x40 PUSH0 KECCAK256 SLOAD PUSH0 PUSH1 0x20 PUSH1 0x1 DUP1 PUSH1 0xA0 SHL SUB PUSH1 0xF SLOAD AND PUSH1 0x44 PUSH1 0x40 MLOAD DUP1 SWAP5 DUP2 SWAP4 PUSH4 0xF10DE81B PUSH1 0xE0 SHL DUP4 MSTORE DUP9 PUSH1 0x4 DUP5 ADD MSTORE DUP2 PUSH1 0x24 DUP5 ADD MSTORE GAS CALL DUP1 ISZERO PUSH2 0x171D JUMPI PUSH2 0x18AF JUMPI JUMPDEST POP PUSH0 MLOAD PUSH1 0x20 PUSH2 0x2670 PUSH0 CODECOPY PUSH0 MLOAD SWAP1 PUSH0 MSTORE SWAP2 PUSH32 0x19D7BE5674E942AAB4E8DDACCE8DEAC21B36CDBA15A7741BD125850AA0DAD417 PUSH2 0xC0E PUSH2 0xBB9 PUSH2 0x18A5 SWAP5 ADDRESS PUSH0 MSTORE PUSH0 PUSH1 0x20 MSTORE PUSH1 0x40 PUSH0 KECCAK256 SLOAD PUSH2 0x2037 JUMP JUMPDEST SUB SWAP1 LOG1 DUP1 DUP1 PUSH2 0x17D6 JUMP JUMPDEST SWAP2 PUSH1 0x20 DUP4 RETURNDATASIZE PUSH1 0x20 GT PUSH2 0x18E6 JUMPI JUMPDEST DUP2 PUSH2 0x18C9 PUSH1 0x20 SWAP4 DUP4 PUSH2 0x1FB2 JUMP JUMPDEST DUP2 ADD SUB SLT PUSH2 0xC86 JUMPI SWAP2 POP PUSH0 MLOAD PUSH1 0x20 PUSH2 0x2670 PUSH0 CODECOPY PUSH0 MLOAD SWAP1 PUSH0 MSTORE PUSH2 0x1859 JUMP JUMPDEST RETURNDATASIZE SWAP2 POP PUSH2 0x18BC JUMP JUMPDEST PUSH2 0x1906 SWAP1 PUSH1 0x20 RETURNDATASIZE PUSH1 0x20 GT PUSH2 0xCC3 JUMPI PUSH2 0xCB6 DUP2 DUP4 PUSH2 0x1FB2 JUMP JUMPDEST PUSH2 0x1812 JUMP JUMPDEST PUSH4 0x4E487B71 PUSH1 0xE0 SHL PUSH0 MSTORE PUSH1 0x11 PUSH1 0x4 MSTORE PUSH1 0x24 PUSH0 REVERT JUMPDEST PUSH1 0x40 MLOAD PUSH3 0x461BCD PUSH1 0xE5 SHL DUP2 MSTORE PUSH1 0x20 PUSH1 0x4 DUP3 ADD MSTORE PUSH1 0x12 PUSH1 0x24 DUP3 ADD MSTORE PUSH18 0x496E76616C69642070657263656E74616765 PUSH1 0x70 SHL PUSH1 0x44 DUP3 ADD MSTORE PUSH1 0x64 SWAP1 REVERT JUMPDEST CALLVALUE PUSH2 0xC86 JUMPI PUSH1 0x20 CALLDATASIZE PUSH1 0x3 NOT ADD SLT PUSH2 0xC86 JUMPI PUSH2 0x1976 PUSH1 0x4 CALLDATALOAD CALLER PUSH2 0x249B JUMP JUMPDEST STOP JUMPDEST CALLVALUE PUSH2 0xC86 JUMPI PUSH0 CALLDATASIZE PUSH1 0x3 NOT ADD SLT PUSH2 0xC86 JUMPI PUSH2 0x1990 PUSH2 0x224D JUMP JUMPDEST PUSH1 0x7 SLOAD PUSH1 0xFF DUP2 AND ISZERO PUSH2 0x19CF JUMPI PUSH1 0xFF NOT AND PUSH1 0x7 SSTORE PUSH32 0x5DB9EE0A495BF2E6FF9C91A7834C1BA4FDD244A5E8AA4E537BD38AEAE4B073AA PUSH1 0x20 PUSH1 0x40 MLOAD CALLER DUP2 MSTORE LOG1 STOP JUMPDEST PUSH1 0x40 MLOAD PUSH3 0x461BCD PUSH1 0xE5 SHL DUP2 MSTORE PUSH1 0x20 PUSH1 0x4 DUP3 ADD MSTORE PUSH1 0x14 PUSH1 0x24 DUP3 ADD MSTORE PUSH20 0x14185D5CD8589B194E881B9BDD081C185D5CD959 PUSH1 0x62 SHL PUSH1 0x44 DUP3 ADD MSTORE PUSH1 0x64 SWAP1 REVERT JUMPDEST CALLVALUE PUSH2 0xC86 JUMPI PUSH0 CALLDATASIZE PUSH1 0x3 NOT ADD SLT PUSH2 0xC86 JUMPI PUSH1 0x20 PUSH1 0x19 SLOAD PUSH1 0x40 MLOAD SWAP1 DUP2 MSTORE RETURN JUMPDEST CALLVALUE PUSH2 0xC86 JUMPI PUSH1 0x40 CALLDATASIZE PUSH1 0x3 NOT ADD SLT PUSH2 0xC86 JUMPI PUSH2 0xDBB PUSH2 0x1A44 PUSH2 0x1F40 JUMP JUMPDEST CALLER PUSH0 MSTORE PUSH1 0x1 PUSH1 0x20 MSTORE PUSH1 0x40 PUSH0 KECCAK256 PUSH1 0x1 DUP1 PUSH1 0xA0 SHL SUB DUP3 AND PUSH0 MSTORE PUSH1 0x20 MSTORE PUSH2 0x1A6F PUSH1 0x40 PUSH0 KECCAK256 PUSH1 0x24 CALLDATALOAD SWAP1 SLOAD PUSH2 0x202A JUMP JUMPDEST SWAP1 CALLER PUSH2 0x2149 JUMP JUMPDEST CALLVALUE PUSH2 0xC86 JUMPI PUSH0 CALLDATASIZE PUSH1 0x3 NOT ADD SLT PUSH2 0xC86 JUMPI PUSH1 0x20 PUSH1 0x40 MLOAD PUSH1 0x12 DUP2 MSTORE RETURN JUMPDEST CALLVALUE PUSH2 0xC86 JUMPI PUSH0 CALLDATASIZE PUSH1 0x3 NOT ADD SLT PUSH2 0xC86 JUMPI PUSH1 0x20 PUSH1 0x40 MLOAD PUSH11 0xF8277896582678AC000000 DUP2 MSTORE RETURN JUMPDEST CALLVALUE PUSH2 0xC86 JUMPI PUSH0 CALLDATASIZE PUSH1 0x3 NOT ADD SLT PUSH2 0xC86 JUMPI PUSH2 0x1ACE PUSH2 0x2445 JUMP JUMPDEST CALLER PUSH0 MSTORE PUSH1 0x14 PUSH1 0x20 MSTORE PUSH1 0x40 PUSH0 KECCAK256 DUP1 SLOAD SWAP1 DUP2 ISZERO PUSH2 0x1B8A JUMPI PUSH1 0x1 DUP2 ADD SWAP1 DUP2 SLOAD SWAP1 PUSH2 0x1AFB PUSH1 0x2 DUP3 ADD SWAP3 DUP4 SLOAD SWAP1 PUSH2 0x202A JUMP JUMPDEST TIMESTAMP LT PUSH2 0x1B5C JUMPI PUSH0 PUSH1 0x3 SWAP3 DUP2 DUP1 SWAP6 DUP2 DUP6 SSTORE SSTORE SSTORE ADD SSTORE PUSH2 0x1B1B DUP2 PUSH1 0x15 SLOAD PUSH2 0x2037 JUMP JUMPDEST PUSH1 0x15 SSTORE PUSH2 0x1B29 DUP2 CALLER ADDRESS PUSH2 0x22E9 JUMP JUMPDEST PUSH1 0x40 MLOAD SWAP1 DUP2 MSTORE PUSH32 0x9845E367B683334E5C0B12D7B81721AC518E649376FA65E3D68324E8F34F2679 PUSH1 0x20 CALLER SWAP3 LOG2 PUSH1 0x1 PUSH1 0x6 SSTORE STOP JUMPDEST PUSH1 0x40 MLOAD PUSH3 0x461BCD PUSH1 0xE5 SHL DUP2 MSTORE PUSH1 0x20 PUSH1 0x4 DUP3 ADD MSTORE PUSH1 0x6 PUSH1 0x24 DUP3 ADD MSTORE PUSH6 0x131BD8DAD959 PUSH1 0xD2 SHL PUSH1 0x44 DUP3 ADD MSTORE PUSH1 0x64 SWAP1 REVERT JUMPDEST PUSH1 0x40 MLOAD PUSH3 0x461BCD PUSH1 0xE5 SHL DUP2 MSTORE PUSH1 0x20 PUSH1 0x4 DUP3 ADD MSTORE PUSH1 0xE PUSH1 0x24 DUP3 ADD MSTORE PUSH14 0x139BDD1A1A5B99C81CDD185AD959 PUSH1 0x92 SHL PUSH1 0x44 DUP3 ADD MSTORE PUSH1 0x64 SWAP1 REVERT JUMPDEST CALLVALUE PUSH2 0xC86 JUMPI PUSH0 CALLDATASIZE PUSH1 0x3 NOT ADD SLT PUSH2 0xC86 JUMPI PUSH1 0xC SLOAD PUSH1 0x40 MLOAD PUSH1 0x1 PUSH1 0x1 PUSH1 0xA0 SHL SUB SWAP1 SWAP2 AND DUP2 MSTORE PUSH1 0x20 SWAP1 RETURN JUMPDEST CALLVALUE PUSH2 0xC86 JUMPI PUSH1 0x60 CALLDATASIZE PUSH1 0x3 NOT ADD SLT PUSH2 0xC86 JUMPI PUSH2 0xDBB PUSH2 0x1C04 PUSH2 0x1F40 JUMP JUMPDEST PUSH2 0x1C0C PUSH2 0x1F56 JUMP JUMPDEST PUSH1 0x44 CALLDATALOAD SWAP2 PUSH2 0x1C1B DUP4 CALLER DUP4 PUSH2 0x23AD JUMP JUMPDEST PUSH2 0x22E9 JUMP JUMPDEST CALLVALUE PUSH2 0xC86 JUMPI PUSH1 0x40 CALLDATASIZE PUSH1 0x3 NOT ADD SLT PUSH2 0xC86 JUMPI PUSH2 0x1C39 PUSH2 0x1F40 JUMP JUMPDEST PUSH1 0x24 CALLDATALOAD PUSH2 0x1C44 PUSH2 0x224D JUMP JUMPDEST PUSH2 0x1C4C PUSH2 0x22A5 JUMP JUMPDEST PUSH1 0x1 PUSH1 0x1 PUSH1 0xA0 SHL SUB DUP3 AND SWAP2 DUP3 ISZERO PUSH2 0x1D03 JUMPI DUP2 ISZERO PUSH2 0x1CBE JUMPI DUP2 PUSH2 0x1CB5 PUSH32 0xE876CC410803E6D5FE8014D579482BF680A25D7D9B96F30D08634EFAEB1F81BC SWAP4 PUSH1 0x20 SWAP4 DUP7 PUSH0 MSTORE PUSH1 0x9 DUP6 MSTORE PUSH1 0x40 PUSH0 KECCAK256 PUSH2 0x1CA2 DUP4 DUP3 SLOAD PUSH2 0x202A JUMP JUMPDEST SWAP1 SSTORE PUSH1 0xC SLOAD PUSH1 0x1 PUSH1 0x1 PUSH1 0xA0 SHL SUB AND PUSH2 0x22E9 JUMP JUMPDEST PUSH1 0x40 MLOAD SWAP1 DUP2 MSTORE LOG2 STOP JUMPDEST PUSH1 0x40 MLOAD PUSH3 0x461BCD PUSH1 0xE5 SHL DUP2 MSTORE PUSH1 0x20 PUSH1 0x4 DUP3 ADD MSTORE PUSH1 0x1A PUSH1 0x24 DUP3 ADD MSTORE PUSH32 0x496E63656E74697665206D75737420626520706F736974697665000000000000 PUSH1 0x44 DUP3 ADD MSTORE PUSH1 0x64 SWAP1 REVERT JUMPDEST PUSH1 0x40 MLOAD PUSH3 0x461BCD PUSH1 0xE5 SHL DUP2 MSTORE PUSH1 0x20 PUSH1 0x4 DUP3 ADD MSTORE PUSH1 0xF PUSH1 0x24 DUP3 ADD MSTORE PUSH15 0x24B73B30B634B21031B932B0BA37B9 PUSH1 0x89 SHL PUSH1 0x44 DUP3 ADD MSTORE PUSH1 0x64 SWAP1 REVERT JUMPDEST CALLVALUE PUSH2 0xC86 JUMPI PUSH0 CALLDATASIZE PUSH1 0x3 NOT ADD SLT PUSH2 0xC86 JUMPI PUSH1 0x20 PUSH1 0x40 MLOAD PUSH12 0x19D971E4FE8401E74000000 DUP2 MSTORE RETURN JUMPDEST CALLVALUE PUSH2 0xC86 JUMPI PUSH0 CALLDATASIZE PUSH1 0x3 NOT ADD SLT PUSH2 0xC86 JUMPI PUSH1 0x20 PUSH1 0x2 SLOAD PUSH1 0x40 MLOAD SWAP1 DUP2 MSTORE RETURN JUMPDEST CALLVALUE PUSH2 0xC86 JUMPI PUSH0 CALLDATASIZE PUSH1 0x3 NOT ADD SLT PUSH2 0xC86 JUMPI PUSH1 0x10 SLOAD PUSH1 0x40 MLOAD PUSH1 0x1 PUSH1 0x1 PUSH1 0xA0 SHL SUB SWAP1 SWAP2 AND DUP2 MSTORE PUSH1 0x20 SWAP1 RETURN JUMPDEST CALLVALUE PUSH2 0xC86 JUMPI PUSH0 CALLDATASIZE PUSH1 0x3 NOT ADD SLT PUSH2 0xC86 JUMPI PUSH1 0x20 PUSH1 0x11 SLOAD PUSH1 0x40 MLOAD SWAP1 DUP2 MSTORE RETURN JUMPDEST CALLVALUE PUSH2 0xC86 JUMPI PUSH0 CALLDATASIZE PUSH1 0x3 NOT ADD SLT PUSH2 0xC86 JUMPI PUSH1 0x20 PUSH1 0x18 SLOAD PUSH1 0x40 MLOAD SWAP1 DUP2 MSTORE RETURN JUMPDEST CALLVALUE PUSH2 0xC86 JUMPI PUSH1 0x40 CALLDATASIZE PUSH1 0x3 NOT ADD SLT PUSH2 0xC86 JUMPI PUSH2 0xDBB PUSH2 0x1DFB PUSH2 0x1F40 JUMP JUMPDEST PUSH1 0x24 CALLDATALOAD SWAP1 CALLER PUSH2 0x2149 JUMP JUMPDEST CALLVALUE PUSH2 0xC86 JUMPI PUSH0 CALLDATASIZE PUSH1 0x3 NOT ADD SLT PUSH2 0xC86 JUMPI PUSH1 0x40 MLOAD PUSH0 PUSH1 0x3 SLOAD DUP1 PUSH1 0x1 SHR SWAP1 PUSH1 0x1 DUP2 AND DUP1 ISZERO PUSH2 0x1EEF JUMPI JUMPDEST PUSH1 0x20 DUP4 LT DUP2 EQ PUSH2 0x1EDB JUMPI DUP3 DUP6 MSTORE SWAP1 DUP2 ISZERO PUSH2 0x1EB7 JUMPI POP PUSH1 0x1 EQ PUSH2 0x1E59 JUMPI JUMPDEST PUSH2 0x516 DUP4 PUSH2 0xF1F DUP2 DUP6 SUB DUP3 PUSH2 0x1FB2 JUMP JUMPDEST SWAP2 SWAP1 POP PUSH1 0x3 PUSH0 MSTORE PUSH32 0xC2575A0E9E593C00F959F8C92F12DB2869C3395A3B0502D05E2516446F71F85B SWAP2 PUSH0 SWAP1 JUMPDEST DUP1 DUP3 LT PUSH2 0x1E9D JUMPI POP SWAP1 SWAP2 POP DUP2 ADD PUSH1 0x20 ADD PUSH2 0xF1F PUSH2 0x1E49 JUMP JUMPDEST SWAP2 SWAP3 PUSH1 0x1 DUP2 PUSH1 0x20 SWAP3 SLOAD DUP4 DUP6 DUP9 ADD ADD MSTORE ADD SWAP2 ADD SWAP1 SWAP3 SWAP2 PUSH2 0x1E85 JUMP JUMPDEST PUSH1 0xFF NOT AND PUSH1 0x20 DUP1 DUP7 ADD SWAP2 SWAP1 SWAP2 MSTORE SWAP2 ISZERO ISZERO PUSH1 0x5 SHL DUP5 ADD SWAP1 SWAP2 ADD SWAP2 POP PUSH2 0xF1F SWAP1 POP PUSH2 0x1E49 JUMP JUMPDEST PUSH4 0x4E487B71 PUSH1 0xE0 SHL PUSH0 MSTORE PUSH1 0x22 PUSH1 0x4 MSTORE PUSH1 0x24 PUSH0 REVERT JUMPDEST SWAP2 PUSH1 0x7F AND SWAP2 PUSH2 0x1E2C JUMP JUMPDEST CALLVALUE PUSH2 0xC86 JUMPI PUSH0 CALLDATASIZE PUSH1 0x3 NOT ADD SLT PUSH2 0xC86 JUMPI PUSH1 0xD SLOAD PUSH1 0x1 PUSH1 0x1 PUSH1 0xA0 SHL SUB AND DUP2 MSTORE PUSH1 0x20 SWAP1 RETURN JUMPDEST DUP1 MLOAD DUP1 DUP4 MSTORE PUSH1 0x20 SWAP3 SWAP2 DUP2 SWAP1 DUP5 ADD DUP5 DUP5 ADD MCOPY PUSH0 DUP3 DUP3 ADD DUP5 ADD MSTORE PUSH1 0x1F ADD PUSH1 0x1F NOT AND ADD ADD SWAP1 JUMP JUMPDEST PUSH1 0x4 CALLDATALOAD SWAP1 PUSH1 0x1 PUSH1 0x1 PUSH1 0xA0 SHL SUB DUP3 AND DUP3 SUB PUSH2 0xC86 JUMPI JUMP JUMPDEST PUSH1 0x24 CALLDATALOAD SWAP1 PUSH1 0x1 PUSH1 0x1 PUSH1 0xA0 SHL SUB DUP3 AND DUP3 SUB PUSH2 0xC86 JUMPI JUMP JUMPDEST PUSH1 0x40 SWAP1 PUSH1 0x3 NOT ADD SLT PUSH2 0xC86 JUMPI PUSH1 0x4 CALLDATALOAD SWAP1 PUSH1 0x24 CALLDATALOAD SWAP1 JUMP JUMPDEST PUSH1 0x80 DUP2 ADD SWAP1 DUP2 LT PUSH8 0xFFFFFFFFFFFFFFFF DUP3 GT OR PUSH2 0x1F9E JUMPI PUSH1 0x40 MSTORE JUMP JUMPDEST PUSH4 0x4E487B71 PUSH1 0xE0 SHL PUSH0 MSTORE PUSH1 0x41 PUSH1 0x4 MSTORE PUSH1 0x24 PUSH0 REVERT JUMPDEST SWAP1 PUSH1 0x1F DUP1 NOT SWAP2 ADD AND DUP2 ADD SWAP1 DUP2 LT PUSH8 0xFFFFFFFFFFFFFFFF DUP3 GT OR PUSH2 0x1F9E JUMPI PUSH1 0x40 MSTORE JUMP JUMPDEST DUP2 PUSH1 0x1F DUP3 ADD SLT ISZERO PUSH2 0xC86 JUMPI DUP1 CALLDATALOAD SWAP1 PUSH8 0xFFFFFFFFFFFFFFFF DUP3 GT PUSH2 0x1F9E JUMPI PUSH1 0x40 MLOAD SWAP3 PUSH2 0x2009 PUSH1 0x1F DUP5 ADD PUSH1 0x1F NOT AND PUSH1 0x20 ADD DUP6 PUSH2 0x1FB2 JUMP JUMPDEST DUP3 DUP5 MSTORE PUSH1 0x20 DUP4 DUP4 ADD ADD GT PUSH2 0xC86 JUMPI DUP2 PUSH0 SWAP3 PUSH1 0x20 DUP1 SWAP4 ADD DUP4 DUP7 ADD CALLDATACOPY DUP4 ADD ADD MSTORE SWAP1 JUMP JUMPDEST SWAP2 SWAP1 DUP3 ADD DUP1 SWAP3 GT PUSH2 0x190B JUMPI JUMP JUMPDEST SWAP2 SWAP1 DUP3 SUB SWAP2 DUP3 GT PUSH2 0x190B JUMPI JUMP JUMPDEST ISZERO PUSH2 0x204B JUMPI JUMP JUMPDEST PUSH1 0x40 MLOAD PUSH3 0x461BCD PUSH1 0xE5 SHL DUP2 MSTORE PUSH1 0x20 PUSH1 0x4 DUP3 ADD MSTORE PUSH1 0xB PUSH1 0x24 DUP3 ADD MSTORE PUSH11 0x105353481B9BDD081CD95D PUSH1 0xAA SHL PUSH1 0x44 DUP3 ADD MSTORE PUSH1 0x64 SWAP1 REVERT JUMPDEST ISZERO PUSH2 0x2085 JUMPI JUMP JUMPDEST PUSH1 0x40 MLOAD PUSH3 0x461BCD PUSH1 0xE5 SHL DUP2 MSTORE PUSH1 0x20 PUSH1 0x4 DUP3 ADD MSTORE PUSH1 0xE PUSH1 0x24 DUP3 ADD MSTORE PUSH14 0x125B9D985B1A5908185B5BDD5B9D PUSH1 0x92 SHL PUSH1 0x44 DUP3 ADD MSTORE PUSH1 0x64 SWAP1 REVERT JUMPDEST SWAP1 DUP2 PUSH1 0x20 SWAP2 SUB SLT PUSH2 0xC86 JUMPI MLOAD DUP1 ISZERO ISZERO DUP2 SUB PUSH2 0xC86 JUMPI SWAP1 JUMP JUMPDEST PUSH1 0x1 DUP1 PUSH1 0xA0 SHL SUB AND PUSH0 MSTORE PUSH1 0x14 PUSH1 0x20 MSTORE PUSH1 0x40 PUSH0 KECCAK256 PUSH1 0x40 MLOAD SWAP1 PUSH2 0x20F3 DUP3 PUSH2 0x1F82 JUMP JUMPDEST DUP1 SLOAD SWAP1 DUP2 DUP4 MSTORE PUSH1 0x1 DUP2 ADD SLOAD SWAP2 DUP3 PUSH1 0x20 DUP6 ADD MSTORE PUSH1 0x60 PUSH1 0x3 PUSH1 0x2 DUP5 ADD SLOAD SWAP4 DUP5 PUSH1 0x40 DUP9 ADD MSTORE ADD SLOAD SWAP5 ADD SWAP4 DUP5 MSTORE ISZERO PUSH2 0x2142 JUMPI PUSH2 0x212A SWAP2 PUSH2 0x202A JUMP JUMPDEST TIMESTAMP LT PUSH2 0x2135 JUMPI POP PUSH0 SWAP1 JUMP JUMPDEST PUSH2 0x213F SWAP1 MLOAD PUSH2 0x2596 JUMP JUMPDEST SWAP1 JUMP JUMPDEST POP POP POP PUSH0 SWAP1 JUMP JUMPDEST PUSH1 0x1 PUSH1 0x1 PUSH1 0xA0 SHL SUB AND SWAP1 DUP2 ISZERO PUSH2 0x21FC JUMPI PUSH1 0x1 PUSH1 0x1 PUSH1 0xA0 SHL SUB AND SWAP2 DUP3 ISZERO PUSH2 0x21AC JUMPI PUSH1 0x20 PUSH32 0x8C5BE1E5EBEC7D5BD14F71427D1E84F3DD0314C0F7B2291E5B200AC8C7C3B925 SWAP2 DUP4 PUSH0 MSTORE PUSH1 0x1 DUP3 MSTORE PUSH1 0x40 PUSH0 KECCAK256 DUP6 PUSH0 MSTORE DUP3 MSTORE DUP1 PUSH1 0x40 PUSH0 KECCAK256 SSTORE PUSH1 0x40 MLOAD SWAP1 DUP2 MSTORE LOG3 JUMP JUMPDEST PUSH1 0x40 MLOAD PUSH3 0x461BCD PUSH1 0xE5 SHL DUP2 MSTORE PUSH1 0x20 PUSH1 0x4 DUP3 ADD MSTORE PUSH1 0x22 PUSH1 0x24 DUP3 ADD MSTORE PUSH32 0x45524332303A20617070726F766520746F20746865207A65726F206164647265 PUSH1 0x44 DUP3 ADD MSTORE PUSH2 0x7373 PUSH1 0xF0 SHL PUSH1 0x64 DUP3 ADD MSTORE PUSH1 0x84 SWAP1 REVERT JUMPDEST PUSH1 0x40 MLOAD PUSH3 0x461BCD PUSH1 0xE5 SHL DUP2 MSTORE PUSH1 0x20 PUSH1 0x4 DUP3 ADD MSTORE PUSH1 0x24 DUP1 DUP3 ADD MSTORE PUSH32 0x45524332303A20617070726F76652066726F6D20746865207A65726F20616464 PUSH1 0x44 DUP3 ADD MSTORE PUSH4 0x72657373 PUSH1 0xE0 SHL PUSH1 0x64 DUP3 ADD MSTORE PUSH1 0x84 SWAP1 REVERT JUMPDEST PUSH1 0x5 SLOAD PUSH1 0x1 PUSH1 0x1 PUSH1 0xA0 SHL SUB AND CALLER SUB PUSH2 0x2261 JUMPI JUMP JUMPDEST PUSH1 0x64 PUSH1 0x40 MLOAD PUSH3 0x461BCD PUSH1 0xE5 SHL DUP2 MSTORE PUSH1 0x20 PUSH1 0x4 DUP3 ADD MSTORE PUSH1 0x20 PUSH1 0x24 DUP3 ADD MSTORE PUSH32 0x4F776E61626C653A2063616C6C6572206973206E6F7420746865206F776E6572 PUSH1 0x44 DUP3 ADD MSTORE REVERT JUMPDEST PUSH1 0xFF PUSH1 0x7 SLOAD AND PUSH2 0x22B1 JUMPI JUMP JUMPDEST PUSH1 0x40 MLOAD PUSH3 0x461BCD PUSH1 0xE5 SHL DUP2 MSTORE PUSH1 0x20 PUSH1 0x4 DUP3 ADD MSTORE PUSH1 0x10 PUSH1 0x24 DUP3 ADD MSTORE PUSH16 0x14185D5CD8589B194E881C185D5CD959 PUSH1 0x82 SHL PUSH1 0x44 DUP3 ADD MSTORE PUSH1 0x64 SWAP1 REVERT JUMPDEST PUSH1 0x1 PUSH1 0x1 PUSH1 0xA0 SHL SUB AND SWAP1 DUP2 ISZERO PUSH2 0x752 JUMPI PUSH1 0x1 PUSH1 0x1 PUSH1 0xA0 SHL SUB AND SWAP2 DUP3 ISZERO PUSH2 0x235C JUMPI PUSH2 0x2311 PUSH2 0x22A5 JUMP JUMPDEST DUP2 PUSH0 MSTORE PUSH0 PUSH1 0x20 MSTORE PUSH1 0x40 PUSH0 KECCAK256 SLOAD DUP2 DUP2 LT PUSH2 0x6FE JUMPI DUP2 PUSH0 MLOAD PUSH1 0x20 PUSH2 0x2690 PUSH0 CODECOPY PUSH0 MLOAD SWAP1 PUSH0 MSTORE SWAP3 PUSH1 0x20 SWAP3 DUP6 PUSH0 MSTORE PUSH0 DUP5 MSTORE SUB PUSH1 0x40 PUSH0 KECCAK256 SSTORE DUP5 PUSH0 MSTORE PUSH0 DUP3 MSTORE PUSH1 0x40 PUSH0 KECCAK256 DUP2 DUP2 SLOAD ADD SWAP1 SSTORE PUSH1 0x40 MLOAD SWAP1 DUP2 MSTORE LOG3 JUMP JUMPDEST PUSH1 0x40 MLOAD PUSH3 0x461BCD PUSH1 0xE5 SHL DUP2 MSTORE PUSH1 0x20 PUSH1 0x4 DUP3 ADD MSTORE PUSH1 0x23 PUSH1 0x24 DUP3 ADD MSTORE PUSH32 0x45524332303A207472616E7366657220746F20746865207A65726F2061646472 PUSH1 0x44 DUP3 ADD MSTORE PUSH3 0x657373 PUSH1 0xE8 SHL PUSH1 0x64 DUP3 ADD MSTORE PUSH1 0x84 SWAP1 REVERT JUMPDEST SWAP1 PUSH1 0x1 DUP1 PUSH1 0xA0 SHL SUB DUP3 AND PUSH0 MSTORE PUSH1 0x1 PUSH1 0x20 MSTORE PUSH1 0x40 PUSH0 KECCAK256 PUSH1 0x1 DUP1 PUSH1 0xA0 SHL SUB DUP3 AND PUSH0 MSTORE PUSH1 0x20 MSTORE PUSH1 0x40 PUSH0 KECCAK256 SLOAD SWAP3 PUSH0 NOT DUP5 SUB PUSH2 0x23E5 JUMPI JUMPDEST POP POP POP POP JUMP JUMPDEST DUP1 DUP5 LT PUSH2 0x2400 JUMPI PUSH2 0x23F7 SWAP4 SUB SWAP2 PUSH2 0x2149 JUMP JUMPDEST PUSH0 DUP1 DUP1 DUP1 PUSH2 0x23DF JUMP JUMPDEST PUSH1 0x40 MLOAD PUSH3 0x461BCD PUSH1 0xE5 SHL DUP2 MSTORE PUSH1 0x20 PUSH1 0x4 DUP3 ADD MSTORE PUSH1 0x1D PUSH1 0x24 DUP3 ADD MSTORE PUSH32 0x45524332303A20696E73756666696369656E7420616C6C6F77616E6365000000 PUSH1 0x44 DUP3 ADD MSTORE PUSH1 0x64 SWAP1 REVERT JUMPDEST PUSH1 0x2 PUSH1 0x6 SLOAD EQ PUSH2 0x2456 JUMPI PUSH1 0x2 PUSH1 0x6 SSTORE JUMP JUMPDEST PUSH1 0x40 MLOAD PUSH3 0x461BCD PUSH1 0xE5 SHL DUP2 MSTORE PUSH1 0x20 PUSH1 0x4 DUP3 ADD MSTORE PUSH1 0x1F PUSH1 0x24 DUP3 ADD MSTORE PUSH32 0x5265656E7472616E637947756172643A207265656E7472616E742063616C6C00 PUSH1 0x44 DUP3 ADD MSTORE PUSH1 0x64 SWAP1 REVERT JUMPDEST PUSH1 0x1 PUSH1 0x1 PUSH1 0xA0 SHL SUB AND DUP1 ISZERO PUSH2 0x2547 JUMPI PUSH2 0x24B2 PUSH2 0x22A5 JUMP JUMPDEST DUP1 PUSH0 MSTORE PUSH0 PUSH1 0x20 MSTORE PUSH1 0x40 PUSH0 KECCAK256 SLOAD SWAP2 DUP1 DUP4 LT PUSH2 0x24F7 JUMPI PUSH1 0x20 DUP2 PUSH0 MLOAD PUSH1 0x20 PUSH2 0x2690 PUSH0 CODECOPY PUSH0 MLOAD SWAP1 PUSH0 MSTORE SWAP3 PUSH0 SWAP6 DUP6 DUP8 MSTORE DUP7 DUP5 MSTORE SUB PUSH1 0x40 DUP7 KECCAK256 SSTORE DUP1 PUSH1 0x2 SLOAD SUB PUSH1 0x2 SSTORE PUSH1 0x40 MLOAD SWAP1 DUP2 MSTORE LOG3 JUMP JUMPDEST PUSH1 0x40 MLOAD PUSH3 0x461BCD PUSH1 0xE5 SHL DUP2 MSTORE PUSH1 0x20 PUSH1 0x4 DUP3 ADD MSTORE PUSH1 0x22 PUSH1 0x24 DUP3 ADD MSTORE PUSH32 0x45524332303A206275726E20616D6F756E7420657863656564732062616C616E PUSH1 0x44 DUP3 ADD MSTORE PUSH2 0x6365 PUSH1 0xF0 SHL PUSH1 0x64 DUP3 ADD MSTORE PUSH1 0x84 SWAP1 REVERT JUMPDEST PUSH1 0x40 MLOAD PUSH3 0x461BCD PUSH1 0xE5 SHL DUP2 MSTORE PUSH1 0x20 PUSH1 0x4 DUP3 ADD MSTORE PUSH1 0x21 PUSH1 0x24 DUP3 ADD MSTORE PUSH32 0x45524332303A206275726E2066726F6D20746865207A65726F20616464726573 PUSH1 0x44 DUP3 ADD MSTORE PUSH1 0x73 PUSH1 0xF8 SHL PUSH1 0x64 DUP3 ADD MSTORE PUSH1 0x84 SWAP1 REVERT JUMPDEST PUSH1 0x1 DUP2 EQ PUSH2 0x25CA JUMPI PUSH1 0x2 DUP2 EQ PUSH2 0x25C4 JUMPI PUSH1 0x3 DUP2 EQ PUSH2 0x25BE JUMPI PUSH1 0x4 EQ PUSH2 0x25B9 JUMPI PUSH0 SWAP1 JUMP JUMPDEST PUSH1 0x32 SWAP1 JUMP JUMPDEST POP PUSH1 0x23 SWAP1 JUMP JUMPDEST POP PUSH1 0x14 SWAP1 JUMP JUMPDEST POP PUSH1 0xA SWAP1 JUMP JUMPDEST PUSH10 0x1FC3842BD1F071C00000 DUP2 LT ISZERO PUSH2 0x265A JUMPI PUSH10 0xA968163F0A57B400000 DUP2 LT ISZERO PUSH2 0x2645 JUMPI PUSH10 0x32D26D12E980B600000 DUP2 LT ISZERO PUSH2 0x2630 JUMPI PUSH10 0x10F0CF064DD59200000 GT ISZERO PUSH2 0x261C JUMPI POP PUSH0 SWAP1 JUMP JUMPDEST PUSH4 0x3C26700 GT PUSH2 0x262B JUMPI PUSH1 0x2 SWAP1 JUMP JUMPDEST PUSH1 0x1 SWAP1 JUMP JUMPDEST POP PUSH4 0x3C26700 GT PUSH2 0x2640 JUMPI PUSH1 0x3 SWAP1 JUMP JUMPDEST PUSH1 0x2 SWAP1 JUMP JUMPDEST POP PUSH4 0x3C26700 GT PUSH2 0x2655 JUMPI PUSH1 0x4 SWAP1 JUMP JUMPDEST PUSH1 0x3 SWAP1 JUMP JUMPDEST POP PUSH4 0x3C26700 GT PUSH2 0x266A JUMPI PUSH1 0x4 SWAP1 JUMP JUMPDEST PUSH1 0x4 SWAP1 JUMP INVALID 0x2A SWAP6 PUSH6 0x427C30EC85C6 PUSH5 0x5C285A5C91 0x1F BLOBHASH 0xDC 0xD2 CALLDATASIZE 0xE STATICCALL SWAP13 0xB8 PC SWAP8 SWAP15 0xAD 0xBC JUMPI STOP 0xEC 0xDD CALLCODE MSTORE 0xAD SHL 0xE2 0xC8 SWAP12 PUSH10 0xC2B068FC378DAA952BA7 CALL PUSH4 0xC4A11628 CREATE2 GAS 0x4D CREATE2 0x23 0xB3 0xEF LOG2 PUSH5 0x6970667358 0x22 SLT KECCAK256 0xC5 SELFDESTRUCT ADDMOD 0xEC 0xD3 0x2E INVALID 0xDB BLOBHASH CALL 0xC7 0xDE 0xEE INVALID EXP PUSH14 0x94412E03BC54604FF3931A85A6A MCOPY LOG0 PUSH5 0x736F6C6343 STOP ADDMOD SHR STOP CALLER 0xDD CALLCODE MSTORE 0xAD SHL 0xE2 0xC8 SWAP12 PUSH10 0xC2B068FC378DAA952BA7 CALL PUSH4 0xC4A11628 CREATE2 GAS 0x4D CREATE2 0x23 0xB3 0xEF "},"methodIdentifiers":{"COMMUNITY_GOVERNANCE_ALLOCATION()":"a79775ed","CREATOR_INCENTIVES_ALLOCATION()":"1a5e3c9d","PLATFORM_DEVELOPMENT_ALLOCATION()":"30340337","TOTAL_SUPPLY()":"902d55a5","USER_REWARDS_ALLOCATION()":"d405d8d1","allowance(address,address)":"dd62ed3e","approve(address,uint256)":"095ea7b3","autoReplenishFromRevenue(uint256,uint256)":"47c5cd2a","balanceOf(address)":"70a08231","burn(uint256)":"42966c68","burnExcessSupply(uint256)":"bea5b795","burnFrom(address,uint256)":"79cc6790","buybackTokens(uint256)":"624c0cdd","creatorIncentivesEarned(address)":"bca671ed","creatorRewardsPool()":"2d252325","dailyUserRewardLimit()":"0deb3448","decimals()":"313ce567","decreaseAllowance(address,uint256)":"a457c2d7","emergencyPoolRebalance(uint256,string)":"778603eb","getPoolSustainabilityMetrics()":"d93fd0ac","getStakingInfo(address)":"aa4704f3","getUserDiscount(address)":"84fb3a9a","governancePool()":"cfdb2146","increaseAllowance(address,uint256)":"39509351","lastReplenishmentTime()":"3ce62d9f","lastRewardClaim(address)":"d8ad5231","monthlyRevenue()":"0b71e00b","name()":"06fdde03","owner()":"8da5cb5b","pause()":"8456cb59","paused()":"5c975abb","payCreatorIncentive(address,uint256)":"1bf3b46e","platformTreasury()":"e138818c","referralReward()":"4d683674","renounceOwnership()":"715018a6","replenishRewardsPool(uint256)":"b0c59001","rewardUser(address,uint256,string)":"64906198","setTokenAMM(address)":"e0d571ce","stakeForDiscount(uint256,uint256)":"ba759097","stakingInfo(address)":"94eecb50","symbol()":"95d89b41","tokenAMM()":"cb31c6f9","totalBuybacks()":"cb371f83","totalReplenished()":"de67507c","totalStaked()":"817b1cd2","totalSupply()":"18160ddd","transfer(address,uint256)":"a9059cbb","transferFrom(address,address,uint256)":"23b872dd","transferOwnership(address)":"f2fde38b","unpause()":"3f4ba83a","unstake()":"2def6620","updateRewardRates(uint256,uint256,uint256)":"bcc6cc41","usdcToken()":"11eac855","userRewardsEarned(address)":"9b6c701c","userRewardsPool()":"057c4db8","viewingRewardRate()":"6f7e3cc2"}}}}}