{"project/contracts/TokenAMM.sol":{"TokenAMM":{"abi":[{"inputs":[{"internalType":"address","name":"_stcToken","type":"address"},{"internalType":"address","name":"_usdcToken","type":"address"},{"internalType":"address","name":"_treasury","type":"address"}],"stateMutability":"nonpayable","type":"constructor"},{"anonymous":false,"inputs":[{"indexed":false,"internalType":"uint256","name":"usdcUsed","type":"uint256"},{"indexed":false,"internalType":"uint256","name":"stcBurned","type":"uint256"}],"name":"BuybackExecuted","type":"event"},{"anonymous":false,"inputs":[{"indexed":true,"internalType":"address","name":"provider","type":"address"},{"indexed":false,"internalType":"uint256","name":"stcAmount","type":"uint256"},{"indexed":false,"internalType":"uint256","name":"usdcAmount","type":"uint256"},{"indexed":false,"internalType":"uint256","name":"lpMinted","type":"uint256"}],"name":"LiquidityAdded","type":"event"},{"anonymous":false,"inputs":[{"indexed":true,"internalType":"address","name":"provider","type":"address"},{"indexed":false,"internalType":"uint256","name":"stcAmount","type":"uint256"},{"indexed":false,"internalType":"uint256","name":"usdcAmount","type":"uint256"},{"indexed":false,"internalType":"uint256","name":"lpBurned","type":"uint256"}],"name":"LiquidityRemoved","type":"event"},{"anonymous":false,"inputs":[{"indexed":true,"internalType":"address","name":"previousOwner","type":"address"},{"indexed":true,"internalType":"address","name":"newOwner","type":"address"}],"name":"OwnershipTransferred","type":"event"},{"anonymous":false,"inputs":[{"indexed":false,"internalType":"address","name":"account","type":"address"}],"name":"Paused","type":"event"},{"anonymous":false,"inputs":[{"indexed":false,"internalType":"uint256","name":"newRevenue","type":"uint256"},{"indexed":false,"internalType":"uint256","name":"timestamp","type":"uint256"}],"name":"RevenueUpdated","type":"event"},{"anonymous":false,"inputs":[{"indexed":true,"internalType":"address","name":"trader","type":"address"},{"indexed":true,"internalType":"address","name":"tokenIn","type":"address"},{"indexed":true,"internalType":"address","name":"tokenOut","type":"address"},{"indexed":false,"internalType":"uint256","name":"amountIn","type":"uint256"},{"indexed":false,"internalType":"uint256","name":"amountOut","type":"uint256"}],"name":"TokenSwapped","type":"event"},{"anonymous":false,"inputs":[{"indexed":false,"internalType":"address","name":"account","type":"address"}],"name":"Unpaused","type":"event"},{"inputs":[{"internalType":"uint256","name":"stcAmount","type":"uint256"},{"internalType":"uint256","name":"usdcAmount","type":"uint256"},{"internalType":"uint256","name":"minLp","type":"uint256"}],"name":"addLiquidity","outputs":[{"internalType":"uint256","name":"lpMinted","type":"uint256"}],"stateMutability":"nonpayable","type":"function"},{"inputs":[],"name":"buybackPercentage","outputs":[{"internalType":"uint256","name":"","type":"uint256"}],"stateMutability":"view","type":"function"},{"inputs":[],"name":"buybackReserve","outputs":[{"internalType":"uint256","name":"","type":"uint256"}],"stateMutability":"view","type":"function"},{"inputs":[{"internalType":"address","name":"token","type":"address"},{"internalType":"uint256","name":"amount","type":"uint256"}],"name":"emergencyWithdraw","outputs":[],"stateMutability":"nonpayable","type":"function"},{"inputs":[{"internalType":"uint256","name":"usdcAmount","type":"uint256"}],"name":"executeBuyback","outputs":[],"stateMutability":"nonpayable","type":"function"},{"inputs":[],"name":"getPoolInfo","outputs":[{"internalType":"uint256","name":"","type":"uint256"},{"internalType":"uint256","name":"","type":"uint256"},{"internalType":"uint256","name":"","type":"uint256"},{"internalType":"uint256","name":"","type":"uint256"},{"internalType":"uint256","name":"","type":"uint256"}],"stateMutability":"view","type":"function"},{"inputs":[],"name":"getSTCPrice","outputs":[{"internalType":"uint256","name":"","type":"uint256"}],"stateMutability":"view","type":"function"},{"inputs":[{"internalType":"uint256","name":"usdcAmount","type":"uint256"}],"name":"getStcAmountOut","outputs":[{"internalType":"uint256","name":"","type":"uint256"}],"stateMutability":"view","type":"function"},{"inputs":[],"name":"lastRevenueUpdate","outputs":[{"internalType":"uint256","name":"","type":"uint256"}],"stateMutability":"view","type":"function"},{"inputs":[],"name":"lpToken","outputs":[{"internalType":"contract LPToken","name":"","type":"address"}],"stateMutability":"view","type":"function"},{"inputs":[],"name":"maxPriceImpact","outputs":[{"internalType":"uint256","name":"","type":"uint256"}],"stateMutability":"view","type":"function"},{"inputs":[],"name":"maxTradeSize","outputs":[{"internalType":"uint256","name":"","type":"uint256"}],"stateMutability":"view","type":"function"},{"inputs":[],"name":"monthlyPlatformRevenue","outputs":[{"internalType":"uint256","name":"","type":"uint256"}],"stateMutability":"view","type":"function"},{"inputs":[],"name":"owner","outputs":[{"internalType":"address","name":"","type":"address"}],"stateMutability":"view","type":"function"},{"inputs":[],"name":"pause","outputs":[],"stateMutability":"nonpayable","type":"function"},{"inputs":[],"name":"paused","outputs":[{"internalType":"bool","name":"","type":"bool"}],"stateMutability":"view","type":"function"},{"inputs":[],"name":"protocolFeeShare","outputs":[{"internalType":"uint256","name":"","type":"uint256"}],"stateMutability":"view","type":"function"},{"inputs":[{"internalType":"uint256","name":"lpAmount","type":"uint256"},{"internalType":"uint256","name":"minStc","type":"uint256"},{"internalType":"uint256","name":"minUsdc","type":"uint256"}],"name":"removeLiquidity","outputs":[{"internalType":"uint256","name":"stcOut","type":"uint256"},{"internalType":"uint256","name":"usdcOut","type":"uint256"}],"stateMutability":"nonpayable","type":"function"},{"inputs":[],"name":"renounceOwnership","outputs":[],"stateMutability":"nonpayable","type":"function"},{"inputs":[],"name":"stcReserve","outputs":[{"internalType":"uint256","name":"","type":"uint256"}],"stateMutability":"view","type":"function"},{"inputs":[],"name":"stcToken","outputs":[{"internalType":"contract StudioToken","name":"","type":"address"}],"stateMutability":"view","type":"function"},{"inputs":[{"internalType":"uint256","name":"stcIn","type":"uint256"},{"internalType":"uint256","name":"minUsdcOut","type":"uint256"}],"name":"swapSTCForUSDC","outputs":[{"internalType":"uint256","name":"usdcOut","type":"uint256"}],"stateMutability":"nonpayable","type":"function"},{"inputs":[{"internalType":"uint256","name":"usdcIn","type":"uint256"},{"internalType":"uint256","name":"minStcOut","type":"uint256"}],"name":"swapUSDCForSTC","outputs":[{"internalType":"uint256","name":"stcOut","type":"uint256"}],"stateMutability":"nonpayable","type":"function"},{"inputs":[],"name":"tradingFee","outputs":[{"internalType":"uint256","name":"","type":"uint256"}],"stateMutability":"view","type":"function"},{"inputs":[{"internalType":"address","name":"newOwner","type":"address"}],"name":"transferOwnership","outputs":[],"stateMutability":"nonpayable","type":"function"},{"inputs":[],"name":"treasury","outputs":[{"internalType":"address","name":"","type":"address"}],"stateMutability":"view","type":"function"},{"inputs":[],"name":"unpause","outputs":[],"stateMutability":"nonpayable","type":"function"},{"inputs":[{"internalType":"uint256","name":"newRevenue","type":"uint256"}],"name":"updatePlatformRevenue","outputs":[],"stateMutability":"nonpayable","type":"function"},{"inputs":[{"internalType":"uint256","name":"_tradingFee","type":"uint256"},{"internalType":"uint256","name":"_maxImpact","type":"uint256"},{"internalType":"uint256","name":"_maxTradeSize","type":"uint256"}],"name":"updateTradingParameters","outputs":[],"stateMutability":"nonpayable","type":"function"},{"inputs":[],"name":"usdcReserve","outputs":[{"internalType":"uint256","name":"","type":"uint256"}],"stateMutability":"view","type":"function"},{"inputs":[],"name":"usdcToken","outputs":[{"internalType":"contract IERC20","name":"","type":"address"}],"stateMutability":"view","type":"function"}],"evm":{"bytecode":{"linkReferences":{},"object":"608080604052346101b457606081612d41803803809161001f82856101cc565b8339810103126101b457610032816101ef565b9061004b6040610044602084016101ef565b92016101ef565b5f8054336001600160a01b0319821681178355604051959394939290916001600160a01b0316907f8be0079c531659141344cd1fd0a4f28419497f9722a3daafe3b4186f6b6457e09080a36001805560028054610320600a908155601e600c55600d556101f4600e5569152d02c7e14af6800000600f556001600160a81b03191660089290921b610100600160a81b0316919091179055600380546001600160a01b03199081166001600160a01b03938416179091556004805490911692909116919091179055610f9c8181016001600160401b038111838210176101b8578291611da5833903905ff080156101a957600580546001600160a01b0319166001600160a01b03929092169182179055803b156101b4575f809160246040518094819363f2fde38b60e01b83523060048401525af180156101a957610199575b604051611ba190816102048239f35b5f6101a3916101cc565b5f61018a565b6040513d5f823e3d90fd5b5f80fd5b634e487b7160e01b5f52604160045260245ffd5b601f909101601f19168101906001600160401b038211908210176101b857604052565b51906001600160a01b03821682036101b45756fe6080806040526004361015610012575f80fd5b5f905f3560e01c90816310fa79e2146115645750806311eac8551461153c57806316c8357f1461151f57806327453ef9146114815780633ac932761461127e5780633f4ba83a146111eb578063422f104314610e1c57806342854c5414610dfe57806356f4335214610de05780635c975abb14610dbd5780635fcbd28514610d9457806360246c8814610c7d57806361d027b314610c545780636869c67314610b025780636a5809cc14610ae4578063715018a614610a8a57806371b59c5814610a6f5780638456cb5914610a14578063857620e1146107875780638da5cb5b1461076057806395ccea6714610655578063960b26a214610637578063b8e4c9c914610619578063d60ec282146105f2578063e9573bc2146105d4578063f10de81b14610319578063f2792c23146102ec578063f2fde38b14610226578063f59eb2dc14610208578063fa86f649146101935763ff90956014610173575f80fd5b346101905780600319360112610190576020600954604051908152f35b80fd5b5034610190576020366003190112610190577fea69ac0d1d4089d1beeb438a97b8828b39e2b7bc649baf674b8d5a375bf88b7460406004356101d36118a5565b8060085542600b556101f66127106101ed600a54846117dd565b04600954611720565b6009558151908152426020820152a180f35b50346101905780600319360112610190576020600a54604051908152f35b5034610190576020366003190112610190576102406115ae565b6102486118a5565b6001600160a01b031680156102985781546001600160a01b03198116821783556001600160a01b03167f8be0079c531659141344cd1fd0a4f28419497f9722a3daafe3b4186f6b6457e08380a380f35b60405162461bcd60e51b815260206004820152602660248201527f4f776e61626c653a206e6577206f776e657220697320746865207a65726f206160448201526564647265737360d01b6064820152608490fd5b503461019057806003193601126101905760025460405160089190911c6001600160a01b03168152602090f35b50346101905761032836611598565b906103316118fc565b610339611952565b6103448115156115c4565b600754600654610355818385611a53565b929094851015806105c8575b156105835761037e916103749185611996565b600e541015611600565b6003546040516323b872dd60e01b815233600482015230602482015260448101849052906020908290606490829089906001600160a01b03165af18015610559576103d0918691610564575b5061174e565b6103dc82600754611720565b6007556103eb83600654611741565b60065560025460405163a9059cbb60e01b81523360048201526024810185905290602090829060081c6001600160a01b03168188816044810103925af180156105595761043f91869161053a575b506116de565b806104a0575b60035460025460408051858152602081810188905293879360081c6001600160a01b039081169391169133917fd36cc53ba71bc76a3db3364981f5296dd4ca5eba0e8c89874f2170515bd20d2491a460018055604051908152f35b6002546004805460405163a9059cbb60e01b81526001600160a01b039182169281019290925260248201939093529160209183916044918391899160081c165af190811561052f57906104fc9160209591610502575b50611791565b5f610445565b6105229150853d8711610528575b61051a8183611690565b8101906116c6565b5f6104f6565b503d610510565b6040513d86823e3d90fd5b610553915060203d6020116105285761051a8183611690565b5f610439565b6040513d87823e3d90fd5b61057d915060203d6020116105285761051a8183611690565b5f6103ca565b60405162461bcd60e51b815260206004820152601b60248201527f536c697070616765206f7220747261646520746f6f206c6172676500000000006044820152606490fd5b50600f54851115610361565b50346101905780600319360112610190576020600654604051908152f35b5034610190576020366003190112610190576020610611600435611873565b604051908152f35b50346101905780600319360112610190576020600b54604051908152f35b50346101905780600319360112610190576020600d54604051908152f35b50346101905760403660031901126101905761066f6115ae565b6106776118a5565b6002546001600160a01b039182169160089190911c168114158061074b575b1561070657815460405163a9059cbb60e01b81526001600160a01b0390911660048201526024803590820152906020908290604490829086905af180156106fb576106df575080f35b6106f79060203d6020116105285761051a8183611690565b5080f35b6040513d84823e3d90fd5b60405162461bcd60e51b815260206004820152601d60248201527f43616e6e6f7420776974686472617720636f72652072657365727665730000006044820152606490fd5b506003546001600160a01b0316811415610696565b5034610190578060031936011261019057546040516001600160a01b039091168152602090f35b5034610190576107963661157e565b90916107a06118fc565b6107a8611952565b80156109db576005546040516318160ddd60e01b81529385916001600160a01b031690602086600481855afa9586156109d0578396610992575b50610837906006549661082f610801826107fc8b8a6117dd565b6117f0565b809961082a610817600754956107fc878d6117dd565b9a8b968410159081610987575b50611644565b611741565b600655611741565b600755803b1561098357604051632770a7eb60e21b8152336004820152602481018490529082908290604490829084905af180156106fb5761096a575b505060025460405163a9059cbb60e01b81523360048201526024810185905290602090829060081c6001600160a01b03168188816044810103925af18015610559576108c691869161053a57506116de565b60035460405163a9059cbb60e01b815233600482015260248101849052906020908290604490829089906001600160a01b03165af190811561055957906109159160409691610564575061174e565b7f1dc8bb69df2b8e91fbdcbfcf93d951b3f0000f085a95fe3f7946d6161439245d84518061095733948688846040919493926060820195825260208201520152565b0390a26001805582519182526020820152f35b8161097491611690565b61097f57835f610874565b8380fd5b5080fd5b90508610155f610824565b925094506020823d6020116109c8575b816109af60209383611690565b810103126109c45761083786925195906107e2565b5f80fd5b3d91506109a2565b6040513d85823e3d90fd5b60405162461bcd60e51b8152602060048201526011602482015270125b9d985b1a5908131408185b5bdd5b9d607a1b6044820152606490fd5b5034610190578060031936011261019057610a2d6118a5565b610a35611952565b600160ff1960025416176002557f62e78cea01bee320cd4e420270b5ea74000d11b0c9f74754ebdbfc544b05a2586020604051338152a180f35b5034610190578060031936011261019057602061061161180e565b5034610190578060031936011261019057610aa36118a5565b80546001600160a01b03198116825581906001600160a01b03167f8be0079c531659141344cd1fd0a4f28419497f9722a3daafe3b4186f6b6457e08280a380f35b50346101905780600319360112610190576020600754604051908152f35b503461019057602036600319011261019057600435610b1f6118a5565b610b276118fc565b610b2f611952565b80151580610c48575b15610c0a5780610b66600754600654610b5e610b55828487611a53565b50948593611720565b600755611741565b600655610b7582600954611741565b600955600254839060081c6001600160a01b0316803b1561098357818091602460405180948193630852cd8d60e31b83528860048401525af180156106fb57610bf1575b507f8e8412cac6b961b95ef832e2bac486977bbd29eb9725f9eddd97f3380c31f6496040848482519182526020820152a16001805580f35b81610bfb91611690565b610c0657825f610bb9565b8280fd5b60405162461bcd60e51b8152602060048201526016602482015275125b9d985b1a5908189d5e589858dac8185b5bdd5b9d60521b6044820152606490fd5b50600954811115610b38565b50346101905780600319360112610190576004546040516001600160a01b039091168152602090f35b50346101905780600319360112610190576006546007546005546040516318160ddd60e01b81529390602090859060049082906001600160a01b03165afa938415610d87578194610d53575b50604051630e36b38b60e31b815293602085600481305afa918215610d475791610d12575b60a09450600854926040519485526020850152604084015260608301526080820152f35b90506020843d602011610d3f575b81610d2d60209383611690565b810103126109c45760a0935190610cee565b3d9150610d20565b604051903d90823e3d90fd5b9093506020813d602011610d7f575b81610d6f60209383611690565b810103126109c45751925f610cc9565b3d9150610d62565b50604051903d90823e3d90fd5b50346101905780600319360112610190576005546040516001600160a01b039091168152602090f35b5034610190578060031936011261019057602060ff600254166040519015158152f35b50346101905780600319360112610190576020600c54604051908152f35b50346101905780600319360112610190576020600854604051908152f35b346109c457610e2a3661157e565b9091610e346118fc565b610e3c611952565b801515806111e2575b156111ab576002546040516323b872dd60e01b81523360048201523060248201526044810183905290602090829060081c6001600160a01b0316815f816064810103925af18015610ff757610ea0915f9161118c57506116de565b6003546040516323b872dd60e01b81523360048201523060248201526044810185905290602090829060649082905f906001600160a01b03165af18015610ff757610ef1915f9161116d575061174e565b6005546040516318160ddd60e01b81526001600160a01b0390911690602081600481855afa908115610ff7575f9161113b575b5061104657610f3b610f3685846117dd565b611add565b925b831061100257610f4f82600654611720565b600655610f5e84600754611720565b600755803b156109c4576040516340c10f1960e01b815233600482015260248101849052905f908290604490829084905af18015610ff7576020947f64b83944e79c3ce8d4c297411de637c3e102d064677aac0c163976ebdcd6f50e928592610fe7575b506040805194855260208501919091528301523391606090a260018055604051908152f35b5f610ff191611690565b5f610fc2565b6040513d5f823e3d90fd5b606460405162461bcd60e51b815260206004820152602060248201527f536c6970706167653a20696e73756666696369656e74204c50206d696e7465646044820152fd5b6040516318160ddd60e01b8152602081600481855afa908115610ff7575f91611107575b5061107861108191846117dd565b600654906117f0565b6040516318160ddd60e01b8152602081600481865afa908115610ff7575f916110d3575b506110b36110bc91876117dd565b600754906117f0565b808210156110cc57505b92610f3d565b90506110c6565b90506020813d6020116110ff575b816110ee60209383611690565b810103126109c457516110b36110a5565b3d91506110e1565b90506020813d602011611133575b8161112260209383611690565b810103126109c4575161107861106a565b3d9150611115565b90506020813d602011611165575b8161115660209383611690565b810103126109c4575185610f24565b3d9150611149565b611186915060203d6020116105285761051a8183611690565b856103ca565b6111a5915060203d6020116105285761051a8183611690565b85610439565b60405162461bcd60e51b815260206004820152600f60248201526e496e76616c696420616d6f756e747360881b6044820152606490fd5b50821515610e45565b346109c4575f3660031901126109c4576112036118a5565b60025460ff8116156112425760ff19166002557f5db9ee0a495bf2e6ff9c91a7834c1ba4fdd244a5e8aa4e537bd38aeae4b073aa6020604051338152a1005b60405162461bcd60e51b815260206004820152601460248201527314185d5cd8589b194e881b9bdd081c185d5cd95960621b6044820152606490fd5b346109c4576112db61128f36611598565b906112986118fc565b6112a0611952565b80151580611475575b6112b2906115c4565b6112d0600654600754906112ca610374838387611996565b83611a53565b939092831015611644565b6002546040516323b872dd60e01b81523360048201523060248201526044810183905290602090829060081c6001600160a01b0316815f816064810103925af18015610ff757611331915f9161118c57506116de565b61133d81600654611720565b60065561134c82600754611741565b60075560035460405163a9059cbb60e01b81523360048201526024810184905290602090829060449082905f906001600160a01b03165af18015610ff75761139a915f9161116d575061174e565b826113fb575b6020925060018060a01b0360025460081c1660018060a01b03600354169160405190815283858201527fd36cc53ba71bc76a3db3364981f5296dd4ca5eba0e8c89874f2170515bd20d2460403392a460018055604051908152f35b6003546004805460405163a9059cbb60e01b81526001600160a01b0391821692810192909252602482019590955293602091859160449183915f91165af1928315610ff757602093611453915f916114585750611791565b6113a0565b61146f9150853d87116105285761051a8183611690565b856104f6565b50600f548111156112a9565b346109c45761148f3661157e565b916114986118a5565b606481116114eb576103e882116114b457600c55600e55600f55005b60405162461bcd60e51b815260206004820152600f60248201526e092dae0c2c6e840e8dede40d0d2ced608b1b6044820152606490fd5b60405162461bcd60e51b815260206004820152600c60248201526b08ccaca40e8dede40d0d2ced60a31b6044820152606490fd5b346109c4575f3660031901126109c4576020600e54604051908152f35b346109c4575f3660031901126109c4576003546040516001600160a01b039091168152602090f35b346109c4575f3660031901126109c457602090600f548152f35b60609060031901126109c457600435906024359060443590565b60409060031901126109c4576004359060243590565b600435906001600160a01b03821682036109c457565b156115cb57565b60405162461bcd60e51b815260206004820152600d60248201526c125b9d985b1a59081a5b9c1d5d609a1b6044820152606490fd5b1561160757565b60405162461bcd60e51b81526020600482015260156024820152740a0e4d2c6ca40d2dae0c2c6e840e8dede40d0d2ced605b1b6044820152606490fd5b1561164b57565b60405162461bcd60e51b815260206004820152601d60248201527f536c6970706167653a20696e73756666696369656e74206f75747075740000006044820152606490fd5b90601f8019910116810190811067ffffffffffffffff8211176116b257604052565b634e487b7160e01b5f52604160045260245ffd5b908160209103126109c4575180151581036109c45790565b156116e557565b60405162461bcd60e51b815260206004820152601360248201527214d510c81d1c985b9cd9995c8819985a5b1959606a1b6044820152606490fd5b9190820180921161172d57565b634e487b7160e01b5f52601160045260245ffd5b9190820391821161172d57565b1561175557565b60405162461bcd60e51b81526020600482015260146024820152731554d110c81d1c985b9cd9995c8819985a5b195960621b6044820152606490fd5b1561179857565b60405162461bcd60e51b815260206004820152601c60248201527f50726f746f636f6c20666565207472616e73666572206661696c6564000000006044820152606490fd5b8181029291811591840414171561172d57565b81156117fa570490565b634e487b7160e01b5f52601260045260245ffd5b60065480158015611869575b6118645760075490670de0b6b3a7640000820291808304670de0b6b3a7640000149015171561172d57611852611860916064936117f0565b61185a611b23565b906117dd565b0490565b505f90565b506007541561181a565b600754908115801561189b575b611895576118919160065491611a53565b5090565b50505f90565b5060065415611880565b5f546001600160a01b031633036118b857565b606460405162461bcd60e51b815260206004820152602060248201527f4f776e61626c653a2063616c6c6572206973206e6f7420746865206f776e65726044820152fd5b60026001541461190d576002600155565b60405162461bcd60e51b815260206004820152601f60248201527f5265656e7472616e637947756172643a207265656e7472616e742063616c6c006044820152606490fd5b60ff6002541661195e57565b60405162461bcd60e51b815260206004820152601060248201526f14185d5cd8589b194e881c185d5cd95960821b6044820152606490fd5b9091670de0b6b3a7640000810290808204670de0b6b3a7640000148115171561172d576119ee6119c9856119f4946117f0565b946119e86119d78683611720565b956119e285826117dd565b92611720565b906117f0565b90611741565b90670de0b6b3a7640000820291808304670de0b6b3a7640000149015171561172d57611a1f916117f0565b8181101561189557611a319082611741565b90612710820291808304612710149015171561172d57611a50916117f0565b90565b9080151580611ad4575b15611aa0576119e8611a9d926119e26064611a95611a8b612710611a83600c54876117dd565b048095611741565b93600d54906117dd565b0495826117dd565b91565b60405162461bcd60e51b815260206004820152600c60248201526b4e6f206c697175696469747960a01b6044820152606490fd5b50821515611a5d565b908115611b1e576001820180831161172d5760011c825b838210611aff575050565b909250611b1583611b1081846117f0565b611720565b60011c90611af4565b5f9150565b6008548015611b6557620f42406103e891040460058102908082046005149015171561172d576064018060641161172d5761012c811115611a50575061012c90565b5060649056fea2646970667358221220af12ba586817c7cfb3bddfc6cbc89193cfdf21ebe14b7f01d2f8565f4b1ace9e64736f6c634300081c003360806040523461035e57604080519081016001600160401b03811182821017610271576040908152600e82526d053747564696f436861696e204c560941b602083015280519081016001600160401b0381118282101761027157604052600681526505354432d4c560d41b602082015281516001600160401b03811161027157600354600181811c91168015610354575b602082101461025357601f81116102f1575b50602092601f821160011461029057928192935f92610285575b50508160011b915f199060031b1c1916176003555b80516001600160401b03811161027157600454600181811c91168015610267575b602082101461025357601f81116101f0575b50602091601f8211600114610190579181925f92610185575b50508160011b915f199060031b1c1916176004555b60058054336001600160a01b03198216811790925560405191906001600160a01b03167f8be0079c531659141344cd1fd0a4f28419497f9722a3daafe3b4186f6b6457e05f80a3610c3990816103638239f35b015190505f8061011d565b601f1982169260045f52805f20915f5b8581106101d8575083600195106101c0575b505050811b01600455610132565b01515f1960f88460031b161c191690555f80806101b2565b919260206001819286850151815501940192016101a0565b60045f527f8a35acfbc15ff81a39ae7d344fd709f28e8600b4aa8c65c6b64bfe7fe36bd19b601f830160051c81019160208410610249575b601f0160051c01905b81811061023e5750610104565b5f8155600101610231565b9091508190610228565b634e487b7160e01b5f52602260045260245ffd5b90607f16906100f2565b634e487b7160e01b5f52604160045260245ffd5b015190505f806100bc565b601f1982169360035f52805f20915f5b8681106102d957508360019596106102c1575b505050811b016003556100d1565b01515f1960f88460031b161c191690555f80806102b3565b919260206001819286850151815501940192016102a0565b60035f527fc2575a0e9e593c00f959f8c92f12db2869c3395a3b0502d05e2516446f71f85b601f830160051c8101916020841061034a575b601f0160051c01905b81811061033f57506100a2565b5f8155600101610332565b9091508190610329565b90607f1690610090565b5f80fdfe6080806040526004361015610012575f80fd5b5f3560e01c90816306fdde03146107eb57508063095ea7b3146107c557806318160ddd146107a857806323b872dd146106eb578063313ce567146106d0578063395093511461068257806340c10f19146105bb57806370a0823114610584578063715018a6146105295780638da5cb5b1461050157806395d89b41146103e65780639dc29fac146102bb578063a457c2d714610218578063a9059cbb146101e7578063dd62ed3e146101975763f2fde38b146100cc575f80fd5b34610193576020366003190112610193576100e56108e4565b6100ed610bab565b6001600160a01b0316801561013f57600580546001600160a01b0319811683179091556001600160a01b03167f8be0079c531659141344cd1fd0a4f28419497f9722a3daafe3b4186f6b6457e05f80a3005b60405162461bcd60e51b815260206004820152602660248201527f4f776e61626c653a206e6577206f776e657220697320746865207a65726f206160448201526564647265737360d01b6064820152608490fd5b5f80fd5b34610193576040366003190112610193576101b06108e4565b6101b86108fa565b6001600160a01b039182165f908152600160209081526040808320949093168252928352819020549051908152f35b346101935760403660031901126101935761020d6102036108e4565b6024359033610a35565b602060405160018152f35b34610193576040366003190112610193576102316108e4565b60243590335f52600160205260405f2060018060a01b0382165f5260205260405f2054918083106102685761020d92039033610931565b60405162461bcd60e51b815260206004820152602560248201527f45524332303a2064656372656173656420616c6c6f77616e63652062656c6f77604482015264207a65726f60d81b6064820152608490fd5b34610193576040366003190112610193576102d46108e4565b602435906102e0610bab565b6001600160a01b0316801561039757805f525f60205260405f205491808310610347576020817fddf252ad1be2c89b69c2b068fc378daa952ba7f163c4a11628f55a4df523b3ef925f958587528684520360408620558060025403600255604051908152a3005b60405162461bcd60e51b815260206004820152602260248201527f45524332303a206275726e20616d6f756e7420657863656564732062616c616e604482015261636560f01b6064820152608490fd5b60405162461bcd60e51b815260206004820152602160248201527f45524332303a206275726e2066726f6d20746865207a65726f206164647265736044820152607360f81b6064820152608490fd5b34610193575f366003190112610193576040515f6004548060011c906001811680156104f7575b6020831081146104e3578285529081156104c75750600114610472575b50819003601f01601f191681019067ffffffffffffffff82118183101761045e5761045a829182604052826108ba565b0390f35b634e487b7160e01b5f52604160045260245ffd5b905060045f527f8a35acfbc15ff81a39ae7d344fd709f28e8600b4aa8c65c6b64bfe7fe36bd19b5f905b8282106104b15750602091508201018261042a565b600181602092548385880101520191019061049c565b90506020925060ff191682840152151560051b8201018261042a565b634e487b7160e01b5f52602260045260245ffd5b91607f169161040d565b34610193575f366003190112610193576005546040516001600160a01b039091168152602090f35b34610193575f36600319011261019357610541610bab565b600580546001600160a01b031981169091555f906001600160a01b03167f8be0079c531659141344cd1fd0a4f28419497f9722a3daafe3b4186f6b6457e08280a3005b34610193576020366003190112610193576001600160a01b036105a56108e4565b165f525f602052602060405f2054604051908152f35b34610193576040366003190112610193576105d46108e4565b602435906105e0610bab565b6001600160a01b031690811561063d577fddf252ad1be2c89b69c2b068fc378daa952ba7f163c4a11628f55a4df523b3ef6020826106215f94600254610910565b60025584845283825260408420818154019055604051908152a3005b60405162461bcd60e51b815260206004820152601f60248201527f45524332303a206d696e7420746f20746865207a65726f2061646472657373006044820152606490fd5b346101935760403660031901126101935761020d61069e6108e4565b335f52600160205260405f2060018060a01b0382165f526020526106c960405f206024359054610910565b9033610931565b34610193575f36600319011261019357602060405160128152f35b34610193576060366003190112610193576107046108e4565b61070c6108fa565b6001600160a01b0382165f908152600160208181526040808420338552909152909120549260443592918401610747575b61020d9350610a35565b8284106107635761075e8361020d95033383610931565b61073d565b60405162461bcd60e51b815260206004820152601d60248201527f45524332303a20696e73756666696369656e7420616c6c6f77616e63650000006044820152606490fd5b34610193575f366003190112610193576020600254604051908152f35b346101935760403660031901126101935761020d6107e16108e4565b6024359033610931565b34610193575f366003190112610193575f6003548060011c906001811680156108b0575b6020831081146104e3578285529081156104c7575060011461085b5750819003601f01601f191681019067ffffffffffffffff82118183101761045e5761045a829182604052826108ba565b905060035f527fc2575a0e9e593c00f959f8c92f12db2869c3395a3b0502d05e2516446f71f85b5f905b82821061089a5750602091508201018261042a565b6001816020925483858801015201910190610885565b91607f169161080f565b602060409281835280519182918282860152018484015e5f828201840152601f01601f1916010190565b600435906001600160a01b038216820361019357565b602435906001600160a01b038216820361019357565b9190820180921161091d57565b634e487b7160e01b5f52601160045260245ffd5b6001600160a01b03169081156109e4576001600160a01b03169182156109945760207f8c5be1e5ebec7d5bd14f71427d1e84f3dd0314c0f7b2291e5b200ac8c7c3b92591835f526001825260405f20855f5282528060405f2055604051908152a3565b60405162461bcd60e51b815260206004820152602260248201527f45524332303a20617070726f766520746f20746865207a65726f206164647265604482015261737360f01b6064820152608490fd5b60405162461bcd60e51b8152602060048201526024808201527f45524332303a20617070726f76652066726f6d20746865207a65726f206164646044820152637265737360e01b6064820152608490fd5b6001600160a01b0316908115610b58576001600160a01b0316918215610b0757815f525f60205260405f2054818110610ab357817fddf252ad1be2c89b69c2b068fc378daa952ba7f163c4a11628f55a4df523b3ef92602092855f525f84520360405f2055845f525f825260405f20818154019055604051908152a3565b60405162461bcd60e51b815260206004820152602660248201527f45524332303a207472616e7366657220616d6f756e7420657863656564732062604482015265616c616e636560d01b6064820152608490fd5b60405162461bcd60e51b815260206004820152602360248201527f45524332303a207472616e7366657220746f20746865207a65726f206164647260448201526265737360e81b6064820152608490fd5b60405162461bcd60e51b815260206004820152602560248201527f45524332303a207472616e736665722066726f6d20746865207a65726f206164604482015264647265737360d81b6064820152608490fd5b6005546001600160a01b03163303610bbf57565b606460405162461bcd60e51b815260206004820152602060248201527f4f776e61626c653a2063616c6c6572206973206e6f7420746865206f776e65726044820152fdfea2646970667358221220f02003dee788adcdda6f882e966ef0639c2b305636aedfc27d3a97e442c4cb5664736f6c634300081c0033","opcodes":"PUSH1 0x80 DUP1 PUSH1 0x40 MSTORE CALLVALUE PUSH2 0x1B4 JUMPI PUSH1 0x60 DUP2 PUSH2 0x2D41 DUP1 CODESIZE SUB DUP1 SWAP2 PUSH2 0x1F DUP3 DUP6 PUSH2 0x1CC JUMP JUMPDEST DUP4 CODECOPY DUP2 ADD SUB SLT PUSH2 0x1B4 JUMPI PUSH2 0x32 DUP2 PUSH2 0x1EF JUMP JUMPDEST SWAP1 PUSH2 0x4B PUSH1 0x40 PUSH2 0x44 PUSH1 0x20 DUP5 ADD PUSH2 0x1EF JUMP JUMPDEST SWAP3 ADD PUSH2 0x1EF JUMP JUMPDEST PUSH0 DUP1 SLOAD CALLER PUSH1 0x1 PUSH1 0x1 PUSH1 0xA0 SHL SUB NOT DUP3 AND DUP2 OR DUP4 SSTORE PUSH1 0x40 MLOAD SWAP6 SWAP4 SWAP5 SWAP4 SWAP3 SWAP1 SWAP2 PUSH1 0x1 PUSH1 0x1 PUSH1 0xA0 SHL SUB AND SWAP1 PUSH32 0x8BE0079C531659141344CD1FD0A4F28419497F9722A3DAAFE3B4186F6B6457E0 SWAP1 DUP1 LOG3 PUSH1 0x1 DUP1 SSTORE PUSH1 0x2 DUP1 SLOAD PUSH2 0x320 PUSH1 0xA SWAP1 DUP2 SSTORE PUSH1 0x1E PUSH1 0xC SSTORE PUSH1 0xD SSTORE PUSH2 0x1F4 PUSH1 0xE SSTORE PUSH10 0x152D02C7E14AF6800000 PUSH1 0xF SSTORE PUSH1 0x1 PUSH1 0x1 PUSH1 0xA8 SHL SUB NOT AND PUSH1 0x8 SWAP3 SWAP1 SWAP3 SHL PUSH2 0x100 PUSH1 0x1 PUSH1 0xA8 SHL SUB AND SWAP2 SWAP1 SWAP2 OR SWAP1 SSTORE PUSH1 0x3 DUP1 SLOAD PUSH1 0x1 PUSH1 0x1 PUSH1 0xA0 SHL SUB NOT SWAP1 DUP2 AND PUSH1 0x1 PUSH1 0x1 PUSH1 0xA0 SHL SUB SWAP4 DUP5 AND OR SWAP1 SWAP2 SSTORE PUSH1 0x4 DUP1 SLOAD SWAP1 SWAP2 AND SWAP3 SWAP1 SWAP2 AND SWAP2 SWAP1 SWAP2 OR SWAP1 SSTORE PUSH2 0xF9C DUP2 DUP2 ADD PUSH1 0x1 PUSH1 0x1 PUSH1 0x40 SHL SUB DUP2 GT DUP4 DUP3 LT OR PUSH2 0x1B8 JUMPI DUP3 SWAP2 PUSH2 0x1DA5 DUP4 CODECOPY SUB SWAP1 PUSH0 CREATE DUP1 ISZERO PUSH2 0x1A9 JUMPI PUSH1 0x5 DUP1 SLOAD PUSH1 0x1 PUSH1 0x1 PUSH1 0xA0 SHL SUB NOT AND PUSH1 0x1 PUSH1 0x1 PUSH1 0xA0 SHL SUB SWAP3 SWAP1 SWAP3 AND SWAP2 DUP3 OR SWAP1 SSTORE DUP1 EXTCODESIZE ISZERO PUSH2 0x1B4 JUMPI PUSH0 DUP1 SWAP2 PUSH1 0x24 PUSH1 0x40 MLOAD DUP1 SWAP5 DUP2 SWAP4 PUSH4 0xF2FDE38B PUSH1 0xE0 SHL DUP4 MSTORE ADDRESS PUSH1 0x4 DUP5 ADD MSTORE GAS CALL DUP1 ISZERO PUSH2 0x1A9 JUMPI PUSH2 0x199 JUMPI JUMPDEST PUSH1 0x40 MLOAD PUSH2 0x1BA1 SWAP1 DUP2 PUSH2 0x204 DUP3 CODECOPY RETURN JUMPDEST PUSH0 PUSH2 0x1A3 SWAP2 PUSH2 0x1CC JUMP JUMPDEST PUSH0 PUSH2 0x18A JUMP JUMPDEST PUSH1 0x40 MLOAD RETURNDATASIZE PUSH0 DUP3 RETURNDATACOPY RETURNDATASIZE SWAP1 REVERT JUMPDEST PUSH0 DUP1 REVERT JUMPDEST PUSH4 0x4E487B71 PUSH1 0xE0 SHL PUSH0 MSTORE PUSH1 0x41 PUSH1 0x4 MSTORE PUSH1 0x24 PUSH0 REVERT JUMPDEST PUSH1 0x1F SWAP1 SWAP2 ADD PUSH1 0x1F NOT AND DUP2 ADD SWAP1 PUSH1 0x1 PUSH1 0x1 PUSH1 0x40 SHL SUB DUP3 GT SWAP1 DUP3 LT OR PUSH2 0x1B8 JUMPI PUSH1 0x40 MSTORE JUMP JUMPDEST MLOAD SWAP1 PUSH1 0x1 PUSH1 0x1 PUSH1 0xA0 SHL SUB DUP3 AND DUP3 SUB PUSH2 0x1B4 JUMPI JUMP INVALID PUSH1 0x80 DUP1 PUSH1 0x40 MSTORE PUSH1 0x4 CALLDATASIZE LT ISZERO PUSH2 0x12 JUMPI PUSH0 DUP1 REVERT JUMPDEST PUSH0 SWAP1 PUSH0 CALLDATALOAD PUSH1 0xE0 SHR SWAP1 DUP2 PUSH4 0x10FA79E2 EQ PUSH2 0x1564 JUMPI POP DUP1 PUSH4 0x11EAC855 EQ PUSH2 0x153C JUMPI DUP1 PUSH4 0x16C8357F EQ PUSH2 0x151F JUMPI DUP1 PUSH4 0x27453EF9 EQ PUSH2 0x1481 JUMPI DUP1 PUSH4 0x3AC93276 EQ PUSH2 0x127E JUMPI DUP1 PUSH4 0x3F4BA83A EQ PUSH2 0x11EB JUMPI DUP1 PUSH4 0x422F1043 EQ PUSH2 0xE1C JUMPI DUP1 PUSH4 0x42854C54 EQ PUSH2 0xDFE JUMPI DUP1 PUSH4 0x56F43352 EQ PUSH2 0xDE0 JUMPI DUP1 PUSH4 0x5C975ABB EQ PUSH2 0xDBD JUMPI DUP1 PUSH4 0x5FCBD285 EQ PUSH2 0xD94 JUMPI DUP1 PUSH4 0x60246C88 EQ PUSH2 0xC7D JUMPI DUP1 PUSH4 0x61D027B3 EQ PUSH2 0xC54 JUMPI DUP1 PUSH4 0x6869C673 EQ PUSH2 0xB02 JUMPI DUP1 PUSH4 0x6A5809CC EQ PUSH2 0xAE4 JUMPI DUP1 PUSH4 0x715018A6 EQ PUSH2 0xA8A JUMPI DUP1 PUSH4 0x71B59C58 EQ PUSH2 0xA6F JUMPI DUP1 PUSH4 0x8456CB59 EQ PUSH2 0xA14 JUMPI DUP1 PUSH4 0x857620E1 EQ PUSH2 0x787 JUMPI DUP1 PUSH4 0x8DA5CB5B EQ PUSH2 0x760 JUMPI DUP1 PUSH4 0x95CCEA67 EQ PUSH2 0x655 JUMPI DUP1 PUSH4 0x960B26A2 EQ PUSH2 0x637 JUMPI DUP1 PUSH4 0xB8E4C9C9 EQ PUSH2 0x619 JUMPI DUP1 PUSH4 0xD60EC282 EQ PUSH2 0x5F2 JUMPI DUP1 PUSH4 0xE9573BC2 EQ PUSH2 0x5D4 JUMPI DUP1 PUSH4 0xF10DE81B EQ PUSH2 0x319 JUMPI DUP1 PUSH4 0xF2792C23 EQ PUSH2 0x2EC JUMPI DUP1 PUSH4 0xF2FDE38B EQ PUSH2 0x226 JUMPI DUP1 PUSH4 0xF59EB2DC EQ PUSH2 0x208 JUMPI DUP1 PUSH4 0xFA86F649 EQ PUSH2 0x193 JUMPI PUSH4 0xFF909560 EQ PUSH2 0x173 JUMPI PUSH0 DUP1 REVERT JUMPDEST CALLVALUE PUSH2 0x190 JUMPI DUP1 PUSH1 0x3 NOT CALLDATASIZE ADD SLT PUSH2 0x190 JUMPI PUSH1 0x20 PUSH1 0x9 SLOAD PUSH1 0x40 MLOAD SWAP1 DUP2 MSTORE RETURN JUMPDEST DUP1 REVERT JUMPDEST POP CALLVALUE PUSH2 0x190 JUMPI PUSH1 0x20 CALLDATASIZE PUSH1 0x3 NOT ADD SLT PUSH2 0x190 JUMPI PUSH32 0xEA69AC0D1D4089D1BEEB438A97B8828B39E2B7BC649BAF674B8D5A375BF88B74 PUSH1 0x40 PUSH1 0x4 CALLDATALOAD PUSH2 0x1D3 PUSH2 0x18A5 JUMP JUMPDEST DUP1 PUSH1 0x8 SSTORE TIMESTAMP PUSH1 0xB SSTORE PUSH2 0x1F6 PUSH2 0x2710 PUSH2 0x1ED PUSH1 0xA SLOAD DUP5 PUSH2 0x17DD JUMP JUMPDEST DIV PUSH1 0x9 SLOAD PUSH2 0x1720 JUMP JUMPDEST PUSH1 0x9 SSTORE DUP2 MLOAD SWAP1 DUP2 MSTORE TIMESTAMP PUSH1 0x20 DUP3 ADD MSTORE LOG1 DUP1 RETURN JUMPDEST POP CALLVALUE PUSH2 0x190 JUMPI DUP1 PUSH1 0x3 NOT CALLDATASIZE ADD SLT PUSH2 0x190 JUMPI PUSH1 0x20 PUSH1 0xA SLOAD PUSH1 0x40 MLOAD SWAP1 DUP2 MSTORE RETURN JUMPDEST POP CALLVALUE PUSH2 0x190 JUMPI PUSH1 0x20 CALLDATASIZE PUSH1 0x3 NOT ADD SLT PUSH2 0x190 JUMPI PUSH2 0x240 PUSH2 0x15AE JUMP JUMPDEST PUSH2 0x248 PUSH2 0x18A5 JUMP JUMPDEST PUSH1 0x1 PUSH1 0x1 PUSH1 0xA0 SHL SUB AND DUP1 ISZERO PUSH2 0x298 JUMPI DUP2 SLOAD PUSH1 0x1 PUSH1 0x1 PUSH1 0xA0 SHL SUB NOT DUP2 AND DUP3 OR DUP4 SSTORE PUSH1 0x1 PUSH1 0x1 PUSH1 0xA0 SHL SUB AND PUSH32 0x8BE0079C531659141344CD1FD0A4F28419497F9722A3DAAFE3B4186F6B6457E0 DUP4 DUP1 LOG3 DUP1 RETURN JUMPDEST PUSH1 0x40 MLOAD PUSH3 0x461BCD PUSH1 0xE5 SHL DUP2 MSTORE PUSH1 0x20 PUSH1 0x4 DUP3 ADD MSTORE PUSH1 0x26 PUSH1 0x24 DUP3 ADD MSTORE PUSH32 0x4F776E61626C653A206E6577206F776E657220697320746865207A65726F2061 PUSH1 0x44 DUP3 ADD MSTORE PUSH6 0x646472657373 PUSH1 0xD0 SHL PUSH1 0x64 DUP3 ADD MSTORE PUSH1 0x84 SWAP1 REVERT JUMPDEST POP CALLVALUE PUSH2 0x190 JUMPI DUP1 PUSH1 0x3 NOT CALLDATASIZE ADD SLT PUSH2 0x190 JUMPI PUSH1 0x2 SLOAD PUSH1 0x40 MLOAD PUSH1 0x8 SWAP2 SWAP1 SWAP2 SHR PUSH1 0x1 PUSH1 0x1 PUSH1 0xA0 SHL SUB AND DUP2 MSTORE PUSH1 0x20 SWAP1 RETURN JUMPDEST POP CALLVALUE PUSH2 0x190 JUMPI PUSH2 0x328 CALLDATASIZE PUSH2 0x1598 JUMP JUMPDEST SWAP1 PUSH2 0x331 PUSH2 0x18FC JUMP JUMPDEST PUSH2 0x339 PUSH2 0x1952 JUMP JUMPDEST PUSH2 0x344 DUP2 ISZERO ISZERO PUSH2 0x15C4 JUMP JUMPDEST PUSH1 0x7 SLOAD PUSH1 0x6 SLOAD PUSH2 0x355 DUP2 DUP4 DUP6 PUSH2 0x1A53 JUMP JUMPDEST SWAP3 SWAP1 SWAP5 DUP6 LT ISZERO DUP1 PUSH2 0x5C8 JUMPI JUMPDEST ISZERO PUSH2 0x583 JUMPI PUSH2 0x37E SWAP2 PUSH2 0x374 SWAP2 DUP6 PUSH2 0x1996 JUMP JUMPDEST PUSH1 0xE SLOAD LT ISZERO PUSH2 0x1600 JUMP JUMPDEST PUSH1 0x3 SLOAD PUSH1 0x40 MLOAD PUSH4 0x23B872DD PUSH1 0xE0 SHL DUP2 MSTORE CALLER PUSH1 0x4 DUP3 ADD MSTORE ADDRESS PUSH1 0x24 DUP3 ADD MSTORE PUSH1 0x44 DUP2 ADD DUP5 SWAP1 MSTORE SWAP1 PUSH1 0x20 SWAP1 DUP3 SWAP1 PUSH1 0x64 SWAP1 DUP3 SWAP1 DUP10 SWAP1 PUSH1 0x1 PUSH1 0x1 PUSH1 0xA0 SHL SUB AND GAS CALL DUP1 ISZERO PUSH2 0x559 JUMPI PUSH2 0x3D0 SWAP2 DUP7 SWAP2 PUSH2 0x564 JUMPI JUMPDEST POP PUSH2 0x174E JUMP JUMPDEST PUSH2 0x3DC DUP3 PUSH1 0x7 SLOAD PUSH2 0x1720 JUMP JUMPDEST PUSH1 0x7 SSTORE PUSH2 0x3EB DUP4 PUSH1 0x6 SLOAD PUSH2 0x1741 JUMP JUMPDEST PUSH1 0x6 SSTORE PUSH1 0x2 SLOAD PUSH1 0x40 MLOAD PUSH4 0xA9059CBB PUSH1 0xE0 SHL DUP2 MSTORE CALLER PUSH1 0x4 DUP3 ADD MSTORE PUSH1 0x24 DUP2 ADD DUP6 SWAP1 MSTORE SWAP1 PUSH1 0x20 SWAP1 DUP3 SWAP1 PUSH1 0x8 SHR PUSH1 0x1 PUSH1 0x1 PUSH1 0xA0 SHL SUB AND DUP2 DUP9 DUP2 PUSH1 0x44 DUP2 ADD SUB SWAP3 GAS CALL DUP1 ISZERO PUSH2 0x559 JUMPI PUSH2 0x43F SWAP2 DUP7 SWAP2 PUSH2 0x53A JUMPI JUMPDEST POP PUSH2 0x16DE JUMP JUMPDEST DUP1 PUSH2 0x4A0 JUMPI JUMPDEST PUSH1 0x3 SLOAD PUSH1 0x2 SLOAD PUSH1 0x40 DUP1 MLOAD DUP6 DUP2 MSTORE PUSH1 0x20 DUP2 DUP2 ADD DUP9 SWAP1 MSTORE SWAP4 DUP8 SWAP4 PUSH1 0x8 SHR PUSH1 0x1 PUSH1 0x1 PUSH1 0xA0 SHL SUB SWAP1 DUP2 AND SWAP4 SWAP2 AND SWAP2 CALLER SWAP2 PUSH32 0xD36CC53BA71BC76A3DB3364981F5296DD4CA5EBA0E8C89874F2170515BD20D24 SWAP2 LOG4 PUSH1 0x1 DUP1 SSTORE PUSH1 0x40 MLOAD SWAP1 DUP2 MSTORE RETURN JUMPDEST PUSH1 0x2 SLOAD PUSH1 0x4 DUP1 SLOAD PUSH1 0x40 MLOAD PUSH4 0xA9059CBB PUSH1 0xE0 SHL DUP2 MSTORE PUSH1 0x1 PUSH1 0x1 PUSH1 0xA0 SHL SUB SWAP2 DUP3 AND SWAP3 DUP2 ADD SWAP3 SWAP1 SWAP3 MSTORE PUSH1 0x24 DUP3 ADD SWAP4 SWAP1 SWAP4 MSTORE SWAP2 PUSH1 0x20 SWAP2 DUP4 SWAP2 PUSH1 0x44 SWAP2 DUP4 SWAP2 DUP10 SWAP2 PUSH1 0x8 SHR AND GAS CALL SWAP1 DUP2 ISZERO PUSH2 0x52F JUMPI SWAP1 PUSH2 0x4FC SWAP2 PUSH1 0x20 SWAP6 SWAP2 PUSH2 0x502 JUMPI JUMPDEST POP PUSH2 0x1791 JUMP JUMPDEST PUSH0 PUSH2 0x445 JUMP JUMPDEST PUSH2 0x522 SWAP2 POP DUP6 RETURNDATASIZE DUP8 GT PUSH2 0x528 JUMPI JUMPDEST PUSH2 0x51A DUP2 DUP4 PUSH2 0x1690 JUMP JUMPDEST DUP2 ADD SWAP1 PUSH2 0x16C6 JUMP JUMPDEST PUSH0 PUSH2 0x4F6 JUMP JUMPDEST POP RETURNDATASIZE PUSH2 0x510 JUMP JUMPDEST PUSH1 0x40 MLOAD RETURNDATASIZE DUP7 DUP3 RETURNDATACOPY RETURNDATASIZE SWAP1 REVERT JUMPDEST PUSH2 0x553 SWAP2 POP PUSH1 0x20 RETURNDATASIZE PUSH1 0x20 GT PUSH2 0x528 JUMPI PUSH2 0x51A DUP2 DUP4 PUSH2 0x1690 JUMP JUMPDEST PUSH0 PUSH2 0x439 JUMP JUMPDEST PUSH1 0x40 MLOAD RETURNDATASIZE DUP8 DUP3 RETURNDATACOPY RETURNDATASIZE SWAP1 REVERT JUMPDEST PUSH2 0x57D SWAP2 POP PUSH1 0x20 RETURNDATASIZE PUSH1 0x20 GT PUSH2 0x528 JUMPI PUSH2 0x51A DUP2 DUP4 PUSH2 0x1690 JUMP JUMPDEST PUSH0 PUSH2 0x3CA JUMP JUMPDEST PUSH1 0x40 MLOAD PUSH3 0x461BCD PUSH1 0xE5 SHL DUP2 MSTORE PUSH1 0x20 PUSH1 0x4 DUP3 ADD MSTORE PUSH1 0x1B PUSH1 0x24 DUP3 ADD MSTORE PUSH32 0x536C697070616765206F7220747261646520746F6F206C617267650000000000 PUSH1 0x44 DUP3 ADD MSTORE PUSH1 0x64 SWAP1 REVERT JUMPDEST POP PUSH1 0xF SLOAD DUP6 GT ISZERO PUSH2 0x361 JUMP JUMPDEST POP CALLVALUE PUSH2 0x190 JUMPI DUP1 PUSH1 0x3 NOT CALLDATASIZE ADD SLT PUSH2 0x190 JUMPI PUSH1 0x20 PUSH1 0x6 SLOAD PUSH1 0x40 MLOAD SWAP1 DUP2 MSTORE RETURN JUMPDEST POP CALLVALUE PUSH2 0x190 JUMPI PUSH1 0x20 CALLDATASIZE PUSH1 0x3 NOT ADD SLT PUSH2 0x190 JUMPI PUSH1 0x20 PUSH2 0x611 PUSH1 0x4 CALLDATALOAD PUSH2 0x1873 JUMP JUMPDEST PUSH1 0x40 MLOAD SWAP1 DUP2 MSTORE RETURN JUMPDEST POP CALLVALUE PUSH2 0x190 JUMPI DUP1 PUSH1 0x3 NOT CALLDATASIZE ADD SLT PUSH2 0x190 JUMPI PUSH1 0x20 PUSH1 0xB SLOAD PUSH1 0x40 MLOAD SWAP1 DUP2 MSTORE RETURN JUMPDEST POP CALLVALUE PUSH2 0x190 JUMPI DUP1 PUSH1 0x3 NOT CALLDATASIZE ADD SLT PUSH2 0x190 JUMPI PUSH1 0x20 PUSH1 0xD SLOAD PUSH1 0x40 MLOAD SWAP1 DUP2 MSTORE RETURN JUMPDEST POP CALLVALUE PUSH2 0x190 JUMPI PUSH1 0x40 CALLDATASIZE PUSH1 0x3 NOT ADD SLT PUSH2 0x190 JUMPI PUSH2 0x66F PUSH2 0x15AE JUMP JUMPDEST PUSH2 0x677 PUSH2 0x18A5 JUMP JUMPDEST PUSH1 0x2 SLOAD PUSH1 0x1 PUSH1 0x1 PUSH1 0xA0 SHL SUB SWAP2 DUP3 AND SWAP2 PUSH1 0x8 SWAP2 SWAP1 SWAP2 SHR AND DUP2 EQ ISZERO DUP1 PUSH2 0x74B JUMPI JUMPDEST ISZERO PUSH2 0x706 JUMPI DUP2 SLOAD PUSH1 0x40 MLOAD PUSH4 0xA9059CBB PUSH1 0xE0 SHL DUP2 MSTORE PUSH1 0x1 PUSH1 0x1 PUSH1 0xA0 SHL SUB SWAP1 SWAP2 AND PUSH1 0x4 DUP3 ADD MSTORE PUSH1 0x24 DUP1 CALLDATALOAD SWAP1 DUP3 ADD MSTORE SWAP1 PUSH1 0x20 SWAP1 DUP3 SWAP1 PUSH1 0x44 SWAP1 DUP3 SWAP1 DUP7 SWAP1 GAS CALL DUP1 ISZERO PUSH2 0x6FB JUMPI PUSH2 0x6DF JUMPI POP DUP1 RETURN JUMPDEST PUSH2 0x6F7 SWAP1 PUSH1 0x20 RETURNDATASIZE PUSH1 0x20 GT PUSH2 0x528 JUMPI PUSH2 0x51A DUP2 DUP4 PUSH2 0x1690 JUMP JUMPDEST POP DUP1 RETURN JUMPDEST PUSH1 0x40 MLOAD RETURNDATASIZE DUP5 DUP3 RETURNDATACOPY RETURNDATASIZE SWAP1 REVERT JUMPDEST PUSH1 0x40 MLOAD PUSH3 0x461BCD PUSH1 0xE5 SHL DUP2 MSTORE PUSH1 0x20 PUSH1 0x4 DUP3 ADD MSTORE PUSH1 0x1D PUSH1 0x24 DUP3 ADD MSTORE PUSH32 0x43616E6E6F7420776974686472617720636F7265207265736572766573000000 PUSH1 0x44 DUP3 ADD MSTORE PUSH1 0x64 SWAP1 REVERT JUMPDEST POP PUSH1 0x3 SLOAD PUSH1 0x1 PUSH1 0x1 PUSH1 0xA0 SHL SUB AND DUP2 EQ ISZERO PUSH2 0x696 JUMP JUMPDEST POP CALLVALUE PUSH2 0x190 JUMPI DUP1 PUSH1 0x3 NOT CALLDATASIZE ADD SLT PUSH2 0x190 JUMPI SLOAD PUSH1 0x40 MLOAD PUSH1 0x1 PUSH1 0x1 PUSH1 0xA0 SHL SUB SWAP1 SWAP2 AND DUP2 MSTORE PUSH1 0x20 SWAP1 RETURN JUMPDEST POP CALLVALUE PUSH2 0x190 JUMPI PUSH2 0x796 CALLDATASIZE PUSH2 0x157E JUMP JUMPDEST SWAP1 SWAP2 PUSH2 0x7A0 PUSH2 0x18FC JUMP JUMPDEST PUSH2 0x7A8 PUSH2 0x1952 JUMP JUMPDEST DUP1 ISZERO PUSH2 0x9DB JUMPI PUSH1 0x5 SLOAD PUSH1 0x40 MLOAD PUSH4 0x18160DDD PUSH1 0xE0 SHL DUP2 MSTORE SWAP4 DUP6 SWAP2 PUSH1 0x1 PUSH1 0x1 PUSH1 0xA0 SHL SUB AND SWAP1 PUSH1 0x20 DUP7 PUSH1 0x4 DUP2 DUP6 GAS STATICCALL SWAP6 DUP7 ISZERO PUSH2 0x9D0 JUMPI DUP4 SWAP7 PUSH2 0x992 JUMPI JUMPDEST POP PUSH2 0x837 SWAP1 PUSH1 0x6 SLOAD SWAP7 PUSH2 0x82F PUSH2 0x801 DUP3 PUSH2 0x7FC DUP12 DUP11 PUSH2 0x17DD JUMP JUMPDEST PUSH2 0x17F0 JUMP JUMPDEST DUP1 SWAP10 PUSH2 0x82A PUSH2 0x817 PUSH1 0x7 SLOAD SWAP6 PUSH2 0x7FC DUP8 DUP14 PUSH2 0x17DD JUMP JUMPDEST SWAP11 DUP12 SWAP7 DUP5 LT ISZERO SWAP1 DUP2 PUSH2 0x987 JUMPI JUMPDEST POP PUSH2 0x1644 JUMP JUMPDEST PUSH2 0x1741 JUMP JUMPDEST PUSH1 0x6 SSTORE PUSH2 0x1741 JUMP JUMPDEST PUSH1 0x7 SSTORE DUP1 EXTCODESIZE ISZERO PUSH2 0x983 JUMPI PUSH1 0x40 MLOAD PUSH4 0x2770A7EB PUSH1 0xE2 SHL DUP2 MSTORE CALLER PUSH1 0x4 DUP3 ADD MSTORE PUSH1 0x24 DUP2 ADD DUP5 SWAP1 MSTORE SWAP1 DUP3 SWAP1 DUP3 SWAP1 PUSH1 0x44 SWAP1 DUP3 SWAP1 DUP5 SWAP1 GAS CALL DUP1 ISZERO PUSH2 0x6FB JUMPI PUSH2 0x96A JUMPI JUMPDEST POP POP PUSH1 0x2 SLOAD PUSH1 0x40 MLOAD PUSH4 0xA9059CBB PUSH1 0xE0 SHL DUP2 MSTORE CALLER PUSH1 0x4 DUP3 ADD MSTORE PUSH1 0x24 DUP2 ADD DUP6 SWAP1 MSTORE SWAP1 PUSH1 0x20 SWAP1 DUP3 SWAP1 PUSH1 0x8 SHR PUSH1 0x1 PUSH1 0x1 PUSH1 0xA0 SHL SUB AND DUP2 DUP9 DUP2 PUSH1 0x44 DUP2 ADD SUB SWAP3 GAS CALL DUP1 ISZERO PUSH2 0x559 JUMPI PUSH2 0x8C6 SWAP2 DUP7 SWAP2 PUSH2 0x53A JUMPI POP PUSH2 0x16DE JUMP JUMPDEST PUSH1 0x3 SLOAD PUSH1 0x40 MLOAD PUSH4 0xA9059CBB PUSH1 0xE0 SHL DUP2 MSTORE CALLER PUSH1 0x4 DUP3 ADD MSTORE PUSH1 0x24 DUP2 ADD DUP5 SWAP1 MSTORE SWAP1 PUSH1 0x20 SWAP1 DUP3 SWAP1 PUSH1 0x44 SWAP1 DUP3 SWAP1 DUP10 SWAP1 PUSH1 0x1 PUSH1 0x1 PUSH1 0xA0 SHL SUB AND GAS CALL SWAP1 DUP2 ISZERO PUSH2 0x559 JUMPI SWAP1 PUSH2 0x915 SWAP2 PUSH1 0x40 SWAP7 SWAP2 PUSH2 0x564 JUMPI POP PUSH2 0x174E JUMP JUMPDEST PUSH32 0x1DC8BB69DF2B8E91FBDCBFCF93D951B3F0000F085A95FE3F7946D6161439245D DUP5 MLOAD DUP1 PUSH2 0x957 CALLER SWAP5 DUP7 DUP9 DUP5 PUSH1 0x40 SWAP2 SWAP5 SWAP4 SWAP3 PUSH1 0x60 DUP3 ADD SWAP6 DUP3 MSTORE PUSH1 0x20 DUP3 ADD MSTORE ADD MSTORE JUMP JUMPDEST SUB SWAP1 LOG2 PUSH1 0x1 DUP1 SSTORE DUP3 MLOAD SWAP2 DUP3 MSTORE PUSH1 0x20 DUP3 ADD MSTORE RETURN JUMPDEST DUP2 PUSH2 0x974 SWAP2 PUSH2 0x1690 JUMP JUMPDEST PUSH2 0x97F JUMPI DUP4 PUSH0 PUSH2 0x874 JUMP JUMPDEST DUP4 DUP1 REVERT JUMPDEST POP DUP1 REVERT JUMPDEST SWAP1 POP DUP7 LT ISZERO PUSH0 PUSH2 0x824 JUMP JUMPDEST SWAP3 POP SWAP5 POP PUSH1 0x20 DUP3 RETURNDATASIZE PUSH1 0x20 GT PUSH2 0x9C8 JUMPI JUMPDEST DUP2 PUSH2 0x9AF PUSH1 0x20 SWAP4 DUP4 PUSH2 0x1690 JUMP JUMPDEST DUP2 ADD SUB SLT PUSH2 0x9C4 JUMPI PUSH2 0x837 DUP7 SWAP3 MLOAD SWAP6 SWAP1 PUSH2 0x7E2 JUMP JUMPDEST PUSH0 DUP1 REVERT JUMPDEST RETURNDATASIZE SWAP2 POP PUSH2 0x9A2 JUMP JUMPDEST PUSH1 0x40 MLOAD RETURNDATASIZE DUP6 DUP3 RETURNDATACOPY RETURNDATASIZE SWAP1 REVERT JUMPDEST PUSH1 0x40 MLOAD PUSH3 0x461BCD PUSH1 0xE5 SHL DUP2 MSTORE PUSH1 0x20 PUSH1 0x4 DUP3 ADD MSTORE PUSH1 0x11 PUSH1 0x24 DUP3 ADD MSTORE PUSH17 0x125B9D985B1A5908131408185B5BDD5B9D PUSH1 0x7A SHL PUSH1 0x44 DUP3 ADD MSTORE PUSH1 0x64 SWAP1 REVERT JUMPDEST POP CALLVALUE PUSH2 0x190 JUMPI DUP1 PUSH1 0x3 NOT CALLDATASIZE ADD SLT PUSH2 0x190 JUMPI PUSH2 0xA2D PUSH2 0x18A5 JUMP JUMPDEST PUSH2 0xA35 PUSH2 0x1952 JUMP JUMPDEST PUSH1 0x1 PUSH1 0xFF NOT PUSH1 0x2 SLOAD AND OR PUSH1 0x2 SSTORE PUSH32 0x62E78CEA01BEE320CD4E420270B5EA74000D11B0C9F74754EBDBFC544B05A258 PUSH1 0x20 PUSH1 0x40 MLOAD CALLER DUP2 MSTORE LOG1 DUP1 RETURN JUMPDEST POP CALLVALUE PUSH2 0x190 JUMPI DUP1 PUSH1 0x3 NOT CALLDATASIZE ADD SLT PUSH2 0x190 JUMPI PUSH1 0x20 PUSH2 0x611 PUSH2 0x180E JUMP JUMPDEST POP CALLVALUE PUSH2 0x190 JUMPI DUP1 PUSH1 0x3 NOT CALLDATASIZE ADD SLT PUSH2 0x190 JUMPI PUSH2 0xAA3 PUSH2 0x18A5 JUMP JUMPDEST DUP1 SLOAD PUSH1 0x1 PUSH1 0x1 PUSH1 0xA0 SHL SUB NOT DUP2 AND DUP3 SSTORE DUP2 SWAP1 PUSH1 0x1 PUSH1 0x1 PUSH1 0xA0 SHL SUB AND PUSH32 0x8BE0079C531659141344CD1FD0A4F28419497F9722A3DAAFE3B4186F6B6457E0 DUP3 DUP1 LOG3 DUP1 RETURN JUMPDEST POP CALLVALUE PUSH2 0x190 JUMPI DUP1 PUSH1 0x3 NOT CALLDATASIZE ADD SLT PUSH2 0x190 JUMPI PUSH1 0x20 PUSH1 0x7 SLOAD PUSH1 0x40 MLOAD SWAP1 DUP2 MSTORE RETURN JUMPDEST POP CALLVALUE PUSH2 0x190 JUMPI PUSH1 0x20 CALLDATASIZE PUSH1 0x3 NOT ADD SLT PUSH2 0x190 JUMPI PUSH1 0x4 CALLDATALOAD PUSH2 0xB1F PUSH2 0x18A5 JUMP JUMPDEST PUSH2 0xB27 PUSH2 0x18FC JUMP JUMPDEST PUSH2 0xB2F PUSH2 0x1952 JUMP JUMPDEST DUP1 ISZERO ISZERO DUP1 PUSH2 0xC48 JUMPI JUMPDEST ISZERO PUSH2 0xC0A JUMPI DUP1 PUSH2 0xB66 PUSH1 0x7 SLOAD PUSH1 0x6 SLOAD PUSH2 0xB5E PUSH2 0xB55 DUP3 DUP5 DUP8 PUSH2 0x1A53 JUMP JUMPDEST POP SWAP5 DUP6 SWAP4 PUSH2 0x1720 JUMP JUMPDEST PUSH1 0x7 SSTORE PUSH2 0x1741 JUMP JUMPDEST PUSH1 0x6 SSTORE PUSH2 0xB75 DUP3 PUSH1 0x9 SLOAD PUSH2 0x1741 JUMP JUMPDEST PUSH1 0x9 SSTORE PUSH1 0x2 SLOAD DUP4 SWAP1 PUSH1 0x8 SHR PUSH1 0x1 PUSH1 0x1 PUSH1 0xA0 SHL SUB AND DUP1 EXTCODESIZE ISZERO PUSH2 0x983 JUMPI DUP2 DUP1 SWAP2 PUSH1 0x24 PUSH1 0x40 MLOAD DUP1 SWAP5 DUP2 SWAP4 PUSH4 0x852CD8D PUSH1 0xE3 SHL DUP4 MSTORE DUP9 PUSH1 0x4 DUP5 ADD MSTORE GAS CALL DUP1 ISZERO PUSH2 0x6FB JUMPI PUSH2 0xBF1 JUMPI JUMPDEST POP PUSH32 0x8E8412CAC6B961B95EF832E2BAC486977BBD29EB9725F9EDDD97F3380C31F649 PUSH1 0x40 DUP5 DUP5 DUP3 MLOAD SWAP2 DUP3 MSTORE PUSH1 0x20 DUP3 ADD MSTORE LOG1 PUSH1 0x1 DUP1 SSTORE DUP1 RETURN JUMPDEST DUP2 PUSH2 0xBFB SWAP2 PUSH2 0x1690 JUMP JUMPDEST PUSH2 0xC06 JUMPI DUP3 PUSH0 PUSH2 0xBB9 JUMP JUMPDEST DUP3 DUP1 REVERT JUMPDEST PUSH1 0x40 MLOAD PUSH3 0x461BCD PUSH1 0xE5 SHL DUP2 MSTORE PUSH1 0x20 PUSH1 0x4 DUP3 ADD MSTORE PUSH1 0x16 PUSH1 0x24 DUP3 ADD MSTORE PUSH22 0x125B9D985B1A5908189D5E589858DAC8185B5BDD5B9D PUSH1 0x52 SHL PUSH1 0x44 DUP3 ADD MSTORE PUSH1 0x64 SWAP1 REVERT JUMPDEST POP PUSH1 0x9 SLOAD DUP2 GT ISZERO PUSH2 0xB38 JUMP JUMPDEST POP CALLVALUE PUSH2 0x190 JUMPI DUP1 PUSH1 0x3 NOT CALLDATASIZE ADD SLT PUSH2 0x190 JUMPI PUSH1 0x4 SLOAD PUSH1 0x40 MLOAD PUSH1 0x1 PUSH1 0x1 PUSH1 0xA0 SHL SUB SWAP1 SWAP2 AND DUP2 MSTORE PUSH1 0x20 SWAP1 RETURN JUMPDEST POP CALLVALUE PUSH2 0x190 JUMPI DUP1 PUSH1 0x3 NOT CALLDATASIZE ADD SLT PUSH2 0x190 JUMPI PUSH1 0x6 SLOAD PUSH1 0x7 SLOAD PUSH1 0x5 SLOAD PUSH1 0x40 MLOAD PUSH4 0x18160DDD PUSH1 0xE0 SHL DUP2 MSTORE SWAP4 SWAP1 PUSH1 0x20 SWAP1 DUP6 SWAP1 PUSH1 0x4 SWAP1 DUP3 SWAP1 PUSH1 0x1 PUSH1 0x1 PUSH1 0xA0 SHL SUB AND GAS STATICCALL SWAP4 DUP5 ISZERO PUSH2 0xD87 JUMPI DUP2 SWAP5 PUSH2 0xD53 JUMPI JUMPDEST POP PUSH1 0x40 MLOAD PUSH4 0xE36B38B PUSH1 0xE3 SHL DUP2 MSTORE SWAP4 PUSH1 0x20 DUP6 PUSH1 0x4 DUP2 ADDRESS GAS STATICCALL SWAP2 DUP3 ISZERO PUSH2 0xD47 JUMPI SWAP2 PUSH2 0xD12 JUMPI JUMPDEST PUSH1 0xA0 SWAP5 POP PUSH1 0x8 SLOAD SWAP3 PUSH1 0x40 MLOAD SWAP5 DUP6 MSTORE PUSH1 0x20 DUP6 ADD MSTORE PUSH1 0x40 DUP5 ADD MSTORE PUSH1 0x60 DUP4 ADD MSTORE PUSH1 0x80 DUP3 ADD MSTORE RETURN JUMPDEST SWAP1 POP PUSH1 0x20 DUP5 RETURNDATASIZE PUSH1 0x20 GT PUSH2 0xD3F JUMPI JUMPDEST DUP2 PUSH2 0xD2D PUSH1 0x20 SWAP4 DUP4 PUSH2 0x1690 JUMP JUMPDEST DUP2 ADD SUB SLT PUSH2 0x9C4 JUMPI PUSH1 0xA0 SWAP4 MLOAD SWAP1 PUSH2 0xCEE JUMP JUMPDEST RETURNDATASIZE SWAP2 POP PUSH2 0xD20 JUMP JUMPDEST PUSH1 0x40 MLOAD SWAP1 RETURNDATASIZE SWAP1 DUP3 RETURNDATACOPY RETURNDATASIZE SWAP1 REVERT JUMPDEST SWAP1 SWAP4 POP PUSH1 0x20 DUP2 RETURNDATASIZE PUSH1 0x20 GT PUSH2 0xD7F JUMPI JUMPDEST DUP2 PUSH2 0xD6F PUSH1 0x20 SWAP4 DUP4 PUSH2 0x1690 JUMP JUMPDEST DUP2 ADD SUB SLT PUSH2 0x9C4 JUMPI MLOAD SWAP3 PUSH0 PUSH2 0xCC9 JUMP JUMPDEST RETURNDATASIZE SWAP2 POP PUSH2 0xD62 JUMP JUMPDEST POP PUSH1 0x40 MLOAD SWAP1 RETURNDATASIZE SWAP1 DUP3 RETURNDATACOPY RETURNDATASIZE SWAP1 REVERT JUMPDEST POP CALLVALUE PUSH2 0x190 JUMPI DUP1 PUSH1 0x3 NOT CALLDATASIZE ADD SLT PUSH2 0x190 JUMPI PUSH1 0x5 SLOAD PUSH1 0x40 MLOAD PUSH1 0x1 PUSH1 0x1 PUSH1 0xA0 SHL SUB SWAP1 SWAP2 AND DUP2 MSTORE PUSH1 0x20 SWAP1 RETURN JUMPDEST POP CALLVALUE PUSH2 0x190 JUMPI DUP1 PUSH1 0x3 NOT CALLDATASIZE ADD SLT PUSH2 0x190 JUMPI PUSH1 0x20 PUSH1 0xFF PUSH1 0x2 SLOAD AND PUSH1 0x40 MLOAD SWAP1 ISZERO ISZERO DUP2 MSTORE RETURN JUMPDEST POP CALLVALUE PUSH2 0x190 JUMPI DUP1 PUSH1 0x3 NOT CALLDATASIZE ADD SLT PUSH2 0x190 JUMPI PUSH1 0x20 PUSH1 0xC SLOAD PUSH1 0x40 MLOAD SWAP1 DUP2 MSTORE RETURN JUMPDEST POP CALLVALUE PUSH2 0x190 JUMPI DUP1 PUSH1 0x3 NOT CALLDATASIZE ADD SLT PUSH2 0x190 JUMPI PUSH1 0x20 PUSH1 0x8 SLOAD PUSH1 0x40 MLOAD SWAP1 DUP2 MSTORE RETURN JUMPDEST CALLVALUE PUSH2 0x9C4 JUMPI PUSH2 0xE2A CALLDATASIZE PUSH2 0x157E JUMP JUMPDEST SWAP1 SWAP2 PUSH2 0xE34 PUSH2 0x18FC JUMP JUMPDEST PUSH2 0xE3C PUSH2 0x1952 JUMP JUMPDEST DUP1 ISZERO ISZERO DUP1 PUSH2 0x11E2 JUMPI JUMPDEST ISZERO PUSH2 0x11AB JUMPI PUSH1 0x2 SLOAD PUSH1 0x40 MLOAD PUSH4 0x23B872DD PUSH1 0xE0 SHL DUP2 MSTORE CALLER PUSH1 0x4 DUP3 ADD MSTORE ADDRESS PUSH1 0x24 DUP3 ADD MSTORE PUSH1 0x44 DUP2 ADD DUP4 SWAP1 MSTORE SWAP1 PUSH1 0x20 SWAP1 DUP3 SWAP1 PUSH1 0x8 SHR PUSH1 0x1 PUSH1 0x1 PUSH1 0xA0 SHL SUB AND DUP2 PUSH0 DUP2 PUSH1 0x64 DUP2 ADD SUB SWAP3 GAS CALL DUP1 ISZERO PUSH2 0xFF7 JUMPI PUSH2 0xEA0 SWAP2 PUSH0 SWAP2 PUSH2 0x118C JUMPI POP PUSH2 0x16DE JUMP JUMPDEST PUSH1 0x3 SLOAD PUSH1 0x40 MLOAD PUSH4 0x23B872DD PUSH1 0xE0 SHL DUP2 MSTORE CALLER PUSH1 0x4 DUP3 ADD MSTORE ADDRESS PUSH1 0x24 DUP3 ADD MSTORE PUSH1 0x44 DUP2 ADD DUP6 SWAP1 MSTORE SWAP1 PUSH1 0x20 SWAP1 DUP3 SWAP1 PUSH1 0x64 SWAP1 DUP3 SWAP1 PUSH0 SWAP1 PUSH1 0x1 PUSH1 0x1 PUSH1 0xA0 SHL SUB AND GAS CALL DUP1 ISZERO PUSH2 0xFF7 JUMPI PUSH2 0xEF1 SWAP2 PUSH0 SWAP2 PUSH2 0x116D JUMPI POP PUSH2 0x174E JUMP JUMPDEST PUSH1 0x5 SLOAD PUSH1 0x40 MLOAD PUSH4 0x18160DDD PUSH1 0xE0 SHL DUP2 MSTORE PUSH1 0x1 PUSH1 0x1 PUSH1 0xA0 SHL SUB SWAP1 SWAP2 AND SWAP1 PUSH1 0x20 DUP2 PUSH1 0x4 DUP2 DUP6 GAS STATICCALL SWAP1 DUP2 ISZERO PUSH2 0xFF7 JUMPI PUSH0 SWAP2 PUSH2 0x113B JUMPI JUMPDEST POP PUSH2 0x1046 JUMPI PUSH2 0xF3B PUSH2 0xF36 DUP6 DUP5 PUSH2 0x17DD JUMP JUMPDEST PUSH2 0x1ADD JUMP JUMPDEST SWAP3 JUMPDEST DUP4 LT PUSH2 0x1002 JUMPI PUSH2 0xF4F DUP3 PUSH1 0x6 SLOAD PUSH2 0x1720 JUMP JUMPDEST PUSH1 0x6 SSTORE PUSH2 0xF5E DUP5 PUSH1 0x7 SLOAD PUSH2 0x1720 JUMP JUMPDEST PUSH1 0x7 SSTORE DUP1 EXTCODESIZE ISZERO PUSH2 0x9C4 JUMPI PUSH1 0x40 MLOAD PUSH4 0x40C10F19 PUSH1 0xE0 SHL DUP2 MSTORE CALLER PUSH1 0x4 DUP3 ADD MSTORE PUSH1 0x24 DUP2 ADD DUP5 SWAP1 MSTORE SWAP1 PUSH0 SWAP1 DUP3 SWAP1 PUSH1 0x44 SWAP1 DUP3 SWAP1 DUP5 SWAP1 GAS CALL DUP1 ISZERO PUSH2 0xFF7 JUMPI PUSH1 0x20 SWAP5 PUSH32 0x64B83944E79C3CE8D4C297411DE637C3E102D064677AAC0C163976EBDCD6F50E SWAP3 DUP6 SWAP3 PUSH2 0xFE7 JUMPI JUMPDEST POP PUSH1 0x40 DUP1 MLOAD SWAP5 DUP6 MSTORE PUSH1 0x20 DUP6 ADD SWAP2 SWAP1 SWAP2 MSTORE DUP4 ADD MSTORE CALLER SWAP2 PUSH1 0x60 SWAP1 LOG2 PUSH1 0x1 DUP1 SSTORE PUSH1 0x40 MLOAD SWAP1 DUP2 MSTORE RETURN JUMPDEST PUSH0 PUSH2 0xFF1 SWAP2 PUSH2 0x1690 JUMP JUMPDEST PUSH0 PUSH2 0xFC2 JUMP JUMPDEST PUSH1 0x40 MLOAD RETURNDATASIZE PUSH0 DUP3 RETURNDATACOPY RETURNDATASIZE SWAP1 REVERT JUMPDEST PUSH1 0x64 PUSH1 0x40 MLOAD PUSH3 0x461BCD PUSH1 0xE5 SHL DUP2 MSTORE PUSH1 0x20 PUSH1 0x4 DUP3 ADD MSTORE PUSH1 0x20 PUSH1 0x24 DUP3 ADD MSTORE PUSH32 0x536C6970706167653A20696E73756666696369656E74204C50206D696E746564 PUSH1 0x44 DUP3 ADD MSTORE REVERT JUMPDEST PUSH1 0x40 MLOAD PUSH4 0x18160DDD PUSH1 0xE0 SHL DUP2 MSTORE PUSH1 0x20 DUP2 PUSH1 0x4 DUP2 DUP6 GAS STATICCALL SWAP1 DUP2 ISZERO PUSH2 0xFF7 JUMPI PUSH0 SWAP2 PUSH2 0x1107 JUMPI JUMPDEST POP PUSH2 0x1078 PUSH2 0x1081 SWAP2 DUP5 PUSH2 0x17DD JUMP JUMPDEST PUSH1 0x6 SLOAD SWAP1 PUSH2 0x17F0 JUMP JUMPDEST PUSH1 0x40 MLOAD PUSH4 0x18160DDD PUSH1 0xE0 SHL DUP2 MSTORE PUSH1 0x20 DUP2 PUSH1 0x4 DUP2 DUP7 GAS STATICCALL SWAP1 DUP2 ISZERO PUSH2 0xFF7 JUMPI PUSH0 SWAP2 PUSH2 0x10D3 JUMPI JUMPDEST POP PUSH2 0x10B3 PUSH2 0x10BC SWAP2 DUP8 PUSH2 0x17DD JUMP JUMPDEST PUSH1 0x7 SLOAD SWAP1 PUSH2 0x17F0 JUMP JUMPDEST DUP1 DUP3 LT ISZERO PUSH2 0x10CC JUMPI POP JUMPDEST SWAP3 PUSH2 0xF3D JUMP JUMPDEST SWAP1 POP PUSH2 0x10C6 JUMP JUMPDEST SWAP1 POP PUSH1 0x20 DUP2 RETURNDATASIZE PUSH1 0x20 GT PUSH2 0x10FF JUMPI JUMPDEST DUP2 PUSH2 0x10EE PUSH1 0x20 SWAP4 DUP4 PUSH2 0x1690 JUMP JUMPDEST DUP2 ADD SUB SLT PUSH2 0x9C4 JUMPI MLOAD PUSH2 0x10B3 PUSH2 0x10A5 JUMP JUMPDEST RETURNDATASIZE SWAP2 POP PUSH2 0x10E1 JUMP JUMPDEST SWAP1 POP PUSH1 0x20 DUP2 RETURNDATASIZE PUSH1 0x20 GT PUSH2 0x1133 JUMPI JUMPDEST DUP2 PUSH2 0x1122 PUSH1 0x20 SWAP4 DUP4 PUSH2 0x1690 JUMP JUMPDEST DUP2 ADD SUB SLT PUSH2 0x9C4 JUMPI MLOAD PUSH2 0x1078 PUSH2 0x106A JUMP JUMPDEST RETURNDATASIZE SWAP2 POP PUSH2 0x1115 JUMP JUMPDEST SWAP1 POP PUSH1 0x20 DUP2 RETURNDATASIZE PUSH1 0x20 GT PUSH2 0x1165 JUMPI JUMPDEST DUP2 PUSH2 0x1156 PUSH1 0x20 SWAP4 DUP4 PUSH2 0x1690 JUMP JUMPDEST DUP2 ADD SUB SLT PUSH2 0x9C4 JUMPI MLOAD DUP6 PUSH2 0xF24 JUMP JUMPDEST RETURNDATASIZE SWAP2 POP PUSH2 0x1149 JUMP JUMPDEST PUSH2 0x1186 SWAP2 POP PUSH1 0x20 RETURNDATASIZE PUSH1 0x20 GT PUSH2 0x528 JUMPI PUSH2 0x51A DUP2 DUP4 PUSH2 0x1690 JUMP JUMPDEST DUP6 PUSH2 0x3CA JUMP JUMPDEST PUSH2 0x11A5 SWAP2 POP PUSH1 0x20 RETURNDATASIZE PUSH1 0x20 GT PUSH2 0x528 JUMPI PUSH2 0x51A DUP2 DUP4 PUSH2 0x1690 JUMP JUMPDEST DUP6 PUSH2 0x439 JUMP JUMPDEST PUSH1 0x40 MLOAD PUSH3 0x461BCD PUSH1 0xE5 SHL DUP2 MSTORE PUSH1 0x20 PUSH1 0x4 DUP3 ADD MSTORE PUSH1 0xF PUSH1 0x24 DUP3 ADD MSTORE PUSH15 0x496E76616C696420616D6F756E7473 PUSH1 0x88 SHL PUSH1 0x44 DUP3 ADD MSTORE PUSH1 0x64 SWAP1 REVERT JUMPDEST POP DUP3 ISZERO ISZERO PUSH2 0xE45 JUMP JUMPDEST CALLVALUE PUSH2 0x9C4 JUMPI PUSH0 CALLDATASIZE PUSH1 0x3 NOT ADD SLT PUSH2 0x9C4 JUMPI PUSH2 0x1203 PUSH2 0x18A5 JUMP JUMPDEST PUSH1 0x2 SLOAD PUSH1 0xFF DUP2 AND ISZERO PUSH2 0x1242 JUMPI PUSH1 0xFF NOT AND PUSH1 0x2 SSTORE PUSH32 0x5DB9EE0A495BF2E6FF9C91A7834C1BA4FDD244A5E8AA4E537BD38AEAE4B073AA PUSH1 0x20 PUSH1 0x40 MLOAD CALLER DUP2 MSTORE LOG1 STOP JUMPDEST PUSH1 0x40 MLOAD PUSH3 0x461BCD PUSH1 0xE5 SHL DUP2 MSTORE PUSH1 0x20 PUSH1 0x4 DUP3 ADD MSTORE PUSH1 0x14 PUSH1 0x24 DUP3 ADD MSTORE PUSH20 0x14185D5CD8589B194E881B9BDD081C185D5CD959 PUSH1 0x62 SHL PUSH1 0x44 DUP3 ADD MSTORE PUSH1 0x64 SWAP1 REVERT JUMPDEST CALLVALUE PUSH2 0x9C4 JUMPI PUSH2 0x12DB PUSH2 0x128F CALLDATASIZE PUSH2 0x1598 JUMP JUMPDEST SWAP1 PUSH2 0x1298 PUSH2 0x18FC JUMP JUMPDEST PUSH2 0x12A0 PUSH2 0x1952 JUMP JUMPDEST DUP1 ISZERO ISZERO DUP1 PUSH2 0x1475 JUMPI JUMPDEST PUSH2 0x12B2 SWAP1 PUSH2 0x15C4 JUMP JUMPDEST PUSH2 0x12D0 PUSH1 0x6 SLOAD PUSH1 0x7 SLOAD SWAP1 PUSH2 0x12CA PUSH2 0x374 DUP4 DUP4 DUP8 PUSH2 0x1996 JUMP JUMPDEST DUP4 PUSH2 0x1A53 JUMP JUMPDEST SWAP4 SWAP1 SWAP3 DUP4 LT ISZERO PUSH2 0x1644 JUMP JUMPDEST PUSH1 0x2 SLOAD PUSH1 0x40 MLOAD PUSH4 0x23B872DD PUSH1 0xE0 SHL DUP2 MSTORE CALLER PUSH1 0x4 DUP3 ADD MSTORE ADDRESS PUSH1 0x24 DUP3 ADD MSTORE PUSH1 0x44 DUP2 ADD DUP4 SWAP1 MSTORE SWAP1 PUSH1 0x20 SWAP1 DUP3 SWAP1 PUSH1 0x8 SHR PUSH1 0x1 PUSH1 0x1 PUSH1 0xA0 SHL SUB AND DUP2 PUSH0 DUP2 PUSH1 0x64 DUP2 ADD SUB SWAP3 GAS CALL DUP1 ISZERO PUSH2 0xFF7 JUMPI PUSH2 0x1331 SWAP2 PUSH0 SWAP2 PUSH2 0x118C JUMPI POP PUSH2 0x16DE JUMP JUMPDEST PUSH2 0x133D DUP2 PUSH1 0x6 SLOAD PUSH2 0x1720 JUMP JUMPDEST PUSH1 0x6 SSTORE PUSH2 0x134C DUP3 PUSH1 0x7 SLOAD PUSH2 0x1741 JUMP JUMPDEST PUSH1 0x7 SSTORE PUSH1 0x3 SLOAD PUSH1 0x40 MLOAD PUSH4 0xA9059CBB PUSH1 0xE0 SHL DUP2 MSTORE CALLER PUSH1 0x4 DUP3 ADD MSTORE PUSH1 0x24 DUP2 ADD DUP5 SWAP1 MSTORE SWAP1 PUSH1 0x20 SWAP1 DUP3 SWAP1 PUSH1 0x44 SWAP1 DUP3 SWAP1 PUSH0 SWAP1 PUSH1 0x1 PUSH1 0x1 PUSH1 0xA0 SHL SUB AND GAS CALL DUP1 ISZERO PUSH2 0xFF7 JUMPI PUSH2 0x139A SWAP2 PUSH0 SWAP2 PUSH2 0x116D JUMPI POP PUSH2 0x174E JUMP JUMPDEST DUP3 PUSH2 0x13FB JUMPI JUMPDEST PUSH1 0x20 SWAP3 POP PUSH1 0x1 DUP1 PUSH1 0xA0 SHL SUB PUSH1 0x2 SLOAD PUSH1 0x8 SHR AND PUSH1 0x1 DUP1 PUSH1 0xA0 SHL SUB PUSH1 0x3 SLOAD AND SWAP2 PUSH1 0x40 MLOAD SWAP1 DUP2 MSTORE DUP4 DUP6 DUP3 ADD MSTORE PUSH32 0xD36CC53BA71BC76A3DB3364981F5296DD4CA5EBA0E8C89874F2170515BD20D24 PUSH1 0x40 CALLER SWAP3 LOG4 PUSH1 0x1 DUP1 SSTORE PUSH1 0x40 MLOAD SWAP1 DUP2 MSTORE RETURN JUMPDEST PUSH1 0x3 SLOAD PUSH1 0x4 DUP1 SLOAD PUSH1 0x40 MLOAD PUSH4 0xA9059CBB PUSH1 0xE0 SHL DUP2 MSTORE PUSH1 0x1 PUSH1 0x1 PUSH1 0xA0 SHL SUB SWAP2 DUP3 AND SWAP3 DUP2 ADD SWAP3 SWAP1 SWAP3 MSTORE PUSH1 0x24 DUP3 ADD SWAP6 SWAP1 SWAP6 MSTORE SWAP4 PUSH1 0x20 SWAP2 DUP6 SWAP2 PUSH1 0x44 SWAP2 DUP4 SWAP2 PUSH0 SWAP2 AND GAS CALL SWAP3 DUP4 ISZERO PUSH2 0xFF7 JUMPI PUSH1 0x20 SWAP4 PUSH2 0x1453 SWAP2 PUSH0 SWAP2 PUSH2 0x1458 JUMPI POP PUSH2 0x1791 JUMP JUMPDEST PUSH2 0x13A0 JUMP JUMPDEST PUSH2 0x146F SWAP2 POP DUP6 RETURNDATASIZE DUP8 GT PUSH2 0x528 JUMPI PUSH2 0x51A DUP2 DUP4 PUSH2 0x1690 JUMP JUMPDEST DUP6 PUSH2 0x4F6 JUMP JUMPDEST POP PUSH1 0xF SLOAD DUP2 GT ISZERO PUSH2 0x12A9 JUMP JUMPDEST CALLVALUE PUSH2 0x9C4 JUMPI PUSH2 0x148F CALLDATASIZE PUSH2 0x157E JUMP JUMPDEST SWAP2 PUSH2 0x1498 PUSH2 0x18A5 JUMP JUMPDEST PUSH1 0x64 DUP2 GT PUSH2 0x14EB JUMPI PUSH2 0x3E8 DUP3 GT PUSH2 0x14B4 JUMPI PUSH1 0xC SSTORE PUSH1 0xE SSTORE PUSH1 0xF SSTORE STOP JUMPDEST PUSH1 0x40 MLOAD PUSH3 0x461BCD PUSH1 0xE5 SHL DUP2 MSTORE PUSH1 0x20 PUSH1 0x4 DUP3 ADD MSTORE PUSH1 0xF PUSH1 0x24 DUP3 ADD MSTORE PUSH15 0x92DAE0C2C6E840E8DEDE40D0D2CED PUSH1 0x8B SHL PUSH1 0x44 DUP3 ADD MSTORE PUSH1 0x64 SWAP1 REVERT JUMPDEST PUSH1 0x40 MLOAD PUSH3 0x461BCD PUSH1 0xE5 SHL DUP2 MSTORE PUSH1 0x20 PUSH1 0x4 DUP3 ADD MSTORE PUSH1 0xC PUSH1 0x24 DUP3 ADD MSTORE PUSH12 0x8CCACA40E8DEDE40D0D2CED PUSH1 0xA3 SHL PUSH1 0x44 DUP3 ADD MSTORE PUSH1 0x64 SWAP1 REVERT JUMPDEST CALLVALUE PUSH2 0x9C4 JUMPI PUSH0 CALLDATASIZE PUSH1 0x3 NOT ADD SLT PUSH2 0x9C4 JUMPI PUSH1 0x20 PUSH1 0xE SLOAD PUSH1 0x40 MLOAD SWAP1 DUP2 MSTORE RETURN JUMPDEST CALLVALUE PUSH2 0x9C4 JUMPI PUSH0 CALLDATASIZE PUSH1 0x3 NOT ADD SLT PUSH2 0x9C4 JUMPI PUSH1 0x3 SLOAD PUSH1 0x40 MLOAD PUSH1 0x1 PUSH1 0x1 PUSH1 0xA0 SHL SUB SWAP1 SWAP2 AND DUP2 MSTORE PUSH1 0x20 SWAP1 RETURN JUMPDEST CALLVALUE PUSH2 0x9C4 JUMPI PUSH0 CALLDATASIZE PUSH1 0x3 NOT ADD SLT PUSH2 0x9C4 JUMPI PUSH1 0x20 SWAP1 PUSH1 0xF SLOAD DUP2 MSTORE RETURN JUMPDEST PUSH1 0x60 SWAP1 PUSH1 0x3 NOT ADD SLT PUSH2 0x9C4 JUMPI PUSH1 0x4 CALLDATALOAD SWAP1 PUSH1 0x24 CALLDATALOAD SWAP1 PUSH1 0x44 CALLDATALOAD SWAP1 JUMP JUMPDEST PUSH1 0x40 SWAP1 PUSH1 0x3 NOT ADD SLT PUSH2 0x9C4 JUMPI PUSH1 0x4 CALLDATALOAD SWAP1 PUSH1 0x24 CALLDATALOAD SWAP1 JUMP JUMPDEST PUSH1 0x4 CALLDATALOAD SWAP1 PUSH1 0x1 PUSH1 0x1 PUSH1 0xA0 SHL SUB DUP3 AND DUP3 SUB PUSH2 0x9C4 JUMPI JUMP JUMPDEST ISZERO PUSH2 0x15CB JUMPI JUMP JUMPDEST PUSH1 0x40 MLOAD PUSH3 0x461BCD PUSH1 0xE5 SHL DUP2 MSTORE PUSH1 0x20 PUSH1 0x4 DUP3 ADD MSTORE PUSH1 0xD PUSH1 0x24 DUP3 ADD MSTORE PUSH13 0x125B9D985B1A59081A5B9C1D5D PUSH1 0x9A SHL PUSH1 0x44 DUP3 ADD MSTORE PUSH1 0x64 SWAP1 REVERT JUMPDEST ISZERO PUSH2 0x1607 JUMPI JUMP JUMPDEST PUSH1 0x40 MLOAD PUSH3 0x461BCD PUSH1 0xE5 SHL DUP2 MSTORE PUSH1 0x20 PUSH1 0x4 DUP3 ADD MSTORE PUSH1 0x15 PUSH1 0x24 DUP3 ADD MSTORE PUSH21 0xA0E4D2C6CA40D2DAE0C2C6E840E8DEDE40D0D2CED PUSH1 0x5B SHL PUSH1 0x44 DUP3 ADD MSTORE PUSH1 0x64 SWAP1 REVERT JUMPDEST ISZERO PUSH2 0x164B JUMPI JUMP JUMPDEST PUSH1 0x40 MLOAD PUSH3 0x461BCD PUSH1 0xE5 SHL DUP2 MSTORE PUSH1 0x20 PUSH1 0x4 DUP3 ADD MSTORE PUSH1 0x1D PUSH1 0x24 DUP3 ADD MSTORE PUSH32 0x536C6970706167653A20696E73756666696369656E74206F7574707574000000 PUSH1 0x44 DUP3 ADD MSTORE PUSH1 0x64 SWAP1 REVERT JUMPDEST SWAP1 PUSH1 0x1F DUP1 NOT SWAP2 ADD AND DUP2 ADD SWAP1 DUP2 LT PUSH8 0xFFFFFFFFFFFFFFFF DUP3 GT OR PUSH2 0x16B2 JUMPI PUSH1 0x40 MSTORE JUMP JUMPDEST PUSH4 0x4E487B71 PUSH1 0xE0 SHL PUSH0 MSTORE PUSH1 0x41 PUSH1 0x4 MSTORE PUSH1 0x24 PUSH0 REVERT JUMPDEST SWAP1 DUP2 PUSH1 0x20 SWAP2 SUB SLT PUSH2 0x9C4 JUMPI MLOAD DUP1 ISZERO ISZERO DUP2 SUB PUSH2 0x9C4 JUMPI SWAP1 JUMP JUMPDEST ISZERO PUSH2 0x16E5 JUMPI JUMP JUMPDEST PUSH1 0x40 MLOAD PUSH3 0x461BCD PUSH1 0xE5 SHL DUP2 MSTORE PUSH1 0x20 PUSH1 0x4 DUP3 ADD MSTORE PUSH1 0x13 PUSH1 0x24 DUP3 ADD MSTORE PUSH19 0x14D510C81D1C985B9CD9995C8819985A5B1959 PUSH1 0x6A SHL PUSH1 0x44 DUP3 ADD MSTORE PUSH1 0x64 SWAP1 REVERT JUMPDEST SWAP2 SWAP1 DUP3 ADD DUP1 SWAP3 GT PUSH2 0x172D JUMPI JUMP JUMPDEST PUSH4 0x4E487B71 PUSH1 0xE0 SHL PUSH0 MSTORE PUSH1 0x11 PUSH1 0x4 MSTORE PUSH1 0x24 PUSH0 REVERT JUMPDEST SWAP2 SWAP1 DUP3 SUB SWAP2 DUP3 GT PUSH2 0x172D JUMPI JUMP JUMPDEST ISZERO PUSH2 0x1755 JUMPI JUMP JUMPDEST PUSH1 0x40 MLOAD PUSH3 0x461BCD PUSH1 0xE5 SHL DUP2 MSTORE PUSH1 0x20 PUSH1 0x4 DUP3 ADD MSTORE PUSH1 0x14 PUSH1 0x24 DUP3 ADD MSTORE PUSH20 0x1554D110C81D1C985B9CD9995C8819985A5B1959 PUSH1 0x62 SHL PUSH1 0x44 DUP3 ADD MSTORE PUSH1 0x64 SWAP1 REVERT JUMPDEST ISZERO PUSH2 0x1798 JUMPI JUMP JUMPDEST PUSH1 0x40 MLOAD PUSH3 0x461BCD PUSH1 0xE5 SHL DUP2 MSTORE PUSH1 0x20 PUSH1 0x4 DUP3 ADD MSTORE PUSH1 0x1C PUSH1 0x24 DUP3 ADD MSTORE PUSH32 0x50726F746F636F6C20666565207472616E73666572206661696C656400000000 PUSH1 0x44 DUP3 ADD MSTORE PUSH1 0x64 SWAP1 REVERT JUMPDEST DUP2 DUP2 MUL SWAP3 SWAP2 DUP2 ISZERO SWAP2 DUP5 DIV EQ OR ISZERO PUSH2 0x172D JUMPI JUMP JUMPDEST DUP2 ISZERO PUSH2 0x17FA JUMPI DIV SWAP1 JUMP JUMPDEST PUSH4 0x4E487B71 PUSH1 0xE0 SHL PUSH0 MSTORE PUSH1 0x12 PUSH1 0x4 MSTORE PUSH1 0x24 PUSH0 REVERT JUMPDEST PUSH1 0x6 SLOAD DUP1 ISZERO DUP1 ISZERO PUSH2 0x1869 JUMPI JUMPDEST PUSH2 0x1864 JUMPI PUSH1 0x7 SLOAD SWAP1 PUSH8 0xDE0B6B3A7640000 DUP3 MUL SWAP2 DUP1 DUP4 DIV PUSH8 0xDE0B6B3A7640000 EQ SWAP1 ISZERO OR ISZERO PUSH2 0x172D JUMPI PUSH2 0x1852 PUSH2 0x1860 SWAP2 PUSH1 0x64 SWAP4 PUSH2 0x17F0 JUMP JUMPDEST PUSH2 0x185A PUSH2 0x1B23 JUMP JUMPDEST SWAP1 PUSH2 0x17DD JUMP JUMPDEST DIV SWAP1 JUMP JUMPDEST POP PUSH0 SWAP1 JUMP JUMPDEST POP PUSH1 0x7 SLOAD ISZERO PUSH2 0x181A JUMP JUMPDEST PUSH1 0x7 SLOAD SWAP1 DUP2 ISZERO DUP1 ISZERO PUSH2 0x189B JUMPI JUMPDEST PUSH2 0x1895 JUMPI PUSH2 0x1891 SWAP2 PUSH1 0x6 SLOAD SWAP2 PUSH2 0x1A53 JUMP JUMPDEST POP SWAP1 JUMP JUMPDEST POP POP PUSH0 SWAP1 JUMP JUMPDEST POP PUSH1 0x6 SLOAD ISZERO PUSH2 0x1880 JUMP JUMPDEST PUSH0 SLOAD PUSH1 0x1 PUSH1 0x1 PUSH1 0xA0 SHL SUB AND CALLER SUB PUSH2 0x18B8 JUMPI JUMP JUMPDEST PUSH1 0x64 PUSH1 0x40 MLOAD PUSH3 0x461BCD PUSH1 0xE5 SHL DUP2 MSTORE PUSH1 0x20 PUSH1 0x4 DUP3 ADD MSTORE PUSH1 0x20 PUSH1 0x24 DUP3 ADD MSTORE PUSH32 0x4F776E61626C653A2063616C6C6572206973206E6F7420746865206F776E6572 PUSH1 0x44 DUP3 ADD MSTORE REVERT JUMPDEST PUSH1 0x2 PUSH1 0x1 SLOAD EQ PUSH2 0x190D JUMPI PUSH1 0x2 PUSH1 0x1 SSTORE JUMP JUMPDEST PUSH1 0x40 MLOAD PUSH3 0x461BCD PUSH1 0xE5 SHL DUP2 MSTORE PUSH1 0x20 PUSH1 0x4 DUP3 ADD MSTORE PUSH1 0x1F PUSH1 0x24 DUP3 ADD MSTORE PUSH32 0x5265656E7472616E637947756172643A207265656E7472616E742063616C6C00 PUSH1 0x44 DUP3 ADD MSTORE PUSH1 0x64 SWAP1 REVERT JUMPDEST PUSH1 0xFF PUSH1 0x2 SLOAD AND PUSH2 0x195E JUMPI JUMP JUMPDEST PUSH1 0x40 MLOAD PUSH3 0x461BCD PUSH1 0xE5 SHL DUP2 MSTORE PUSH1 0x20 PUSH1 0x4 DUP3 ADD MSTORE PUSH1 0x10 PUSH1 0x24 DUP3 ADD MSTORE PUSH16 0x14185D5CD8589B194E881C185D5CD959 PUSH1 0x82 SHL PUSH1 0x44 DUP3 ADD MSTORE PUSH1 0x64 SWAP1 REVERT JUMPDEST SWAP1 SWAP2 PUSH8 0xDE0B6B3A7640000 DUP2 MUL SWAP1 DUP1 DUP3 DIV PUSH8 0xDE0B6B3A7640000 EQ DUP2 ISZERO OR ISZERO PUSH2 0x172D JUMPI PUSH2 0x19EE PUSH2 0x19C9 DUP6 PUSH2 0x19F4 SWAP5 PUSH2 0x17F0 JUMP JUMPDEST SWAP5 PUSH2 0x19E8 PUSH2 0x19D7 DUP7 DUP4 PUSH2 0x1720 JUMP JUMPDEST SWAP6 PUSH2 0x19E2 DUP6 DUP3 PUSH2 0x17DD JUMP JUMPDEST SWAP3 PUSH2 0x1720 JUMP JUMPDEST SWAP1 PUSH2 0x17F0 JUMP JUMPDEST SWAP1 PUSH2 0x1741 JUMP JUMPDEST SWAP1 PUSH8 0xDE0B6B3A7640000 DUP3 MUL SWAP2 DUP1 DUP4 DIV PUSH8 0xDE0B6B3A7640000 EQ SWAP1 ISZERO OR ISZERO PUSH2 0x172D JUMPI PUSH2 0x1A1F SWAP2 PUSH2 0x17F0 JUMP JUMPDEST DUP2 DUP2 LT ISZERO PUSH2 0x1895 JUMPI PUSH2 0x1A31 SWAP1 DUP3 PUSH2 0x1741 JUMP JUMPDEST SWAP1 PUSH2 0x2710 DUP3 MUL SWAP2 DUP1 DUP4 DIV PUSH2 0x2710 EQ SWAP1 ISZERO OR ISZERO PUSH2 0x172D JUMPI PUSH2 0x1A50 SWAP2 PUSH2 0x17F0 JUMP JUMPDEST SWAP1 JUMP JUMPDEST SWAP1 DUP1 ISZERO ISZERO DUP1 PUSH2 0x1AD4 JUMPI JUMPDEST ISZERO PUSH2 0x1AA0 JUMPI PUSH2 0x19E8 PUSH2 0x1A9D SWAP3 PUSH2 0x19E2 PUSH1 0x64 PUSH2 0x1A95 PUSH2 0x1A8B PUSH2 0x2710 PUSH2 0x1A83 PUSH1 0xC SLOAD DUP8 PUSH2 0x17DD JUMP JUMPDEST DIV DUP1 SWAP6 PUSH2 0x1741 JUMP JUMPDEST SWAP4 PUSH1 0xD SLOAD SWAP1 PUSH2 0x17DD JUMP JUMPDEST DIV SWAP6 DUP3 PUSH2 0x17DD JUMP JUMPDEST SWAP2 JUMP JUMPDEST PUSH1 0x40 MLOAD PUSH3 0x461BCD PUSH1 0xE5 SHL DUP2 MSTORE PUSH1 0x20 PUSH1 0x4 DUP3 ADD MSTORE PUSH1 0xC PUSH1 0x24 DUP3 ADD MSTORE PUSH12 0x4E6F206C6971756964697479 PUSH1 0xA0 SHL PUSH1 0x44 DUP3 ADD MSTORE PUSH1 0x64 SWAP1 REVERT JUMPDEST POP DUP3 ISZERO ISZERO PUSH2 0x1A5D JUMP JUMPDEST SWAP1 DUP2 ISZERO PUSH2 0x1B1E JUMPI PUSH1 0x1 DUP3 ADD DUP1 DUP4 GT PUSH2 0x172D JUMPI PUSH1 0x1 SHR DUP3 JUMPDEST DUP4 DUP3 LT PUSH2 0x1AFF JUMPI POP POP JUMP JUMPDEST SWAP1 SWAP3 POP PUSH2 0x1B15 DUP4 PUSH2 0x1B10 DUP2 DUP5 PUSH2 0x17F0 JUMP JUMPDEST PUSH2 0x1720 JUMP JUMPDEST PUSH1 0x1 SHR SWAP1 PUSH2 0x1AF4 JUMP JUMPDEST PUSH0 SWAP2 POP JUMP JUMPDEST PUSH1 0x8 SLOAD DUP1 ISZERO PUSH2 0x1B65 JUMPI PUSH3 0xF4240 PUSH2 0x3E8 SWAP2 DIV DIV PUSH1 0x5 DUP2 MUL SWAP1 DUP1 DUP3 DIV PUSH1 0x5 EQ SWAP1 ISZERO OR ISZERO PUSH2 0x172D JUMPI PUSH1 0x64 ADD DUP1 PUSH1 0x64 GT PUSH2 0x172D JUMPI PUSH2 0x12C DUP2 GT ISZERO PUSH2 0x1A50 JUMPI POP PUSH2 0x12C SWAP1 JUMP JUMPDEST POP PUSH1 0x64 SWAP1 JUMP INVALID LOG2 PUSH5 0x6970667358 0x22 SLT KECCAK256 0xAF SLT 0xBA PC PUSH9 0x17C7CFB3BDDFC6CBC8 SWAP2 SWAP4 0xCF 0xDF 0x21 0xEB 0xE1 0x4B PUSH32 0x1D2F8565F4B1ACE9E64736F6C634300081C003360806040523461035E576040 DUP1 MLOAD SWAP1 DUP2 ADD PUSH1 0x1 PUSH1 0x1 PUSH1 0x40 SHL SUB DUP2 GT DUP3 DUP3 LT OR PUSH2 0x271 JUMPI PUSH1 0x40 SWAP1 DUP2 MSTORE PUSH1 0xE DUP3 MSTORE PUSH14 0x53747564696F436861696E204C5 PUSH1 0x94 SHL PUSH1 0x20 DUP4 ADD MSTORE DUP1 MLOAD SWAP1 DUP2 ADD PUSH1 0x1 PUSH1 0x1 PUSH1 0x40 SHL SUB DUP2 GT DUP3 DUP3 LT OR PUSH2 0x271 JUMPI PUSH1 0x40 MSTORE PUSH1 0x6 DUP2 MSTORE PUSH6 0x5354432D4C5 PUSH1 0xD4 SHL PUSH1 0x20 DUP3 ADD MSTORE DUP2 MLOAD PUSH1 0x1 PUSH1 0x1 PUSH1 0x40 SHL SUB DUP2 GT PUSH2 0x271 JUMPI PUSH1 0x3 SLOAD PUSH1 0x1 DUP2 DUP2 SHR SWAP2 AND DUP1 ISZERO PUSH2 0x354 JUMPI JUMPDEST PUSH1 0x20 DUP3 LT EQ PUSH2 0x253 JUMPI PUSH1 0x1F DUP2 GT PUSH2 0x2F1 JUMPI JUMPDEST POP PUSH1 0x20 SWAP3 PUSH1 0x1F DUP3 GT PUSH1 0x1 EQ PUSH2 0x290 JUMPI SWAP3 DUP2 SWAP3 SWAP4 PUSH0 SWAP3 PUSH2 0x285 JUMPI JUMPDEST POP POP DUP2 PUSH1 0x1 SHL SWAP2 PUSH0 NOT SWAP1 PUSH1 0x3 SHL SHR NOT AND OR PUSH1 0x3 SSTORE JUMPDEST DUP1 MLOAD PUSH1 0x1 PUSH1 0x1 PUSH1 0x40 SHL SUB DUP2 GT PUSH2 0x271 JUMPI PUSH1 0x4 SLOAD PUSH1 0x1 DUP2 DUP2 SHR SWAP2 AND DUP1 ISZERO PUSH2 0x267 JUMPI JUMPDEST PUSH1 0x20 DUP3 LT EQ PUSH2 0x253 JUMPI PUSH1 0x1F DUP2 GT PUSH2 0x1F0 JUMPI JUMPDEST POP PUSH1 0x20 SWAP2 PUSH1 0x1F DUP3 GT PUSH1 0x1 EQ PUSH2 0x190 JUMPI SWAP2 DUP2 SWAP3 PUSH0 SWAP3 PUSH2 0x185 JUMPI JUMPDEST POP POP DUP2 PUSH1 0x1 SHL SWAP2 PUSH0 NOT SWAP1 PUSH1 0x3 SHL SHR NOT AND OR PUSH1 0x4 SSTORE JUMPDEST PUSH1 0x5 DUP1 SLOAD CALLER PUSH1 0x1 PUSH1 0x1 PUSH1 0xA0 SHL SUB NOT DUP3 AND DUP2 OR SWAP1 SWAP3 SSTORE PUSH1 0x40 MLOAD SWAP2 SWAP1 PUSH1 0x1 PUSH1 0x1 PUSH1 0xA0 SHL SUB AND PUSH32 0x8BE0079C531659141344CD1FD0A4F28419497F9722A3DAAFE3B4186F6B6457E0 PUSH0 DUP1 LOG3 PUSH2 0xC39 SWAP1 DUP2 PUSH2 0x363 DUP3 CODECOPY RETURN JUMPDEST ADD MLOAD SWAP1 POP PUSH0 DUP1 PUSH2 0x11D JUMP JUMPDEST PUSH1 0x1F NOT DUP3 AND SWAP3 PUSH1 0x4 PUSH0 MSTORE DUP1 PUSH0 KECCAK256 SWAP2 PUSH0 JUMPDEST DUP6 DUP2 LT PUSH2 0x1D8 JUMPI POP DUP4 PUSH1 0x1 SWAP6 LT PUSH2 0x1C0 JUMPI JUMPDEST POP POP POP DUP2 SHL ADD PUSH1 0x4 SSTORE PUSH2 0x132 JUMP JUMPDEST ADD MLOAD PUSH0 NOT PUSH1 0xF8 DUP5 PUSH1 0x3 SHL AND SHR NOT AND SWAP1 SSTORE PUSH0 DUP1 DUP1 PUSH2 0x1B2 JUMP JUMPDEST SWAP2 SWAP3 PUSH1 0x20 PUSH1 0x1 DUP2 SWAP3 DUP7 DUP6 ADD MLOAD DUP2 SSTORE ADD SWAP5 ADD SWAP3 ADD PUSH2 0x1A0 JUMP JUMPDEST PUSH1 0x4 PUSH0 MSTORE PUSH32 0x8A35ACFBC15FF81A39AE7D344FD709F28E8600B4AA8C65C6B64BFE7FE36BD19B PUSH1 0x1F DUP4 ADD PUSH1 0x5 SHR DUP2 ADD SWAP2 PUSH1 0x20 DUP5 LT PUSH2 0x249 JUMPI JUMPDEST PUSH1 0x1F ADD PUSH1 0x5 SHR ADD SWAP1 JUMPDEST DUP2 DUP2 LT PUSH2 0x23E JUMPI POP PUSH2 0x104 JUMP JUMPDEST PUSH0 DUP2 SSTORE PUSH1 0x1 ADD PUSH2 0x231 JUMP JUMPDEST SWAP1 SWAP2 POP DUP2 SWAP1 PUSH2 0x228 JUMP JUMPDEST PUSH4 0x4E487B71 PUSH1 0xE0 SHL PUSH0 MSTORE PUSH1 0x22 PUSH1 0x4 MSTORE PUSH1 0x24 PUSH0 REVERT JUMPDEST SWAP1 PUSH1 0x7F AND SWAP1 PUSH2 0xF2 JUMP JUMPDEST PUSH4 0x4E487B71 PUSH1 0xE0 SHL PUSH0 MSTORE PUSH1 0x41 PUSH1 0x4 MSTORE PUSH1 0x24 PUSH0 REVERT JUMPDEST ADD MLOAD SWAP1 POP PUSH0 DUP1 PUSH2 0xBC JUMP JUMPDEST PUSH1 0x1F NOT DUP3 AND SWAP4 PUSH1 0x3 PUSH0 MSTORE DUP1 PUSH0 KECCAK256 SWAP2 PUSH0 JUMPDEST DUP7 DUP2 LT PUSH2 0x2D9 JUMPI POP DUP4 PUSH1 0x1 SWAP6 SWAP7 LT PUSH2 0x2C1 JUMPI JUMPDEST POP POP POP DUP2 SHL ADD PUSH1 0x3 SSTORE PUSH2 0xD1 JUMP JUMPDEST ADD MLOAD PUSH0 NOT PUSH1 0xF8 DUP5 PUSH1 0x3 SHL AND SHR NOT AND SWAP1 SSTORE PUSH0 DUP1 DUP1 PUSH2 0x2B3 JUMP JUMPDEST SWAP2 SWAP3 PUSH1 0x20 PUSH1 0x1 DUP2 SWAP3 DUP7 DUP6 ADD MLOAD DUP2 SSTORE ADD SWAP5 ADD SWAP3 ADD PUSH2 0x2A0 JUMP JUMPDEST PUSH1 0x3 PUSH0 MSTORE PUSH32 0xC2575A0E9E593C00F959F8C92F12DB2869C3395A3B0502D05E2516446F71F85B PUSH1 0x1F DUP4 ADD PUSH1 0x5 SHR DUP2 ADD SWAP2 PUSH1 0x20 DUP5 LT PUSH2 0x34A JUMPI JUMPDEST PUSH1 0x1F ADD PUSH1 0x5 SHR ADD SWAP1 JUMPDEST DUP2 DUP2 LT PUSH2 0x33F JUMPI POP PUSH2 0xA2 JUMP JUMPDEST PUSH0 DUP2 SSTORE PUSH1 0x1 ADD PUSH2 0x332 JUMP JUMPDEST SWAP1 SWAP2 POP DUP2 SWAP1 PUSH2 0x329 JUMP JUMPDEST SWAP1 PUSH1 0x7F AND SWAP1 PUSH2 0x90 JUMP JUMPDEST PUSH0 DUP1 REVERT INVALID PUSH1 0x80 DUP1 PUSH1 0x40 MSTORE PUSH1 0x4 CALLDATASIZE LT ISZERO PUSH2 0x12 JUMPI PUSH0 DUP1 REVERT JUMPDEST PUSH0 CALLDATALOAD PUSH1 0xE0 SHR SWAP1 DUP2 PUSH4 0x6FDDE03 EQ PUSH2 0x7EB JUMPI POP DUP1 PUSH4 0x95EA7B3 EQ PUSH2 0x7C5 JUMPI DUP1 PUSH4 0x18160DDD EQ PUSH2 0x7A8 JUMPI DUP1 PUSH4 0x23B872DD EQ PUSH2 0x6EB JUMPI DUP1 PUSH4 0x313CE567 EQ PUSH2 0x6D0 JUMPI DUP1 PUSH4 0x39509351 EQ PUSH2 0x682 JUMPI DUP1 PUSH4 0x40C10F19 EQ PUSH2 0x5BB JUMPI DUP1 PUSH4 0x70A08231 EQ PUSH2 0x584 JUMPI DUP1 PUSH4 0x715018A6 EQ PUSH2 0x529 JUMPI DUP1 PUSH4 0x8DA5CB5B EQ PUSH2 0x501 JUMPI DUP1 PUSH4 0x95D89B41 EQ PUSH2 0x3E6 JUMPI DUP1 PUSH4 0x9DC29FAC EQ PUSH2 0x2BB JUMPI DUP1 PUSH4 0xA457C2D7 EQ PUSH2 0x218 JUMPI DUP1 PUSH4 0xA9059CBB EQ PUSH2 0x1E7 JUMPI DUP1 PUSH4 0xDD62ED3E EQ PUSH2 0x197 JUMPI PUSH4 0xF2FDE38B EQ PUSH2 0xCC JUMPI PUSH0 DUP1 REVERT JUMPDEST CALLVALUE PUSH2 0x193 JUMPI PUSH1 0x20 CALLDATASIZE PUSH1 0x3 NOT ADD SLT PUSH2 0x193 JUMPI PUSH2 0xE5 PUSH2 0x8E4 JUMP JUMPDEST PUSH2 0xED PUSH2 0xBAB JUMP JUMPDEST PUSH1 0x1 PUSH1 0x1 PUSH1 0xA0 SHL SUB AND DUP1 ISZERO PUSH2 0x13F JUMPI PUSH1 0x5 DUP1 SLOAD PUSH1 0x1 PUSH1 0x1 PUSH1 0xA0 SHL SUB NOT DUP2 AND DUP4 OR SWAP1 SWAP2 SSTORE PUSH1 0x1 PUSH1 0x1 PUSH1 0xA0 SHL SUB AND PUSH32 0x8BE0079C531659141344CD1FD0A4F28419497F9722A3DAAFE3B4186F6B6457E0 PUSH0 DUP1 LOG3 STOP JUMPDEST PUSH1 0x40 MLOAD PUSH3 0x461BCD PUSH1 0xE5 SHL DUP2 MSTORE PUSH1 0x20 PUSH1 0x4 DUP3 ADD MSTORE PUSH1 0x26 PUSH1 0x24 DUP3 ADD MSTORE PUSH32 0x4F776E61626C653A206E6577206F776E657220697320746865207A65726F2061 PUSH1 0x44 DUP3 ADD MSTORE PUSH6 0x646472657373 PUSH1 0xD0 SHL PUSH1 0x64 DUP3 ADD MSTORE PUSH1 0x84 SWAP1 REVERT JUMPDEST PUSH0 DUP1 REVERT JUMPDEST CALLVALUE PUSH2 0x193 JUMPI PUSH1 0x40 CALLDATASIZE PUSH1 0x3 NOT ADD SLT PUSH2 0x193 JUMPI PUSH2 0x1B0 PUSH2 0x8E4 JUMP JUMPDEST PUSH2 0x1B8 PUSH2 0x8FA JUMP JUMPDEST PUSH1 0x1 PUSH1 0x1 PUSH1 0xA0 SHL SUB SWAP2 DUP3 AND PUSH0 SWAP1 DUP2 MSTORE PUSH1 0x1 PUSH1 0x20 SWAP1 DUP2 MSTORE PUSH1 0x40 DUP1 DUP4 KECCAK256 SWAP5 SWAP1 SWAP4 AND DUP3 MSTORE SWAP3 DUP4 MSTORE DUP2 SWAP1 KECCAK256 SLOAD SWAP1 MLOAD SWAP1 DUP2 MSTORE RETURN JUMPDEST CALLVALUE PUSH2 0x193 JUMPI PUSH1 0x40 CALLDATASIZE PUSH1 0x3 NOT ADD SLT PUSH2 0x193 JUMPI PUSH2 0x20D PUSH2 0x203 PUSH2 0x8E4 JUMP JUMPDEST PUSH1 0x24 CALLDATALOAD SWAP1 CALLER PUSH2 0xA35 JUMP JUMPDEST PUSH1 0x20 PUSH1 0x40 MLOAD PUSH1 0x1 DUP2 MSTORE RETURN JUMPDEST CALLVALUE PUSH2 0x193 JUMPI PUSH1 0x40 CALLDATASIZE PUSH1 0x3 NOT ADD SLT PUSH2 0x193 JUMPI PUSH2 0x231 PUSH2 0x8E4 JUMP JUMPDEST PUSH1 0x24 CALLDATALOAD SWAP1 CALLER PUSH0 MSTORE PUSH1 0x1 PUSH1 0x20 MSTORE PUSH1 0x40 PUSH0 KECCAK256 PUSH1 0x1 DUP1 PUSH1 0xA0 SHL SUB DUP3 AND PUSH0 MSTORE PUSH1 0x20 MSTORE PUSH1 0x40 PUSH0 KECCAK256 SLOAD SWAP2 DUP1 DUP4 LT PUSH2 0x268 JUMPI PUSH2 0x20D SWAP3 SUB SWAP1 CALLER PUSH2 0x931 JUMP JUMPDEST PUSH1 0x40 MLOAD PUSH3 0x461BCD PUSH1 0xE5 SHL DUP2 MSTORE PUSH1 0x20 PUSH1 0x4 DUP3 ADD MSTORE PUSH1 0x25 PUSH1 0x24 DUP3 ADD MSTORE PUSH32 0x45524332303A2064656372656173656420616C6C6F77616E63652062656C6F77 PUSH1 0x44 DUP3 ADD MSTORE PUSH5 0x207A65726F PUSH1 0xD8 SHL PUSH1 0x64 DUP3 ADD MSTORE PUSH1 0x84 SWAP1 REVERT JUMPDEST CALLVALUE PUSH2 0x193 JUMPI PUSH1 0x40 CALLDATASIZE PUSH1 0x3 NOT ADD SLT PUSH2 0x193 JUMPI PUSH2 0x2D4 PUSH2 0x8E4 JUMP JUMPDEST PUSH1 0x24 CALLDATALOAD SWAP1 PUSH2 0x2E0 PUSH2 0xBAB JUMP JUMPDEST PUSH1 0x1 PUSH1 0x1 PUSH1 0xA0 SHL SUB AND DUP1 ISZERO PUSH2 0x397 JUMPI DUP1 PUSH0 MSTORE PUSH0 PUSH1 0x20 MSTORE PUSH1 0x40 PUSH0 KECCAK256 SLOAD SWAP2 DUP1 DUP4 LT PUSH2 0x347 JUMPI PUSH1 0x20 DUP2 PUSH32 0xDDF252AD1BE2C89B69C2B068FC378DAA952BA7F163C4A11628F55A4DF523B3EF SWAP3 PUSH0 SWAP6 DUP6 DUP8 MSTORE DUP7 DUP5 MSTORE SUB PUSH1 0x40 DUP7 KECCAK256 SSTORE DUP1 PUSH1 0x2 SLOAD SUB PUSH1 0x2 SSTORE PUSH1 0x40 MLOAD SWAP1 DUP2 MSTORE LOG3 STOP JUMPDEST PUSH1 0x40 MLOAD PUSH3 0x461BCD PUSH1 0xE5 SHL DUP2 MSTORE PUSH1 0x20 PUSH1 0x4 DUP3 ADD MSTORE PUSH1 0x22 PUSH1 0x24 DUP3 ADD MSTORE PUSH32 0x45524332303A206275726E20616D6F756E7420657863656564732062616C616E PUSH1 0x44 DUP3 ADD MSTORE PUSH2 0x6365 PUSH1 0xF0 SHL PUSH1 0x64 DUP3 ADD MSTORE PUSH1 0x84 SWAP1 REVERT JUMPDEST PUSH1 0x40 MLOAD PUSH3 0x461BCD PUSH1 0xE5 SHL DUP2 MSTORE PUSH1 0x20 PUSH1 0x4 DUP3 ADD MSTORE PUSH1 0x21 PUSH1 0x24 DUP3 ADD MSTORE PUSH32 0x45524332303A206275726E2066726F6D20746865207A65726F20616464726573 PUSH1 0x44 DUP3 ADD MSTORE PUSH1 0x73 PUSH1 0xF8 SHL PUSH1 0x64 DUP3 ADD MSTORE PUSH1 0x84 SWAP1 REVERT JUMPDEST CALLVALUE PUSH2 0x193 JUMPI PUSH0 CALLDATASIZE PUSH1 0x3 NOT ADD SLT PUSH2 0x193 JUMPI PUSH1 0x40 MLOAD PUSH0 PUSH1 0x4 SLOAD DUP1 PUSH1 0x1 SHR SWAP1 PUSH1 0x1 DUP2 AND DUP1 ISZERO PUSH2 0x4F7 JUMPI JUMPDEST PUSH1 0x20 DUP4 LT DUP2 EQ PUSH2 0x4E3 JUMPI DUP3 DUP6 MSTORE SWAP1 DUP2 ISZERO PUSH2 0x4C7 JUMPI POP PUSH1 0x1 EQ PUSH2 0x472 JUMPI JUMPDEST POP DUP2 SWAP1 SUB PUSH1 0x1F ADD PUSH1 0x1F NOT AND DUP2 ADD SWAP1 PUSH8 0xFFFFFFFFFFFFFFFF DUP3 GT DUP2 DUP4 LT OR PUSH2 0x45E JUMPI PUSH2 0x45A DUP3 SWAP2 DUP3 PUSH1 0x40 MSTORE DUP3 PUSH2 0x8BA JUMP JUMPDEST SUB SWAP1 RETURN JUMPDEST PUSH4 0x4E487B71 PUSH1 0xE0 SHL PUSH0 MSTORE PUSH1 0x41 PUSH1 0x4 MSTORE PUSH1 0x24 PUSH0 REVERT JUMPDEST SWAP1 POP PUSH1 0x4 PUSH0 MSTORE PUSH32 0x8A35ACFBC15FF81A39AE7D344FD709F28E8600B4AA8C65C6B64BFE7FE36BD19B PUSH0 SWAP1 JUMPDEST DUP3 DUP3 LT PUSH2 0x4B1 JUMPI POP PUSH1 0x20 SWAP2 POP DUP3 ADD ADD DUP3 PUSH2 0x42A JUMP JUMPDEST PUSH1 0x1 DUP2 PUSH1 0x20 SWAP3 SLOAD DUP4 DUP6 DUP9 ADD ADD MSTORE ADD SWAP2 ADD SWAP1 PUSH2 0x49C JUMP JUMPDEST SWAP1 POP PUSH1 0x20 SWAP3 POP PUSH1 0xFF NOT AND DUP3 DUP5 ADD MSTORE ISZERO ISZERO PUSH1 0x5 SHL DUP3 ADD ADD DUP3 PUSH2 0x42A JUMP JUMPDEST PUSH4 0x4E487B71 PUSH1 0xE0 SHL PUSH0 MSTORE PUSH1 0x22 PUSH1 0x4 MSTORE PUSH1 0x24 PUSH0 REVERT JUMPDEST SWAP2 PUSH1 0x7F AND SWAP2 PUSH2 0x40D JUMP JUMPDEST CALLVALUE PUSH2 0x193 JUMPI PUSH0 CALLDATASIZE PUSH1 0x3 NOT ADD SLT PUSH2 0x193 JUMPI PUSH1 0x5 SLOAD PUSH1 0x40 MLOAD PUSH1 0x1 PUSH1 0x1 PUSH1 0xA0 SHL SUB SWAP1 SWAP2 AND DUP2 MSTORE PUSH1 0x20 SWAP1 RETURN JUMPDEST CALLVALUE PUSH2 0x193 JUMPI PUSH0 CALLDATASIZE PUSH1 0x3 NOT ADD SLT PUSH2 0x193 JUMPI PUSH2 0x541 PUSH2 0xBAB JUMP JUMPDEST PUSH1 0x5 DUP1 SLOAD PUSH1 0x1 PUSH1 0x1 PUSH1 0xA0 SHL SUB NOT DUP2 AND SWAP1 SWAP2 SSTORE PUSH0 SWAP1 PUSH1 0x1 PUSH1 0x1 PUSH1 0xA0 SHL SUB AND PUSH32 0x8BE0079C531659141344CD1FD0A4F28419497F9722A3DAAFE3B4186F6B6457E0 DUP3 DUP1 LOG3 STOP JUMPDEST CALLVALUE PUSH2 0x193 JUMPI PUSH1 0x20 CALLDATASIZE PUSH1 0x3 NOT ADD SLT PUSH2 0x193 JUMPI PUSH1 0x1 PUSH1 0x1 PUSH1 0xA0 SHL SUB PUSH2 0x5A5 PUSH2 0x8E4 JUMP JUMPDEST AND PUSH0 MSTORE PUSH0 PUSH1 0x20 MSTORE PUSH1 0x20 PUSH1 0x40 PUSH0 KECCAK256 SLOAD PUSH1 0x40 MLOAD SWAP1 DUP2 MSTORE RETURN JUMPDEST CALLVALUE PUSH2 0x193 JUMPI PUSH1 0x40 CALLDATASIZE PUSH1 0x3 NOT ADD SLT PUSH2 0x193 JUMPI PUSH2 0x5D4 PUSH2 0x8E4 JUMP JUMPDEST PUSH1 0x24 CALLDATALOAD SWAP1 PUSH2 0x5E0 PUSH2 0xBAB JUMP JUMPDEST PUSH1 0x1 PUSH1 0x1 PUSH1 0xA0 SHL SUB AND SWAP1 DUP2 ISZERO PUSH2 0x63D JUMPI PUSH32 0xDDF252AD1BE2C89B69C2B068FC378DAA952BA7F163C4A11628F55A4DF523B3EF PUSH1 0x20 DUP3 PUSH2 0x621 PUSH0 SWAP5 PUSH1 0x2 SLOAD PUSH2 0x910 JUMP JUMPDEST PUSH1 0x2 SSTORE DUP5 DUP5 MSTORE DUP4 DUP3 MSTORE PUSH1 0x40 DUP5 KECCAK256 DUP2 DUP2 SLOAD ADD SWAP1 SSTORE PUSH1 0x40 MLOAD SWAP1 DUP2 MSTORE LOG3 STOP JUMPDEST PUSH1 0x40 MLOAD PUSH3 0x461BCD PUSH1 0xE5 SHL DUP2 MSTORE PUSH1 0x20 PUSH1 0x4 DUP3 ADD MSTORE PUSH1 0x1F PUSH1 0x24 DUP3 ADD MSTORE PUSH32 0x45524332303A206D696E7420746F20746865207A65726F206164647265737300 PUSH1 0x44 DUP3 ADD MSTORE PUSH1 0x64 SWAP1 REVERT JUMPDEST CALLVALUE PUSH2 0x193 JUMPI PUSH1 0x40 CALLDATASIZE PUSH1 0x3 NOT ADD SLT PUSH2 0x193 JUMPI PUSH2 0x20D PUSH2 0x69E PUSH2 0x8E4 JUMP JUMPDEST CALLER PUSH0 MSTORE PUSH1 0x1 PUSH1 0x20 MSTORE PUSH1 0x40 PUSH0 KECCAK256 PUSH1 0x1 DUP1 PUSH1 0xA0 SHL SUB DUP3 AND PUSH0 MSTORE PUSH1 0x20 MSTORE PUSH2 0x6C9 PUSH1 0x40 PUSH0 KECCAK256 PUSH1 0x24 CALLDATALOAD SWAP1 SLOAD PUSH2 0x910 JUMP JUMPDEST SWAP1 CALLER PUSH2 0x931 JUMP JUMPDEST CALLVALUE PUSH2 0x193 JUMPI PUSH0 CALLDATASIZE PUSH1 0x3 NOT ADD SLT PUSH2 0x193 JUMPI PUSH1 0x20 PUSH1 0x40 MLOAD PUSH1 0x12 DUP2 MSTORE RETURN JUMPDEST CALLVALUE PUSH2 0x193 JUMPI PUSH1 0x60 CALLDATASIZE PUSH1 0x3 NOT ADD SLT PUSH2 0x193 JUMPI PUSH2 0x704 PUSH2 0x8E4 JUMP JUMPDEST PUSH2 0x70C PUSH2 0x8FA JUMP JUMPDEST PUSH1 0x1 PUSH1 0x1 PUSH1 0xA0 SHL SUB DUP3 AND PUSH0 SWAP1 DUP2 MSTORE PUSH1 0x1 PUSH1 0x20 DUP2 DUP2 MSTORE PUSH1 0x40 DUP1 DUP5 KECCAK256 CALLER DUP6 MSTORE SWAP1 SWAP2 MSTORE SWAP1 SWAP2 KECCAK256 SLOAD SWAP3 PUSH1 0x44 CALLDATALOAD SWAP3 SWAP2 DUP5 ADD PUSH2 0x747 JUMPI JUMPDEST PUSH2 0x20D SWAP4 POP PUSH2 0xA35 JUMP JUMPDEST DUP3 DUP5 LT PUSH2 0x763 JUMPI PUSH2 0x75E DUP4 PUSH2 0x20D SWAP6 SUB CALLER DUP4 PUSH2 0x931 JUMP JUMPDEST PUSH2 0x73D JUMP JUMPDEST PUSH1 0x40 MLOAD PUSH3 0x461BCD PUSH1 0xE5 SHL DUP2 MSTORE PUSH1 0x20 PUSH1 0x4 DUP3 ADD MSTORE PUSH1 0x1D PUSH1 0x24 DUP3 ADD MSTORE PUSH32 0x45524332303A20696E73756666696369656E7420616C6C6F77616E6365000000 PUSH1 0x44 DUP3 ADD MSTORE PUSH1 0x64 SWAP1 REVERT JUMPDEST CALLVALUE PUSH2 0x193 JUMPI PUSH0 CALLDATASIZE PUSH1 0x3 NOT ADD SLT PUSH2 0x193 JUMPI PUSH1 0x20 PUSH1 0x2 SLOAD PUSH1 0x40 MLOAD SWAP1 DUP2 MSTORE RETURN JUMPDEST CALLVALUE PUSH2 0x193 JUMPI PUSH1 0x40 CALLDATASIZE PUSH1 0x3 NOT ADD SLT PUSH2 0x193 JUMPI PUSH2 0x20D PUSH2 0x7E1 PUSH2 0x8E4 JUMP JUMPDEST PUSH1 0x24 CALLDATALOAD SWAP1 CALLER PUSH2 0x931 JUMP JUMPDEST CALLVALUE PUSH2 0x193 JUMPI PUSH0 CALLDATASIZE PUSH1 0x3 NOT ADD SLT PUSH2 0x193 JUMPI PUSH0 PUSH1 0x3 SLOAD DUP1 PUSH1 0x1 SHR SWAP1 PUSH1 0x1 DUP2 AND DUP1 ISZERO PUSH2 0x8B0 JUMPI JUMPDEST PUSH1 0x20 DUP4 LT DUP2 EQ PUSH2 0x4E3 JUMPI DUP3 DUP6 MSTORE SWAP1 DUP2 ISZERO PUSH2 0x4C7 JUMPI POP PUSH1 0x1 EQ PUSH2 0x85B JUMPI POP DUP2 SWAP1 SUB PUSH1 0x1F ADD PUSH1 0x1F NOT AND DUP2 ADD SWAP1 PUSH8 0xFFFFFFFFFFFFFFFF DUP3 GT DUP2 DUP4 LT OR PUSH2 0x45E JUMPI PUSH2 0x45A DUP3 SWAP2 DUP3 PUSH1 0x40 MSTORE DUP3 PUSH2 0x8BA JUMP JUMPDEST SWAP1 POP PUSH1 0x3 PUSH0 MSTORE PUSH32 0xC2575A0E9E593C00F959F8C92F12DB2869C3395A3B0502D05E2516446F71F85B PUSH0 SWAP1 JUMPDEST DUP3 DUP3 LT PUSH2 0x89A JUMPI POP PUSH1 0x20 SWAP2 POP DUP3 ADD ADD DUP3 PUSH2 0x42A JUMP JUMPDEST PUSH1 0x1 DUP2 PUSH1 0x20 SWAP3 SLOAD DUP4 DUP6 DUP9 ADD ADD MSTORE ADD SWAP2 ADD SWAP1 PUSH2 0x885 JUMP JUMPDEST SWAP2 PUSH1 0x7F AND SWAP2 PUSH2 0x80F JUMP JUMPDEST PUSH1 0x20 PUSH1 0x40 SWAP3 DUP2 DUP4 MSTORE DUP1 MLOAD SWAP2 DUP3 SWAP2 DUP3 DUP3 DUP7 ADD MSTORE ADD DUP5 DUP5 ADD MCOPY PUSH0 DUP3 DUP3 ADD DUP5 ADD MSTORE PUSH1 0x1F ADD PUSH1 0x1F NOT AND ADD ADD SWAP1 JUMP JUMPDEST PUSH1 0x4 CALLDATALOAD SWAP1 PUSH1 0x1 PUSH1 0x1 PUSH1 0xA0 SHL SUB DUP3 AND DUP3 SUB PUSH2 0x193 JUMPI JUMP JUMPDEST PUSH1 0x24 CALLDATALOAD SWAP1 PUSH1 0x1 PUSH1 0x1 PUSH1 0xA0 SHL SUB DUP3 AND DUP3 SUB PUSH2 0x193 JUMPI JUMP JUMPDEST SWAP2 SWAP1 DUP3 ADD DUP1 SWAP3 GT PUSH2 0x91D JUMPI JUMP JUMPDEST PUSH4 0x4E487B71 PUSH1 0xE0 SHL PUSH0 MSTORE PUSH1 0x11 PUSH1 0x4 MSTORE PUSH1 0x24 PUSH0 REVERT JUMPDEST PUSH1 0x1 PUSH1 0x1 PUSH1 0xA0 SHL SUB AND SWAP1 DUP2 ISZERO PUSH2 0x9E4 JUMPI PUSH1 0x1 PUSH1 0x1 PUSH1 0xA0 SHL SUB AND SWAP2 DUP3 ISZERO PUSH2 0x994 JUMPI PUSH1 0x20 PUSH32 0x8C5BE1E5EBEC7D5BD14F71427D1E84F3DD0314C0F7B2291E5B200AC8C7C3B925 SWAP2 DUP4 PUSH0 MSTORE PUSH1 0x1 DUP3 MSTORE PUSH1 0x40 PUSH0 KECCAK256 DUP6 PUSH0 MSTORE DUP3 MSTORE DUP1 PUSH1 0x40 PUSH0 KECCAK256 SSTORE PUSH1 0x40 MLOAD SWAP1 DUP2 MSTORE LOG3 JUMP JUMPDEST PUSH1 0x40 MLOAD PUSH3 0x461BCD PUSH1 0xE5 SHL DUP2 MSTORE PUSH1 0x20 PUSH1 0x4 DUP3 ADD MSTORE PUSH1 0x22 PUSH1 0x24 DUP3 ADD MSTORE PUSH32 0x45524332303A20617070726F766520746F20746865207A65726F206164647265 PUSH1 0x44 DUP3 ADD MSTORE PUSH2 0x7373 PUSH1 0xF0 SHL PUSH1 0x64 DUP3 ADD MSTORE PUSH1 0x84 SWAP1 REVERT JUMPDEST PUSH1 0x40 MLOAD PUSH3 0x461BCD PUSH1 0xE5 SHL DUP2 MSTORE PUSH1 0x20 PUSH1 0x4 DUP3 ADD MSTORE PUSH1 0x24 DUP1 DUP3 ADD MSTORE PUSH32 0x45524332303A20617070726F76652066726F6D20746865207A65726F20616464 PUSH1 0x44 DUP3 ADD MSTORE PUSH4 0x72657373 PUSH1 0xE0 SHL PUSH1 0x64 DUP3 ADD MSTORE PUSH1 0x84 SWAP1 REVERT JUMPDEST PUSH1 0x1 PUSH1 0x1 PUSH1 0xA0 SHL SUB AND SWAP1 DUP2 ISZERO PUSH2 0xB58 JUMPI PUSH1 0x1 PUSH1 0x1 PUSH1 0xA0 SHL SUB AND SWAP2 DUP3 ISZERO PUSH2 0xB07 JUMPI DUP2 PUSH0 MSTORE PUSH0 PUSH1 0x20 MSTORE PUSH1 0x40 PUSH0 KECCAK256 SLOAD DUP2 DUP2 LT PUSH2 0xAB3 JUMPI DUP2 PUSH32 0xDDF252AD1BE2C89B69C2B068FC378DAA952BA7F163C4A11628F55A4DF523B3EF SWAP3 PUSH1 0x20 SWAP3 DUP6 PUSH0 MSTORE PUSH0 DUP5 MSTORE SUB PUSH1 0x40 PUSH0 KECCAK256 SSTORE DUP5 PUSH0 MSTORE PUSH0 DUP3 MSTORE PUSH1 0x40 PUSH0 KECCAK256 DUP2 DUP2 SLOAD ADD SWAP1 SSTORE PUSH1 0x40 MLOAD SWAP1 DUP2 MSTORE LOG3 JUMP JUMPDEST PUSH1 0x40 MLOAD PUSH3 0x461BCD PUSH1 0xE5 SHL DUP2 MSTORE PUSH1 0x20 PUSH1 0x4 DUP3 ADD MSTORE PUSH1 0x26 PUSH1 0x24 DUP3 ADD MSTORE PUSH32 0x45524332303A207472616E7366657220616D6F756E7420657863656564732062 PUSH1 0x44 DUP3 ADD MSTORE PUSH6 0x616C616E6365 PUSH1 0xD0 SHL PUSH1 0x64 DUP3 ADD MSTORE PUSH1 0x84 SWAP1 REVERT JUMPDEST PUSH1 0x40 MLOAD PUSH3 0x461BCD PUSH1 0xE5 SHL DUP2 MSTORE PUSH1 0x20 PUSH1 0x4 DUP3 ADD MSTORE PUSH1 0x23 PUSH1 0x24 DUP3 ADD MSTORE PUSH32 0x45524332303A207472616E7366657220746F20746865207A65726F2061646472 PUSH1 0x44 DUP3 ADD MSTORE PUSH3 0x657373 PUSH1 0xE8 SHL PUSH1 0x64 DUP3 ADD MSTORE PUSH1 0x84 SWAP1 REVERT JUMPDEST PUSH1 0x40 MLOAD PUSH3 0x461BCD PUSH1 0xE5 SHL DUP2 MSTORE PUSH1 0x20 PUSH1 0x4 DUP3 ADD MSTORE PUSH1 0x25 PUSH1 0x24 DUP3 ADD MSTORE PUSH32 0x45524332303A207472616E736665722066726F6D20746865207A65726F206164 PUSH1 0x44 DUP3 ADD MSTORE PUSH5 0x6472657373 PUSH1 0xD8 SHL PUSH1 0x64 DUP3 ADD MSTORE PUSH1 0x84 SWAP1 REVERT JUMPDEST PUSH1 0x5 SLOAD PUSH1 0x1 PUSH1 0x1 PUSH1 0xA0 SHL SUB AND CALLER SUB PUSH2 0xBBF JUMPI JUMP JUMPDEST PUSH1 0x64 PUSH1 0x40 MLOAD PUSH3 0x461BCD PUSH1 0xE5 SHL DUP2 MSTORE PUSH1 0x20 PUSH1 0x4 DUP3 ADD MSTORE PUSH1 0x20 PUSH1 0x24 DUP3 ADD MSTORE PUSH32 0x4F776E61626C653A2063616C6C6572206973206E6F7420746865206F776E6572 PUSH1 0x44 DUP3 ADD MSTORE REVERT INVALID LOG2 PUSH5 0x6970667358 0x22 SLT KECCAK256 CREATE KECCAK256 SUB 0xDE 0xE7 DUP9 0xAD 0xCD 0xDA PUSH16 0x882E966EF0639C2B305636AEDFC27D3A SWAP8 0xE4 TIMESTAMP 0xC4 0xCB JUMP PUSH5 0x736F6C6343 STOP ADDMOD SHR STOP CALLER "},"methodIdentifiers":{"addLiquidity(uint256,uint256,uint256)":"422f1043","buybackPercentage()":"f59eb2dc","buybackReserve()":"ff909560","emergencyWithdraw(address,uint256)":"95ccea67","executeBuyback(uint256)":"6869c673","getPoolInfo()":"60246c88","getSTCPrice()":"71b59c58","getStcAmountOut(uint256)":"d60ec282","lastRevenueUpdate()":"b8e4c9c9","lpToken()":"5fcbd285","maxPriceImpact()":"16c8357f","maxTradeSize()":"10fa79e2","monthlyPlatformRevenue()":"42854c54","owner()":"8da5cb5b","pause()":"8456cb59","paused()":"5c975abb","protocolFeeShare()":"960b26a2","removeLiquidity(uint256,uint256,uint256)":"857620e1","renounceOwnership()":"715018a6","stcReserve()":"e9573bc2","stcToken()":"f2792c23","swapSTCForUSDC(uint256,uint256)":"3ac93276","swapUSDCForSTC(uint256,uint256)":"f10de81b","tradingFee()":"56f43352","transferOwnership(address)":"f2fde38b","treasury()":"61d027b3","unpause()":"3f4ba83a","updatePlatformRevenue(uint256)":"fa86f649","updateTradingParameters(uint256,uint256,uint256)":"27453ef9","usdcReserve()":"6a5809cc","usdcToken()":"11eac855"}}}}}