{"project/contracts/SepharSubscription.sol":{"SepharSubscription":{"abi":[{"inputs":[{"internalType":"address","name":"_stcToken","type":"address"},{"internalType":"address","name":"_usdcToken","type":"address"},{"internalType":"address","name":"_platformTreasury","type":"address"},{"internalType":"address","name":"_creatorRevenuePool","type":"address"},{"internalType":"address","name":"_userRewardPool","type":"address"},{"internalType":"address","name":"_tokenAMM","type":"address"}],"stateMutability":"nonpayable","type":"constructor"},{"anonymous":false,"inputs":[{"indexed":true,"internalType":"address","name":"owner","type":"address"},{"indexed":true,"internalType":"address","name":"approved","type":"address"},{"indexed":true,"internalType":"uint256","name":"tokenId","type":"uint256"}],"name":"Approval","type":"event"},{"anonymous":false,"inputs":[{"indexed":true,"internalType":"address","name":"owner","type":"address"},{"indexed":true,"internalType":"address","name":"operator","type":"address"},{"indexed":false,"internalType":"bool","name":"approved","type":"bool"}],"name":"ApprovalForAll","type":"event"},{"anonymous":false,"inputs":[{"indexed":false,"internalType":"uint256","name":"_fromTokenId","type":"uint256"},{"indexed":false,"internalType":"uint256","name":"_toTokenId","type":"uint256"}],"name":"BatchMetadataUpdate","type":"event"},{"anonymous":false,"inputs":[{"indexed":false,"internalType":"uint256","name":"_tokenId","type":"uint256"}],"name":"MetadataUpdate","type":"event"},{"anonymous":false,"inputs":[{"indexed":true,"internalType":"address","name":"previousOwner","type":"address"},{"indexed":true,"internalType":"address","name":"newOwner","type":"address"}],"name":"OwnershipTransferred","type":"event"},{"anonymous":false,"inputs":[{"indexed":false,"internalType":"address","name":"account","type":"address"}],"name":"Paused","type":"event"},{"anonymous":false,"inputs":[{"indexed":true,"internalType":"uint256","name":"tokenId","type":"uint256"},{"indexed":false,"internalType":"uint256","name":"creatorShare","type":"uint256"},{"indexed":false,"internalType":"uint256","name":"platformShare","type":"uint256"},{"indexed":false,"internalType":"uint256","name":"buybackAmount","type":"uint256"},{"indexed":false,"internalType":"uint256","name":"userRewards","type":"uint256"}],"name":"RevenueDistributed","type":"event"},{"anonymous":false,"inputs":[{"indexed":true,"internalType":"address","name":"subscriber","type":"address"},{"indexed":true,"internalType":"uint256","name":"tokenId","type":"uint256"},{"indexed":false,"internalType":"enum SepharSubscription.SubscriptionTier","name":"tier","type":"uint8"},{"indexed":false,"internalType":"uint256","name":"expiryDate","type":"uint256"}],"name":"SubscriptionMinted","type":"event"},{"anonymous":false,"inputs":[{"indexed":true,"internalType":"address","name":"subscriber","type":"address"},{"indexed":true,"internalType":"uint256","name":"tokenId","type":"uint256"},{"indexed":false,"internalType":"uint256","name":"newExpiryDate","type":"uint256"}],"name":"SubscriptionRenewed","type":"event"},{"anonymous":false,"inputs":[{"indexed":true,"internalType":"address","name":"from","type":"address"},{"indexed":true,"internalType":"address","name":"to","type":"address"},{"indexed":true,"internalType":"uint256","name":"tokenId","type":"uint256"}],"name":"Transfer","type":"event"},{"anonymous":false,"inputs":[{"indexed":false,"internalType":"address","name":"account","type":"address"}],"name":"Unpaused","type":"event"},{"inputs":[],"name":"CREATOR_REVENUE_SHARE","outputs":[{"internalType":"uint256","name":"","type":"uint256"}],"stateMutability":"view","type":"function"},{"inputs":[],"name":"PLATFORM_OPERATIONS","outputs":[{"internalType":"uint256","name":"","type":"uint256"}],"stateMutability":"view","type":"function"},{"inputs":[],"name":"PLATFORM_RESERVE","outputs":[{"internalType":"uint256","name":"","type":"uint256"}],"stateMutability":"view","type":"function"},{"inputs":[],"name":"STC_BUYBACK","outputs":[{"internalType":"uint256","name":"","type":"uint256"}],"stateMutability":"view","type":"function"},{"inputs":[],"name":"USER_REWARDS","outputs":[{"internalType":"uint256","name":"","type":"uint256"}],"stateMutability":"view","type":"function"},{"inputs":[{"internalType":"address","name":"to","type":"address"},{"internalType":"uint256","name":"tokenId","type":"uint256"}],"name":"approve","outputs":[],"stateMutability":"nonpayable","type":"function"},{"inputs":[{"internalType":"address","name":"owner","type":"address"}],"name":"balanceOf","outputs":[{"internalType":"uint256","name":"","type":"uint256"}],"stateMutability":"view","type":"function"},{"inputs":[{"internalType":"uint256","name":"tokenId","type":"uint256"}],"name":"cancelSubscription","outputs":[],"stateMutability":"nonpayable","type":"function"},{"inputs":[],"name":"creatorRevenuePool","outputs":[{"internalType":"address","name":"","type":"address"}],"stateMutability":"view","type":"function"},{"inputs":[{"internalType":"uint256","name":"tokenId","type":"uint256"}],"name":"getApproved","outputs":[{"internalType":"address","name":"","type":"address"}],"stateMutability":"view","type":"function"},{"inputs":[{"internalType":"uint256","name":"tokenId","type":"uint256"}],"name":"getSubscriptionDetails","outputs":[{"internalType":"address","name":"subscriber","type":"address"},{"internalType":"enum SepharSubscription.SubscriptionTier","name":"tier","type":"uint8"},{"internalType":"uint256","name":"amountPaid","type":"uint256"},{"internalType":"uint256","name":"startDate","type":"uint256"},{"internalType":"uint256","name":"expiryDate","type":"uint256"},{"internalType":"bool","name":"isActive","type":"bool"},{"internalType":"uint256","name":"renewalCount","type":"uint256"},{"internalType":"uint256","name":"totalRevenue","type":"uint256"}],"stateMutability":"view","type":"function"},{"inputs":[{"internalType":"address","name":"subscriber","type":"address"}],"name":"getSubscriptionStatus","outputs":[{"internalType":"bool","name":"isActive","type":"bool"},{"internalType":"uint256","name":"tokenId","type":"uint256"},{"internalType":"uint256","name":"expiryDate","type":"uint256"}],"stateMutability":"view","type":"function"},{"inputs":[{"internalType":"address","name":"user","type":"address"}],"name":"hasActiveSubscription","outputs":[{"internalType":"bool","name":"hasAccess","type":"bool"},{"internalType":"enum SepharSubscription.SubscriptionTier","name":"tier","type":"uint8"}],"stateMutability":"view","type":"function"},{"inputs":[{"internalType":"address","name":"owner","type":"address"},{"internalType":"address","name":"operator","type":"address"}],"name":"isApprovedForAll","outputs":[{"internalType":"bool","name":"","type":"bool"}],"stateMutability":"view","type":"function"},{"inputs":[{"internalType":"address","name":"subscriber","type":"address"},{"internalType":"enum SepharSubscription.SubscriptionTier","name":"tier","type":"uint8"},{"internalType":"uint256","name":"amountPaid","type":"uint256"},{"internalType":"uint256","name":"duration","type":"uint256"}],"name":"mintSubscription","outputs":[{"internalType":"uint256","name":"","type":"uint256"}],"stateMutability":"nonpayable","type":"function"},{"inputs":[],"name":"name","outputs":[{"internalType":"string","name":"","type":"string"}],"stateMutability":"view","type":"function"},{"inputs":[],"name":"owner","outputs":[{"internalType":"address","name":"","type":"address"}],"stateMutability":"view","type":"function"},{"inputs":[{"internalType":"uint256","name":"tokenId","type":"uint256"}],"name":"ownerOf","outputs":[{"internalType":"address","name":"","type":"address"}],"stateMutability":"view","type":"function"},{"inputs":[],"name":"pause","outputs":[],"stateMutability":"nonpayable","type":"function"},{"inputs":[],"name":"paused","outputs":[{"internalType":"bool","name":"","type":"bool"}],"stateMutability":"view","type":"function"},{"inputs":[],"name":"platformTreasury","outputs":[{"internalType":"address","name":"","type":"address"}],"stateMutability":"view","type":"function"},{"inputs":[{"internalType":"address","name":"subscriber","type":"address"},{"internalType":"uint256","name":"additionalDuration","type":"uint256"}],"name":"renewSubscription","outputs":[{"internalType":"uint256","name":"","type":"uint256"}],"stateMutability":"nonpayable","type":"function"},{"inputs":[],"name":"renounceOwnership","outputs":[],"stateMutability":"nonpayable","type":"function"},{"inputs":[{"internalType":"address","name":"from","type":"address"},{"internalType":"address","name":"to","type":"address"},{"internalType":"uint256","name":"tokenId","type":"uint256"}],"name":"safeTransferFrom","outputs":[],"stateMutability":"nonpayable","type":"function"},{"inputs":[{"internalType":"address","name":"from","type":"address"},{"internalType":"address","name":"to","type":"address"},{"internalType":"uint256","name":"tokenId","type":"uint256"},{"internalType":"bytes","name":"data","type":"bytes"}],"name":"safeTransferFrom","outputs":[],"stateMutability":"nonpayable","type":"function"},{"inputs":[{"internalType":"address","name":"operator","type":"address"},{"internalType":"bool","name":"approved","type":"bool"}],"name":"setApprovalForAll","outputs":[],"stateMutability":"nonpayable","type":"function"},{"inputs":[],"name":"stcToken","outputs":[{"internalType":"contract StudioToken","name":"","type":"address"}],"stateMutability":"view","type":"function"},{"inputs":[{"internalType":"enum SepharSubscription.SubscriptionTier","name":"","type":"uint8"}],"name":"subscriptionPricing","outputs":[{"internalType":"uint256","name":"","type":"uint256"}],"stateMutability":"view","type":"function"},{"inputs":[{"internalType":"uint256","name":"","type":"uint256"}],"name":"subscriptions","outputs":[{"internalType":"address","name":"subscriber","type":"address"},{"internalType":"enum SepharSubscription.SubscriptionTier","name":"tier","type":"uint8"},{"internalType":"uint256","name":"amountPaid","type":"uint256"},{"internalType":"uint256","name":"startDate","type":"uint256"},{"internalType":"uint256","name":"expiryDate","type":"uint256"},{"internalType":"bool","name":"isActive","type":"bool"},{"internalType":"uint256","name":"renewalCount","type":"uint256"},{"internalType":"uint256","name":"totalRevenue","type":"uint256"}],"stateMutability":"view","type":"function"},{"inputs":[{"internalType":"bytes4","name":"interfaceId","type":"bytes4"}],"name":"supportsInterface","outputs":[{"internalType":"bool","name":"","type":"bool"}],"stateMutability":"view","type":"function"},{"inputs":[],"name":"symbol","outputs":[{"internalType":"string","name":"","type":"string"}],"stateMutability":"view","type":"function"},{"inputs":[],"name":"tokenAMM","outputs":[{"internalType":"contract TokenAMM","name":"","type":"address"}],"stateMutability":"view","type":"function"},{"inputs":[{"internalType":"uint256","name":"tokenId","type":"uint256"}],"name":"tokenURI","outputs":[{"internalType":"string","name":"","type":"string"}],"stateMutability":"view","type":"function"},{"inputs":[{"internalType":"address","name":"","type":"address"}],"name":"totalUserRevenue","outputs":[{"internalType":"uint256","name":"","type":"uint256"}],"stateMutability":"view","type":"function"},{"inputs":[{"internalType":"address","name":"from","type":"address"},{"internalType":"address","name":"to","type":"address"},{"internalType":"uint256","name":"tokenId","type":"uint256"}],"name":"transferFrom","outputs":[],"stateMutability":"nonpayable","type":"function"},{"inputs":[{"internalType":"address","name":"newOwner","type":"address"}],"name":"transferOwnership","outputs":[],"stateMutability":"nonpayable","type":"function"},{"inputs":[],"name":"unpause","outputs":[],"stateMutability":"nonpayable","type":"function"},{"inputs":[{"internalType":"enum SepharSubscription.SubscriptionTier","name":"tier","type":"uint8"},{"internalType":"uint256","name":"price","type":"uint256"}],"name":"updateSubscriptionPricing","outputs":[],"stateMutability":"nonpayable","type":"function"},{"inputs":[],"name":"usdcToken","outputs":[{"internalType":"contract IERC20","name":"","type":"address"}],"stateMutability":"view","type":"function"},{"inputs":[],"name":"userRewardPool","outputs":[{"internalType":"address","name":"","type":"address"}],"stateMutability":"view","type":"function"},{"inputs":[{"internalType":"address","name":"","type":"address"}],"name":"userSubscriptionTokenId","outputs":[{"internalType":"uint256","name":"","type":"uint256"}],"stateMutability":"view","type":"function"}],"evm":{"bytecode":{"linkReferences":{},"object":"6080604052346104c057612c3860c0813803918261001c816104c4565b9384928339810103126104c057610032816104e9565b9061003f602082016104e9565b61004b604083016104e9565b610057606084016104e9565b9161007060a0610069608087016104e9565b95016104e9565b9461007b60406104c4565b601b81527f5365706861722053747564696f7320537562736372697074696f6e000000000060208201526100af60406104c4565b600381526253535360e81b6020820152815190916001600160401b0382116103c7575f5490600182811c921680156104b6575b60208310146103a95781601f849311610449575b50602090601f83116001146103e6575f926103db575b50508160011b915f199060031b1c1916175f555b8051906001600160401b0382116103c75760015490600182811c921680156103bd575b60208310146103a95781601f84931161033b575b50602090601f83116001146102d5575f926102ca575b50508160011b915f199060031b1c1916176001555b60078054336001600160a01b0319821681179092556001600160a01b03167f8be0079c531659141344cd1fd0a4f28419497f9722a3daafe3b4186f6b6457e05f80a360016008556009805460ff19169055600b80546001600160a01b03199081166001600160a01b0393841617909155600c8054821693831693909317909255601180548316938216939093179092556012805482169383169390931790925560138054831693821693909317909255600d80549091169290911691909117905560146020526103e87f4f26c3876aa9f4b92579780beea1161a61f87ebf1ec6ee865b299e447ecba99c556105dc7fb6c61a840592cc84133e4b25bd509abf4659307c57b160799b38490a5aa48f2c5560025f526109c47fa1930aa930426c54c34daad2b9ada7c5d0ef0c96078a3c5bb79f6fa6602c4a7a5560405161273a90816104fe8239f35b015190505f8061016d565b60015f9081528281209350601f198516905b818110610323575090846001959493921061030b575b505050811b01600155610182565b01515f1960f88460031b161c191690555f80806102fd565b929360206001819287860151815501950193016102e7565b60015f529091507fb10e2d527612073b26eecdfd717e6a320cf44b4afac2b0732d9fcbe2b7fa0cf6601f840160051c8101916020851061039f575b90601f859493920160051c01905b8181106103915750610157565b5f8155849350600101610384565b9091508190610376565b634e487b7160e01b5f52602260045260245ffd5b91607f1691610143565b634e487b7160e01b5f52604160045260245ffd5b015190505f8061010c565b5f8080528281209350601f198516905b8181106104315750908460019594939210610419575b505050811b015f55610120565b01515f1960f88460031b161c191690555f808061040c565b929360206001819287860151815501950193016103f6565b5f80529091507f290decd9548b62a8d60345a988386fc84ba6bc95484008f6362f93160ef3e563601f840160051c810191602085106104ac575b90601f859493920160051c01905b81811061049e57506100f6565b5f8155849350600101610491565b9091508190610483565b91607f16916100e2565b5f80fd5b6040519190601f01601f191682016001600160401b038111838210176103c757604052565b51906001600160a01b03821682036104c05756fe6080806040526004361015610012575f80fd5b5f3560e01c90816301ffc9a714610fe4575080630546c09614610fc857806306fdde0314610f26578063081812fc14610f08578063095ea7b314610d825780630d18ea8114610d6657806311eac85514610d3e5780631ddda9b614610d065780632123508314610cae57806323b872dd14610c8a5780632d5bbf6014610c255780633acbaa9714610bf45780633eeb106814610b955780633f4ba83a14610b0257806342842e0e14610ace57806343c0019d14610a5e57806351bc103514610a365780635c975abb14610a145780636352211e146109e457806370a082311461094f578063715018a6146108f45780637498d11b146108d85780638456cb591461087f5780638da5cb5b1461085757806395d89b411461078d5780639cd3ef8014610671578063a22cb4651461059a578063a277177e14610562578063b88d4fde146104b3578063bebe4a5714610477578063c87b56dd14610440578063cb31c6f914610418578063d0b23891146103e0578063e138818c146103b8578063e25b499514610389578063e29fc36514610361578063e985e9c51461030a578063ea22d750146102ee578063f2792c23146102c6578063f2fde38b146101ff5763f7a17247146101df575f80fd5b346101fb575f3660031901126101fb57602060405161012c8152f35b5f80fd5b346101fb5760203660031901126101fb5761021861108d565b610220611c74565b6001600160a01b0316801561027257600780546001600160a01b0319811683179091556001600160a01b03167f8be0079c531659141344cd1fd0a4f28419497f9722a3daafe3b4186f6b6457e05f80a3005b60405162461bcd60e51b815260206004820152602660248201527f4f776e61626c653a206e6577206f776e657220697320746865207a65726f206160448201526564647265737360d01b6064820152608490fd5b346101fb575f3660031901126101fb57600b546040516001600160a01b039091168152602090f35b346101fb575f3660031901126101fb5760206040516103208152f35b346101fb5760403660031901126101fb5761032361108d565b61032b6110a3565b9060018060a01b03165f52600560205260405f209060018060a01b03165f52602052602060ff60405f2054166040519015158152f35b346101fb575f3660031901126101fb576012546040516001600160a01b039091168152602090f35b346101fb5760403660031901126101fb5760206103b06103a761108d565b60243590611b52565b604051908152f35b346101fb575f3660031901126101fb576011546040516001600160a01b039091168152602090f35b346101fb5760203660031901126101fb576001600160a01b0361040161108d565b165f52600f602052602060405f2054604051908152f35b346101fb575f3660031901126101fb57600d546040516001600160a01b039091168152602090f35b346101fb5760203660031901126101fb5761047361045f60043561224d565b604051918291602083526020830190611069565b0390f35b346101fb5760203660031901126101fb5760406104b161049d61049861108d565b611a8d565b8392919251921515835260208301906110f3565bf35b346101fb5760803660031901126101fb576104cc61108d565b6104d46110a3565b906064359060443567ffffffffffffffff83116101fb57366023840112156101fb57826004013593610505856111b7565b926105136040519485611195565b85845236602487870101116101fb575f60208761056098602461055b9901838901378601015261054b6105468433611ccc565b611345565b610556838383611d9b565b612660565b612229565b005b346101fb5760203660031901126101fb576001600160a01b0361058361108d565b165f526010602052602060405f2054604051908152f35b346101fb5760403660031901126101fb576105b361108d565b60243590811515908183036101fb576001600160a01b03169133831461062c576105fe90335f52600560205260405f20845f5260205260405f209060ff801983541691151516179055565b6040519081527f17307eab39ab6107e8899845ad3d59bd9653f200f220920489ca2b5937696c3160203392a3005b60405162461bcd60e51b815260206004820152601960248201527f4552433732313a20617070726f766520746f2063616c6c6572000000000000006044820152606490fd5b346101fb5760203660031901126101fb576004355f818152600260205260409020546106a7906001600160a01b0316151561130d565b5f52600e60205260405f206040516106be81611164565b81546001600160a01b03811682526020820191906106e29060a01c60ff1683611247565b60018301549060408101918252600284015490606081019182526003850154946080820195865260ff60048201541660a083019015158152600660058301549260c0850193845201549260e0810193845260018060a01b0390511695519660038810156107795761047395519451905191511515928361076d575b5193519460405198899889611100565b9250814211159261075d565b634e487b7160e01b5f52602160045260245ffd5b346101fb575f3660031901126101fb576040515f6001546107ad816111d3565b808452906001811690811561083357506001146107d5575b6104738361045f81850382611195565b91905060015f527fb10e2d527612073b26eecdfd717e6a320cf44b4afac2b0732d9fcbe2b7fa0cf6915f905b8082106108195750909150810160200161045f6107c5565b919260018160209254838588010152019101909291610801565b60ff191660208086019190915291151560051b8401909101915061045f90506107c5565b346101fb575f3660031901126101fb576007546040516001600160a01b039091168152602090f35b346101fb575f3660031901126101fb57610897611c74565b61089f611f8f565b600160ff1960095416176009557f62e78cea01bee320cd4e420270b5ea74000d11b0c9f74754ebdbfc544b05a2586020604051338152a1005b346101fb575f3660031901126101fb5760206040516101908152f35b346101fb575f3660031901126101fb5761090c611c74565b600780546001600160a01b031981169091555f906001600160a01b03167f8be0079c531659141344cd1fd0a4f28419497f9722a3daafe3b4186f6b6457e08280a3005b346101fb5760203660031901126101fb576001600160a01b0361097061108d565b16801561098d575f526003602052602060405f2054604051908152f35b60405162461bcd60e51b815260206004820152602960248201527f4552433732313a2061646472657373207a65726f206973206e6f7420612076616044820152683634b21037bbb732b960b91b6064820152608490fd5b346101fb5760203660031901126101fb576020610a02600435611a6b565b6040516001600160a01b039091168152f35b346101fb575f3660031901126101fb57602060ff600954166040519015158152f35b346101fb575f3660031901126101fb576013546040516001600160a01b039091168152602090f35b346101fb5760403660031901126101fb5760043560038110156101fb5760243590610a87611c74565b8115610a9957610a969061114d565b55005b60405162461bcd60e51b815260206004820152600d60248201526c496e76616c696420707269636560981b6044820152606490fd5b346101fb5761056061055b610ae2366110b9565b9060405192610af2602085611195565b5f845261054b6105468433611ccc565b346101fb575f3660031901126101fb57610b1a611c74565b60095460ff811615610b595760ff19166009557f5db9ee0a495bf2e6ff9c91a7834c1ba4fdd244a5e8aa4e537bd38aeae4b073aa6020604051338152a1005b60405162461bcd60e51b815260206004820152601460248201527314185d5cd8589b194e881b9bdd081c185d5cd95960621b6044820152606490fd5b346101fb5760803660031901126101fb57610bae61108d565b6024359060038210156101fb57602091610be791610bca611c74565b610bd2611f39565b610bda611f8f565b6064359160443591611409565b6001600855604051908152f35b346101fb5760203660031901126101fb5760043560038110156101fb57610c1c60209161114d565b54604051908152f35b346101fb5760203660031901126101fb576004355f52600e60205260405f208054610473600183015492600281015490600381015460ff600483015416906006600584015493015493604051978760ff8a9960a01c169060018060a01b031689611100565b346101fb57610560610c9b366110b9565b91610ca96105468433611ccc565b611d9b565b346101fb5760203660031901126101fb57600435610cca611c74565b5f81815260026020526040902054610cec906001600160a01b0316151561130d565b5f908152600e60205260409020600401805460ff19169055005b346101fb5760203660031901126101fb576060610d29610d2461108d565b611253565b90604051921515835260208301526040820152f35b346101fb575f3660031901126101fb57600c546040516001600160a01b039091168152602090f35b346101fb575f3660031901126101fb576020604051610bb88152f35b346101fb5760403660031901126101fb57610d9b61108d565b602435906001600160a01b03610db083611a6b565b6001600160a01b039092169116818114610eb957803314908115610e95575b5015610e2a575f82815260046020526040902080546001600160a01b031916821790556001600160a01b03610e0383611a6b565b167f8c5be1e5ebec7d5bd14f71427d1e84f3dd0314c0f7b2291e5b200ac8c7c3b9255f80a4005b60405162461bcd60e51b815260206004820152603d60248201527f4552433732313a20617070726f76652063616c6c6572206973206e6f7420746f60448201527f6b656e206f776e6572206f7220617070726f76656420666f7220616c6c0000006064820152608490fd5b5f90815260056020908152604080832033845290915290205460ff16905083610dcf565b60405162461bcd60e51b815260206004820152602160248201527f4552433732313a20617070726f76616c20746f2063757272656e74206f776e656044820152603960f91b6064820152608490fd5b346101fb5760203660031901126101fb576020610a0260043561120b565b346101fb575f3660031901126101fb576040515f5f54610f45816111d3565b80845290600181169081156108335750600114610f6c576104738361045f81850382611195565b5f8080527f290decd9548b62a8d60345a988386fc84ba6bc95484008f6362f93160ef3e563939250905b808210610fae5750909150810160200161045f6107c5565b919260018160209254838588010152019101909291610f96565b346101fb575f3660031901126101fb57602060405161157c8152f35b346101fb5760203660031901126101fb576004359063ffffffff60e01b82168092036101fb57602091632483248360e11b8114908115611026575b5015158152f35b6380ac58cd60e01b811491508115611058575b8115611047575b508361101f565b6301ffc9a760e01b14905083611040565b635b5e139f60e01b81149150611039565b805180835260209291819084018484015e5f828201840152601f01601f1916010190565b600435906001600160a01b03821682036101fb57565b602435906001600160a01b03821682036101fb57565b60609060031901126101fb576004356001600160a01b03811681036101fb57906024356001600160a01b03811681036101fb579060443590565b9060038210156107795752565b6001600160a01b039091168152610100810198979660e096919590949193909261112e9060208801906110f3565b604086015260608501526080840152151560a083015260c08201520152565b6003811015610779575f52601460205260405f2090565b610100810190811067ffffffffffffffff82111761118157604052565b634e487b7160e01b5f52604160045260245ffd5b90601f8019910116810190811067ffffffffffffffff82111761118157604052565b67ffffffffffffffff811161118157601f01601f191660200190565b90600182811c92168015611201575b60208310146111ed57565b634e487b7160e01b5f52602260045260245ffd5b91607f16916111e2565b5f8181526002602052604090205461122d906001600160a01b03161515611a1f565b5f908152600460205260409020546001600160a01b031690565b60038210156107795752565b6001600160a01b03165f908152600f602052604090205490811561130457815f52600e60205260405f20906040519161128b83611164565b80546001600160a01b03811684526112ac9060a01c60ff1660208501611247565b600181015460408401526002810154606084015260038101549283608082015260e0600660ff6004850154161515938460a0850152600581015460c08501520154910152806112fa57929190565b5081421115929190565b5f915081908190565b1561131457565b60405162461bcd60e51b8152602060048201526009602482015268139bdd08199bdd5b9960ba1b6044820152606490fd5b1561134c57565b60405162461bcd60e51b815260206004820152602d60248201527f4552433732313a2063616c6c6572206973206e6f7420746f6b656e206f776e6560448201526c1c881bdc88185c1c1c9bdd9959609a1b6064820152608490fd5b156113ae57565b60405162461bcd60e51b815260206004820152601260248201527124b73b30b634b21039bab139b1b934b132b960711b6044820152606490fd5b919082018092116113f557565b634e487b7160e01b5f52601160045260245ffd5b6001600160a01b0381168015959491939092919061142787156113a7565b6114308361114d565b5481106119e35781156119ab57835f52600f60205260405f20548015159081611991575b5061197e57600a545f1981146113f5576001019485600a5561147683426113e8565b6040519061148382611164565b868252602082016114948782611247565b6040838101868152426060860190815260808601948552600160a087019081525f60c0880181815260e089018b81528f8352600e60205295909120975188546001600160a01b0319166001600160a01b03919091161788559451929593949390916003841015610779576006966115479489549060ff60a01b9060a01b169060ff60a01b1916178955516001890155516002880155516003870155511515600486019060ff801983541691151516179055565b51600584015551910155845f52600f6020528560405f2055602097604051906115708a83611195565b5f825261193b575f8781526002602052604090205489949392919061159e906001600160a01b0316156126b8565b6115a6611f8f565b5f888152600260205260409020546115c7906001600160a01b0316156126b8565b865f526003855260405f2080546001019055875f526002855260405f20876001600160601b0360a01b8254161790558780885f7fddf252ad1be2c89b69c2b068fc378daa952ba7f163c4a11628f55a4df523b3ef8180a461162792612549565b61163090612229565b6116398461232a565b836116438661114d565b54918161164f8a6123dc565b93611659906123dc565b916040519c8d958187017f68747470733a2f2f6170692e73747564696f636861696e2e636f6d2f73756273905260408701716372697074696f6e2f6d657461646174612f60701b9052805191829101605288015e85019060528201653f746965723d60d01b9052805192839101605883015e016052019060068201662670726963653d60c81b9052805192839101600d83015e01600601600781015f905203600701601f198101895261170c9089611195565b5f868152600260205260409020546001600160a01b0316156118df57855f526006835260405f20885167ffffffffffffffff81116111815761174e82546111d3565b99601f8b1161189c575b88999a508590601f831160011461180957936117ea93837f8654e86204201ba700bd5db5c65397fb64d42653f5d979301d0d730bc8524abc9997946117e49460409a985f926117fe575b50508160011b915f199060031b1c19161790555b7ff8e1a15aba9398e019f0b49df1a4fde98ee17ae345cb5f6b5e2c27f5033e8ce78588518c8152a189611fd3565b426113e8565b906117f7845180946110f3565b820152a390565b015190505f806117a2565b90601f19831691845f52875f20925f5b8181106118825750846117e49460409a98946117ea98947f8654e86204201ba700bd5db5c65397fb64d42653f5d979301d0d730bc8524abc9d9b986001951061186a575b505050811b0190556117b6565b01515f1960f88460031b161c191690555f808061185d565b8284015185558d9c50600190940193928901928901611819565b825f52855f20601f830160051c81019b8784106118d5575b601f0160051c019a5b8b81106118ca5750611758565b5f81556001016118bd565b909b508b906118b4565b60405162461bcd60e51b815260048101849052602e60248201527f45524337323155524953746f726167653a2055524920736574206f66206e6f6e60448201526d32bc34b9ba32b73a103a37b5b2b760911b6064820152608490fd5b6064896040519062461bcd60e51b825280600483015260248201527f4552433732313a206d696e7420746f20746865207a65726f20616464726573736044820152fd5b509291505061198e929350611b52565b90565b90505f52600e60205260ff600460405f200154165f611454565b60405162461bcd60e51b815260206004820152601060248201526f24b73b30b634b210323ab930ba34b7b760811b6044820152606490fd5b60405162461bcd60e51b8152602060048201526014602482015273125b9cdd59999a58da595b9d081c185e5b595b9d60621b6044820152606490fd5b15611a2657565b60405162461bcd60e51b815260206004820152601860248201527f4552433732313a20696e76616c696420746f6b656e20494400000000000000006044820152606490fd5b5f908152600260205260409020546001600160a01b031661198e811515611a1f565b6001600160a01b03165f908152600f60205260409020548015611b4b575f52600e60205260405f2090604051611ac281611164565b82546001600160a01b0381168252602082019190611ae69060a01c60ff1683611247565b600184015460408201526002840154606082015260038401549081608082015260e0600660ff6004880154161515968760a0850152600581015460c0850152015491015283611b40575b5051916003831015610779579190565b42111592505f611b30565b505f905f90565b611b5a611c74565b611b62611f39565b611b6a611f8f565b6001600160a01b03165f818152600f602052604090205491908215611c3d575f838152600e6020526040902080549092611bb2906117e46001600160a01b03841685146113a7565b6003840190815560048401600160ff198254161790556005840190815491600183018093116113f55786956006611c1760ff7f0844521bd3c7295df35ca72576b1c04b6061d23891276d5c077cd73cbb3d31fc97602097611c2d965560a01c1661114d565b549101611c258282546113e8565b905586611fd3565b54604051908152a3600160085590565b60405162461bcd60e51b815260206004820152600f60248201526e27379039bab139b1b934b83a34b7b760891b6044820152606490fd5b6007546001600160a01b03163303611c8857565b606460405162461bcd60e51b815260206004820152602060248201527f4f776e61626c653a2063616c6c6572206973206e6f7420746865206f776e65726044820152fd5b906001600160a01b03611cde82611a6b565b6001600160a01b0390931692168281149291908315611d1e575b508215611d0457505090565b9091506001600160a01b0390611d199061120b565b161490565b9092505f52600560205260405f20815f5260205260ff60405f205416915f611cf8565b15611d4857565b60405162461bcd60e51b815260206004820152602560248201527f4552433732313a207472616e736665722066726f6d20696e636f72726563742060448201526437bbb732b960d91b6064820152608490fd5b90611dbc611da884611a6b565b6001600160a01b0393841693168314611d41565b6001600160a01b031690811580611ee857611dd5611f8f565b8115159081611edf575b50611e87575b611e01816001600160a01b03611dfa86611a6b565b1614611d41565b825f52600460205260405f206001600160601b0360a01b8154169055805f52600360205260405f205f198154019055815f52600360205260405f2060018154019055825f52600260205260405f20826001600160601b0360a01b8254161790557fddf252ad1be2c89b69c2b068fc378daa952ba7f163c4a11628f55a4df523b3ef5f80a4565b805f52600f6020528260405f205414611ecc575b815f52600f6020528260405f2055825f52600e60205260405f20826001600160601b0360a01b825416179055611de5565b805f52600f6020525f6040812055611e9b565b9050155f611ddf565b60405162461bcd60e51b8152602060048201526024808201527f4552433732313a207472616e7366657220746f20746865207a65726f206164646044820152637265737360e01b6064820152608490fd5b600260085414611f4a576002600855565b60405162461bcd60e51b815260206004820152601f60248201527f5265656e7472616e637947756172643a207265656e7472616e742063616c6c006044820152606490fd5b60ff60095416611f9b57565b60405162461bcd60e51b815260206004820152601060248201526f14185d5cd8589b194e881c185d5cd95960821b6044820152606490fd5b610bb8820291801590808404610bb8148217156113f55761157c81029381850461157c148317156113f5576103208202828104610320148417156113f5576127109004946101908302938385046101901417156113f5577fe17236f5dcccef76cccad15f0166f36d9333aa7d06e532f9ea301a301de068fc936127108092608095885f52600e60205260018060a01b0360405f2054165f52601060205261207f60405f209182546113e8565b90558160405195048552046020840152866040840152046060820152a2801580156120a8575050565b61271082029182046127101417156113f557600c54600d5460405163a9059cbb60e01b81526001600160a01b0391821660048201526024810184905291602091839160449183915f91165af1908115612154575f9161219b575b501561215f57600d546001600160a01b031690813b156101fb575f9160248392604051948593849263fa86f64960e01b845260048401525af18015612154576121485750565b5f61215291611195565b565b6040513d5f823e3d90fd5b60405162461bcd60e51b81526020600482015260146024820152731554d110c81d1c985b9cd9995c8819985a5b195960621b6044820152606490fd5b90506020813d6020116121ce575b816121b660209383611195565b810103126101fb575180151581036101fb575f612102565b3d91506121a9565b60809060208152603260208201527f4552433732313a207472616e7366657220746f206e6f6e20455243373231526560408201527131b2b4bb32b91034b6b83632b6b2b73a32b960711b60608201520190565b1561223057565b60405162461bcd60e51b815280612249600482016121d6565b0390fd5b5f8181526002602052604090205461226f906001600160a01b03161515611a1f565b5f52600660205260405f2060405190815f82549261228c846111d3565b808452936001811690811561230857506001146122c4575b506122b192500382611195565b5f6040516122c0602082611195565b5290565b90505f9291925260205f20905f915b8183106122ec5750509060206122b1928201015f6122a4565b60209193508060019154838588010152019101909183926122d3565b9050602092506122b194915060ff191682840152151560051b8201015f6122a4565b60038110156107795780156123b857600181146123925760021461236d57604051612356604082611195565b60078152662ab735b737bbb760c91b602082015290565b60405161237b604082611195565b600781526621b932b0ba37b960c91b602082015290565b506040516123a1604082611195565b60078152665072656d69756d60c81b602082015290565b506040516123c7604082611195565b6005815264426173696360d81b602082015290565b805f9172184f03e93ff9f4daa797ed6e38ed64bf6a1f0160401b821015612526575b806d04ee2d6d415b85acef8100000000600a92101561250b575b662386f26fc100008110156124f7575b6305f5e1008110156124e6575b6127108110156124d7575b60648110156124c9575b10156124be575b600a60216001840193612463856111b7565b946124716040519687611195565b808652612480601f19916111b7565b013660208701378401015b5f1901916f181899199a1a9b1b9c1cb0b131b232b360811b8282061a83530480156124b957600a909161248b565b505090565b600190910190612451565b60646002910493019261244a565b61271060049104930192612440565b6305f5e10060089104930192612435565b662386f26fc1000060109104930192612428565b6d04ee2d6d415b85acef810000000060209104930192612418565b506040915072184f03e93ff9f4daa797ed6e38ed64bf6a1f0160401b81046123fe565b91823b156126585761258e926020925f604051809681958294630a85bd0160e11b84523360048501528460248501526044840152608060648401526084830190611069565b03926001600160a01b03165af15f9181612613575b506125fd573d156125f6573d6125b8816111b7565b906125c66040519283611195565b81523d5f602083013e5b805190816125f15760405162461bcd60e51b815280612249600482016121d6565b602001fd5b60606125d0565b6001600160e01b031916630a85bd0160e11b1490565b9091506020813d602011612650575b8161262f60209383611195565b810103126101fb57516001600160e01b0319811681036101fb57905f6125a3565b3d9150612622565b505050600190565b919290803b156126af5761258e935f60209460405196879586948593630a85bd0160e11b855233600486015260018060a01b031660248501526044840152608060648401526084830190611069565b50505050600190565b156126bf57565b60405162461bcd60e51b815260206004820152601c60248201527f4552433732313a20746f6b656e20616c7265616479206d696e746564000000006044820152606490fdfea26469706673582212200eb22b6ccecec2050e0c6820b75325b737cc7f51e5290e136dbeff93dea4c0ef64736f6c634300081c0033","opcodes":"PUSH1 0x80 PUSH1 0x40 MSTORE CALLVALUE PUSH2 0x4C0 JUMPI PUSH2 0x2C38 PUSH1 0xC0 DUP2 CODESIZE SUB SWAP2 DUP3 PUSH2 0x1C DUP2 PUSH2 0x4C4 JUMP JUMPDEST SWAP4 DUP5 SWAP3 DUP4 CODECOPY DUP2 ADD SUB SLT PUSH2 0x4C0 JUMPI PUSH2 0x32 DUP2 PUSH2 0x4E9 JUMP JUMPDEST SWAP1 PUSH2 0x3F PUSH1 0x20 DUP3 ADD PUSH2 0x4E9 JUMP JUMPDEST PUSH2 0x4B PUSH1 0x40 DUP4 ADD PUSH2 0x4E9 JUMP JUMPDEST PUSH2 0x57 PUSH1 0x60 DUP5 ADD PUSH2 0x4E9 JUMP JUMPDEST SWAP2 PUSH2 0x70 PUSH1 0xA0 PUSH2 0x69 PUSH1 0x80 DUP8 ADD PUSH2 0x4E9 JUMP JUMPDEST SWAP6 ADD PUSH2 0x4E9 JUMP JUMPDEST SWAP5 PUSH2 0x7B PUSH1 0x40 PUSH2 0x4C4 JUMP JUMPDEST PUSH1 0x1B DUP2 MSTORE PUSH32 0x5365706861722053747564696F7320537562736372697074696F6E0000000000 PUSH1 0x20 DUP3 ADD MSTORE PUSH2 0xAF PUSH1 0x40 PUSH2 0x4C4 JUMP JUMPDEST PUSH1 0x3 DUP2 MSTORE PUSH3 0x535353 PUSH1 0xE8 SHL PUSH1 0x20 DUP3 ADD MSTORE DUP2 MLOAD SWAP1 SWAP2 PUSH1 0x1 PUSH1 0x1 PUSH1 0x40 SHL SUB DUP3 GT PUSH2 0x3C7 JUMPI PUSH0 SLOAD SWAP1 PUSH1 0x1 DUP3 DUP2 SHR SWAP3 AND DUP1 ISZERO PUSH2 0x4B6 JUMPI JUMPDEST PUSH1 0x20 DUP4 LT EQ PUSH2 0x3A9 JUMPI DUP2 PUSH1 0x1F DUP5 SWAP4 GT PUSH2 0x449 JUMPI JUMPDEST POP PUSH1 0x20 SWAP1 PUSH1 0x1F DUP4 GT PUSH1 0x1 EQ PUSH2 0x3E6 JUMPI PUSH0 SWAP3 PUSH2 0x3DB JUMPI JUMPDEST POP POP DUP2 PUSH1 0x1 SHL SWAP2 PUSH0 NOT SWAP1 PUSH1 0x3 SHL SHR NOT AND OR PUSH0 SSTORE JUMPDEST DUP1 MLOAD SWAP1 PUSH1 0x1 PUSH1 0x1 PUSH1 0x40 SHL SUB DUP3 GT PUSH2 0x3C7 JUMPI PUSH1 0x1 SLOAD SWAP1 PUSH1 0x1 DUP3 DUP2 SHR SWAP3 AND DUP1 ISZERO PUSH2 0x3BD JUMPI JUMPDEST PUSH1 0x20 DUP4 LT EQ PUSH2 0x3A9 JUMPI DUP2 PUSH1 0x1F DUP5 SWAP4 GT PUSH2 0x33B JUMPI JUMPDEST POP PUSH1 0x20 SWAP1 PUSH1 0x1F DUP4 GT PUSH1 0x1 EQ PUSH2 0x2D5 JUMPI PUSH0 SWAP3 PUSH2 0x2CA JUMPI JUMPDEST POP POP DUP2 PUSH1 0x1 SHL SWAP2 PUSH0 NOT SWAP1 PUSH1 0x3 SHL SHR NOT AND OR PUSH1 0x1 SSTORE JUMPDEST PUSH1 0x7 DUP1 SLOAD CALLER PUSH1 0x1 PUSH1 0x1 PUSH1 0xA0 SHL SUB NOT DUP3 AND DUP2 OR SWAP1 SWAP3 SSTORE PUSH1 0x1 PUSH1 0x1 PUSH1 0xA0 SHL SUB AND PUSH32 0x8BE0079C531659141344CD1FD0A4F28419497F9722A3DAAFE3B4186F6B6457E0 PUSH0 DUP1 LOG3 PUSH1 0x1 PUSH1 0x8 SSTORE PUSH1 0x9 DUP1 SLOAD PUSH1 0xFF NOT AND SWAP1 SSTORE PUSH1 0xB DUP1 SLOAD PUSH1 0x1 PUSH1 0x1 PUSH1 0xA0 SHL SUB NOT SWAP1 DUP2 AND PUSH1 0x1 PUSH1 0x1 PUSH1 0xA0 SHL SUB SWAP4 DUP5 AND OR SWAP1 SWAP2 SSTORE PUSH1 0xC DUP1 SLOAD DUP3 AND SWAP4 DUP4 AND SWAP4 SWAP1 SWAP4 OR SWAP1 SWAP3 SSTORE PUSH1 0x11 DUP1 SLOAD DUP4 AND SWAP4 DUP3 AND SWAP4 SWAP1 SWAP4 OR SWAP1 SWAP3 SSTORE PUSH1 0x12 DUP1 SLOAD DUP3 AND SWAP4 DUP4 AND SWAP4 SWAP1 SWAP4 OR SWAP1 SWAP3 SSTORE PUSH1 0x13 DUP1 SLOAD DUP4 AND SWAP4 DUP3 AND SWAP4 SWAP1 SWAP4 OR SWAP1 SWAP3 SSTORE PUSH1 0xD DUP1 SLOAD SWAP1 SWAP2 AND SWAP3 SWAP1 SWAP2 AND SWAP2 SWAP1 SWAP2 OR SWAP1 SSTORE PUSH1 0x14 PUSH1 0x20 MSTORE PUSH2 0x3E8 PUSH32 0x4F26C3876AA9F4B92579780BEEA1161A61F87EBF1EC6EE865B299E447ECBA99C SSTORE PUSH2 0x5DC PUSH32 0xB6C61A840592CC84133E4B25BD509ABF4659307C57B160799B38490A5AA48F2C SSTORE PUSH1 0x2 PUSH0 MSTORE PUSH2 0x9C4 PUSH32 0xA1930AA930426C54C34DAAD2B9ADA7C5D0EF0C96078A3C5BB79F6FA6602C4A7A SSTORE PUSH1 0x40 MLOAD PUSH2 0x273A SWAP1 DUP2 PUSH2 0x4FE DUP3 CODECOPY RETURN JUMPDEST ADD MLOAD SWAP1 POP PUSH0 DUP1 PUSH2 0x16D JUMP JUMPDEST PUSH1 0x1 PUSH0 SWAP1 DUP2 MSTORE DUP3 DUP2 KECCAK256 SWAP4 POP PUSH1 0x1F NOT DUP6 AND SWAP1 JUMPDEST DUP2 DUP2 LT PUSH2 0x323 JUMPI POP SWAP1 DUP5 PUSH1 0x1 SWAP6 SWAP5 SWAP4 SWAP3 LT PUSH2 0x30B JUMPI JUMPDEST POP POP POP DUP2 SHL ADD PUSH1 0x1 SSTORE PUSH2 0x182 JUMP JUMPDEST ADD MLOAD PUSH0 NOT PUSH1 0xF8 DUP5 PUSH1 0x3 SHL AND SHR NOT AND SWAP1 SSTORE PUSH0 DUP1 DUP1 PUSH2 0x2FD JUMP JUMPDEST SWAP3 SWAP4 PUSH1 0x20 PUSH1 0x1 DUP2 SWAP3 DUP8 DUP7 ADD MLOAD DUP2 SSTORE ADD SWAP6 ADD SWAP4 ADD PUSH2 0x2E7 JUMP JUMPDEST PUSH1 0x1 PUSH0 MSTORE SWAP1 SWAP2 POP PUSH32 0xB10E2D527612073B26EECDFD717E6A320CF44B4AFAC2B0732D9FCBE2B7FA0CF6 PUSH1 0x1F DUP5 ADD PUSH1 0x5 SHR DUP2 ADD SWAP2 PUSH1 0x20 DUP6 LT PUSH2 0x39F JUMPI JUMPDEST SWAP1 PUSH1 0x1F DUP6 SWAP5 SWAP4 SWAP3 ADD PUSH1 0x5 SHR ADD SWAP1 JUMPDEST DUP2 DUP2 LT PUSH2 0x391 JUMPI POP PUSH2 0x157 JUMP JUMPDEST PUSH0 DUP2 SSTORE DUP5 SWAP4 POP PUSH1 0x1 ADD PUSH2 0x384 JUMP JUMPDEST SWAP1 SWAP2 POP DUP2 SWAP1 PUSH2 0x376 JUMP JUMPDEST PUSH4 0x4E487B71 PUSH1 0xE0 SHL PUSH0 MSTORE PUSH1 0x22 PUSH1 0x4 MSTORE PUSH1 0x24 PUSH0 REVERT JUMPDEST SWAP2 PUSH1 0x7F AND SWAP2 PUSH2 0x143 JUMP JUMPDEST PUSH4 0x4E487B71 PUSH1 0xE0 SHL PUSH0 MSTORE PUSH1 0x41 PUSH1 0x4 MSTORE PUSH1 0x24 PUSH0 REVERT JUMPDEST ADD MLOAD SWAP1 POP PUSH0 DUP1 PUSH2 0x10C JUMP JUMPDEST PUSH0 DUP1 DUP1 MSTORE DUP3 DUP2 KECCAK256 SWAP4 POP PUSH1 0x1F NOT DUP6 AND SWAP1 JUMPDEST DUP2 DUP2 LT PUSH2 0x431 JUMPI POP SWAP1 DUP5 PUSH1 0x1 SWAP6 SWAP5 SWAP4 SWAP3 LT PUSH2 0x419 JUMPI JUMPDEST POP POP POP DUP2 SHL ADD PUSH0 SSTORE PUSH2 0x120 JUMP JUMPDEST ADD MLOAD PUSH0 NOT PUSH1 0xF8 DUP5 PUSH1 0x3 SHL AND SHR NOT AND SWAP1 SSTORE PUSH0 DUP1 DUP1 PUSH2 0x40C JUMP JUMPDEST SWAP3 SWAP4 PUSH1 0x20 PUSH1 0x1 DUP2 SWAP3 DUP8 DUP7 ADD MLOAD DUP2 SSTORE ADD SWAP6 ADD SWAP4 ADD PUSH2 0x3F6 JUMP JUMPDEST PUSH0 DUP1 MSTORE SWAP1 SWAP2 POP PUSH32 0x290DECD9548B62A8D60345A988386FC84BA6BC95484008F6362F93160EF3E563 PUSH1 0x1F DUP5 ADD PUSH1 0x5 SHR DUP2 ADD SWAP2 PUSH1 0x20 DUP6 LT PUSH2 0x4AC JUMPI JUMPDEST SWAP1 PUSH1 0x1F DUP6 SWAP5 SWAP4 SWAP3 ADD PUSH1 0x5 SHR ADD SWAP1 JUMPDEST DUP2 DUP2 LT PUSH2 0x49E JUMPI POP PUSH2 0xF6 JUMP JUMPDEST PUSH0 DUP2 SSTORE DUP5 SWAP4 POP PUSH1 0x1 ADD PUSH2 0x491 JUMP JUMPDEST SWAP1 SWAP2 POP DUP2 SWAP1 PUSH2 0x483 JUMP JUMPDEST SWAP2 PUSH1 0x7F AND SWAP2 PUSH2 0xE2 JUMP JUMPDEST PUSH0 DUP1 REVERT JUMPDEST PUSH1 0x40 MLOAD SWAP2 SWAP1 PUSH1 0x1F ADD PUSH1 0x1F NOT AND DUP3 ADD PUSH1 0x1 PUSH1 0x1 PUSH1 0x40 SHL SUB DUP2 GT DUP4 DUP3 LT OR PUSH2 0x3C7 JUMPI PUSH1 0x40 MSTORE JUMP JUMPDEST MLOAD SWAP1 PUSH1 0x1 PUSH1 0x1 PUSH1 0xA0 SHL SUB DUP3 AND DUP3 SUB PUSH2 0x4C0 JUMPI JUMP INVALID PUSH1 0x80 DUP1 PUSH1 0x40 MSTORE PUSH1 0x4 CALLDATASIZE LT ISZERO PUSH2 0x12 JUMPI PUSH0 DUP1 REVERT JUMPDEST PUSH0 CALLDATALOAD PUSH1 0xE0 SHR SWAP1 DUP2 PUSH4 0x1FFC9A7 EQ PUSH2 0xFE4 JUMPI POP DUP1 PUSH4 0x546C096 EQ PUSH2 0xFC8 JUMPI DUP1 PUSH4 0x6FDDE03 EQ PUSH2 0xF26 JUMPI DUP1 PUSH4 0x81812FC EQ PUSH2 0xF08 JUMPI DUP1 PUSH4 0x95EA7B3 EQ PUSH2 0xD82 JUMPI DUP1 PUSH4 0xD18EA81 EQ PUSH2 0xD66 JUMPI DUP1 PUSH4 0x11EAC855 EQ PUSH2 0xD3E JUMPI DUP1 PUSH4 0x1DDDA9B6 EQ PUSH2 0xD06 JUMPI DUP1 PUSH4 0x21235083 EQ PUSH2 0xCAE JUMPI DUP1 PUSH4 0x23B872DD EQ PUSH2 0xC8A JUMPI DUP1 PUSH4 0x2D5BBF60 EQ PUSH2 0xC25 JUMPI DUP1 PUSH4 0x3ACBAA97 EQ PUSH2 0xBF4 JUMPI DUP1 PUSH4 0x3EEB1068 EQ PUSH2 0xB95 JUMPI DUP1 PUSH4 0x3F4BA83A EQ PUSH2 0xB02 JUMPI DUP1 PUSH4 0x42842E0E EQ PUSH2 0xACE JUMPI DUP1 PUSH4 0x43C0019D EQ PUSH2 0xA5E JUMPI DUP1 PUSH4 0x51BC1035 EQ PUSH2 0xA36 JUMPI DUP1 PUSH4 0x5C975ABB EQ PUSH2 0xA14 JUMPI DUP1 PUSH4 0x6352211E EQ PUSH2 0x9E4 JUMPI DUP1 PUSH4 0x70A08231 EQ PUSH2 0x94F JUMPI DUP1 PUSH4 0x715018A6 EQ PUSH2 0x8F4 JUMPI DUP1 PUSH4 0x7498D11B EQ PUSH2 0x8D8 JUMPI DUP1 PUSH4 0x8456CB59 EQ PUSH2 0x87F JUMPI DUP1 PUSH4 0x8DA5CB5B EQ PUSH2 0x857 JUMPI DUP1 PUSH4 0x95D89B41 EQ PUSH2 0x78D JUMPI DUP1 PUSH4 0x9CD3EF80 EQ PUSH2 0x671 JUMPI DUP1 PUSH4 0xA22CB465 EQ PUSH2 0x59A JUMPI DUP1 PUSH4 0xA277177E EQ PUSH2 0x562 JUMPI DUP1 PUSH4 0xB88D4FDE EQ PUSH2 0x4B3 JUMPI DUP1 PUSH4 0xBEBE4A57 EQ PUSH2 0x477 JUMPI DUP1 PUSH4 0xC87B56DD EQ PUSH2 0x440 JUMPI DUP1 PUSH4 0xCB31C6F9 EQ PUSH2 0x418 JUMPI DUP1 PUSH4 0xD0B23891 EQ PUSH2 0x3E0 JUMPI DUP1 PUSH4 0xE138818C EQ PUSH2 0x3B8 JUMPI DUP1 PUSH4 0xE25B4995 EQ PUSH2 0x389 JUMPI DUP1 PUSH4 0xE29FC365 EQ PUSH2 0x361 JUMPI DUP1 PUSH4 0xE985E9C5 EQ PUSH2 0x30A JUMPI DUP1 PUSH4 0xEA22D750 EQ PUSH2 0x2EE JUMPI DUP1 PUSH4 0xF2792C23 EQ PUSH2 0x2C6 JUMPI DUP1 PUSH4 0xF2FDE38B EQ PUSH2 0x1FF JUMPI PUSH4 0xF7A17247 EQ PUSH2 0x1DF JUMPI PUSH0 DUP1 REVERT JUMPDEST CALLVALUE PUSH2 0x1FB JUMPI PUSH0 CALLDATASIZE PUSH1 0x3 NOT ADD SLT PUSH2 0x1FB JUMPI PUSH1 0x20 PUSH1 0x40 MLOAD PUSH2 0x12C DUP2 MSTORE RETURN JUMPDEST PUSH0 DUP1 REVERT JUMPDEST CALLVALUE PUSH2 0x1FB JUMPI PUSH1 0x20 CALLDATASIZE PUSH1 0x3 NOT ADD SLT PUSH2 0x1FB JUMPI PUSH2 0x218 PUSH2 0x108D JUMP JUMPDEST PUSH2 0x220 PUSH2 0x1C74 JUMP JUMPDEST PUSH1 0x1 PUSH1 0x1 PUSH1 0xA0 SHL SUB AND DUP1 ISZERO PUSH2 0x272 JUMPI PUSH1 0x7 DUP1 SLOAD PUSH1 0x1 PUSH1 0x1 PUSH1 0xA0 SHL SUB NOT DUP2 AND DUP4 OR SWAP1 SWAP2 SSTORE PUSH1 0x1 PUSH1 0x1 PUSH1 0xA0 SHL SUB AND PUSH32 0x8BE0079C531659141344CD1FD0A4F28419497F9722A3DAAFE3B4186F6B6457E0 PUSH0 DUP1 LOG3 STOP JUMPDEST PUSH1 0x40 MLOAD PUSH3 0x461BCD PUSH1 0xE5 SHL DUP2 MSTORE PUSH1 0x20 PUSH1 0x4 DUP3 ADD MSTORE PUSH1 0x26 PUSH1 0x24 DUP3 ADD MSTORE PUSH32 0x4F776E61626C653A206E6577206F776E657220697320746865207A65726F2061 PUSH1 0x44 DUP3 ADD MSTORE PUSH6 0x646472657373 PUSH1 0xD0 SHL PUSH1 0x64 DUP3 ADD MSTORE PUSH1 0x84 SWAP1 REVERT JUMPDEST CALLVALUE PUSH2 0x1FB JUMPI PUSH0 CALLDATASIZE PUSH1 0x3 NOT ADD SLT PUSH2 0x1FB JUMPI PUSH1 0xB SLOAD PUSH1 0x40 MLOAD PUSH1 0x1 PUSH1 0x1 PUSH1 0xA0 SHL SUB SWAP1 SWAP2 AND DUP2 MSTORE PUSH1 0x20 SWAP1 RETURN JUMPDEST CALLVALUE PUSH2 0x1FB JUMPI PUSH0 CALLDATASIZE PUSH1 0x3 NOT ADD SLT PUSH2 0x1FB JUMPI PUSH1 0x20 PUSH1 0x40 MLOAD PUSH2 0x320 DUP2 MSTORE RETURN JUMPDEST CALLVALUE PUSH2 0x1FB JUMPI PUSH1 0x40 CALLDATASIZE PUSH1 0x3 NOT ADD SLT PUSH2 0x1FB JUMPI PUSH2 0x323 PUSH2 0x108D JUMP JUMPDEST PUSH2 0x32B PUSH2 0x10A3 JUMP JUMPDEST SWAP1 PUSH1 0x1 DUP1 PUSH1 0xA0 SHL SUB AND PUSH0 MSTORE PUSH1 0x5 PUSH1 0x20 MSTORE PUSH1 0x40 PUSH0 KECCAK256 SWAP1 PUSH1 0x1 DUP1 PUSH1 0xA0 SHL SUB AND PUSH0 MSTORE PUSH1 0x20 MSTORE PUSH1 0x20 PUSH1 0xFF PUSH1 0x40 PUSH0 KECCAK256 SLOAD AND PUSH1 0x40 MLOAD SWAP1 ISZERO ISZERO DUP2 MSTORE RETURN JUMPDEST CALLVALUE PUSH2 0x1FB JUMPI PUSH0 CALLDATASIZE PUSH1 0x3 NOT ADD SLT PUSH2 0x1FB JUMPI PUSH1 0x12 SLOAD PUSH1 0x40 MLOAD PUSH1 0x1 PUSH1 0x1 PUSH1 0xA0 SHL SUB SWAP1 SWAP2 AND DUP2 MSTORE PUSH1 0x20 SWAP1 RETURN JUMPDEST CALLVALUE PUSH2 0x1FB JUMPI PUSH1 0x40 CALLDATASIZE PUSH1 0x3 NOT ADD SLT PUSH2 0x1FB JUMPI PUSH1 0x20 PUSH2 0x3B0 PUSH2 0x3A7 PUSH2 0x108D JUMP JUMPDEST PUSH1 0x24 CALLDATALOAD SWAP1 PUSH2 0x1B52 JUMP JUMPDEST PUSH1 0x40 MLOAD SWAP1 DUP2 MSTORE RETURN JUMPDEST CALLVALUE PUSH2 0x1FB JUMPI PUSH0 CALLDATASIZE PUSH1 0x3 NOT ADD SLT PUSH2 0x1FB JUMPI PUSH1 0x11 SLOAD PUSH1 0x40 MLOAD PUSH1 0x1 PUSH1 0x1 PUSH1 0xA0 SHL SUB SWAP1 SWAP2 AND DUP2 MSTORE PUSH1 0x20 SWAP1 RETURN JUMPDEST CALLVALUE PUSH2 0x1FB JUMPI PUSH1 0x20 CALLDATASIZE PUSH1 0x3 NOT ADD SLT PUSH2 0x1FB JUMPI PUSH1 0x1 PUSH1 0x1 PUSH1 0xA0 SHL SUB PUSH2 0x401 PUSH2 0x108D JUMP JUMPDEST AND PUSH0 MSTORE PUSH1 0xF PUSH1 0x20 MSTORE PUSH1 0x20 PUSH1 0x40 PUSH0 KECCAK256 SLOAD PUSH1 0x40 MLOAD SWAP1 DUP2 MSTORE RETURN JUMPDEST CALLVALUE PUSH2 0x1FB JUMPI PUSH0 CALLDATASIZE PUSH1 0x3 NOT ADD SLT PUSH2 0x1FB JUMPI PUSH1 0xD SLOAD PUSH1 0x40 MLOAD PUSH1 0x1 PUSH1 0x1 PUSH1 0xA0 SHL SUB SWAP1 SWAP2 AND DUP2 MSTORE PUSH1 0x20 SWAP1 RETURN JUMPDEST CALLVALUE PUSH2 0x1FB JUMPI PUSH1 0x20 CALLDATASIZE PUSH1 0x3 NOT ADD SLT PUSH2 0x1FB JUMPI PUSH2 0x473 PUSH2 0x45F PUSH1 0x4 CALLDATALOAD PUSH2 0x224D JUMP JUMPDEST PUSH1 0x40 MLOAD SWAP2 DUP3 SWAP2 PUSH1 0x20 DUP4 MSTORE PUSH1 0x20 DUP4 ADD SWAP1 PUSH2 0x1069 JUMP JUMPDEST SUB SWAP1 RETURN JUMPDEST CALLVALUE PUSH2 0x1FB JUMPI PUSH1 0x20 CALLDATASIZE PUSH1 0x3 NOT ADD SLT PUSH2 0x1FB JUMPI PUSH1 0x40 PUSH2 0x4B1 PUSH2 0x49D PUSH2 0x498 PUSH2 0x108D JUMP JUMPDEST PUSH2 0x1A8D JUMP JUMPDEST DUP4 SWAP3 SWAP2 SWAP3 MLOAD SWAP3 ISZERO ISZERO DUP4 MSTORE PUSH1 0x20 DUP4 ADD SWAP1 PUSH2 0x10F3 JUMP JUMPDEST RETURN JUMPDEST CALLVALUE PUSH2 0x1FB JUMPI PUSH1 0x80 CALLDATASIZE PUSH1 0x3 NOT ADD SLT PUSH2 0x1FB JUMPI PUSH2 0x4CC PUSH2 0x108D JUMP JUMPDEST PUSH2 0x4D4 PUSH2 0x10A3 JUMP JUMPDEST SWAP1 PUSH1 0x64 CALLDATALOAD SWAP1 PUSH1 0x44 CALLDATALOAD PUSH8 0xFFFFFFFFFFFFFFFF DUP4 GT PUSH2 0x1FB JUMPI CALLDATASIZE PUSH1 0x23 DUP5 ADD SLT ISZERO PUSH2 0x1FB JUMPI DUP3 PUSH1 0x4 ADD CALLDATALOAD SWAP4 PUSH2 0x505 DUP6 PUSH2 0x11B7 JUMP JUMPDEST SWAP3 PUSH2 0x513 PUSH1 0x40 MLOAD SWAP5 DUP6 PUSH2 0x1195 JUMP JUMPDEST DUP6 DUP5 MSTORE CALLDATASIZE PUSH1 0x24 DUP8 DUP8 ADD ADD GT PUSH2 0x1FB JUMPI PUSH0 PUSH1 0x20 DUP8 PUSH2 0x560 SWAP9 PUSH1 0x24 PUSH2 0x55B SWAP10 ADD DUP4 DUP10 ADD CALLDATACOPY DUP7 ADD ADD MSTORE PUSH2 0x54B PUSH2 0x546 DUP5 CALLER PUSH2 0x1CCC JUMP JUMPDEST PUSH2 0x1345 JUMP JUMPDEST PUSH2 0x556 DUP4 DUP4 DUP4 PUSH2 0x1D9B JUMP JUMPDEST PUSH2 0x2660 JUMP JUMPDEST PUSH2 0x2229 JUMP JUMPDEST STOP JUMPDEST CALLVALUE PUSH2 0x1FB JUMPI PUSH1 0x20 CALLDATASIZE PUSH1 0x3 NOT ADD SLT PUSH2 0x1FB JUMPI PUSH1 0x1 PUSH1 0x1 PUSH1 0xA0 SHL SUB PUSH2 0x583 PUSH2 0x108D JUMP JUMPDEST AND PUSH0 MSTORE PUSH1 0x10 PUSH1 0x20 MSTORE PUSH1 0x20 PUSH1 0x40 PUSH0 KECCAK256 SLOAD PUSH1 0x40 MLOAD SWAP1 DUP2 MSTORE RETURN JUMPDEST CALLVALUE PUSH2 0x1FB JUMPI PUSH1 0x40 CALLDATASIZE PUSH1 0x3 NOT ADD SLT PUSH2 0x1FB JUMPI PUSH2 0x5B3 PUSH2 0x108D JUMP JUMPDEST PUSH1 0x24 CALLDATALOAD SWAP1 DUP2 ISZERO ISZERO SWAP1 DUP2 DUP4 SUB PUSH2 0x1FB JUMPI PUSH1 0x1 PUSH1 0x1 PUSH1 0xA0 SHL SUB AND SWAP2 CALLER DUP4 EQ PUSH2 0x62C JUMPI PUSH2 0x5FE SWAP1 CALLER PUSH0 MSTORE PUSH1 0x5 PUSH1 0x20 MSTORE PUSH1 0x40 PUSH0 KECCAK256 DUP5 PUSH0 MSTORE PUSH1 0x20 MSTORE PUSH1 0x40 PUSH0 KECCAK256 SWAP1 PUSH1 0xFF DUP1 NOT DUP4 SLOAD AND SWAP2 ISZERO ISZERO AND OR SWAP1 SSTORE JUMP JUMPDEST PUSH1 0x40 MLOAD SWAP1 DUP2 MSTORE PUSH32 0x17307EAB39AB6107E8899845AD3D59BD9653F200F220920489CA2B5937696C31 PUSH1 0x20 CALLER SWAP3 LOG3 STOP JUMPDEST PUSH1 0x40 MLOAD PUSH3 0x461BCD PUSH1 0xE5 SHL DUP2 MSTORE PUSH1 0x20 PUSH1 0x4 DUP3 ADD MSTORE PUSH1 0x19 PUSH1 0x24 DUP3 ADD MSTORE PUSH32 0x4552433732313A20617070726F766520746F2063616C6C657200000000000000 PUSH1 0x44 DUP3 ADD MSTORE PUSH1 0x64 SWAP1 REVERT JUMPDEST CALLVALUE PUSH2 0x1FB JUMPI PUSH1 0x20 CALLDATASIZE PUSH1 0x3 NOT ADD SLT PUSH2 0x1FB JUMPI PUSH1 0x4 CALLDATALOAD PUSH0 DUP2 DUP2 MSTORE PUSH1 0x2 PUSH1 0x20 MSTORE PUSH1 0x40 SWAP1 KECCAK256 SLOAD PUSH2 0x6A7 SWAP1 PUSH1 0x1 PUSH1 0x1 PUSH1 0xA0 SHL SUB AND ISZERO ISZERO PUSH2 0x130D JUMP JUMPDEST PUSH0 MSTORE PUSH1 0xE PUSH1 0x20 MSTORE PUSH1 0x40 PUSH0 KECCAK256 PUSH1 0x40 MLOAD PUSH2 0x6BE DUP2 PUSH2 0x1164 JUMP JUMPDEST DUP2 SLOAD PUSH1 0x1 PUSH1 0x1 PUSH1 0xA0 SHL SUB DUP2 AND DUP3 MSTORE PUSH1 0x20 DUP3 ADD SWAP2 SWAP1 PUSH2 0x6E2 SWAP1 PUSH1 0xA0 SHR PUSH1 0xFF AND DUP4 PUSH2 0x1247 JUMP JUMPDEST PUSH1 0x1 DUP4 ADD SLOAD SWAP1 PUSH1 0x40 DUP2 ADD SWAP2 DUP3 MSTORE PUSH1 0x2 DUP5 ADD SLOAD SWAP1 PUSH1 0x60 DUP2 ADD SWAP2 DUP3 MSTORE PUSH1 0x3 DUP6 ADD SLOAD SWAP5 PUSH1 0x80 DUP3 ADD SWAP6 DUP7 MSTORE PUSH1 0xFF PUSH1 0x4 DUP3 ADD SLOAD AND PUSH1 0xA0 DUP4 ADD SWAP1 ISZERO ISZERO DUP2 MSTORE PUSH1 0x6 PUSH1 0x5 DUP4 ADD SLOAD SWAP3 PUSH1 0xC0 DUP6 ADD SWAP4 DUP5 MSTORE ADD SLOAD SWAP3 PUSH1 0xE0 DUP2 ADD SWAP4 DUP5 MSTORE PUSH1 0x1 DUP1 PUSH1 0xA0 SHL SUB SWAP1 MLOAD AND SWAP6 MLOAD SWAP7 PUSH1 0x3 DUP9 LT ISZERO PUSH2 0x779 JUMPI PUSH2 0x473 SWAP6 MLOAD SWAP5 MLOAD SWAP1 MLOAD SWAP2 MLOAD ISZERO ISZERO SWAP3 DUP4 PUSH2 0x76D JUMPI JUMPDEST MLOAD SWAP4 MLOAD SWAP5 PUSH1 0x40 MLOAD SWAP9 DUP10 SWAP9 DUP10 PUSH2 0x1100 JUMP JUMPDEST SWAP3 POP DUP2 TIMESTAMP GT ISZERO SWAP3 PUSH2 0x75D JUMP JUMPDEST PUSH4 0x4E487B71 PUSH1 0xE0 SHL PUSH0 MSTORE PUSH1 0x21 PUSH1 0x4 MSTORE PUSH1 0x24 PUSH0 REVERT JUMPDEST CALLVALUE PUSH2 0x1FB JUMPI PUSH0 CALLDATASIZE PUSH1 0x3 NOT ADD SLT PUSH2 0x1FB JUMPI PUSH1 0x40 MLOAD PUSH0 PUSH1 0x1 SLOAD PUSH2 0x7AD DUP2 PUSH2 0x11D3 JUMP JUMPDEST DUP1 DUP5 MSTORE SWAP1 PUSH1 0x1 DUP2 AND SWAP1 DUP2 ISZERO PUSH2 0x833 JUMPI POP PUSH1 0x1 EQ PUSH2 0x7D5 JUMPI JUMPDEST PUSH2 0x473 DUP4 PUSH2 0x45F DUP2 DUP6 SUB DUP3 PUSH2 0x1195 JUMP JUMPDEST SWAP2 SWAP1 POP PUSH1 0x1 PUSH0 MSTORE PUSH32 0xB10E2D527612073B26EECDFD717E6A320CF44B4AFAC2B0732D9FCBE2B7FA0CF6 SWAP2 PUSH0 SWAP1 JUMPDEST DUP1 DUP3 LT PUSH2 0x819 JUMPI POP SWAP1 SWAP2 POP DUP2 ADD PUSH1 0x20 ADD PUSH2 0x45F PUSH2 0x7C5 JUMP JUMPDEST SWAP2 SWAP3 PUSH1 0x1 DUP2 PUSH1 0x20 SWAP3 SLOAD DUP4 DUP6 DUP9 ADD ADD MSTORE ADD SWAP2 ADD SWAP1 SWAP3 SWAP2 PUSH2 0x801 JUMP JUMPDEST PUSH1 0xFF NOT AND PUSH1 0x20 DUP1 DUP7 ADD SWAP2 SWAP1 SWAP2 MSTORE SWAP2 ISZERO ISZERO PUSH1 0x5 SHL DUP5 ADD SWAP1 SWAP2 ADD SWAP2 POP PUSH2 0x45F SWAP1 POP PUSH2 0x7C5 JUMP JUMPDEST CALLVALUE PUSH2 0x1FB JUMPI PUSH0 CALLDATASIZE PUSH1 0x3 NOT ADD SLT PUSH2 0x1FB JUMPI PUSH1 0x7 SLOAD PUSH1 0x40 MLOAD PUSH1 0x1 PUSH1 0x1 PUSH1 0xA0 SHL SUB SWAP1 SWAP2 AND DUP2 MSTORE PUSH1 0x20 SWAP1 RETURN JUMPDEST CALLVALUE PUSH2 0x1FB JUMPI PUSH0 CALLDATASIZE PUSH1 0x3 NOT ADD SLT PUSH2 0x1FB JUMPI PUSH2 0x897 PUSH2 0x1C74 JUMP JUMPDEST PUSH2 0x89F PUSH2 0x1F8F JUMP JUMPDEST PUSH1 0x1 PUSH1 0xFF NOT PUSH1 0x9 SLOAD AND OR PUSH1 0x9 SSTORE PUSH32 0x62E78CEA01BEE320CD4E420270B5EA74000D11B0C9F74754EBDBFC544B05A258 PUSH1 0x20 PUSH1 0x40 MLOAD CALLER DUP2 MSTORE LOG1 STOP JUMPDEST CALLVALUE PUSH2 0x1FB JUMPI PUSH0 CALLDATASIZE PUSH1 0x3 NOT ADD SLT PUSH2 0x1FB JUMPI PUSH1 0x20 PUSH1 0x40 MLOAD PUSH2 0x190 DUP2 MSTORE RETURN JUMPDEST CALLVALUE PUSH2 0x1FB JUMPI PUSH0 CALLDATASIZE PUSH1 0x3 NOT ADD SLT PUSH2 0x1FB JUMPI PUSH2 0x90C PUSH2 0x1C74 JUMP JUMPDEST PUSH1 0x7 DUP1 SLOAD PUSH1 0x1 PUSH1 0x1 PUSH1 0xA0 SHL SUB NOT DUP2 AND SWAP1 SWAP2 SSTORE PUSH0 SWAP1 PUSH1 0x1 PUSH1 0x1 PUSH1 0xA0 SHL SUB AND PUSH32 0x8BE0079C531659141344CD1FD0A4F28419497F9722A3DAAFE3B4186F6B6457E0 DUP3 DUP1 LOG3 STOP JUMPDEST CALLVALUE PUSH2 0x1FB JUMPI PUSH1 0x20 CALLDATASIZE PUSH1 0x3 NOT ADD SLT PUSH2 0x1FB JUMPI PUSH1 0x1 PUSH1 0x1 PUSH1 0xA0 SHL SUB PUSH2 0x970 PUSH2 0x108D JUMP JUMPDEST AND DUP1 ISZERO PUSH2 0x98D JUMPI PUSH0 MSTORE PUSH1 0x3 PUSH1 0x20 MSTORE PUSH1 0x20 PUSH1 0x40 PUSH0 KECCAK256 SLOAD PUSH1 0x40 MLOAD SWAP1 DUP2 MSTORE RETURN JUMPDEST PUSH1 0x40 MLOAD PUSH3 0x461BCD PUSH1 0xE5 SHL DUP2 MSTORE PUSH1 0x20 PUSH1 0x4 DUP3 ADD MSTORE PUSH1 0x29 PUSH1 0x24 DUP3 ADD MSTORE PUSH32 0x4552433732313A2061646472657373207A65726F206973206E6F742061207661 PUSH1 0x44 DUP3 ADD MSTORE PUSH9 0x3634B21037BBB732B9 PUSH1 0xB9 SHL PUSH1 0x64 DUP3 ADD MSTORE PUSH1 0x84 SWAP1 REVERT JUMPDEST CALLVALUE PUSH2 0x1FB JUMPI PUSH1 0x20 CALLDATASIZE PUSH1 0x3 NOT ADD SLT PUSH2 0x1FB JUMPI PUSH1 0x20 PUSH2 0xA02 PUSH1 0x4 CALLDATALOAD PUSH2 0x1A6B JUMP JUMPDEST PUSH1 0x40 MLOAD PUSH1 0x1 PUSH1 0x1 PUSH1 0xA0 SHL SUB SWAP1 SWAP2 AND DUP2 MSTORE RETURN JUMPDEST CALLVALUE PUSH2 0x1FB JUMPI PUSH0 CALLDATASIZE PUSH1 0x3 NOT ADD SLT PUSH2 0x1FB JUMPI PUSH1 0x20 PUSH1 0xFF PUSH1 0x9 SLOAD AND PUSH1 0x40 MLOAD SWAP1 ISZERO ISZERO DUP2 MSTORE RETURN JUMPDEST CALLVALUE PUSH2 0x1FB JUMPI PUSH0 CALLDATASIZE PUSH1 0x3 NOT ADD SLT PUSH2 0x1FB JUMPI PUSH1 0x13 SLOAD PUSH1 0x40 MLOAD PUSH1 0x1 PUSH1 0x1 PUSH1 0xA0 SHL SUB SWAP1 SWAP2 AND DUP2 MSTORE PUSH1 0x20 SWAP1 RETURN JUMPDEST CALLVALUE PUSH2 0x1FB JUMPI PUSH1 0x40 CALLDATASIZE PUSH1 0x3 NOT ADD SLT PUSH2 0x1FB JUMPI PUSH1 0x4 CALLDATALOAD PUSH1 0x3 DUP2 LT ISZERO PUSH2 0x1FB JUMPI PUSH1 0x24 CALLDATALOAD SWAP1 PUSH2 0xA87 PUSH2 0x1C74 JUMP JUMPDEST DUP2 ISZERO PUSH2 0xA99 JUMPI PUSH2 0xA96 SWAP1 PUSH2 0x114D JUMP JUMPDEST SSTORE STOP JUMPDEST PUSH1 0x40 MLOAD PUSH3 0x461BCD PUSH1 0xE5 SHL DUP2 MSTORE PUSH1 0x20 PUSH1 0x4 DUP3 ADD MSTORE PUSH1 0xD PUSH1 0x24 DUP3 ADD MSTORE PUSH13 0x496E76616C6964207072696365 PUSH1 0x98 SHL PUSH1 0x44 DUP3 ADD MSTORE PUSH1 0x64 SWAP1 REVERT JUMPDEST CALLVALUE PUSH2 0x1FB JUMPI PUSH2 0x560 PUSH2 0x55B PUSH2 0xAE2 CALLDATASIZE PUSH2 0x10B9 JUMP JUMPDEST SWAP1 PUSH1 0x40 MLOAD SWAP3 PUSH2 0xAF2 PUSH1 0x20 DUP6 PUSH2 0x1195 JUMP JUMPDEST PUSH0 DUP5 MSTORE PUSH2 0x54B PUSH2 0x546 DUP5 CALLER PUSH2 0x1CCC JUMP JUMPDEST CALLVALUE PUSH2 0x1FB JUMPI PUSH0 CALLDATASIZE PUSH1 0x3 NOT ADD SLT PUSH2 0x1FB JUMPI PUSH2 0xB1A PUSH2 0x1C74 JUMP JUMPDEST PUSH1 0x9 SLOAD PUSH1 0xFF DUP2 AND ISZERO PUSH2 0xB59 JUMPI PUSH1 0xFF NOT AND PUSH1 0x9 SSTORE PUSH32 0x5DB9EE0A495BF2E6FF9C91A7834C1BA4FDD244A5E8AA4E537BD38AEAE4B073AA PUSH1 0x20 PUSH1 0x40 MLOAD CALLER DUP2 MSTORE LOG1 STOP JUMPDEST PUSH1 0x40 MLOAD PUSH3 0x461BCD PUSH1 0xE5 SHL DUP2 MSTORE PUSH1 0x20 PUSH1 0x4 DUP3 ADD MSTORE PUSH1 0x14 PUSH1 0x24 DUP3 ADD MSTORE PUSH20 0x14185D5CD8589B194E881B9BDD081C185D5CD959 PUSH1 0x62 SHL PUSH1 0x44 DUP3 ADD MSTORE PUSH1 0x64 SWAP1 REVERT JUMPDEST CALLVALUE PUSH2 0x1FB JUMPI PUSH1 0x80 CALLDATASIZE PUSH1 0x3 NOT ADD SLT PUSH2 0x1FB JUMPI PUSH2 0xBAE PUSH2 0x108D JUMP JUMPDEST PUSH1 0x24 CALLDATALOAD SWAP1 PUSH1 0x3 DUP3 LT ISZERO PUSH2 0x1FB JUMPI PUSH1 0x20 SWAP2 PUSH2 0xBE7 SWAP2 PUSH2 0xBCA PUSH2 0x1C74 JUMP JUMPDEST PUSH2 0xBD2 PUSH2 0x1F39 JUMP JUMPDEST PUSH2 0xBDA PUSH2 0x1F8F JUMP JUMPDEST PUSH1 0x64 CALLDATALOAD SWAP2 PUSH1 0x44 CALLDATALOAD SWAP2 PUSH2 0x1409 JUMP JUMPDEST PUSH1 0x1 PUSH1 0x8 SSTORE PUSH1 0x40 MLOAD SWAP1 DUP2 MSTORE RETURN JUMPDEST CALLVALUE PUSH2 0x1FB JUMPI PUSH1 0x20 CALLDATASIZE PUSH1 0x3 NOT ADD SLT PUSH2 0x1FB JUMPI PUSH1 0x4 CALLDATALOAD PUSH1 0x3 DUP2 LT ISZERO PUSH2 0x1FB JUMPI PUSH2 0xC1C PUSH1 0x20 SWAP2 PUSH2 0x114D JUMP JUMPDEST SLOAD PUSH1 0x40 MLOAD SWAP1 DUP2 MSTORE RETURN JUMPDEST CALLVALUE PUSH2 0x1FB JUMPI PUSH1 0x20 CALLDATASIZE PUSH1 0x3 NOT ADD SLT PUSH2 0x1FB JUMPI PUSH1 0x4 CALLDATALOAD PUSH0 MSTORE PUSH1 0xE PUSH1 0x20 MSTORE PUSH1 0x40 PUSH0 KECCAK256 DUP1 SLOAD PUSH2 0x473 PUSH1 0x1 DUP4 ADD SLOAD SWAP3 PUSH1 0x2 DUP2 ADD SLOAD SWAP1 PUSH1 0x3 DUP2 ADD SLOAD PUSH1 0xFF PUSH1 0x4 DUP4 ADD SLOAD AND SWAP1 PUSH1 0x6 PUSH1 0x5 DUP5 ADD SLOAD SWAP4 ADD SLOAD SWAP4 PUSH1 0x40 MLOAD SWAP8 DUP8 PUSH1 0xFF DUP11 SWAP10 PUSH1 0xA0 SHR AND SWAP1 PUSH1 0x1 DUP1 PUSH1 0xA0 SHL SUB AND DUP10 PUSH2 0x1100 JUMP JUMPDEST CALLVALUE PUSH2 0x1FB JUMPI PUSH2 0x560 PUSH2 0xC9B CALLDATASIZE PUSH2 0x10B9 JUMP JUMPDEST SWAP2 PUSH2 0xCA9 PUSH2 0x546 DUP5 CALLER PUSH2 0x1CCC JUMP JUMPDEST PUSH2 0x1D9B JUMP JUMPDEST CALLVALUE PUSH2 0x1FB JUMPI PUSH1 0x20 CALLDATASIZE PUSH1 0x3 NOT ADD SLT PUSH2 0x1FB JUMPI PUSH1 0x4 CALLDATALOAD PUSH2 0xCCA PUSH2 0x1C74 JUMP JUMPDEST PUSH0 DUP2 DUP2 MSTORE PUSH1 0x2 PUSH1 0x20 MSTORE PUSH1 0x40 SWAP1 KECCAK256 SLOAD PUSH2 0xCEC SWAP1 PUSH1 0x1 PUSH1 0x1 PUSH1 0xA0 SHL SUB AND ISZERO ISZERO PUSH2 0x130D JUMP JUMPDEST PUSH0 SWAP1 DUP2 MSTORE PUSH1 0xE PUSH1 0x20 MSTORE PUSH1 0x40 SWAP1 KECCAK256 PUSH1 0x4 ADD DUP1 SLOAD PUSH1 0xFF NOT AND SWAP1 SSTORE STOP JUMPDEST CALLVALUE PUSH2 0x1FB JUMPI PUSH1 0x20 CALLDATASIZE PUSH1 0x3 NOT ADD SLT PUSH2 0x1FB JUMPI PUSH1 0x60 PUSH2 0xD29 PUSH2 0xD24 PUSH2 0x108D JUMP JUMPDEST PUSH2 0x1253 JUMP JUMPDEST SWAP1 PUSH1 0x40 MLOAD SWAP3 ISZERO ISZERO DUP4 MSTORE PUSH1 0x20 DUP4 ADD MSTORE PUSH1 0x40 DUP3 ADD MSTORE RETURN JUMPDEST CALLVALUE PUSH2 0x1FB JUMPI PUSH0 CALLDATASIZE PUSH1 0x3 NOT ADD SLT PUSH2 0x1FB JUMPI PUSH1 0xC SLOAD PUSH1 0x40 MLOAD PUSH1 0x1 PUSH1 0x1 PUSH1 0xA0 SHL SUB SWAP1 SWAP2 AND DUP2 MSTORE PUSH1 0x20 SWAP1 RETURN JUMPDEST CALLVALUE PUSH2 0x1FB JUMPI PUSH0 CALLDATASIZE PUSH1 0x3 NOT ADD SLT PUSH2 0x1FB JUMPI PUSH1 0x20 PUSH1 0x40 MLOAD PUSH2 0xBB8 DUP2 MSTORE RETURN JUMPDEST CALLVALUE PUSH2 0x1FB JUMPI PUSH1 0x40 CALLDATASIZE PUSH1 0x3 NOT ADD SLT PUSH2 0x1FB JUMPI PUSH2 0xD9B PUSH2 0x108D JUMP JUMPDEST PUSH1 0x24 CALLDATALOAD SWAP1 PUSH1 0x1 PUSH1 0x1 PUSH1 0xA0 SHL SUB PUSH2 0xDB0 DUP4 PUSH2 0x1A6B JUMP JUMPDEST PUSH1 0x1 PUSH1 0x1 PUSH1 0xA0 SHL SUB SWAP1 SWAP3 AND SWAP2 AND DUP2 DUP2 EQ PUSH2 0xEB9 JUMPI DUP1 CALLER EQ SWAP1 DUP2 ISZERO PUSH2 0xE95 JUMPI JUMPDEST POP ISZERO PUSH2 0xE2A JUMPI PUSH0 DUP3 DUP2 MSTORE PUSH1 0x4 PUSH1 0x20 MSTORE PUSH1 0x40 SWAP1 KECCAK256 DUP1 SLOAD PUSH1 0x1 PUSH1 0x1 PUSH1 0xA0 SHL SUB NOT AND DUP3 OR SWAP1 SSTORE PUSH1 0x1 PUSH1 0x1 PUSH1 0xA0 SHL SUB PUSH2 0xE03 DUP4 PUSH2 0x1A6B JUMP JUMPDEST AND PUSH32 0x8C5BE1E5EBEC7D5BD14F71427D1E84F3DD0314C0F7B2291E5B200AC8C7C3B925 PUSH0 DUP1 LOG4 STOP JUMPDEST PUSH1 0x40 MLOAD PUSH3 0x461BCD PUSH1 0xE5 SHL DUP2 MSTORE PUSH1 0x20 PUSH1 0x4 DUP3 ADD MSTORE PUSH1 0x3D PUSH1 0x24 DUP3 ADD MSTORE PUSH32 0x4552433732313A20617070726F76652063616C6C6572206973206E6F7420746F PUSH1 0x44 DUP3 ADD MSTORE PUSH32 0x6B656E206F776E6572206F7220617070726F76656420666F7220616C6C000000 PUSH1 0x64 DUP3 ADD MSTORE PUSH1 0x84 SWAP1 REVERT JUMPDEST PUSH0 SWAP1 DUP2 MSTORE PUSH1 0x5 PUSH1 0x20 SWAP1 DUP2 MSTORE PUSH1 0x40 DUP1 DUP4 KECCAK256 CALLER DUP5 MSTORE SWAP1 SWAP2 MSTORE SWAP1 KECCAK256 SLOAD PUSH1 0xFF AND SWAP1 POP DUP4 PUSH2 0xDCF JUMP JUMPDEST PUSH1 0x40 MLOAD PUSH3 0x461BCD PUSH1 0xE5 SHL DUP2 MSTORE PUSH1 0x20 PUSH1 0x4 DUP3 ADD MSTORE PUSH1 0x21 PUSH1 0x24 DUP3 ADD MSTORE PUSH32 0x4552433732313A20617070726F76616C20746F2063757272656E74206F776E65 PUSH1 0x44 DUP3 ADD MSTORE PUSH1 0x39 PUSH1 0xF9 SHL PUSH1 0x64 DUP3 ADD MSTORE PUSH1 0x84 SWAP1 REVERT JUMPDEST CALLVALUE PUSH2 0x1FB JUMPI PUSH1 0x20 CALLDATASIZE PUSH1 0x3 NOT ADD SLT PUSH2 0x1FB JUMPI PUSH1 0x20 PUSH2 0xA02 PUSH1 0x4 CALLDATALOAD PUSH2 0x120B JUMP JUMPDEST CALLVALUE PUSH2 0x1FB JUMPI PUSH0 CALLDATASIZE PUSH1 0x3 NOT ADD SLT PUSH2 0x1FB JUMPI PUSH1 0x40 MLOAD PUSH0 PUSH0 SLOAD PUSH2 0xF45 DUP2 PUSH2 0x11D3 JUMP JUMPDEST DUP1 DUP5 MSTORE SWAP1 PUSH1 0x1 DUP2 AND SWAP1 DUP2 ISZERO PUSH2 0x833 JUMPI POP PUSH1 0x1 EQ PUSH2 0xF6C JUMPI PUSH2 0x473 DUP4 PUSH2 0x45F DUP2 DUP6 SUB DUP3 PUSH2 0x1195 JUMP JUMPDEST PUSH0 DUP1 DUP1 MSTORE PUSH32 0x290DECD9548B62A8D60345A988386FC84BA6BC95484008F6362F93160EF3E563 SWAP4 SWAP3 POP SWAP1 JUMPDEST DUP1 DUP3 LT PUSH2 0xFAE JUMPI POP SWAP1 SWAP2 POP DUP2 ADD PUSH1 0x20 ADD PUSH2 0x45F PUSH2 0x7C5 JUMP JUMPDEST SWAP2 SWAP3 PUSH1 0x1 DUP2 PUSH1 0x20 SWAP3 SLOAD DUP4 DUP6 DUP9 ADD ADD MSTORE ADD SWAP2 ADD SWAP1 SWAP3 SWAP2 PUSH2 0xF96 JUMP JUMPDEST CALLVALUE PUSH2 0x1FB JUMPI PUSH0 CALLDATASIZE PUSH1 0x3 NOT ADD SLT PUSH2 0x1FB JUMPI PUSH1 0x20 PUSH1 0x40 MLOAD PUSH2 0x157C DUP2 MSTORE RETURN JUMPDEST CALLVALUE PUSH2 0x1FB JUMPI PUSH1 0x20 CALLDATASIZE PUSH1 0x3 NOT ADD SLT PUSH2 0x1FB JUMPI PUSH1 0x4 CALLDATALOAD SWAP1 PUSH4 0xFFFFFFFF PUSH1 0xE0 SHL DUP3 AND DUP1 SWAP3 SUB PUSH2 0x1FB JUMPI PUSH1 0x20 SWAP2 PUSH4 0x24832483 PUSH1 0xE1 SHL DUP2 EQ SWAP1 DUP2 ISZERO PUSH2 0x1026 JUMPI JUMPDEST POP ISZERO ISZERO DUP2 MSTORE RETURN JUMPDEST PUSH4 0x80AC58CD PUSH1 0xE0 SHL DUP2 EQ SWAP2 POP DUP2 ISZERO PUSH2 0x1058 JUMPI JUMPDEST DUP2 ISZERO PUSH2 0x1047 JUMPI JUMPDEST POP DUP4 PUSH2 0x101F JUMP JUMPDEST PUSH4 0x1FFC9A7 PUSH1 0xE0 SHL EQ SWAP1 POP DUP4 PUSH2 0x1040 JUMP JUMPDEST PUSH4 0x5B5E139F PUSH1 0xE0 SHL DUP2 EQ SWAP2 POP PUSH2 0x1039 JUMP JUMPDEST DUP1 MLOAD DUP1 DUP4 MSTORE PUSH1 0x20 SWAP3 SWAP2 DUP2 SWAP1 DUP5 ADD DUP5 DUP5 ADD MCOPY PUSH0 DUP3 DUP3 ADD DUP5 ADD MSTORE PUSH1 0x1F ADD PUSH1 0x1F NOT AND ADD ADD SWAP1 JUMP JUMPDEST PUSH1 0x4 CALLDATALOAD SWAP1 PUSH1 0x1 PUSH1 0x1 PUSH1 0xA0 SHL SUB DUP3 AND DUP3 SUB PUSH2 0x1FB JUMPI JUMP JUMPDEST PUSH1 0x24 CALLDATALOAD SWAP1 PUSH1 0x1 PUSH1 0x1 PUSH1 0xA0 SHL SUB DUP3 AND DUP3 SUB PUSH2 0x1FB JUMPI JUMP JUMPDEST PUSH1 0x60 SWAP1 PUSH1 0x3 NOT ADD SLT PUSH2 0x1FB JUMPI PUSH1 0x4 CALLDATALOAD PUSH1 0x1 PUSH1 0x1 PUSH1 0xA0 SHL SUB DUP2 AND DUP2 SUB PUSH2 0x1FB JUMPI SWAP1 PUSH1 0x24 CALLDATALOAD PUSH1 0x1 PUSH1 0x1 PUSH1 0xA0 SHL SUB DUP2 AND DUP2 SUB PUSH2 0x1FB JUMPI SWAP1 PUSH1 0x44 CALLDATALOAD SWAP1 JUMP JUMPDEST SWAP1 PUSH1 0x3 DUP3 LT ISZERO PUSH2 0x779 JUMPI MSTORE JUMP JUMPDEST PUSH1 0x1 PUSH1 0x1 PUSH1 0xA0 SHL SUB SWAP1 SWAP2 AND DUP2 MSTORE PUSH2 0x100 DUP2 ADD SWAP9 SWAP8 SWAP7 PUSH1 0xE0 SWAP7 SWAP2 SWAP6 SWAP1 SWAP5 SWAP2 SWAP4 SWAP1 SWAP3 PUSH2 0x112E SWAP1 PUSH1 0x20 DUP9 ADD SWAP1 PUSH2 0x10F3 JUMP JUMPDEST PUSH1 0x40 DUP7 ADD MSTORE PUSH1 0x60 DUP6 ADD MSTORE PUSH1 0x80 DUP5 ADD MSTORE ISZERO ISZERO PUSH1 0xA0 DUP4 ADD MSTORE PUSH1 0xC0 DUP3 ADD MSTORE ADD MSTORE JUMP JUMPDEST PUSH1 0x3 DUP2 LT ISZERO PUSH2 0x779 JUMPI PUSH0 MSTORE PUSH1 0x14 PUSH1 0x20 MSTORE PUSH1 0x40 PUSH0 KECCAK256 SWAP1 JUMP JUMPDEST PUSH2 0x100 DUP2 ADD SWAP1 DUP2 LT PUSH8 0xFFFFFFFFFFFFFFFF DUP3 GT OR PUSH2 0x1181 JUMPI PUSH1 0x40 MSTORE JUMP JUMPDEST PUSH4 0x4E487B71 PUSH1 0xE0 SHL PUSH0 MSTORE PUSH1 0x41 PUSH1 0x4 MSTORE PUSH1 0x24 PUSH0 REVERT JUMPDEST SWAP1 PUSH1 0x1F DUP1 NOT SWAP2 ADD AND DUP2 ADD SWAP1 DUP2 LT PUSH8 0xFFFFFFFFFFFFFFFF DUP3 GT OR PUSH2 0x1181 JUMPI PUSH1 0x40 MSTORE JUMP JUMPDEST PUSH8 0xFFFFFFFFFFFFFFFF DUP2 GT PUSH2 0x1181 JUMPI PUSH1 0x1F ADD PUSH1 0x1F NOT AND PUSH1 0x20 ADD SWAP1 JUMP JUMPDEST SWAP1 PUSH1 0x1 DUP3 DUP2 SHR SWAP3 AND DUP1 ISZERO PUSH2 0x1201 JUMPI JUMPDEST PUSH1 0x20 DUP4 LT EQ PUSH2 0x11ED JUMPI JUMP JUMPDEST PUSH4 0x4E487B71 PUSH1 0xE0 SHL PUSH0 MSTORE PUSH1 0x22 PUSH1 0x4 MSTORE PUSH1 0x24 PUSH0 REVERT JUMPDEST SWAP2 PUSH1 0x7F AND SWAP2 PUSH2 0x11E2 JUMP JUMPDEST PUSH0 DUP2 DUP2 MSTORE PUSH1 0x2 PUSH1 0x20 MSTORE PUSH1 0x40 SWAP1 KECCAK256 SLOAD PUSH2 0x122D SWAP1 PUSH1 0x1 PUSH1 0x1 PUSH1 0xA0 SHL SUB AND ISZERO ISZERO PUSH2 0x1A1F JUMP JUMPDEST PUSH0 SWAP1 DUP2 MSTORE PUSH1 0x4 PUSH1 0x20 MSTORE PUSH1 0x40 SWAP1 KECCAK256 SLOAD PUSH1 0x1 PUSH1 0x1 PUSH1 0xA0 SHL SUB AND SWAP1 JUMP JUMPDEST PUSH1 0x3 DUP3 LT ISZERO PUSH2 0x779 JUMPI MSTORE JUMP JUMPDEST PUSH1 0x1 PUSH1 0x1 PUSH1 0xA0 SHL SUB AND PUSH0 SWAP1 DUP2 MSTORE PUSH1 0xF PUSH1 0x20 MSTORE PUSH1 0x40 SWAP1 KECCAK256 SLOAD SWAP1 DUP2 ISZERO PUSH2 0x1304 JUMPI DUP2 PUSH0 MSTORE PUSH1 0xE PUSH1 0x20 MSTORE PUSH1 0x40 PUSH0 KECCAK256 SWAP1 PUSH1 0x40 MLOAD SWAP2 PUSH2 0x128B DUP4 PUSH2 0x1164 JUMP JUMPDEST DUP1 SLOAD PUSH1 0x1 PUSH1 0x1 PUSH1 0xA0 SHL SUB DUP2 AND DUP5 MSTORE PUSH2 0x12AC SWAP1 PUSH1 0xA0 SHR PUSH1 0xFF AND PUSH1 0x20 DUP6 ADD PUSH2 0x1247 JUMP JUMPDEST PUSH1 0x1 DUP2 ADD SLOAD PUSH1 0x40 DUP5 ADD MSTORE PUSH1 0x2 DUP2 ADD SLOAD PUSH1 0x60 DUP5 ADD MSTORE PUSH1 0x3 DUP2 ADD SLOAD SWAP3 DUP4 PUSH1 0x80 DUP3 ADD MSTORE PUSH1 0xE0 PUSH1 0x6 PUSH1 0xFF PUSH1 0x4 DUP6 ADD SLOAD AND ISZERO ISZERO SWAP4 DUP5 PUSH1 0xA0 DUP6 ADD MSTORE PUSH1 0x5 DUP2 ADD SLOAD PUSH1 0xC0 DUP6 ADD MSTORE ADD SLOAD SWAP2 ADD MSTORE DUP1 PUSH2 0x12FA JUMPI SWAP3 SWAP2 SWAP1 JUMP JUMPDEST POP DUP2 TIMESTAMP GT ISZERO SWAP3 SWAP2 SWAP1 JUMP JUMPDEST PUSH0 SWAP2 POP DUP2 SWAP1 DUP2 SWAP1 JUMP JUMPDEST ISZERO PUSH2 0x1314 JUMPI JUMP JUMPDEST PUSH1 0x40 MLOAD PUSH3 0x461BCD PUSH1 0xE5 SHL DUP2 MSTORE PUSH1 0x20 PUSH1 0x4 DUP3 ADD MSTORE PUSH1 0x9 PUSH1 0x24 DUP3 ADD MSTORE PUSH9 0x139BDD08199BDD5B99 PUSH1 0xBA SHL PUSH1 0x44 DUP3 ADD MSTORE PUSH1 0x64 SWAP1 REVERT JUMPDEST ISZERO PUSH2 0x134C JUMPI JUMP JUMPDEST PUSH1 0x40 MLOAD PUSH3 0x461BCD PUSH1 0xE5 SHL DUP2 MSTORE PUSH1 0x20 PUSH1 0x4 DUP3 ADD MSTORE PUSH1 0x2D PUSH1 0x24 DUP3 ADD MSTORE PUSH32 0x4552433732313A2063616C6C6572206973206E6F7420746F6B656E206F776E65 PUSH1 0x44 DUP3 ADD MSTORE PUSH13 0x1C881BDC88185C1C1C9BDD9959 PUSH1 0x9A SHL PUSH1 0x64 DUP3 ADD MSTORE PUSH1 0x84 SWAP1 REVERT JUMPDEST ISZERO PUSH2 0x13AE JUMPI JUMP JUMPDEST PUSH1 0x40 MLOAD PUSH3 0x461BCD PUSH1 0xE5 SHL DUP2 MSTORE PUSH1 0x20 PUSH1 0x4 DUP3 ADD MSTORE PUSH1 0x12 PUSH1 0x24 DUP3 ADD MSTORE PUSH18 0x24B73B30B634B21039BAB139B1B934B132B9 PUSH1 0x71 SHL PUSH1 0x44 DUP3 ADD MSTORE PUSH1 0x64 SWAP1 REVERT JUMPDEST SWAP2 SWAP1 DUP3 ADD DUP1 SWAP3 GT PUSH2 0x13F5 JUMPI JUMP JUMPDEST PUSH4 0x4E487B71 PUSH1 0xE0 SHL PUSH0 MSTORE PUSH1 0x11 PUSH1 0x4 MSTORE PUSH1 0x24 PUSH0 REVERT JUMPDEST PUSH1 0x1 PUSH1 0x1 PUSH1 0xA0 SHL SUB DUP2 AND DUP1 ISZERO SWAP6 SWAP5 SWAP2 SWAP4 SWAP1 SWAP3 SWAP2 SWAP1 PUSH2 0x1427 DUP8 ISZERO PUSH2 0x13A7 JUMP JUMPDEST PUSH2 0x1430 DUP4 PUSH2 0x114D JUMP JUMPDEST SLOAD DUP2 LT PUSH2 0x19E3 JUMPI DUP2 ISZERO PUSH2 0x19AB JUMPI DUP4 PUSH0 MSTORE PUSH1 0xF PUSH1 0x20 MSTORE PUSH1 0x40 PUSH0 KECCAK256 SLOAD DUP1 ISZERO ISZERO SWAP1 DUP2 PUSH2 0x1991 JUMPI JUMPDEST POP PUSH2 0x197E JUMPI PUSH1 0xA SLOAD PUSH0 NOT DUP2 EQ PUSH2 0x13F5 JUMPI PUSH1 0x1 ADD SWAP5 DUP6 PUSH1 0xA SSTORE PUSH2 0x1476 DUP4 TIMESTAMP PUSH2 0x13E8 JUMP JUMPDEST PUSH1 0x40 MLOAD SWAP1 PUSH2 0x1483 DUP3 PUSH2 0x1164 JUMP JUMPDEST DUP7 DUP3 MSTORE PUSH1 0x20 DUP3 ADD PUSH2 0x1494 DUP8 DUP3 PUSH2 0x1247 JUMP JUMPDEST PUSH1 0x40 DUP4 DUP2 ADD DUP7 DUP2 MSTORE TIMESTAMP PUSH1 0x60 DUP7 ADD SWAP1 DUP2 MSTORE PUSH1 0x80 DUP7 ADD SWAP5 DUP6 MSTORE PUSH1 0x1 PUSH1 0xA0 DUP8 ADD SWAP1 DUP2 MSTORE PUSH0 PUSH1 0xC0 DUP9 ADD DUP2 DUP2 MSTORE PUSH1 0xE0 DUP10 ADD DUP12 DUP2 MSTORE DUP16 DUP4 MSTORE PUSH1 0xE PUSH1 0x20 MSTORE SWAP6 SWAP1 SWAP2 KECCAK256 SWAP8 MLOAD DUP9 SLOAD PUSH1 0x1 PUSH1 0x1 PUSH1 0xA0 SHL SUB NOT AND PUSH1 0x1 PUSH1 0x1 PUSH1 0xA0 SHL SUB SWAP2 SWAP1 SWAP2 AND OR DUP9 SSTORE SWAP5 MLOAD SWAP3 SWAP6 SWAP4 SWAP5 SWAP4 SWAP1 SWAP2 PUSH1 0x3 DUP5 LT ISZERO PUSH2 0x779 JUMPI PUSH1 0x6 SWAP7 PUSH2 0x1547 SWAP5 DUP10 SLOAD SWAP1 PUSH1 0xFF PUSH1 0xA0 SHL SWAP1 PUSH1 0xA0 SHL AND SWAP1 PUSH1 0xFF PUSH1 0xA0 SHL NOT AND OR DUP10 SSTORE MLOAD PUSH1 0x1 DUP10 ADD SSTORE MLOAD PUSH1 0x2 DUP9 ADD SSTORE MLOAD PUSH1 0x3 DUP8 ADD SSTORE MLOAD ISZERO ISZERO PUSH1 0x4 DUP7 ADD SWAP1 PUSH1 0xFF DUP1 NOT DUP4 SLOAD AND SWAP2 ISZERO ISZERO AND OR SWAP1 SSTORE JUMP JUMPDEST MLOAD PUSH1 0x5 DUP5 ADD SSTORE MLOAD SWAP2 ADD SSTORE DUP5 PUSH0 MSTORE PUSH1 0xF PUSH1 0x20 MSTORE DUP6 PUSH1 0x40 PUSH0 KECCAK256 SSTORE PUSH1 0x20 SWAP8 PUSH1 0x40 MLOAD SWAP1 PUSH2 0x1570 DUP11 DUP4 PUSH2 0x1195 JUMP JUMPDEST PUSH0 DUP3 MSTORE PUSH2 0x193B JUMPI PUSH0 DUP8 DUP2 MSTORE PUSH1 0x2 PUSH1 0x20 MSTORE PUSH1 0x40 SWAP1 KECCAK256 SLOAD DUP10 SWAP5 SWAP4 SWAP3 SWAP2 SWAP1 PUSH2 0x159E SWAP1 PUSH1 0x1 PUSH1 0x1 PUSH1 0xA0 SHL SUB AND ISZERO PUSH2 0x26B8 JUMP JUMPDEST PUSH2 0x15A6 PUSH2 0x1F8F JUMP JUMPDEST PUSH0 DUP9 DUP2 MSTORE PUSH1 0x2 PUSH1 0x20 MSTORE PUSH1 0x40 SWAP1 KECCAK256 SLOAD PUSH2 0x15C7 SWAP1 PUSH1 0x1 PUSH1 0x1 PUSH1 0xA0 SHL SUB AND ISZERO PUSH2 0x26B8 JUMP JUMPDEST DUP7 PUSH0 MSTORE PUSH1 0x3 DUP6 MSTORE PUSH1 0x40 PUSH0 KECCAK256 DUP1 SLOAD PUSH1 0x1 ADD SWAP1 SSTORE DUP8 PUSH0 MSTORE PUSH1 0x2 DUP6 MSTORE PUSH1 0x40 PUSH0 KECCAK256 DUP8 PUSH1 0x1 PUSH1 0x1 PUSH1 0x60 SHL SUB PUSH1 0xA0 SHL DUP3 SLOAD AND OR SWAP1 SSTORE DUP8 DUP1 DUP9 PUSH0 PUSH32 0xDDF252AD1BE2C89B69C2B068FC378DAA952BA7F163C4A11628F55A4DF523B3EF DUP2 DUP1 LOG4 PUSH2 0x1627 SWAP3 PUSH2 0x2549 JUMP JUMPDEST PUSH2 0x1630 SWAP1 PUSH2 0x2229 JUMP JUMPDEST PUSH2 0x1639 DUP5 PUSH2 0x232A JUMP JUMPDEST DUP4 PUSH2 0x1643 DUP7 PUSH2 0x114D JUMP JUMPDEST SLOAD SWAP2 DUP2 PUSH2 0x164F DUP11 PUSH2 0x23DC JUMP JUMPDEST SWAP4 PUSH2 0x1659 SWAP1 PUSH2 0x23DC JUMP JUMPDEST SWAP2 PUSH1 0x40 MLOAD SWAP13 DUP14 SWAP6 DUP2 DUP8 ADD PUSH32 0x68747470733A2F2F6170692E73747564696F636861696E2E636F6D2F73756273 SWAP1 MSTORE PUSH1 0x40 DUP8 ADD PUSH18 0x6372697074696F6E2F6D657461646174612F PUSH1 0x70 SHL SWAP1 MSTORE DUP1 MLOAD SWAP2 DUP3 SWAP2 ADD PUSH1 0x52 DUP9 ADD MCOPY DUP6 ADD SWAP1 PUSH1 0x52 DUP3 ADD PUSH6 0x3F746965723D PUSH1 0xD0 SHL SWAP1 MSTORE DUP1 MLOAD SWAP3 DUP4 SWAP2 ADD PUSH1 0x58 DUP4 ADD MCOPY ADD PUSH1 0x52 ADD SWAP1 PUSH1 0x6 DUP3 ADD PUSH7 0x2670726963653D PUSH1 0xC8 SHL SWAP1 MSTORE DUP1 MLOAD SWAP3 DUP4 SWAP2 ADD PUSH1 0xD DUP4 ADD MCOPY ADD PUSH1 0x6 ADD PUSH1 0x7 DUP2 ADD PUSH0 SWAP1 MSTORE SUB PUSH1 0x7 ADD PUSH1 0x1F NOT DUP2 ADD DUP10 MSTORE PUSH2 0x170C SWAP1 DUP10 PUSH2 0x1195 JUMP JUMPDEST PUSH0 DUP7 DUP2 MSTORE PUSH1 0x2 PUSH1 0x20 MSTORE PUSH1 0x40 SWAP1 KECCAK256 SLOAD PUSH1 0x1 PUSH1 0x1 PUSH1 0xA0 SHL SUB AND ISZERO PUSH2 0x18DF JUMPI DUP6 PUSH0 MSTORE PUSH1 0x6 DUP4 MSTORE PUSH1 0x40 PUSH0 KECCAK256 DUP9 MLOAD PUSH8 0xFFFFFFFFFFFFFFFF DUP2 GT PUSH2 0x1181 JUMPI PUSH2 0x174E DUP3 SLOAD PUSH2 0x11D3 JUMP JUMPDEST SWAP10 PUSH1 0x1F DUP12 GT PUSH2 0x189C JUMPI JUMPDEST DUP9 SWAP10 SWAP11 POP DUP6 SWAP1 PUSH1 0x1F DUP4 GT PUSH1 0x1 EQ PUSH2 0x1809 JUMPI SWAP4 PUSH2 0x17EA SWAP4 DUP4 PUSH32 0x8654E86204201BA700BD5DB5C65397FB64D42653F5D979301D0D730BC8524ABC SWAP10 SWAP8 SWAP5 PUSH2 0x17E4 SWAP5 PUSH1 0x40 SWAP11 SWAP9 PUSH0 SWAP3 PUSH2 0x17FE JUMPI JUMPDEST POP POP DUP2 PUSH1 0x1 SHL SWAP2 PUSH0 NOT SWAP1 PUSH1 0x3 SHL SHR NOT AND OR SWAP1 SSTORE JUMPDEST PUSH32 0xF8E1A15ABA9398E019F0B49DF1A4FDE98EE17AE345CB5F6B5E2C27F5033E8CE7 DUP6 DUP9 MLOAD DUP13 DUP2 MSTORE LOG1 DUP10 PUSH2 0x1FD3 JUMP JUMPDEST TIMESTAMP PUSH2 0x13E8 JUMP JUMPDEST SWAP1 PUSH2 0x17F7 DUP5 MLOAD DUP1 SWAP5 PUSH2 0x10F3 JUMP JUMPDEST DUP3 ADD MSTORE LOG3 SWAP1 JUMP JUMPDEST ADD MLOAD SWAP1 POP PUSH0 DUP1 PUSH2 0x17A2 JUMP JUMPDEST SWAP1 PUSH1 0x1F NOT DUP4 AND SWAP2 DUP5 PUSH0 MSTORE DUP8 PUSH0 KECCAK256 SWAP3 PUSH0 JUMPDEST DUP2 DUP2 LT PUSH2 0x1882 JUMPI POP DUP5 PUSH2 0x17E4 SWAP5 PUSH1 0x40 SWAP11 SWAP9 SWAP5 PUSH2 0x17EA SWAP9 SWAP5 PUSH32 0x8654E86204201BA700BD5DB5C65397FB64D42653F5D979301D0D730BC8524ABC SWAP14 SWAP12 SWAP9 PUSH1 0x1 SWAP6 LT PUSH2 0x186A JUMPI JUMPDEST POP POP POP DUP2 SHL ADD SWAP1 SSTORE PUSH2 0x17B6 JUMP JUMPDEST ADD MLOAD PUSH0 NOT PUSH1 0xF8 DUP5 PUSH1 0x3 SHL AND SHR NOT AND SWAP1 SSTORE PUSH0 DUP1 DUP1 PUSH2 0x185D JUMP JUMPDEST DUP3 DUP5 ADD MLOAD DUP6 SSTORE DUP14 SWAP13 POP PUSH1 0x1 SWAP1 SWAP5 ADD SWAP4 SWAP3 DUP10 ADD SWAP3 DUP10 ADD PUSH2 0x1819 JUMP JUMPDEST DUP3 PUSH0 MSTORE DUP6 PUSH0 KECCAK256 PUSH1 0x1F DUP4 ADD PUSH1 0x5 SHR DUP2 ADD SWAP12 DUP8 DUP5 LT PUSH2 0x18D5 JUMPI JUMPDEST PUSH1 0x1F ADD PUSH1 0x5 SHR ADD SWAP11 JUMPDEST DUP12 DUP2 LT PUSH2 0x18CA JUMPI POP PUSH2 0x1758 JUMP JUMPDEST PUSH0 DUP2 SSTORE PUSH1 0x1 ADD PUSH2 0x18BD JUMP JUMPDEST SWAP1 SWAP12 POP DUP12 SWAP1 PUSH2 0x18B4 JUMP JUMPDEST PUSH1 0x40 MLOAD PUSH3 0x461BCD PUSH1 0xE5 SHL DUP2 MSTORE PUSH1 0x4 DUP2 ADD DUP5 SWAP1 MSTORE PUSH1 0x2E PUSH1 0x24 DUP3 ADD MSTORE PUSH32 0x45524337323155524953746F726167653A2055524920736574206F66206E6F6E PUSH1 0x44 DUP3 ADD MSTORE PUSH14 0x32BC34B9BA32B73A103A37B5B2B7 PUSH1 0x91 SHL PUSH1 0x64 DUP3 ADD MSTORE PUSH1 0x84 SWAP1 REVERT JUMPDEST PUSH1 0x64 DUP10 PUSH1 0x40 MLOAD SWAP1 PUSH3 0x461BCD PUSH1 0xE5 SHL DUP3 MSTORE DUP1 PUSH1 0x4 DUP4 ADD MSTORE PUSH1 0x24 DUP3 ADD MSTORE PUSH32 0x4552433732313A206D696E7420746F20746865207A65726F2061646472657373 PUSH1 0x44 DUP3 ADD MSTORE REVERT JUMPDEST POP SWAP3 SWAP2 POP POP PUSH2 0x198E SWAP3 SWAP4 POP PUSH2 0x1B52 JUMP JUMPDEST SWAP1 JUMP JUMPDEST SWAP1 POP PUSH0 MSTORE PUSH1 0xE PUSH1 0x20 MSTORE PUSH1 0xFF PUSH1 0x4 PUSH1 0x40 PUSH0 KECCAK256 ADD SLOAD AND PUSH0 PUSH2 0x1454 JUMP JUMPDEST PUSH1 0x40 MLOAD PUSH3 0x461BCD PUSH1 0xE5 SHL DUP2 MSTORE PUSH1 0x20 PUSH1 0x4 DUP3 ADD MSTORE PUSH1 0x10 PUSH1 0x24 DUP3 ADD MSTORE PUSH16 0x24B73B30B634B210323AB930BA34B7B7 PUSH1 0x81 SHL PUSH1 0x44 DUP3 ADD MSTORE PUSH1 0x64 SWAP1 REVERT JUMPDEST PUSH1 0x40 MLOAD PUSH3 0x461BCD PUSH1 0xE5 SHL DUP2 MSTORE PUSH1 0x20 PUSH1 0x4 DUP3 ADD MSTORE PUSH1 0x14 PUSH1 0x24 DUP3 ADD MSTORE PUSH20 0x125B9CDD59999A58DA595B9D081C185E5B595B9D PUSH1 0x62 SHL PUSH1 0x44 DUP3 ADD MSTORE PUSH1 0x64 SWAP1 REVERT JUMPDEST ISZERO PUSH2 0x1A26 JUMPI JUMP JUMPDEST PUSH1 0x40 MLOAD PUSH3 0x461BCD PUSH1 0xE5 SHL DUP2 MSTORE PUSH1 0x20 PUSH1 0x4 DUP3 ADD MSTORE PUSH1 0x18 PUSH1 0x24 DUP3 ADD MSTORE PUSH32 0x4552433732313A20696E76616C696420746F6B656E2049440000000000000000 PUSH1 0x44 DUP3 ADD MSTORE PUSH1 0x64 SWAP1 REVERT JUMPDEST PUSH0 SWAP1 DUP2 MSTORE PUSH1 0x2 PUSH1 0x20 MSTORE PUSH1 0x40 SWAP1 KECCAK256 SLOAD PUSH1 0x1 PUSH1 0x1 PUSH1 0xA0 SHL SUB AND PUSH2 0x198E DUP2 ISZERO ISZERO PUSH2 0x1A1F JUMP JUMPDEST PUSH1 0x1 PUSH1 0x1 PUSH1 0xA0 SHL SUB AND PUSH0 SWAP1 DUP2 MSTORE PUSH1 0xF PUSH1 0x20 MSTORE PUSH1 0x40 SWAP1 KECCAK256 SLOAD DUP1 ISZERO PUSH2 0x1B4B JUMPI PUSH0 MSTORE PUSH1 0xE PUSH1 0x20 MSTORE PUSH1 0x40 PUSH0 KECCAK256 SWAP1 PUSH1 0x40 MLOAD PUSH2 0x1AC2 DUP2 PUSH2 0x1164 JUMP JUMPDEST DUP3 SLOAD PUSH1 0x1 PUSH1 0x1 PUSH1 0xA0 SHL SUB DUP2 AND DUP3 MSTORE PUSH1 0x20 DUP3 ADD SWAP2 SWAP1 PUSH2 0x1AE6 SWAP1 PUSH1 0xA0 SHR PUSH1 0xFF AND DUP4 PUSH2 0x1247 JUMP JUMPDEST PUSH1 0x1 DUP5 ADD SLOAD PUSH1 0x40 DUP3 ADD MSTORE PUSH1 0x2 DUP5 ADD SLOAD PUSH1 0x60 DUP3 ADD MSTORE PUSH1 0x3 DUP5 ADD SLOAD SWAP1 DUP2 PUSH1 0x80 DUP3 ADD MSTORE PUSH1 0xE0 PUSH1 0x6 PUSH1 0xFF PUSH1 0x4 DUP9 ADD SLOAD AND ISZERO ISZERO SWAP7 DUP8 PUSH1 0xA0 DUP6 ADD MSTORE PUSH1 0x5 DUP2 ADD SLOAD PUSH1 0xC0 DUP6 ADD MSTORE ADD SLOAD SWAP2 ADD MSTORE DUP4 PUSH2 0x1B40 JUMPI JUMPDEST POP MLOAD SWAP2 PUSH1 0x3 DUP4 LT ISZERO PUSH2 0x779 JUMPI SWAP2 SWAP1 JUMP JUMPDEST TIMESTAMP GT ISZERO SWAP3 POP PUSH0 PUSH2 0x1B30 JUMP JUMPDEST POP PUSH0 SWAP1 PUSH0 SWAP1 JUMP JUMPDEST PUSH2 0x1B5A PUSH2 0x1C74 JUMP JUMPDEST PUSH2 0x1B62 PUSH2 0x1F39 JUMP JUMPDEST PUSH2 0x1B6A PUSH2 0x1F8F JUMP JUMPDEST PUSH1 0x1 PUSH1 0x1 PUSH1 0xA0 SHL SUB AND PUSH0 DUP2 DUP2 MSTORE PUSH1 0xF PUSH1 0x20 MSTORE PUSH1 0x40 SWAP1 KECCAK256 SLOAD SWAP2 SWAP1 DUP3 ISZERO PUSH2 0x1C3D JUMPI PUSH0 DUP4 DUP2 MSTORE PUSH1 0xE PUSH1 0x20 MSTORE PUSH1 0x40 SWAP1 KECCAK256 DUP1 SLOAD SWAP1 SWAP3 PUSH2 0x1BB2 SWAP1 PUSH2 0x17E4 PUSH1 0x1 PUSH1 0x1 PUSH1 0xA0 SHL SUB DUP5 AND DUP6 EQ PUSH2 0x13A7 JUMP JUMPDEST PUSH1 0x3 DUP5 ADD SWAP1 DUP2 SSTORE PUSH1 0x4 DUP5 ADD PUSH1 0x1 PUSH1 0xFF NOT DUP3 SLOAD AND OR SWAP1 SSTORE PUSH1 0x5 DUP5 ADD SWAP1 DUP2 SLOAD SWAP2 PUSH1 0x1 DUP4 ADD DUP1 SWAP4 GT PUSH2 0x13F5 JUMPI DUP7 SWAP6 PUSH1 0x6 PUSH2 0x1C17 PUSH1 0xFF PUSH32 0x844521BD3C7295DF35CA72576B1C04B6061D23891276D5C077CD73CBB3D31FC SWAP8 PUSH1 0x20 SWAP8 PUSH2 0x1C2D SWAP7 SSTORE PUSH1 0xA0 SHR AND PUSH2 0x114D JUMP JUMPDEST SLOAD SWAP2 ADD PUSH2 0x1C25 DUP3 DUP3 SLOAD PUSH2 0x13E8 JUMP JUMPDEST SWAP1 SSTORE DUP7 PUSH2 0x1FD3 JUMP JUMPDEST SLOAD PUSH1 0x40 MLOAD SWAP1 DUP2 MSTORE LOG3 PUSH1 0x1 PUSH1 0x8 SSTORE SWAP1 JUMP JUMPDEST PUSH1 0x40 MLOAD PUSH3 0x461BCD PUSH1 0xE5 SHL DUP2 MSTORE PUSH1 0x20 PUSH1 0x4 DUP3 ADD MSTORE PUSH1 0xF PUSH1 0x24 DUP3 ADD MSTORE PUSH15 0x27379039BAB139B1B934B83A34B7B7 PUSH1 0x89 SHL PUSH1 0x44 DUP3 ADD MSTORE PUSH1 0x64 SWAP1 REVERT JUMPDEST PUSH1 0x7 SLOAD PUSH1 0x1 PUSH1 0x1 PUSH1 0xA0 SHL SUB AND CALLER SUB PUSH2 0x1C88 JUMPI JUMP JUMPDEST PUSH1 0x64 PUSH1 0x40 MLOAD PUSH3 0x461BCD PUSH1 0xE5 SHL DUP2 MSTORE PUSH1 0x20 PUSH1 0x4 DUP3 ADD MSTORE PUSH1 0x20 PUSH1 0x24 DUP3 ADD MSTORE PUSH32 0x4F776E61626C653A2063616C6C6572206973206E6F7420746865206F776E6572 PUSH1 0x44 DUP3 ADD MSTORE REVERT JUMPDEST SWAP1 PUSH1 0x1 PUSH1 0x1 PUSH1 0xA0 SHL SUB PUSH2 0x1CDE DUP3 PUSH2 0x1A6B JUMP JUMPDEST PUSH1 0x1 PUSH1 0x1 PUSH1 0xA0 SHL SUB SWAP1 SWAP4 AND SWAP3 AND DUP3 DUP2 EQ SWAP3 SWAP2 SWAP1 DUP4 ISZERO PUSH2 0x1D1E JUMPI JUMPDEST POP DUP3 ISZERO PUSH2 0x1D04 JUMPI POP POP SWAP1 JUMP JUMPDEST SWAP1 SWAP2 POP PUSH1 0x1 PUSH1 0x1 PUSH1 0xA0 SHL SUB SWAP1 PUSH2 0x1D19 SWAP1 PUSH2 0x120B JUMP JUMPDEST AND EQ SWAP1 JUMP JUMPDEST SWAP1 SWAP3 POP PUSH0 MSTORE PUSH1 0x5 PUSH1 0x20 MSTORE PUSH1 0x40 PUSH0 KECCAK256 DUP2 PUSH0 MSTORE PUSH1 0x20 MSTORE PUSH1 0xFF PUSH1 0x40 PUSH0 KECCAK256 SLOAD AND SWAP2 PUSH0 PUSH2 0x1CF8 JUMP JUMPDEST ISZERO PUSH2 0x1D48 JUMPI JUMP JUMPDEST PUSH1 0x40 MLOAD PUSH3 0x461BCD PUSH1 0xE5 SHL DUP2 MSTORE PUSH1 0x20 PUSH1 0x4 DUP3 ADD MSTORE PUSH1 0x25 PUSH1 0x24 DUP3 ADD MSTORE PUSH32 0x4552433732313A207472616E736665722066726F6D20696E636F727265637420 PUSH1 0x44 DUP3 ADD MSTORE PUSH5 0x37BBB732B9 PUSH1 0xD9 SHL PUSH1 0x64 DUP3 ADD MSTORE PUSH1 0x84 SWAP1 REVERT JUMPDEST SWAP1 PUSH2 0x1DBC PUSH2 0x1DA8 DUP5 PUSH2 0x1A6B JUMP JUMPDEST PUSH1 0x1 PUSH1 0x1 PUSH1 0xA0 SHL SUB SWAP4 DUP5 AND SWAP4 AND DUP4 EQ PUSH2 0x1D41 JUMP JUMPDEST PUSH1 0x1 PUSH1 0x1 PUSH1 0xA0 SHL SUB AND SWAP1 DUP2 ISZERO DUP1 PUSH2 0x1EE8 JUMPI PUSH2 0x1DD5 PUSH2 0x1F8F JUMP JUMPDEST DUP2 ISZERO ISZERO SWAP1 DUP2 PUSH2 0x1EDF JUMPI JUMPDEST POP PUSH2 0x1E87 JUMPI JUMPDEST PUSH2 0x1E01 DUP2 PUSH1 0x1 PUSH1 0x1 PUSH1 0xA0 SHL SUB PUSH2 0x1DFA DUP7 PUSH2 0x1A6B JUMP JUMPDEST AND EQ PUSH2 0x1D41 JUMP JUMPDEST DUP3 PUSH0 MSTORE PUSH1 0x4 PUSH1 0x20 MSTORE PUSH1 0x40 PUSH0 KECCAK256 PUSH1 0x1 PUSH1 0x1 PUSH1 0x60 SHL SUB PUSH1 0xA0 SHL DUP2 SLOAD AND SWAP1 SSTORE DUP1 PUSH0 MSTORE PUSH1 0x3 PUSH1 0x20 MSTORE PUSH1 0x40 PUSH0 KECCAK256 PUSH0 NOT DUP2 SLOAD ADD SWAP1 SSTORE DUP2 PUSH0 MSTORE PUSH1 0x3 PUSH1 0x20 MSTORE PUSH1 0x40 PUSH0 KECCAK256 PUSH1 0x1 DUP2 SLOAD ADD SWAP1 SSTORE DUP3 PUSH0 MSTORE PUSH1 0x2 PUSH1 0x20 MSTORE PUSH1 0x40 PUSH0 KECCAK256 DUP3 PUSH1 0x1 PUSH1 0x1 PUSH1 0x60 SHL SUB PUSH1 0xA0 SHL DUP3 SLOAD AND OR SWAP1 SSTORE PUSH32 0xDDF252AD1BE2C89B69C2B068FC378DAA952BA7F163C4A11628F55A4DF523B3EF PUSH0 DUP1 LOG4 JUMP JUMPDEST DUP1 PUSH0 MSTORE PUSH1 0xF PUSH1 0x20 MSTORE DUP3 PUSH1 0x40 PUSH0 KECCAK256 SLOAD EQ PUSH2 0x1ECC JUMPI JUMPDEST DUP2 PUSH0 MSTORE PUSH1 0xF PUSH1 0x20 MSTORE DUP3 PUSH1 0x40 PUSH0 KECCAK256 SSTORE DUP3 PUSH0 MSTORE PUSH1 0xE PUSH1 0x20 MSTORE PUSH1 0x40 PUSH0 KECCAK256 DUP3 PUSH1 0x1 PUSH1 0x1 PUSH1 0x60 SHL SUB PUSH1 0xA0 SHL DUP3 SLOAD AND OR SWAP1 SSTORE PUSH2 0x1DE5 JUMP JUMPDEST DUP1 PUSH0 MSTORE PUSH1 0xF PUSH1 0x20 MSTORE PUSH0 PUSH1 0x40 DUP2 KECCAK256 SSTORE PUSH2 0x1E9B JUMP JUMPDEST SWAP1 POP ISZERO PUSH0 PUSH2 0x1DDF JUMP JUMPDEST PUSH1 0x40 MLOAD PUSH3 0x461BCD PUSH1 0xE5 SHL DUP2 MSTORE PUSH1 0x20 PUSH1 0x4 DUP3 ADD MSTORE PUSH1 0x24 DUP1 DUP3 ADD MSTORE PUSH32 0x4552433732313A207472616E7366657220746F20746865207A65726F20616464 PUSH1 0x44 DUP3 ADD MSTORE PUSH4 0x72657373 PUSH1 0xE0 SHL PUSH1 0x64 DUP3 ADD MSTORE PUSH1 0x84 SWAP1 REVERT JUMPDEST PUSH1 0x2 PUSH1 0x8 SLOAD EQ PUSH2 0x1F4A JUMPI PUSH1 0x2 PUSH1 0x8 SSTORE JUMP JUMPDEST PUSH1 0x40 MLOAD PUSH3 0x461BCD PUSH1 0xE5 SHL DUP2 MSTORE PUSH1 0x20 PUSH1 0x4 DUP3 ADD MSTORE PUSH1 0x1F PUSH1 0x24 DUP3 ADD MSTORE PUSH32 0x5265656E7472616E637947756172643A207265656E7472616E742063616C6C00 PUSH1 0x44 DUP3 ADD MSTORE PUSH1 0x64 SWAP1 REVERT JUMPDEST PUSH1 0xFF PUSH1 0x9 SLOAD AND PUSH2 0x1F9B JUMPI JUMP JUMPDEST PUSH1 0x40 MLOAD PUSH3 0x461BCD PUSH1 0xE5 SHL DUP2 MSTORE PUSH1 0x20 PUSH1 0x4 DUP3 ADD MSTORE PUSH1 0x10 PUSH1 0x24 DUP3 ADD MSTORE PUSH16 0x14185D5CD8589B194E881C185D5CD959 PUSH1 0x82 SHL PUSH1 0x44 DUP3 ADD MSTORE PUSH1 0x64 SWAP1 REVERT JUMPDEST PUSH2 0xBB8 DUP3 MUL SWAP2 DUP1 ISZERO SWAP1 DUP1 DUP5 DIV PUSH2 0xBB8 EQ DUP3 OR ISZERO PUSH2 0x13F5 JUMPI PUSH2 0x157C DUP2 MUL SWAP4 DUP2 DUP6 DIV PUSH2 0x157C EQ DUP4 OR ISZERO PUSH2 0x13F5 JUMPI PUSH2 0x320 DUP3 MUL DUP3 DUP2 DIV PUSH2 0x320 EQ DUP5 OR ISZERO PUSH2 0x13F5 JUMPI PUSH2 0x2710 SWAP1 DIV SWAP5 PUSH2 0x190 DUP4 MUL SWAP4 DUP4 DUP6 DIV PUSH2 0x190 EQ OR ISZERO PUSH2 0x13F5 JUMPI PUSH32 0xE17236F5DCCCEF76CCCAD15F0166F36D9333AA7D06E532F9EA301A301DE068FC SWAP4 PUSH2 0x2710 DUP1 SWAP3 PUSH1 0x80 SWAP6 DUP9 PUSH0 MSTORE PUSH1 0xE PUSH1 0x20 MSTORE PUSH1 0x1 DUP1 PUSH1 0xA0 SHL SUB PUSH1 0x40 PUSH0 KECCAK256 SLOAD AND PUSH0 MSTORE PUSH1 0x10 PUSH1 0x20 MSTORE PUSH2 0x207F PUSH1 0x40 PUSH0 KECCAK256 SWAP2 DUP3 SLOAD PUSH2 0x13E8 JUMP JUMPDEST SWAP1 SSTORE DUP2 PUSH1 0x40 MLOAD SWAP6 DIV DUP6 MSTORE DIV PUSH1 0x20 DUP5 ADD MSTORE DUP7 PUSH1 0x40 DUP5 ADD MSTORE DIV PUSH1 0x60 DUP3 ADD MSTORE LOG2 DUP1 ISZERO DUP1 ISZERO PUSH2 0x20A8 JUMPI POP POP JUMP JUMPDEST PUSH2 0x2710 DUP3 MUL SWAP2 DUP3 DIV PUSH2 0x2710 EQ OR ISZERO PUSH2 0x13F5 JUMPI PUSH1 0xC SLOAD PUSH1 0xD SLOAD PUSH1 0x40 MLOAD PUSH4 0xA9059CBB PUSH1 0xE0 SHL DUP2 MSTORE PUSH1 0x1 PUSH1 0x1 PUSH1 0xA0 SHL SUB SWAP2 DUP3 AND PUSH1 0x4 DUP3 ADD MSTORE PUSH1 0x24 DUP2 ADD DUP5 SWAP1 MSTORE SWAP2 PUSH1 0x20 SWAP2 DUP4 SWAP2 PUSH1 0x44 SWAP2 DUP4 SWAP2 PUSH0 SWAP2 AND GAS CALL SWAP1 DUP2 ISZERO PUSH2 0x2154 JUMPI PUSH0 SWAP2 PUSH2 0x219B JUMPI JUMPDEST POP ISZERO PUSH2 0x215F JUMPI PUSH1 0xD SLOAD PUSH1 0x1 PUSH1 0x1 PUSH1 0xA0 SHL SUB AND SWAP1 DUP2 EXTCODESIZE ISZERO PUSH2 0x1FB JUMPI PUSH0 SWAP2 PUSH1 0x24 DUP4 SWAP3 PUSH1 0x40 MLOAD SWAP5 DUP6 SWAP4 DUP5 SWAP3 PUSH4 0xFA86F649 PUSH1 0xE0 SHL DUP5 MSTORE PUSH1 0x4 DUP5 ADD MSTORE GAS CALL DUP1 ISZERO PUSH2 0x2154 JUMPI PUSH2 0x2148 JUMPI POP JUMP JUMPDEST PUSH0 PUSH2 0x2152 SWAP2 PUSH2 0x1195 JUMP JUMPDEST JUMP JUMPDEST PUSH1 0x40 MLOAD RETURNDATASIZE PUSH0 DUP3 RETURNDATACOPY RETURNDATASIZE SWAP1 REVERT JUMPDEST PUSH1 0x40 MLOAD PUSH3 0x461BCD PUSH1 0xE5 SHL DUP2 MSTORE PUSH1 0x20 PUSH1 0x4 DUP3 ADD MSTORE PUSH1 0x14 PUSH1 0x24 DUP3 ADD MSTORE PUSH20 0x1554D110C81D1C985B9CD9995C8819985A5B1959 PUSH1 0x62 SHL PUSH1 0x44 DUP3 ADD MSTORE PUSH1 0x64 SWAP1 REVERT JUMPDEST SWAP1 POP PUSH1 0x20 DUP2 RETURNDATASIZE PUSH1 0x20 GT PUSH2 0x21CE JUMPI JUMPDEST DUP2 PUSH2 0x21B6 PUSH1 0x20 SWAP4 DUP4 PUSH2 0x1195 JUMP JUMPDEST DUP2 ADD SUB SLT PUSH2 0x1FB JUMPI MLOAD DUP1 ISZERO ISZERO DUP2 SUB PUSH2 0x1FB JUMPI PUSH0 PUSH2 0x2102 JUMP JUMPDEST RETURNDATASIZE SWAP2 POP PUSH2 0x21A9 JUMP JUMPDEST PUSH1 0x80 SWAP1 PUSH1 0x20 DUP2 MSTORE PUSH1 0x32 PUSH1 0x20 DUP3 ADD MSTORE PUSH32 0x4552433732313A207472616E7366657220746F206E6F6E204552433732315265 PUSH1 0x40 DUP3 ADD MSTORE PUSH18 0x31B2B4BB32B91034B6B83632B6B2B73A32B9 PUSH1 0x71 SHL PUSH1 0x60 DUP3 ADD MSTORE ADD SWAP1 JUMP JUMPDEST ISZERO PUSH2 0x2230 JUMPI JUMP JUMPDEST PUSH1 0x40 MLOAD PUSH3 0x461BCD PUSH1 0xE5 SHL DUP2 MSTORE DUP1 PUSH2 0x2249 PUSH1 0x4 DUP3 ADD PUSH2 0x21D6 JUMP JUMPDEST SUB SWAP1 REVERT JUMPDEST PUSH0 DUP2 DUP2 MSTORE PUSH1 0x2 PUSH1 0x20 MSTORE PUSH1 0x40 SWAP1 KECCAK256 SLOAD PUSH2 0x226F SWAP1 PUSH1 0x1 PUSH1 0x1 PUSH1 0xA0 SHL SUB AND ISZERO ISZERO PUSH2 0x1A1F JUMP JUMPDEST PUSH0 MSTORE PUSH1 0x6 PUSH1 0x20 MSTORE PUSH1 0x40 PUSH0 KECCAK256 PUSH1 0x40 MLOAD SWAP1 DUP2 PUSH0 DUP3 SLOAD SWAP3 PUSH2 0x228C DUP5 PUSH2 0x11D3 JUMP JUMPDEST DUP1 DUP5 MSTORE SWAP4 PUSH1 0x1 DUP2 AND SWAP1 DUP2 ISZERO PUSH2 0x2308 JUMPI POP PUSH1 0x1 EQ PUSH2 0x22C4 JUMPI JUMPDEST POP PUSH2 0x22B1 SWAP3 POP SUB DUP3 PUSH2 0x1195 JUMP JUMPDEST PUSH0 PUSH1 0x40 MLOAD PUSH2 0x22C0 PUSH1 0x20 DUP3 PUSH2 0x1195 JUMP JUMPDEST MSTORE SWAP1 JUMP JUMPDEST SWAP1 POP PUSH0 SWAP3 SWAP2 SWAP3 MSTORE PUSH1 0x20 PUSH0 KECCAK256 SWAP1 PUSH0 SWAP2 JUMPDEST DUP2 DUP4 LT PUSH2 0x22EC JUMPI POP POP SWAP1 PUSH1 0x20 PUSH2 0x22B1 SWAP3 DUP3 ADD ADD PUSH0 PUSH2 0x22A4 JUMP JUMPDEST PUSH1 0x20 SWAP2 SWAP4 POP DUP1 PUSH1 0x1 SWAP2 SLOAD DUP4 DUP6 DUP9 ADD ADD MSTORE ADD SWAP2 ADD SWAP1 SWAP2 DUP4 SWAP3 PUSH2 0x22D3 JUMP JUMPDEST SWAP1 POP PUSH1 0x20 SWAP3 POP PUSH2 0x22B1 SWAP5 SWAP2 POP PUSH1 0xFF NOT AND DUP3 DUP5 ADD MSTORE ISZERO ISZERO PUSH1 0x5 SHL DUP3 ADD ADD PUSH0 PUSH2 0x22A4 JUMP JUMPDEST PUSH1 0x3 DUP2 LT ISZERO PUSH2 0x779 JUMPI DUP1 ISZERO PUSH2 0x23B8 JUMPI PUSH1 0x1 DUP2 EQ PUSH2 0x2392 JUMPI PUSH1 0x2 EQ PUSH2 0x236D JUMPI PUSH1 0x40 MLOAD PUSH2 0x2356 PUSH1 0x40 DUP3 PUSH2 0x1195 JUMP JUMPDEST PUSH1 0x7 DUP2 MSTORE PUSH7 0x2AB735B737BBB7 PUSH1 0xC9 SHL PUSH1 0x20 DUP3 ADD MSTORE SWAP1 JUMP JUMPDEST PUSH1 0x40 MLOAD PUSH2 0x237B PUSH1 0x40 DUP3 PUSH2 0x1195 JUMP JUMPDEST PUSH1 0x7 DUP2 MSTORE PUSH7 0x21B932B0BA37B9 PUSH1 0xC9 SHL PUSH1 0x20 DUP3 ADD MSTORE SWAP1 JUMP JUMPDEST POP PUSH1 0x40 MLOAD PUSH2 0x23A1 PUSH1 0x40 DUP3 PUSH2 0x1195 JUMP JUMPDEST PUSH1 0x7 DUP2 MSTORE PUSH7 0x5072656D69756D PUSH1 0xC8 SHL PUSH1 0x20 DUP3 ADD MSTORE SWAP1 JUMP JUMPDEST POP PUSH1 0x40 MLOAD PUSH2 0x23C7 PUSH1 0x40 DUP3 PUSH2 0x1195 JUMP JUMPDEST PUSH1 0x5 DUP2 MSTORE PUSH5 0x4261736963 PUSH1 0xD8 SHL PUSH1 0x20 DUP3 ADD MSTORE SWAP1 JUMP JUMPDEST DUP1 PUSH0 SWAP2 PUSH19 0x184F03E93FF9F4DAA797ED6E38ED64BF6A1F01 PUSH1 0x40 SHL DUP3 LT ISZERO PUSH2 0x2526 JUMPI JUMPDEST DUP1 PUSH14 0x4EE2D6D415B85ACEF8100000000 PUSH1 0xA SWAP3 LT ISZERO PUSH2 0x250B JUMPI JUMPDEST PUSH7 0x2386F26FC10000 DUP2 LT ISZERO PUSH2 0x24F7 JUMPI JUMPDEST PUSH4 0x5F5E100 DUP2 LT ISZERO PUSH2 0x24E6 JUMPI JUMPDEST PUSH2 0x2710 DUP2 LT ISZERO PUSH2 0x24D7 JUMPI JUMPDEST PUSH1 0x64 DUP2 LT ISZERO PUSH2 0x24C9 JUMPI JUMPDEST LT ISZERO PUSH2 0x24BE JUMPI JUMPDEST PUSH1 0xA PUSH1 0x21 PUSH1 0x1 DUP5 ADD SWAP4 PUSH2 0x2463 DUP6 PUSH2 0x11B7 JUMP JUMPDEST SWAP5 PUSH2 0x2471 PUSH1 0x40 MLOAD SWAP7 DUP8 PUSH2 0x1195 JUMP JUMPDEST DUP1 DUP7 MSTORE PUSH2 0x2480 PUSH1 0x1F NOT SWAP2 PUSH2 0x11B7 JUMP JUMPDEST ADD CALLDATASIZE PUSH1 0x20 DUP8 ADD CALLDATACOPY DUP5 ADD ADD JUMPDEST PUSH0 NOT ADD SWAP2 PUSH16 0x181899199A1A9B1B9C1CB0B131B232B3 PUSH1 0x81 SHL DUP3 DUP3 MOD BYTE DUP4 MSTORE8 DIV DUP1 ISZERO PUSH2 0x24B9 JUMPI PUSH1 0xA SWAP1 SWAP2 PUSH2 0x248B JUMP JUMPDEST POP POP SWAP1 JUMP JUMPDEST PUSH1 0x1 SWAP1 SWAP2 ADD SWAP1 PUSH2 0x2451 JUMP JUMPDEST PUSH1 0x64 PUSH1 0x2 SWAP2 DIV SWAP4 ADD SWAP3 PUSH2 0x244A JUMP JUMPDEST PUSH2 0x2710 PUSH1 0x4 SWAP2 DIV SWAP4 ADD SWAP3 PUSH2 0x2440 JUMP JUMPDEST PUSH4 0x5F5E100 PUSH1 0x8 SWAP2 DIV SWAP4 ADD SWAP3 PUSH2 0x2435 JUMP JUMPDEST PUSH7 0x2386F26FC10000 PUSH1 0x10 SWAP2 DIV SWAP4 ADD SWAP3 PUSH2 0x2428 JUMP JUMPDEST PUSH14 0x4EE2D6D415B85ACEF8100000000 PUSH1 0x20 SWAP2 DIV SWAP4 ADD SWAP3 PUSH2 0x2418 JUMP JUMPDEST POP PUSH1 0x40 SWAP2 POP PUSH19 0x184F03E93FF9F4DAA797ED6E38ED64BF6A1F01 PUSH1 0x40 SHL DUP2 DIV PUSH2 0x23FE JUMP JUMPDEST SWAP2 DUP3 EXTCODESIZE ISZERO PUSH2 0x2658 JUMPI PUSH2 0x258E SWAP3 PUSH1 0x20 SWAP3 PUSH0 PUSH1 0x40 MLOAD DUP1 SWAP7 DUP2 SWAP6 DUP3 SWAP5 PUSH4 0xA85BD01 PUSH1 0xE1 SHL DUP5 MSTORE CALLER PUSH1 0x4 DUP6 ADD MSTORE DUP5 PUSH1 0x24 DUP6 ADD MSTORE PUSH1 0x44 DUP5 ADD MSTORE PUSH1 0x80 PUSH1 0x64 DUP5 ADD MSTORE PUSH1 0x84 DUP4 ADD SWAP1 PUSH2 0x1069 JUMP JUMPDEST SUB SWAP3 PUSH1 0x1 PUSH1 0x1 PUSH1 0xA0 SHL SUB AND GAS CALL PUSH0 SWAP2 DUP2 PUSH2 0x2613 JUMPI JUMPDEST POP PUSH2 0x25FD JUMPI RETURNDATASIZE ISZERO PUSH2 0x25F6 JUMPI RETURNDATASIZE PUSH2 0x25B8 DUP2 PUSH2 0x11B7 JUMP JUMPDEST SWAP1 PUSH2 0x25C6 PUSH1 0x40 MLOAD SWAP3 DUP4 PUSH2 0x1195 JUMP JUMPDEST DUP2 MSTORE RETURNDATASIZE PUSH0 PUSH1 0x20 DUP4 ADD RETURNDATACOPY JUMPDEST DUP1 MLOAD SWAP1 DUP2 PUSH2 0x25F1 JUMPI PUSH1 0x40 MLOAD PUSH3 0x461BCD PUSH1 0xE5 SHL DUP2 MSTORE DUP1 PUSH2 0x2249 PUSH1 0x4 DUP3 ADD PUSH2 0x21D6 JUMP JUMPDEST PUSH1 0x20 ADD REVERT JUMPDEST PUSH1 0x60 PUSH2 0x25D0 JUMP JUMPDEST PUSH1 0x1 PUSH1 0x1 PUSH1 0xE0 SHL SUB NOT AND PUSH4 0xA85BD01 PUSH1 0xE1 SHL EQ SWAP1 JUMP JUMPDEST SWAP1 SWAP2 POP PUSH1 0x20 DUP2 RETURNDATASIZE PUSH1 0x20 GT PUSH2 0x2650 JUMPI JUMPDEST DUP2 PUSH2 0x262F PUSH1 0x20 SWAP4 DUP4 PUSH2 0x1195 JUMP JUMPDEST DUP2 ADD SUB SLT PUSH2 0x1FB JUMPI MLOAD PUSH1 0x1 PUSH1 0x1 PUSH1 0xE0 SHL SUB NOT DUP2 AND DUP2 SUB PUSH2 0x1FB JUMPI SWAP1 PUSH0 PUSH2 0x25A3 JUMP JUMPDEST RETURNDATASIZE SWAP2 POP PUSH2 0x2622 JUMP JUMPDEST POP POP POP PUSH1 0x1 SWAP1 JUMP JUMPDEST SWAP2 SWAP3 SWAP1 DUP1 EXTCODESIZE ISZERO PUSH2 0x26AF JUMPI PUSH2 0x258E SWAP4 PUSH0 PUSH1 0x20 SWAP5 PUSH1 0x40 MLOAD SWAP7 DUP8 SWAP6 DUP7 SWAP5 DUP6 SWAP4 PUSH4 0xA85BD01 PUSH1 0xE1 SHL DUP6 MSTORE CALLER PUSH1 0x4 DUP7 ADD MSTORE PUSH1 0x1 DUP1 PUSH1 0xA0 SHL SUB AND PUSH1 0x24 DUP6 ADD MSTORE PUSH1 0x44 DUP5 ADD MSTORE PUSH1 0x80 PUSH1 0x64 DUP5 ADD MSTORE PUSH1 0x84 DUP4 ADD SWAP1 PUSH2 0x1069 JUMP JUMPDEST POP POP POP POP PUSH1 0x1 SWAP1 JUMP JUMPDEST ISZERO PUSH2 0x26BF JUMPI JUMP JUMPDEST PUSH1 0x40 MLOAD PUSH3 0x461BCD PUSH1 0xE5 SHL DUP2 MSTORE PUSH1 0x20 PUSH1 0x4 DUP3 ADD MSTORE PUSH1 0x1C PUSH1 0x24 DUP3 ADD MSTORE PUSH32 0x4552433732313A20746F6B656E20616C7265616479206D696E74656400000000 PUSH1 0x44 DUP3 ADD MSTORE PUSH1 0x64 SWAP1 REVERT INVALID LOG2 PUSH5 0x6970667358 0x22 SLT KECCAK256 0xE 0xB2 0x2B PUSH13 0xCECEC2050E0C6820B75325B737 0xCC PUSH32 0x51E5290E136DBEFF93DEA4C0EF64736F6C634300081C00330000000000000000 "},"methodIdentifiers":{"CREATOR_REVENUE_SHARE()":"0d18ea81","PLATFORM_OPERATIONS()":"0546c096","PLATFORM_RESERVE()":"f7a17247","STC_BUYBACK()":"ea22d750","USER_REWARDS()":"7498d11b","approve(address,uint256)":"095ea7b3","balanceOf(address)":"70a08231","cancelSubscription(uint256)":"21235083","creatorRevenuePool()":"e29fc365","getApproved(uint256)":"081812fc","getSubscriptionDetails(uint256)":"9cd3ef80","getSubscriptionStatus(address)":"1ddda9b6","hasActiveSubscription(address)":"bebe4a57","isApprovedForAll(address,address)":"e985e9c5","mintSubscription(address,uint8,uint256,uint256)":"3eeb1068","name()":"06fdde03","owner()":"8da5cb5b","ownerOf(uint256)":"6352211e","pause()":"8456cb59","paused()":"5c975abb","platformTreasury()":"e138818c","renewSubscription(address,uint256)":"e25b4995","renounceOwnership()":"715018a6","safeTransferFrom(address,address,uint256)":"42842e0e","safeTransferFrom(address,address,uint256,bytes)":"b88d4fde","setApprovalForAll(address,bool)":"a22cb465","stcToken()":"f2792c23","subscriptionPricing(uint8)":"3acbaa97","subscriptions(uint256)":"2d5bbf60","supportsInterface(bytes4)":"01ffc9a7","symbol()":"95d89b41","tokenAMM()":"cb31c6f9","tokenURI(uint256)":"c87b56dd","totalUserRevenue(address)":"a277177e","transferFrom(address,address,uint256)":"23b872dd","transferOwnership(address)":"f2fde38b","unpause()":"3f4ba83a","updateSubscriptionPricing(uint8,uint256)":"43c0019d","usdcToken()":"11eac855","userRewardPool()":"51bc1035","userSubscriptionTokenId(address)":"d0b23891"}}}}}