{"project/contracts/CreatorPayments.sol":{"CreatorPayments":{"abi":[{"inputs":[{"internalType":"address","name":"_stcToken","type":"address"},{"internalType":"address","name":"_usdcToken","type":"address"},{"internalType":"address","name":"_platformTreasury","type":"address"},{"internalType":"address","name":"_usdcTreasury","type":"address"},{"internalType":"address","name":"_tokenAMM","type":"address"}],"stateMutability":"nonpayable","type":"constructor"},{"anonymous":false,"inputs":[{"indexed":true,"internalType":"address","name":"creator","type":"address"},{"indexed":false,"internalType":"enum CreatorPayments.CreatorTier","name":"tier","type":"uint8"},{"indexed":false,"internalType":"enum CreatorPayments.PaymentMethod","name":"method","type":"uint8"}],"name":"CreatorRegistered","type":"event"},{"anonymous":false,"inputs":[{"indexed":true,"internalType":"address","name":"creator","type":"address"},{"indexed":false,"internalType":"enum CreatorPayments.CreatorTier","name":"oldTier","type":"uint8"},{"indexed":false,"internalType":"enum CreatorPayments.CreatorTier","name":"newTier","type":"uint8"}],"name":"CreatorTierUpdated","type":"event"},{"anonymous":false,"inputs":[{"indexed":true,"internalType":"address","name":"creator","type":"address"},{"indexed":false,"internalType":"uint256","name":"amount","type":"uint256"}],"name":"FiatPaymentQueued","type":"event"},{"anonymous":false,"inputs":[{"indexed":true,"internalType":"address","name":"previousOwner","type":"address"},{"indexed":true,"internalType":"address","name":"newOwner","type":"address"}],"name":"OwnershipTransferred","type":"event"},{"anonymous":false,"inputs":[{"indexed":false,"internalType":"address","name":"account","type":"address"}],"name":"Paused","type":"event"},{"anonymous":false,"inputs":[{"indexed":true,"internalType":"address","name":"creator","type":"address"},{"indexed":false,"internalType":"enum CreatorPayments.PaymentMethod","name":"method","type":"uint8"}],"name":"PaymentMethodUpdated","type":"event"},{"anonymous":false,"inputs":[{"indexed":true,"internalType":"address","name":"creator","type":"address"},{"indexed":false,"internalType":"uint256","name":"amount","type":"uint256"},{"indexed":false,"internalType":"string","name":"paymentType","type":"string"}],"name":"PaymentProcessed","type":"event"},{"anonymous":false,"inputs":[{"indexed":true,"internalType":"uint256","name":"contentId","type":"uint256"},{"indexed":true,"internalType":"address","name":"creator","type":"address"},{"indexed":false,"internalType":"uint256","name":"amount","type":"uint256"}],"name":"RevenueRecorded","type":"event"},{"anonymous":false,"inputs":[{"indexed":false,"internalType":"address","name":"account","type":"address"}],"name":"Unpaused","type":"event"},{"inputs":[{"internalType":"uint256","name":"","type":"uint256"}],"name":"contentRevenues","outputs":[{"internalType":"uint256","name":"contentId","type":"uint256"},{"internalType":"address","name":"creator","type":"address"},{"internalType":"uint256","name":"totalRevenue","type":"uint256"},{"internalType":"uint256","name":"creatorShare","type":"uint256"},{"internalType":"uint256","name":"paidAmount","type":"uint256"},{"internalType":"bool","name":"isFullyPaid","type":"bool"},{"internalType":"uint256","name":"timestamp","type":"uint256"}],"stateMutability":"view","type":"function"},{"inputs":[{"internalType":"address","name":"","type":"address"},{"internalType":"uint256","name":"","type":"uint256"}],"name":"creatorContentIds","outputs":[{"internalType":"uint256","name":"","type":"uint256"}],"stateMutability":"view","type":"function"},{"inputs":[{"internalType":"address","name":"","type":"address"}],"name":"creatorProfiles","outputs":[{"internalType":"address","name":"creatorAddress","type":"address"},{"internalType":"enum CreatorPayments.CreatorTier","name":"tier","type":"uint8"},{"internalType":"enum CreatorPayments.PaymentMethod","name":"paymentMethod","type":"uint8"},{"internalType":"uint256","name":"fiatPercentage","type":"uint256"},{"internalType":"uint256","name":"usdcPercentage","type":"uint256"},{"internalType":"uint256","name":"stcPercentage","type":"uint256"},{"internalType":"bool","name":"isActive","type":"bool"},{"internalType":"uint256","name":"totalEarnings","type":"uint256"},{"internalType":"uint256","name":"lastPayoutTime","type":"uint256"},{"internalType":"string","name":"bankDetails","type":"string"}],"stateMutability":"view","type":"function"},{"inputs":[{"internalType":"address","name":"creator","type":"address"}],"name":"deactivateCreator","outputs":[],"stateMutability":"nonpayable","type":"function"},{"inputs":[{"internalType":"address","name":"token","type":"address"},{"internalType":"uint256","name":"amount","type":"uint256"}],"name":"emergencyWithdraw","outputs":[],"stateMutability":"nonpayable","type":"function"},{"inputs":[{"internalType":"uint256","name":"contentId","type":"uint256"}],"name":"getContentRevenue","outputs":[{"internalType":"address","name":"creator","type":"address"},{"internalType":"uint256","name":"totalRevenue","type":"uint256"},{"internalType":"uint256","name":"creatorShare","type":"uint256"},{"internalType":"uint256","name":"paidAmount","type":"uint256"},{"internalType":"bool","name":"isFullyPaid","type":"bool"}],"stateMutability":"view","type":"function"},{"inputs":[{"internalType":"address","name":"creator","type":"address"}],"name":"getCreatorContentIds","outputs":[{"internalType":"uint256[]","name":"","type":"uint256[]"}],"stateMutability":"view","type":"function"},{"inputs":[{"internalType":"address","name":"creator","type":"address"}],"name":"getCreatorProfile","outputs":[{"components":[{"internalType":"enum CreatorPayments.CreatorTier","name":"tier","type":"uint8"},{"internalType":"enum CreatorPayments.PaymentMethod","name":"paymentMethod","type":"uint8"},{"internalType":"uint256","name":"fiatPct","type":"uint256"},{"internalType":"uint256","name":"usdcPct","type":"uint256"},{"internalType":"uint256","name":"stcPct","type":"uint256"},{"internalType":"uint256","name":"totalEarnings","type":"uint256"},{"internalType":"uint256","name":"pendingAmount","type":"uint256"},{"internalType":"bool","name":"isActive","type":"bool"}],"internalType":"struct CreatorPayments.CreatorProfileView","name":"","type":"tuple"}],"stateMutability":"view","type":"function"},{"inputs":[],"name":"minimumPayoutAmount","outputs":[{"internalType":"uint256","name":"","type":"uint256"}],"stateMutability":"view","type":"function"},{"inputs":[],"name":"owner","outputs":[{"internalType":"address","name":"","type":"address"}],"stateMutability":"view","type":"function"},{"inputs":[],"name":"pause","outputs":[],"stateMutability":"nonpayable","type":"function"},{"inputs":[],"name":"paused","outputs":[{"internalType":"bool","name":"","type":"bool"}],"stateMutability":"view","type":"function"},{"inputs":[{"internalType":"address","name":"","type":"address"}],"name":"pendingPayments","outputs":[{"internalType":"uint256","name":"","type":"uint256"}],"stateMutability":"view","type":"function"},{"inputs":[],"name":"platformTreasury","outputs":[{"internalType":"address","name":"","type":"address"}],"stateMutability":"view","type":"function"},{"inputs":[{"internalType":"address","name":"creator","type":"address"}],"name":"processCreatorPayment","outputs":[],"stateMutability":"nonpayable","type":"function"},{"inputs":[{"internalType":"uint256","name":"contentId","type":"uint256"},{"internalType":"address","name":"creator","type":"address"},{"internalType":"uint256","name":"totalRevenue","type":"uint256"}],"name":"recordContentRevenue","outputs":[],"stateMutability":"nonpayable","type":"function"},{"inputs":[{"internalType":"address","name":"creator","type":"address"},{"internalType":"enum CreatorPayments.CreatorTier","name":"tier","type":"uint8"},{"internalType":"enum CreatorPayments.PaymentMethod","name":"paymentMethod","type":"uint8"},{"internalType":"uint256","name":"fiatPct","type":"uint256"},{"internalType":"uint256","name":"usdcPct","type":"uint256"},{"internalType":"uint256","name":"stcPct","type":"uint256"}],"name":"registerCreator","outputs":[],"stateMutability":"nonpayable","type":"function"},{"inputs":[],"name":"renounceOwnership","outputs":[],"stateMutability":"nonpayable","type":"function"},{"inputs":[],"name":"stcToken","outputs":[{"internalType":"contract StudioToken","name":"","type":"address"}],"stateMutability":"view","type":"function"},{"inputs":[{"internalType":"enum CreatorPayments.CreatorTier","name":"","type":"uint8"}],"name":"tierRevenueShares","outputs":[{"internalType":"uint256","name":"","type":"uint256"}],"stateMutability":"view","type":"function"},{"inputs":[],"name":"tokenAMM","outputs":[{"internalType":"contract TokenAMM","name":"","type":"address"}],"stateMutability":"view","type":"function"},{"inputs":[{"internalType":"address","name":"","type":"address"}],"name":"totalLifetimeEarnings","outputs":[{"internalType":"uint256","name":"","type":"uint256"}],"stateMutability":"view","type":"function"},{"inputs":[{"internalType":"address","name":"newOwner","type":"address"}],"name":"transferOwnership","outputs":[],"stateMutability":"nonpayable","type":"function"},{"inputs":[],"name":"unpause","outputs":[],"stateMutability":"nonpayable","type":"function"},{"inputs":[{"internalType":"address","name":"creator","type":"address"},{"internalType":"enum CreatorPayments.PaymentMethod","name":"paymentMethod","type":"uint8"},{"internalType":"uint256","name":"fiatPct","type":"uint256"},{"internalType":"uint256","name":"usdcPct","type":"uint256"},{"internalType":"uint256","name":"stcPct","type":"uint256"}],"name":"updateCreatorPaymentMethod","outputs":[],"stateMutability":"nonpayable","type":"function"},{"inputs":[{"internalType":"address","name":"creator","type":"address"},{"internalType":"enum CreatorPayments.CreatorTier","name":"newTier","type":"uint8"}],"name":"updateCreatorTier","outputs":[],"stateMutability":"nonpayable","type":"function"},{"inputs":[{"internalType":"uint256","name":"newAmount","type":"uint256"}],"name":"updateMinimumPayoutAmount","outputs":[],"stateMutability":"nonpayable","type":"function"},{"inputs":[{"internalType":"enum CreatorPayments.CreatorTier","name":"tier","type":"uint8"},{"internalType":"uint256","name":"sharePercentage","type":"uint256"}],"name":"updateTierRevenueShare","outputs":[],"stateMutability":"nonpayable","type":"function"},{"inputs":[],"name":"usdcToken","outputs":[{"internalType":"contract IERC20","name":"","type":"address"}],"stateMutability":"view","type":"function"},{"inputs":[],"name":"usdcTreasury","outputs":[{"internalType":"address","name":"","type":"address"}],"stateMutability":"view","type":"function"}],"evm":{"bytecode":{"linkReferences":{},"object":"6080346101c257601f611e9138819003918201601f19168301916001600160401b038311848410176101c65780849260a0946040528339810103126101c257610047816101da565b90610054602082016101da565b610060604083016101da565b906100796080610072606086016101da565b94016101da565b5f8054336001600160a01b0319821681178355929692916001600160a01b03909116907f8be0079c531659141344cd1fd0a4f28419497f9722a3daafe3b4186f6b6457e09080a360018055600280546103e8600b556001600160a81b03191660089290921b610100600160a81b0316919091178155600380546001600160a01b03199081166001600160a01b0394851617909155600c8054821694841694909417909355600d8054841694831694909417909355600480549092169316929092179091556005602052610bb87f05b8ccbb9d4d8fb16ea74ce3c29a41f1b461fbdaff4714a0d9a8eb05499746bc55610fa07f1471eb6eb2c5e789fc3de43f8ce62938c7d1836ec861730447e2ada8fd81017b555f5261157c7f89832631fb3c3307a103ba2c84ab569c64d6182a18893dcd163f0f1c2090733a55604051611ca290816101ef8239f35b5f80fd5b634e487b7160e01b5f52604160045260245ffd5b51906001600160a01b03821682036101c25756fe60806040526004361015610011575f80fd5b5f5f3560e01c806302f8e5fa14611869578063067698db146113f357806311eac855146113ca57806321bc687f146112d557806324d85b191461129157806331231e6d146111f35780633f4ba83a1461115e578063433514a9146110e5578063537822aa1461108e5780635c975abb1461106b57806368047f0614611038578063715018a614610fde5780637991c06814610c6a5780637afd655814610c415780637c5909a914610c235780637f38e52614610bea578063823e5c1414610b615780638456cb5914610b065780638afc32d214610a515780638da5cb5b14610a2a57806395b04be21461093757806395ccea671461084c5780639e39e58d14610667578063bd1da3561461062e578063c1a6e20314610509578063cb31c6f9146104e0578063e138818c146104b7578063e4aabfcf14610259578063f2792c231461022c5763f2fde38b14610164575f80fd5b346102295760203660031901126102295761017d61188a565b610185611b7b565b6001600160a01b031680156101d55781546001600160a01b03198116821783556001600160a01b03167f8be0079c531659141344cd1fd0a4f28419497f9722a3daafe3b4186f6b6457e08380a380f35b60405162461bcd60e51b815260206004820152602660248201527f4f776e61626c653a206e6577206f776e657220697320746865207a65726f206160448201526564647265737360d01b6064820152608490fd5b80fd5b503461022957806003193601126102295760025460405160089190911c6001600160a01b03168152602090f35b5034610229576060366003190112610229576024356001600160a01b03811690600435908290036104b35760443561028f611b7b565b610297611bd2565b61029f611c28565b828452600660205260ff6004604086200154161561047d5780156104525782845260066020526127106102e56102de60ff604088205460a01c166118c9565b5483611aab565b04906006604051916102f68361192c565b8483526103916020840191878352604085019081526060850186815260808601908a825260a08701928b845260c08801954287528a8d52600760205260408d209851895560018060a01b03905116600189019060018060a01b03166bffffffffffffffffffffffff60a01b825416179055516002880155516003870155516004860155511515600585019060ff801983541691151516179055565b519101558284526008602052604084208054906801000000000000000082101561043e57916103e9827f40776a567d7bb5ab03e6046f19f4007afa4cfd16bf6e36df0f671b09a4e1c5fe9460016020950181556118a0565b81549060031b9086821b915f19901b19161790558486526009825260408620610413828254611abe565b9055848652600682526005604087200161042e828254611abe565b9055604051908152a36001805580f35b634e487b7160e01b86526041600452602486fd5b606460405162461bcd60e51b81526020600482015260046024820152635a65726f60e01b6044820152fd5b60405162461bcd60e51b815260206004820152600e60248201526d139bdd081c9959da5cdd195c995960921b6044820152606490fd5b8280fd5b5034610229578060031936011261022957600c546040516001600160a01b039091168152602090f35b50346102295780600319360112610229576004546040516001600160a01b039091168152602090f35b50346102295760a03660031901126102295761052361188a565b60243560048110156104b3576001600160a01b03909116906064359060443590608435338514801561061b575b156105e75760036020937f483de5fdcba935059e46ae09af7d35cfaba2303d31944ee4829945cb62ab3d8b958789526006865261059660ff600460408c20015416611a72565b6105b460646105ae866105a98587611abe565b611abe565b14611b07565b8789526006865260408920916105ca8684611b57565b6001830155600282015501556105e36040518092611a65565ba280f35b60405162461bcd60e51b815260206004820152600c60248201526b155b985d5d1a1bdc9a5e995960a21b6044820152606490fd5b5085546001600160a01b03163314610550565b5034610229576020366003190112610229576020906040906001600160a01b0361065661188a565b168152600a83522054604051908152f35b50346102295760203660031901126102295761068161188a565b8160e060405161069081611979565b8281528260208201528260408201528260608201528260808201528260a08201528260c0820152015260018060a01b03168082526006602052604082206040516106d98161195c565b81546001600160a01b03811682529260208201926106fe60a086901c60ff1685611b3f565b61071260ff604085019660a81c1686611b4b565b6001810154936060840194855260028201546080850190815260038301549160a0860192835260ff6004850154169560c081019615158752610120610770600760058801549760e085019889526006810154610100860152016119b8565b9101525196600388101561083857519560048710156108385760406101009961081092519351945195519681526009602052205495511515966107bf604051996107b98b611979565b8a611b3f565b6107cd60208a019182611b4b565b60408901928352606089019384526080890194855260a0890195865260c0890196875260e08901978852610805604051809a51611a58565b516020890190611a65565b5160408701525160608601525160808501525160a08401525160c083015251151560e0820152f35b634e487b7160e01b89526021600452602489fd5b5034610229576040366003190112610229578061086761188a565b60243590610873611b7b565b6001600160a01b0316806108ba57508154829182918291906001600160a01b03168282156108b1575bf1156108a55780f35b604051903d90823e3d90fd5b506108fc61089c565b835460405163a9059cbb60e01b81526001600160a01b03909116600482015260248101929092529091506020908290604490829086905af1801561092c57610900575080f35b6109219060203d602011610925575b6109198183611996565b810190611acb565b5080f35b503d61090f565b6040513d84823e3d90fd5b5034610229576020366003190112610229576109db90610160906001600160a01b0361096161188a565b1681526006602052602060408220918254926001810154906002810154600382015460ff600484015416906005840154926109a36007600687015496016119b8565b6040516001600160a01b038b1681529b8c9a9197916109cb8b8d0160a083901c60ff16611a58565b60ff60408d019160a81c16611a65565b60608a0152608089015260a0880152151560c087015260e0860152610100850152610140610120850152805192839182610140870152018585015e828201840152601f01601f19168101030190f35b5034610229578060031936011261022957546040516001600160a01b039091168152602090f35b5034610229576020366003190112610229576001600160a01b03610a7361188a565b168152600860205260408120604051908160208254918281520190819285526020852090855b818110610af05750505082610aaf910383611996565b604051928392602084019060208552518091526040840192915b818110610ad7575050500390f35b8251845285945060209384019390920191600101610ac9565b8254845260209093019260019283019201610a99565b5034610229578060031936011261022957610b1f611b7b565b610b27611c28565b600160ff1960025416176002557f62e78cea01bee320cd4e420270b5ea74000d11b0c9f74754ebdbfc544b05a2586020604051338152a180f35b5034610229576040366003190112610229576004356003811015610be65760243590610b8b611b7b565b6127108211610ba157610b9d906118c9565b5580f35b60405162461bcd60e51b815260206004820152601860248201527f53686172652063616e6e6f7420657863656564203130302500000000000000006044820152606490fd5b5080fd5b5034610229576020366003190112610229576020906040906001600160a01b03610c1261188a565b168152600983522054604051908152f35b50346102295780600319360112610229576020600b54604051908152f35b5034610229578060031936011261022957600d546040516001600160a01b039091168152602090f35b50346102295760c036600319011261022957610c8461188a565b60243560038110156104b3576044356004811015610fda576064356084359060a43594610caf611b7b565b6001600160a01b0316948515610fab57610cd260646105ae836105a98787611abe565b60405191610cdf8361195c565b8683526020830193610cf18786611b3f565b6040840192610d008785611b4b565b606085019283526080850191825260a0850190815260c08501916001835260e08601938b85526101008701954287526040519860208a018a811067ffffffffffffffff821117610f975760409081528e8b526101208a019a8b528d8f5260066020528e20985189546001600160a01b0319166001600160a01b0391909116178955516003811015610f8357610d959089611ae3565b516004811015610f6f5791610ddf9391610db5899897969460079a611b57565b516001880155516002870155516003860155511515600485019060ff801983541691151516179055565b51600583015551600682015501905180519067ffffffffffffffff8211610f5b57610e0a83546118f4565b601f8111610f16575b50602090601f8311600114610e8b5792826105e393604096937faf1307087cc00ad3b7a702d21ec4c5080c5357e50b9b55959fd7b61e5b4b5e5898968b92610e80575b50508160011b915f199060031b1c19161790555b610e7684518094611a58565b6020830190611a65565b015190505f80610e56565b8388528188209190601f198416895b818110610efe575093604096937faf1307087cc00ad3b7a702d21ec4c5080c5357e50b9b55959fd7b61e5b4b5e58989693600193836105e39810610ee6575b505050811b019055610e6a565b01515f1960f88460031b161c191690555f8080610ed9565b92936020600181928786015181550195019301610e9a565b83885260208820601f840160051c81019160208510610f51575b601f0160051c01905b818110610f465750610e13565b888155600101610f39565b9091508190610f30565b634e487b7160e01b87526041600452602487fd5b634e487b7160e01b8d52602160045260248dfd5b634e487b7160e01b8e52602160045260248efd5b634e487b7160e01b8f52604160045260248ffd5b60405162461bcd60e51b8152602060048201526007602482015266125b9d985b1a5960ca1b6044820152606490fd5b8380fd5b5034610229578060031936011261022957610ff7611b7b565b80546001600160a01b03198116825581906001600160a01b03167f8be0079c531659141344cd1fd0a4f28419497f9722a3daafe3b4186f6b6457e08280a380f35b503461022957602036600319011261022957600435906003821015610229576020611062836118c9565b54604051908152f35b5034610229578060031936011261022957602060ff600254166040519015158152f35b5034610229576040366003190112610229576110a861188a565b6001600160a01b03168152600860205260408120805460243592908310156102295760206110d684846118a0565b90549060031b1c604051908152f35b503461022957602036600319011261022957604060e091600435815260076020522080549060018060a01b036001820154169060028101546003820154600483015491600660ff600586015416940154946040519687526020870152604086015260608501526080840152151560a083015260c0820152f35b5034610229578060031936011261022957611177611b7b565b60025460ff8116156111b75760ff19166002557f5db9ee0a495bf2e6ff9c91a7834c1ba4fdd244a5e8aa4e537bd38aeae4b073aa6020604051338152a180f35b60405162461bcd60e51b815260206004820152601460248201527314185d5cd8589b194e881b9bdd081c185d5cd95960621b6044820152606490fd5b503461022957602036600319011261022957604060a0916004358152600760205220604051906112228261192c565b80548252600180841b0360018201541691826020820152600282015480604083015260038301549081606084015260048401549283608082015260c0600660ff600588015416151596878a85015201549101526040519485526020850152604084015260608301526080820152f35b5034610229576020366003190112610229576112ab61188a565b6112b3611b7b565b6001600160a01b03168152600660205260408120600401805460ff1916905580f35b5034610229576040366003190112610229576112ef61188a565b6024359060038210156104b357611304611b7b565b6001600160a01b03168083526006602052604083206004015490919060ff161561138c5760407fdc1910737b70a1e92a78532527eb68d7b419db69f74792e7b4ddb1018b73daef9183855260066020526105e360ff8387205460a01c1691858752600660205261137681858920611ae3565b61138284518094611a58565b6020830190611a58565b60405162461bcd60e51b815260206004820152601660248201527510dc99585d1bdc881b9bdd081c9959da5cdd195c995960521b6044820152606490fd5b50346102295780600319360112610229576003546040516001600160a01b039091168152602090f35b50346116035760203660031901126116035761140d61188a565b611415611b7b565b61141d611bd2565b611425611c28565b60018060a01b03811690815f52600660205261144a60ff600460405f20015416611a72565b815f52600960205260405f205490600b54821061183257825f52600660205260405f209183606461147f600186015484611aab565b046064611490600287015485611aab565b049260646114a2600388015483611aab565b0495835f5260096020525f6040812055600642910155825f52600a6020526114cf60405f20918254611abe565b905580611800575b50508015801561164f575b505081159081156114f6575b846001805580f35b61271083029183830461271014171561163b57602060018060a01b036004541692602460405180958193636b07614160e11b835260048301525afa9182156115f8575f92611607575b5060025460081c6001600160a01b031691823b1561160357604051630df9da3760e11b81526001600160a01b039290921660048301526024820152905f908290604490829084905af180156115f8576115e2575b5060807f606ff1e9632beb4e08a56115fa1b41c0f8bd35344e8527ddd9967c1260b601949160405190815260406020820152600360408201526253544360e81b6060820152a25f8080806114ee565b6115ef9193505f90611996565b5f916080611593565b6040513d5f823e3d90fd5b5f80fd5b9091506020813d602011611633575b8161162360209383611996565b810103126116035751905f61153f565b3d9150611616565b634e487b7160e01b5f52601160045260245ffd5b61271082029082820461271014171561163b57600354600d546040516370a0823160e01b81526001600160a01b0391821660048201819052929091169290602081602481875afa80156115f85782915f916117cb575b50106117925760646020925f60405195869485936323b872dd60e01b855260048501528b602485015260448401525af19081156115f8575f91611773575b5015611737577f606ff1e9632beb4e08a56115fa1b41c0f8bd35344e8527ddd9967c1260b60194608085926040519081526040602082015260046040820152635553444360e01b6060820152a25f806114e2565b60405162461bcd60e51b81526020600482015260146024820152731554d110c81d1c985b9cd9995c8819985a5b195960621b6044820152606490fd5b61178c915060203d602011610925576109198183611996565b5f6116e3565b60405162461bcd60e51b8152602060048201526011602482015270496e73756666696369656e74205553444360781b6044820152606490fd5b9150506020813d6020116117f8575b816117e760209383611996565b81010312611603578190515f6116a5565b3d91506117da565b60207fa3e51f2957f5e7c63f9edf1654d5e767111f6ea0c4c9a8002b52aa01de7d4fc091604051908152a2835f6114d7565b60405162461bcd60e51b815260206004820152600f60248201526e10995b1bddc81d1a1c995cda1bdb19608a1b6044820152606490fd5b3461160357602036600319011261160357611882611b7b565b600435600b55005b600435906001600160a01b038216820361160357565b80548210156118b5575f5260205f2001905f90565b634e487b7160e01b5f52603260045260245ffd5b60038110156118e0575f52600560205260405f2090565b634e487b7160e01b5f52602160045260245ffd5b90600182811c92168015611922575b602083101461190e57565b634e487b7160e01b5f52602260045260245ffd5b91607f1691611903565b60e0810190811067ffffffffffffffff82111761194857604052565b634e487b7160e01b5f52604160045260245ffd5b610140810190811067ffffffffffffffff82111761194857604052565b610100810190811067ffffffffffffffff82111761194857604052565b90601f8019910116810190811067ffffffffffffffff82111761194857604052565b9060405191825f8254926119cb846118f4565b8084529360018116908115611a3657506001146119f2575b506119f092500383611996565b565b90505f9291925260205f20905f915b818310611a1a5750509060206119f0928201015f6119e3565b6020919350806001915483858901015201910190918492611a01565b9050602092506119f094915060ff191682840152151560051b8201015f6119e3565b9060038210156118e05752565b9060048210156118e05752565b15611a7957565b60405162461bcd60e51b815260206004820152600a6024820152694e6f742061637469766560b01b6044820152606490fd5b8181029291811591840414171561163b57565b9190820180921161163b57565b90816020910312611603575180151581036116035790565b9060038110156118e057815460ff60a01b191660a09190911b60ff60a01b16179055565b15611b0e57565b60405162461bcd60e51b8152602060048201526009602482015268109859081cdc1b1a5d60ba1b6044820152606490fd5b60038210156118e05752565b60048210156118e05752565b9060048110156118e057815460ff60a81b191660a89190911b60ff60a81b16179055565b5f546001600160a01b03163303611b8e57565b606460405162461bcd60e51b815260206004820152602060248201527f4f776e61626c653a2063616c6c6572206973206e6f7420746865206f776e65726044820152fd5b600260015414611be3576002600155565b60405162461bcd60e51b815260206004820152601f60248201527f5265656e7472616e637947756172643a207265656e7472616e742063616c6c006044820152606490fd5b60ff60025416611c3457565b60405162461bcd60e51b815260206004820152601060248201526f14185d5cd8589b194e881c185d5cd95960821b6044820152606490fdfea26469706673582212200ba27d7032986f86c47749215368abe2e4d17eed18f3672b21339e54e6852d0664736f6c634300081c0033","opcodes":"PUSH1 0x80 CALLVALUE PUSH2 0x1C2 JUMPI PUSH1 0x1F PUSH2 0x1E91 CODESIZE DUP2 SWAP1 SUB SWAP2 DUP3 ADD PUSH1 0x1F NOT AND DUP4 ADD SWAP2 PUSH1 0x1 PUSH1 0x1 PUSH1 0x40 SHL SUB DUP4 GT DUP5 DUP5 LT OR PUSH2 0x1C6 JUMPI DUP1 DUP5 SWAP3 PUSH1 0xA0 SWAP5 PUSH1 0x40 MSTORE DUP4 CODECOPY DUP2 ADD SUB SLT PUSH2 0x1C2 JUMPI PUSH2 0x47 DUP2 PUSH2 0x1DA JUMP JUMPDEST SWAP1 PUSH2 0x54 PUSH1 0x20 DUP3 ADD PUSH2 0x1DA JUMP JUMPDEST PUSH2 0x60 PUSH1 0x40 DUP4 ADD PUSH2 0x1DA JUMP JUMPDEST SWAP1 PUSH2 0x79 PUSH1 0x80 PUSH2 0x72 PUSH1 0x60 DUP7 ADD PUSH2 0x1DA JUMP JUMPDEST SWAP5 ADD PUSH2 0x1DA JUMP JUMPDEST PUSH0 DUP1 SLOAD CALLER PUSH1 0x1 PUSH1 0x1 PUSH1 0xA0 SHL SUB NOT DUP3 AND DUP2 OR DUP4 SSTORE SWAP3 SWAP7 SWAP3 SWAP2 PUSH1 0x1 PUSH1 0x1 PUSH1 0xA0 SHL SUB SWAP1 SWAP2 AND SWAP1 PUSH32 0x8BE0079C531659141344CD1FD0A4F28419497F9722A3DAAFE3B4186F6B6457E0 SWAP1 DUP1 LOG3 PUSH1 0x1 DUP1 SSTORE PUSH1 0x2 DUP1 SLOAD PUSH2 0x3E8 PUSH1 0xB SSTORE PUSH1 0x1 PUSH1 0x1 PUSH1 0xA8 SHL SUB NOT AND PUSH1 0x8 SWAP3 SWAP1 SWAP3 SHL PUSH2 0x100 PUSH1 0x1 PUSH1 0xA8 SHL SUB AND SWAP2 SWAP1 SWAP2 OR DUP2 SSTORE PUSH1 0x3 DUP1 SLOAD PUSH1 0x1 PUSH1 0x1 PUSH1 0xA0 SHL SUB NOT SWAP1 DUP2 AND PUSH1 0x1 PUSH1 0x1 PUSH1 0xA0 SHL SUB SWAP5 DUP6 AND OR SWAP1 SWAP2 SSTORE PUSH1 0xC DUP1 SLOAD DUP3 AND SWAP5 DUP5 AND SWAP5 SWAP1 SWAP5 OR SWAP1 SWAP4 SSTORE PUSH1 0xD DUP1 SLOAD DUP5 AND SWAP5 DUP4 AND SWAP5 SWAP1 SWAP5 OR SWAP1 SWAP4 SSTORE PUSH1 0x4 DUP1 SLOAD SWAP1 SWAP3 AND SWAP4 AND SWAP3 SWAP1 SWAP3 OR SWAP1 SWAP2 SSTORE PUSH1 0x5 PUSH1 0x20 MSTORE PUSH2 0xBB8 PUSH32 0x5B8CCBB9D4D8FB16EA74CE3C29A41F1B461FBDAFF4714A0D9A8EB05499746BC SSTORE PUSH2 0xFA0 PUSH32 0x1471EB6EB2C5E789FC3DE43F8CE62938C7D1836EC861730447E2ADA8FD81017B SSTORE PUSH0 MSTORE PUSH2 0x157C PUSH32 0x89832631FB3C3307A103BA2C84AB569C64D6182A18893DCD163F0F1C2090733A SSTORE PUSH1 0x40 MLOAD PUSH2 0x1CA2 SWAP1 DUP2 PUSH2 0x1EF DUP3 CODECOPY RETURN JUMPDEST PUSH0 DUP1 REVERT JUMPDEST PUSH4 0x4E487B71 PUSH1 0xE0 SHL PUSH0 MSTORE PUSH1 0x41 PUSH1 0x4 MSTORE PUSH1 0x24 PUSH0 REVERT JUMPDEST MLOAD SWAP1 PUSH1 0x1 PUSH1 0x1 PUSH1 0xA0 SHL SUB DUP3 AND DUP3 SUB PUSH2 0x1C2 JUMPI JUMP INVALID PUSH1 0x80 PUSH1 0x40 MSTORE PUSH1 0x4 CALLDATASIZE LT ISZERO PUSH2 0x11 JUMPI PUSH0 DUP1 REVERT JUMPDEST PUSH0 PUSH0 CALLDATALOAD PUSH1 0xE0 SHR DUP1 PUSH4 0x2F8E5FA EQ PUSH2 0x1869 JUMPI DUP1 PUSH4 0x67698DB EQ PUSH2 0x13F3 JUMPI DUP1 PUSH4 0x11EAC855 EQ PUSH2 0x13CA JUMPI DUP1 PUSH4 0x21BC687F EQ PUSH2 0x12D5 JUMPI DUP1 PUSH4 0x24D85B19 EQ PUSH2 0x1291 JUMPI DUP1 PUSH4 0x31231E6D EQ PUSH2 0x11F3 JUMPI DUP1 PUSH4 0x3F4BA83A EQ PUSH2 0x115E JUMPI DUP1 PUSH4 0x433514A9 EQ PUSH2 0x10E5 JUMPI DUP1 PUSH4 0x537822AA EQ PUSH2 0x108E JUMPI DUP1 PUSH4 0x5C975ABB EQ PUSH2 0x106B JUMPI DUP1 PUSH4 0x68047F06 EQ PUSH2 0x1038 JUMPI DUP1 PUSH4 0x715018A6 EQ PUSH2 0xFDE JUMPI DUP1 PUSH4 0x7991C068 EQ PUSH2 0xC6A JUMPI DUP1 PUSH4 0x7AFD6558 EQ PUSH2 0xC41 JUMPI DUP1 PUSH4 0x7C5909A9 EQ PUSH2 0xC23 JUMPI DUP1 PUSH4 0x7F38E526 EQ PUSH2 0xBEA JUMPI DUP1 PUSH4 0x823E5C14 EQ PUSH2 0xB61 JUMPI DUP1 PUSH4 0x8456CB59 EQ PUSH2 0xB06 JUMPI DUP1 PUSH4 0x8AFC32D2 EQ PUSH2 0xA51 JUMPI DUP1 PUSH4 0x8DA5CB5B EQ PUSH2 0xA2A JUMPI DUP1 PUSH4 0x95B04BE2 EQ PUSH2 0x937 JUMPI DUP1 PUSH4 0x95CCEA67 EQ PUSH2 0x84C JUMPI DUP1 PUSH4 0x9E39E58D EQ PUSH2 0x667 JUMPI DUP1 PUSH4 0xBD1DA356 EQ PUSH2 0x62E JUMPI DUP1 PUSH4 0xC1A6E203 EQ PUSH2 0x509 JUMPI DUP1 PUSH4 0xCB31C6F9 EQ PUSH2 0x4E0 JUMPI DUP1 PUSH4 0xE138818C EQ PUSH2 0x4B7 JUMPI DUP1 PUSH4 0xE4AABFCF EQ PUSH2 0x259 JUMPI DUP1 PUSH4 0xF2792C23 EQ PUSH2 0x22C JUMPI PUSH4 0xF2FDE38B EQ PUSH2 0x164 JUMPI PUSH0 DUP1 REVERT JUMPDEST CALLVALUE PUSH2 0x229 JUMPI PUSH1 0x20 CALLDATASIZE PUSH1 0x3 NOT ADD SLT PUSH2 0x229 JUMPI PUSH2 0x17D PUSH2 0x188A JUMP JUMPDEST PUSH2 0x185 PUSH2 0x1B7B JUMP JUMPDEST PUSH1 0x1 PUSH1 0x1 PUSH1 0xA0 SHL SUB AND DUP1 ISZERO PUSH2 0x1D5 JUMPI DUP2 SLOAD PUSH1 0x1 PUSH1 0x1 PUSH1 0xA0 SHL SUB NOT DUP2 AND DUP3 OR DUP4 SSTORE PUSH1 0x1 PUSH1 0x1 PUSH1 0xA0 SHL SUB AND PUSH32 0x8BE0079C531659141344CD1FD0A4F28419497F9722A3DAAFE3B4186F6B6457E0 DUP4 DUP1 LOG3 DUP1 RETURN JUMPDEST PUSH1 0x40 MLOAD PUSH3 0x461BCD PUSH1 0xE5 SHL DUP2 MSTORE PUSH1 0x20 PUSH1 0x4 DUP3 ADD MSTORE PUSH1 0x26 PUSH1 0x24 DUP3 ADD MSTORE PUSH32 0x4F776E61626C653A206E6577206F776E657220697320746865207A65726F2061 PUSH1 0x44 DUP3 ADD MSTORE PUSH6 0x646472657373 PUSH1 0xD0 SHL PUSH1 0x64 DUP3 ADD MSTORE PUSH1 0x84 SWAP1 REVERT JUMPDEST DUP1 REVERT JUMPDEST POP CALLVALUE PUSH2 0x229 JUMPI DUP1 PUSH1 0x3 NOT CALLDATASIZE ADD SLT PUSH2 0x229 JUMPI PUSH1 0x2 SLOAD PUSH1 0x40 MLOAD PUSH1 0x8 SWAP2 SWAP1 SWAP2 SHR PUSH1 0x1 PUSH1 0x1 PUSH1 0xA0 SHL SUB AND DUP2 MSTORE PUSH1 0x20 SWAP1 RETURN JUMPDEST POP CALLVALUE PUSH2 0x229 JUMPI PUSH1 0x60 CALLDATASIZE PUSH1 0x3 NOT ADD SLT PUSH2 0x229 JUMPI PUSH1 0x24 CALLDATALOAD PUSH1 0x1 PUSH1 0x1 PUSH1 0xA0 SHL SUB DUP2 AND SWAP1 PUSH1 0x4 CALLDATALOAD SWAP1 DUP3 SWAP1 SUB PUSH2 0x4B3 JUMPI PUSH1 0x44 CALLDATALOAD PUSH2 0x28F PUSH2 0x1B7B JUMP JUMPDEST PUSH2 0x297 PUSH2 0x1BD2 JUMP JUMPDEST PUSH2 0x29F PUSH2 0x1C28 JUMP JUMPDEST DUP3 DUP5 MSTORE PUSH1 0x6 PUSH1 0x20 MSTORE PUSH1 0xFF PUSH1 0x4 PUSH1 0x40 DUP7 KECCAK256 ADD SLOAD AND ISZERO PUSH2 0x47D JUMPI DUP1 ISZERO PUSH2 0x452 JUMPI DUP3 DUP5 MSTORE PUSH1 0x6 PUSH1 0x20 MSTORE PUSH2 0x2710 PUSH2 0x2E5 PUSH2 0x2DE PUSH1 0xFF PUSH1 0x40 DUP9 KECCAK256 SLOAD PUSH1 0xA0 SHR AND PUSH2 0x18C9 JUMP JUMPDEST SLOAD DUP4 PUSH2 0x1AAB JUMP JUMPDEST DIV SWAP1 PUSH1 0x6 PUSH1 0x40 MLOAD SWAP2 PUSH2 0x2F6 DUP4 PUSH2 0x192C JUMP JUMPDEST DUP5 DUP4 MSTORE PUSH2 0x391 PUSH1 0x20 DUP5 ADD SWAP2 DUP8 DUP4 MSTORE PUSH1 0x40 DUP6 ADD SWAP1 DUP2 MSTORE PUSH1 0x60 DUP6 ADD DUP7 DUP2 MSTORE PUSH1 0x80 DUP7 ADD SWAP1 DUP11 DUP3 MSTORE PUSH1 0xA0 DUP8 ADD SWAP3 DUP12 DUP5 MSTORE PUSH1 0xC0 DUP9 ADD SWAP6 TIMESTAMP DUP8 MSTORE DUP11 DUP14 MSTORE PUSH1 0x7 PUSH1 0x20 MSTORE PUSH1 0x40 DUP14 KECCAK256 SWAP9 MLOAD DUP10 SSTORE PUSH1 0x1 DUP1 PUSH1 0xA0 SHL SUB SWAP1 MLOAD AND PUSH1 0x1 DUP10 ADD SWAP1 PUSH1 0x1 DUP1 PUSH1 0xA0 SHL SUB AND PUSH12 0xFFFFFFFFFFFFFFFFFFFFFFFF PUSH1 0xA0 SHL DUP3 SLOAD AND OR SWAP1 SSTORE MLOAD PUSH1 0x2 DUP9 ADD SSTORE MLOAD PUSH1 0x3 DUP8 ADD SSTORE MLOAD PUSH1 0x4 DUP7 ADD SSTORE MLOAD ISZERO ISZERO PUSH1 0x5 DUP6 ADD SWAP1 PUSH1 0xFF DUP1 NOT DUP4 SLOAD AND SWAP2 ISZERO ISZERO AND OR SWAP1 SSTORE JUMP JUMPDEST MLOAD SWAP2 ADD SSTORE DUP3 DUP5 MSTORE PUSH1 0x8 PUSH1 0x20 MSTORE PUSH1 0x40 DUP5 KECCAK256 DUP1 SLOAD SWAP1 PUSH9 0x10000000000000000 DUP3 LT ISZERO PUSH2 0x43E JUMPI SWAP2 PUSH2 0x3E9 DUP3 PUSH32 0x40776A567D7BB5AB03E6046F19F4007AFA4CFD16BF6E36DF0F671B09A4E1C5FE SWAP5 PUSH1 0x1 PUSH1 0x20 SWAP6 ADD DUP2 SSTORE PUSH2 0x18A0 JUMP JUMPDEST DUP2 SLOAD SWAP1 PUSH1 0x3 SHL SWAP1 DUP7 DUP3 SHL SWAP2 PUSH0 NOT SWAP1 SHL NOT AND OR SWAP1 SSTORE DUP5 DUP7 MSTORE PUSH1 0x9 DUP3 MSTORE PUSH1 0x40 DUP7 KECCAK256 PUSH2 0x413 DUP3 DUP3 SLOAD PUSH2 0x1ABE JUMP JUMPDEST SWAP1 SSTORE DUP5 DUP7 MSTORE PUSH1 0x6 DUP3 MSTORE PUSH1 0x5 PUSH1 0x40 DUP8 KECCAK256 ADD PUSH2 0x42E DUP3 DUP3 SLOAD PUSH2 0x1ABE JUMP JUMPDEST SWAP1 SSTORE PUSH1 0x40 MLOAD SWAP1 DUP2 MSTORE LOG3 PUSH1 0x1 DUP1 SSTORE DUP1 RETURN JUMPDEST PUSH4 0x4E487B71 PUSH1 0xE0 SHL DUP7 MSTORE PUSH1 0x41 PUSH1 0x4 MSTORE PUSH1 0x24 DUP7 REVERT JUMPDEST PUSH1 0x64 PUSH1 0x40 MLOAD PUSH3 0x461BCD PUSH1 0xE5 SHL DUP2 MSTORE PUSH1 0x20 PUSH1 0x4 DUP3 ADD MSTORE PUSH1 0x4 PUSH1 0x24 DUP3 ADD MSTORE PUSH4 0x5A65726F PUSH1 0xE0 SHL PUSH1 0x44 DUP3 ADD MSTORE REVERT JUMPDEST PUSH1 0x40 MLOAD PUSH3 0x461BCD PUSH1 0xE5 SHL DUP2 MSTORE PUSH1 0x20 PUSH1 0x4 DUP3 ADD MSTORE PUSH1 0xE PUSH1 0x24 DUP3 ADD MSTORE PUSH14 0x139BDD081C9959DA5CDD195C9959 PUSH1 0x92 SHL PUSH1 0x44 DUP3 ADD MSTORE PUSH1 0x64 SWAP1 REVERT JUMPDEST DUP3 DUP1 REVERT JUMPDEST POP CALLVALUE PUSH2 0x229 JUMPI DUP1 PUSH1 0x3 NOT CALLDATASIZE ADD SLT PUSH2 0x229 JUMPI PUSH1 0xC SLOAD PUSH1 0x40 MLOAD PUSH1 0x1 PUSH1 0x1 PUSH1 0xA0 SHL SUB SWAP1 SWAP2 AND DUP2 MSTORE PUSH1 0x20 SWAP1 RETURN JUMPDEST POP CALLVALUE PUSH2 0x229 JUMPI DUP1 PUSH1 0x3 NOT CALLDATASIZE ADD SLT PUSH2 0x229 JUMPI PUSH1 0x4 SLOAD PUSH1 0x40 MLOAD PUSH1 0x1 PUSH1 0x1 PUSH1 0xA0 SHL SUB SWAP1 SWAP2 AND DUP2 MSTORE PUSH1 0x20 SWAP1 RETURN JUMPDEST POP CALLVALUE PUSH2 0x229 JUMPI PUSH1 0xA0 CALLDATASIZE PUSH1 0x3 NOT ADD SLT PUSH2 0x229 JUMPI PUSH2 0x523 PUSH2 0x188A JUMP JUMPDEST PUSH1 0x24 CALLDATALOAD PUSH1 0x4 DUP2 LT ISZERO PUSH2 0x4B3 JUMPI PUSH1 0x1 PUSH1 0x1 PUSH1 0xA0 SHL SUB SWAP1 SWAP2 AND SWAP1 PUSH1 0x64 CALLDATALOAD SWAP1 PUSH1 0x44 CALLDATALOAD SWAP1 PUSH1 0x84 CALLDATALOAD CALLER DUP6 EQ DUP1 ISZERO PUSH2 0x61B JUMPI JUMPDEST ISZERO PUSH2 0x5E7 JUMPI PUSH1 0x3 PUSH1 0x20 SWAP4 PUSH32 0x483DE5FDCBA935059E46AE09AF7D35CFABA2303D31944EE4829945CB62AB3D8B SWAP6 DUP8 DUP10 MSTORE PUSH1 0x6 DUP7 MSTORE PUSH2 0x596 PUSH1 0xFF PUSH1 0x4 PUSH1 0x40 DUP13 KECCAK256 ADD SLOAD AND PUSH2 0x1A72 JUMP JUMPDEST PUSH2 0x5B4 PUSH1 0x64 PUSH2 0x5AE DUP7 PUSH2 0x5A9 DUP6 DUP8 PUSH2 0x1ABE JUMP JUMPDEST PUSH2 0x1ABE JUMP JUMPDEST EQ PUSH2 0x1B07 JUMP JUMPDEST DUP8 DUP10 MSTORE PUSH1 0x6 DUP7 MSTORE PUSH1 0x40 DUP10 KECCAK256 SWAP2 PUSH2 0x5CA DUP7 DUP5 PUSH2 0x1B57 JUMP JUMPDEST PUSH1 0x1 DUP4 ADD SSTORE PUSH1 0x2 DUP3 ADD SSTORE ADD SSTORE PUSH2 0x5E3 PUSH1 0x40 MLOAD DUP1 SWAP3 PUSH2 0x1A65 JUMP JUMPDEST LOG2 DUP1 RETURN JUMPDEST PUSH1 0x40 MLOAD PUSH3 0x461BCD PUSH1 0xE5 SHL DUP2 MSTORE PUSH1 0x20 PUSH1 0x4 DUP3 ADD MSTORE PUSH1 0xC PUSH1 0x24 DUP3 ADD MSTORE PUSH12 0x155B985D5D1A1BDC9A5E9959 PUSH1 0xA2 SHL PUSH1 0x44 DUP3 ADD MSTORE PUSH1 0x64 SWAP1 REVERT JUMPDEST POP DUP6 SLOAD PUSH1 0x1 PUSH1 0x1 PUSH1 0xA0 SHL SUB AND CALLER EQ PUSH2 0x550 JUMP JUMPDEST POP CALLVALUE PUSH2 0x229 JUMPI PUSH1 0x20 CALLDATASIZE PUSH1 0x3 NOT ADD SLT PUSH2 0x229 JUMPI PUSH1 0x20 SWAP1 PUSH1 0x40 SWAP1 PUSH1 0x1 PUSH1 0x1 PUSH1 0xA0 SHL SUB PUSH2 0x656 PUSH2 0x188A JUMP JUMPDEST AND DUP2 MSTORE PUSH1 0xA DUP4 MSTORE KECCAK256 SLOAD PUSH1 0x40 MLOAD SWAP1 DUP2 MSTORE RETURN JUMPDEST POP CALLVALUE PUSH2 0x229 JUMPI PUSH1 0x20 CALLDATASIZE PUSH1 0x3 NOT ADD SLT PUSH2 0x229 JUMPI PUSH2 0x681 PUSH2 0x188A JUMP JUMPDEST DUP2 PUSH1 0xE0 PUSH1 0x40 MLOAD PUSH2 0x690 DUP2 PUSH2 0x1979 JUMP JUMPDEST DUP3 DUP2 MSTORE DUP3 PUSH1 0x20 DUP3 ADD MSTORE DUP3 PUSH1 0x40 DUP3 ADD MSTORE DUP3 PUSH1 0x60 DUP3 ADD MSTORE DUP3 PUSH1 0x80 DUP3 ADD MSTORE DUP3 PUSH1 0xA0 DUP3 ADD MSTORE DUP3 PUSH1 0xC0 DUP3 ADD MSTORE ADD MSTORE PUSH1 0x1 DUP1 PUSH1 0xA0 SHL SUB AND DUP1 DUP3 MSTORE PUSH1 0x6 PUSH1 0x20 MSTORE PUSH1 0x40 DUP3 KECCAK256 PUSH1 0x40 MLOAD PUSH2 0x6D9 DUP2 PUSH2 0x195C JUMP JUMPDEST DUP2 SLOAD PUSH1 0x1 PUSH1 0x1 PUSH1 0xA0 SHL SUB DUP2 AND DUP3 MSTORE SWAP3 PUSH1 0x20 DUP3 ADD SWAP3 PUSH2 0x6FE PUSH1 0xA0 DUP7 SWAP1 SHR PUSH1 0xFF AND DUP6 PUSH2 0x1B3F JUMP JUMPDEST PUSH2 0x712 PUSH1 0xFF PUSH1 0x40 DUP6 ADD SWAP7 PUSH1 0xA8 SHR AND DUP7 PUSH2 0x1B4B JUMP JUMPDEST PUSH1 0x1 DUP2 ADD SLOAD SWAP4 PUSH1 0x60 DUP5 ADD SWAP5 DUP6 MSTORE PUSH1 0x2 DUP3 ADD SLOAD PUSH1 0x80 DUP6 ADD SWAP1 DUP2 MSTORE PUSH1 0x3 DUP4 ADD SLOAD SWAP2 PUSH1 0xA0 DUP7 ADD SWAP3 DUP4 MSTORE PUSH1 0xFF PUSH1 0x4 DUP6 ADD SLOAD AND SWAP6 PUSH1 0xC0 DUP2 ADD SWAP7 ISZERO ISZERO DUP8 MSTORE PUSH2 0x120 PUSH2 0x770 PUSH1 0x7 PUSH1 0x5 DUP9 ADD SLOAD SWAP8 PUSH1 0xE0 DUP6 ADD SWAP9 DUP10 MSTORE PUSH1 0x6 DUP2 ADD SLOAD PUSH2 0x100 DUP7 ADD MSTORE ADD PUSH2 0x19B8 JUMP JUMPDEST SWAP2 ADD MSTORE MLOAD SWAP7 PUSH1 0x3 DUP9 LT ISZERO PUSH2 0x838 JUMPI MLOAD SWAP6 PUSH1 0x4 DUP8 LT ISZERO PUSH2 0x838 JUMPI PUSH1 0x40 PUSH2 0x100 SWAP10 PUSH2 0x810 SWAP3 MLOAD SWAP4 MLOAD SWAP5 MLOAD SWAP6 MLOAD SWAP7 DUP2 MSTORE PUSH1 0x9 PUSH1 0x20 MSTORE KECCAK256 SLOAD SWAP6 MLOAD ISZERO ISZERO SWAP7 PUSH2 0x7BF PUSH1 0x40 MLOAD SWAP10 PUSH2 0x7B9 DUP12 PUSH2 0x1979 JUMP JUMPDEST DUP11 PUSH2 0x1B3F JUMP JUMPDEST PUSH2 0x7CD PUSH1 0x20 DUP11 ADD SWAP2 DUP3 PUSH2 0x1B4B JUMP JUMPDEST PUSH1 0x40 DUP10 ADD SWAP3 DUP4 MSTORE PUSH1 0x60 DUP10 ADD SWAP4 DUP5 MSTORE PUSH1 0x80 DUP10 ADD SWAP5 DUP6 MSTORE PUSH1 0xA0 DUP10 ADD SWAP6 DUP7 MSTORE PUSH1 0xC0 DUP10 ADD SWAP7 DUP8 MSTORE PUSH1 0xE0 DUP10 ADD SWAP8 DUP9 MSTORE PUSH2 0x805 PUSH1 0x40 MLOAD DUP1 SWAP11 MLOAD PUSH2 0x1A58 JUMP JUMPDEST MLOAD PUSH1 0x20 DUP10 ADD SWAP1 PUSH2 0x1A65 JUMP JUMPDEST MLOAD PUSH1 0x40 DUP8 ADD MSTORE MLOAD PUSH1 0x60 DUP7 ADD MSTORE MLOAD PUSH1 0x80 DUP6 ADD MSTORE MLOAD PUSH1 0xA0 DUP5 ADD MSTORE MLOAD PUSH1 0xC0 DUP4 ADD MSTORE MLOAD ISZERO ISZERO PUSH1 0xE0 DUP3 ADD MSTORE RETURN JUMPDEST PUSH4 0x4E487B71 PUSH1 0xE0 SHL DUP10 MSTORE PUSH1 0x21 PUSH1 0x4 MSTORE PUSH1 0x24 DUP10 REVERT JUMPDEST POP CALLVALUE PUSH2 0x229 JUMPI PUSH1 0x40 CALLDATASIZE PUSH1 0x3 NOT ADD SLT PUSH2 0x229 JUMPI DUP1 PUSH2 0x867 PUSH2 0x188A JUMP JUMPDEST PUSH1 0x24 CALLDATALOAD SWAP1 PUSH2 0x873 PUSH2 0x1B7B JUMP JUMPDEST PUSH1 0x1 PUSH1 0x1 PUSH1 0xA0 SHL SUB AND DUP1 PUSH2 0x8BA JUMPI POP DUP2 SLOAD DUP3 SWAP2 DUP3 SWAP2 DUP3 SWAP2 SWAP1 PUSH1 0x1 PUSH1 0x1 PUSH1 0xA0 SHL SUB AND DUP3 DUP3 ISZERO PUSH2 0x8B1 JUMPI JUMPDEST CALL ISZERO PUSH2 0x8A5 JUMPI DUP1 RETURN JUMPDEST PUSH1 0x40 MLOAD SWAP1 RETURNDATASIZE SWAP1 DUP3 RETURNDATACOPY RETURNDATASIZE SWAP1 REVERT JUMPDEST POP PUSH2 0x8FC PUSH2 0x89C JUMP JUMPDEST DUP4 SLOAD PUSH1 0x40 MLOAD PUSH4 0xA9059CBB PUSH1 0xE0 SHL DUP2 MSTORE PUSH1 0x1 PUSH1 0x1 PUSH1 0xA0 SHL SUB SWAP1 SWAP2 AND PUSH1 0x4 DUP3 ADD MSTORE PUSH1 0x24 DUP2 ADD SWAP3 SWAP1 SWAP3 MSTORE SWAP1 SWAP2 POP PUSH1 0x20 SWAP1 DUP3 SWAP1 PUSH1 0x44 SWAP1 DUP3 SWAP1 DUP7 SWAP1 GAS CALL DUP1 ISZERO PUSH2 0x92C JUMPI PUSH2 0x900 JUMPI POP DUP1 RETURN JUMPDEST PUSH2 0x921 SWAP1 PUSH1 0x20 RETURNDATASIZE PUSH1 0x20 GT PUSH2 0x925 JUMPI JUMPDEST PUSH2 0x919 DUP2 DUP4 PUSH2 0x1996 JUMP JUMPDEST DUP2 ADD SWAP1 PUSH2 0x1ACB JUMP JUMPDEST POP DUP1 RETURN JUMPDEST POP RETURNDATASIZE PUSH2 0x90F JUMP JUMPDEST PUSH1 0x40 MLOAD RETURNDATASIZE DUP5 DUP3 RETURNDATACOPY RETURNDATASIZE SWAP1 REVERT JUMPDEST POP CALLVALUE PUSH2 0x229 JUMPI PUSH1 0x20 CALLDATASIZE PUSH1 0x3 NOT ADD SLT PUSH2 0x229 JUMPI PUSH2 0x9DB SWAP1 PUSH2 0x160 SWAP1 PUSH1 0x1 PUSH1 0x1 PUSH1 0xA0 SHL SUB PUSH2 0x961 PUSH2 0x188A JUMP JUMPDEST AND DUP2 MSTORE PUSH1 0x6 PUSH1 0x20 MSTORE PUSH1 0x20 PUSH1 0x40 DUP3 KECCAK256 SWAP2 DUP3 SLOAD SWAP3 PUSH1 0x1 DUP2 ADD SLOAD SWAP1 PUSH1 0x2 DUP2 ADD SLOAD PUSH1 0x3 DUP3 ADD SLOAD PUSH1 0xFF PUSH1 0x4 DUP5 ADD SLOAD AND SWAP1 PUSH1 0x5 DUP5 ADD SLOAD SWAP3 PUSH2 0x9A3 PUSH1 0x7 PUSH1 0x6 DUP8 ADD SLOAD SWAP7 ADD PUSH2 0x19B8 JUMP JUMPDEST PUSH1 0x40 MLOAD PUSH1 0x1 PUSH1 0x1 PUSH1 0xA0 SHL SUB DUP12 AND DUP2 MSTORE SWAP12 DUP13 SWAP11 SWAP2 SWAP8 SWAP2 PUSH2 0x9CB DUP12 DUP14 ADD PUSH1 0xA0 DUP4 SWAP1 SHR PUSH1 0xFF AND PUSH2 0x1A58 JUMP JUMPDEST PUSH1 0xFF PUSH1 0x40 DUP14 ADD SWAP2 PUSH1 0xA8 SHR AND PUSH2 0x1A65 JUMP JUMPDEST PUSH1 0x60 DUP11 ADD MSTORE PUSH1 0x80 DUP10 ADD MSTORE PUSH1 0xA0 DUP9 ADD MSTORE ISZERO ISZERO PUSH1 0xC0 DUP8 ADD MSTORE PUSH1 0xE0 DUP7 ADD MSTORE PUSH2 0x100 DUP6 ADD MSTORE PUSH2 0x140 PUSH2 0x120 DUP6 ADD MSTORE DUP1 MLOAD SWAP3 DUP4 SWAP2 DUP3 PUSH2 0x140 DUP8 ADD MSTORE ADD DUP6 DUP6 ADD MCOPY DUP3 DUP3 ADD DUP5 ADD MSTORE PUSH1 0x1F ADD PUSH1 0x1F NOT AND DUP2 ADD SUB ADD SWAP1 RETURN JUMPDEST POP CALLVALUE PUSH2 0x229 JUMPI DUP1 PUSH1 0x3 NOT CALLDATASIZE ADD SLT PUSH2 0x229 JUMPI SLOAD PUSH1 0x40 MLOAD PUSH1 0x1 PUSH1 0x1 PUSH1 0xA0 SHL SUB SWAP1 SWAP2 AND DUP2 MSTORE PUSH1 0x20 SWAP1 RETURN JUMPDEST POP CALLVALUE PUSH2 0x229 JUMPI PUSH1 0x20 CALLDATASIZE PUSH1 0x3 NOT ADD SLT PUSH2 0x229 JUMPI PUSH1 0x1 PUSH1 0x1 PUSH1 0xA0 SHL SUB PUSH2 0xA73 PUSH2 0x188A JUMP JUMPDEST AND DUP2 MSTORE PUSH1 0x8 PUSH1 0x20 MSTORE PUSH1 0x40 DUP2 KECCAK256 PUSH1 0x40 MLOAD SWAP1 DUP2 PUSH1 0x20 DUP3 SLOAD SWAP2 DUP3 DUP2 MSTORE ADD SWAP1 DUP2 SWAP3 DUP6 MSTORE PUSH1 0x20 DUP6 KECCAK256 SWAP1 DUP6 JUMPDEST DUP2 DUP2 LT PUSH2 0xAF0 JUMPI POP POP POP DUP3 PUSH2 0xAAF SWAP2 SUB DUP4 PUSH2 0x1996 JUMP JUMPDEST PUSH1 0x40 MLOAD SWAP3 DUP4 SWAP3 PUSH1 0x20 DUP5 ADD SWAP1 PUSH1 0x20 DUP6 MSTORE MLOAD DUP1 SWAP2 MSTORE PUSH1 0x40 DUP5 ADD SWAP3 SWAP2 JUMPDEST DUP2 DUP2 LT PUSH2 0xAD7 JUMPI POP POP POP SUB SWAP1 RETURN JUMPDEST DUP3 MLOAD DUP5 MSTORE DUP6 SWAP5 POP PUSH1 0x20 SWAP4 DUP5 ADD SWAP4 SWAP1 SWAP3 ADD SWAP2 PUSH1 0x1 ADD PUSH2 0xAC9 JUMP JUMPDEST DUP3 SLOAD DUP5 MSTORE PUSH1 0x20 SWAP1 SWAP4 ADD SWAP3 PUSH1 0x1 SWAP3 DUP4 ADD SWAP3 ADD PUSH2 0xA99 JUMP JUMPDEST POP CALLVALUE PUSH2 0x229 JUMPI DUP1 PUSH1 0x3 NOT CALLDATASIZE ADD SLT PUSH2 0x229 JUMPI PUSH2 0xB1F PUSH2 0x1B7B JUMP JUMPDEST PUSH2 0xB27 PUSH2 0x1C28 JUMP JUMPDEST PUSH1 0x1 PUSH1 0xFF NOT PUSH1 0x2 SLOAD AND OR PUSH1 0x2 SSTORE PUSH32 0x62E78CEA01BEE320CD4E420270B5EA74000D11B0C9F74754EBDBFC544B05A258 PUSH1 0x20 PUSH1 0x40 MLOAD CALLER DUP2 MSTORE LOG1 DUP1 RETURN JUMPDEST POP CALLVALUE PUSH2 0x229 JUMPI PUSH1 0x40 CALLDATASIZE PUSH1 0x3 NOT ADD SLT PUSH2 0x229 JUMPI PUSH1 0x4 CALLDATALOAD PUSH1 0x3 DUP2 LT ISZERO PUSH2 0xBE6 JUMPI PUSH1 0x24 CALLDATALOAD SWAP1 PUSH2 0xB8B PUSH2 0x1B7B JUMP JUMPDEST PUSH2 0x2710 DUP3 GT PUSH2 0xBA1 JUMPI PUSH2 0xB9D SWAP1 PUSH2 0x18C9 JUMP JUMPDEST SSTORE DUP1 RETURN JUMPDEST PUSH1 0x40 MLOAD PUSH3 0x461BCD PUSH1 0xE5 SHL DUP2 MSTORE PUSH1 0x20 PUSH1 0x4 DUP3 ADD MSTORE PUSH1 0x18 PUSH1 0x24 DUP3 ADD MSTORE PUSH32 0x53686172652063616E6E6F742065786365656420313030250000000000000000 PUSH1 0x44 DUP3 ADD MSTORE PUSH1 0x64 SWAP1 REVERT JUMPDEST POP DUP1 REVERT JUMPDEST POP CALLVALUE PUSH2 0x229 JUMPI PUSH1 0x20 CALLDATASIZE PUSH1 0x3 NOT ADD SLT PUSH2 0x229 JUMPI PUSH1 0x20 SWAP1 PUSH1 0x40 SWAP1 PUSH1 0x1 PUSH1 0x1 PUSH1 0xA0 SHL SUB PUSH2 0xC12 PUSH2 0x188A JUMP JUMPDEST AND DUP2 MSTORE PUSH1 0x9 DUP4 MSTORE KECCAK256 SLOAD PUSH1 0x40 MLOAD SWAP1 DUP2 MSTORE RETURN JUMPDEST POP CALLVALUE PUSH2 0x229 JUMPI DUP1 PUSH1 0x3 NOT CALLDATASIZE ADD SLT PUSH2 0x229 JUMPI PUSH1 0x20 PUSH1 0xB SLOAD PUSH1 0x40 MLOAD SWAP1 DUP2 MSTORE RETURN JUMPDEST POP CALLVALUE PUSH2 0x229 JUMPI DUP1 PUSH1 0x3 NOT CALLDATASIZE ADD SLT PUSH2 0x229 JUMPI PUSH1 0xD SLOAD PUSH1 0x40 MLOAD PUSH1 0x1 PUSH1 0x1 PUSH1 0xA0 SHL SUB SWAP1 SWAP2 AND DUP2 MSTORE PUSH1 0x20 SWAP1 RETURN JUMPDEST POP CALLVALUE PUSH2 0x229 JUMPI PUSH1 0xC0 CALLDATASIZE PUSH1 0x3 NOT ADD SLT PUSH2 0x229 JUMPI PUSH2 0xC84 PUSH2 0x188A JUMP JUMPDEST PUSH1 0x24 CALLDATALOAD PUSH1 0x3 DUP2 LT ISZERO PUSH2 0x4B3 JUMPI PUSH1 0x44 CALLDATALOAD PUSH1 0x4 DUP2 LT ISZERO PUSH2 0xFDA JUMPI PUSH1 0x64 CALLDATALOAD PUSH1 0x84 CALLDATALOAD SWAP1 PUSH1 0xA4 CALLDATALOAD SWAP5 PUSH2 0xCAF PUSH2 0x1B7B JUMP JUMPDEST PUSH1 0x1 PUSH1 0x1 PUSH1 0xA0 SHL SUB AND SWAP5 DUP6 ISZERO PUSH2 0xFAB JUMPI PUSH2 0xCD2 PUSH1 0x64 PUSH2 0x5AE DUP4 PUSH2 0x5A9 DUP8 DUP8 PUSH2 0x1ABE JUMP JUMPDEST PUSH1 0x40 MLOAD SWAP2 PUSH2 0xCDF DUP4 PUSH2 0x195C JUMP JUMPDEST DUP7 DUP4 MSTORE PUSH1 0x20 DUP4 ADD SWAP4 PUSH2 0xCF1 DUP8 DUP7 PUSH2 0x1B3F JUMP JUMPDEST PUSH1 0x40 DUP5 ADD SWAP3 PUSH2 0xD00 DUP8 DUP6 PUSH2 0x1B4B JUMP JUMPDEST PUSH1 0x60 DUP6 ADD SWAP3 DUP4 MSTORE PUSH1 0x80 DUP6 ADD SWAP2 DUP3 MSTORE PUSH1 0xA0 DUP6 ADD SWAP1 DUP2 MSTORE PUSH1 0xC0 DUP6 ADD SWAP2 PUSH1 0x1 DUP4 MSTORE PUSH1 0xE0 DUP7 ADD SWAP4 DUP12 DUP6 MSTORE PUSH2 0x100 DUP8 ADD SWAP6 TIMESTAMP DUP8 MSTORE PUSH1 0x40 MLOAD SWAP9 PUSH1 0x20 DUP11 ADD DUP11 DUP2 LT PUSH8 0xFFFFFFFFFFFFFFFF DUP3 GT OR PUSH2 0xF97 JUMPI PUSH1 0x40 SWAP1 DUP2 MSTORE DUP15 DUP12 MSTORE PUSH2 0x120 DUP11 ADD SWAP11 DUP12 MSTORE DUP14 DUP16 MSTORE PUSH1 0x6 PUSH1 0x20 MSTORE DUP15 KECCAK256 SWAP9 MLOAD DUP10 SLOAD PUSH1 0x1 PUSH1 0x1 PUSH1 0xA0 SHL SUB NOT AND PUSH1 0x1 PUSH1 0x1 PUSH1 0xA0 SHL SUB SWAP2 SWAP1 SWAP2 AND OR DUP10 SSTORE MLOAD PUSH1 0x3 DUP2 LT ISZERO PUSH2 0xF83 JUMPI PUSH2 0xD95 SWAP1 DUP10 PUSH2 0x1AE3 JUMP JUMPDEST MLOAD PUSH1 0x4 DUP2 LT ISZERO PUSH2 0xF6F JUMPI SWAP2 PUSH2 0xDDF SWAP4 SWAP2 PUSH2 0xDB5 DUP10 SWAP9 SWAP8 SWAP7 SWAP5 PUSH1 0x7 SWAP11 PUSH2 0x1B57 JUMP JUMPDEST MLOAD PUSH1 0x1 DUP9 ADD SSTORE MLOAD PUSH1 0x2 DUP8 ADD SSTORE MLOAD PUSH1 0x3 DUP7 ADD SSTORE MLOAD ISZERO ISZERO PUSH1 0x4 DUP6 ADD SWAP1 PUSH1 0xFF DUP1 NOT DUP4 SLOAD AND SWAP2 ISZERO ISZERO AND OR SWAP1 SSTORE JUMP JUMPDEST MLOAD PUSH1 0x5 DUP4 ADD SSTORE MLOAD PUSH1 0x6 DUP3 ADD SSTORE ADD SWAP1 MLOAD DUP1 MLOAD SWAP1 PUSH8 0xFFFFFFFFFFFFFFFF DUP3 GT PUSH2 0xF5B JUMPI PUSH2 0xE0A DUP4 SLOAD PUSH2 0x18F4 JUMP JUMPDEST PUSH1 0x1F DUP2 GT PUSH2 0xF16 JUMPI JUMPDEST POP PUSH1 0x20 SWAP1 PUSH1 0x1F DUP4 GT PUSH1 0x1 EQ PUSH2 0xE8B JUMPI SWAP3 DUP3 PUSH2 0x5E3 SWAP4 PUSH1 0x40 SWAP7 SWAP4 PUSH32 0xAF1307087CC00AD3B7A702D21EC4C5080C5357E50B9B55959FD7B61E5B4B5E58 SWAP9 SWAP7 DUP12 SWAP3 PUSH2 0xE80 JUMPI JUMPDEST POP POP DUP2 PUSH1 0x1 SHL SWAP2 PUSH0 NOT SWAP1 PUSH1 0x3 SHL SHR NOT AND OR SWAP1 SSTORE JUMPDEST PUSH2 0xE76 DUP5 MLOAD DUP1 SWAP5 PUSH2 0x1A58 JUMP JUMPDEST PUSH1 0x20 DUP4 ADD SWAP1 PUSH2 0x1A65 JUMP JUMPDEST ADD MLOAD SWAP1 POP PUSH0 DUP1 PUSH2 0xE56 JUMP JUMPDEST DUP4 DUP9 MSTORE DUP2 DUP9 KECCAK256 SWAP2 SWAP1 PUSH1 0x1F NOT DUP5 AND DUP10 JUMPDEST DUP2 DUP2 LT PUSH2 0xEFE JUMPI POP SWAP4 PUSH1 0x40 SWAP7 SWAP4 PUSH32 0xAF1307087CC00AD3B7A702D21EC4C5080C5357E50B9B55959FD7B61E5B4B5E58 SWAP9 SWAP7 SWAP4 PUSH1 0x1 SWAP4 DUP4 PUSH2 0x5E3 SWAP9 LT PUSH2 0xEE6 JUMPI JUMPDEST POP POP POP DUP2 SHL ADD SWAP1 SSTORE PUSH2 0xE6A JUMP JUMPDEST ADD MLOAD PUSH0 NOT PUSH1 0xF8 DUP5 PUSH1 0x3 SHL AND SHR NOT AND SWAP1 SSTORE PUSH0 DUP1 DUP1 PUSH2 0xED9 JUMP JUMPDEST SWAP3 SWAP4 PUSH1 0x20 PUSH1 0x1 DUP2 SWAP3 DUP8 DUP7 ADD MLOAD DUP2 SSTORE ADD SWAP6 ADD SWAP4 ADD PUSH2 0xE9A JUMP JUMPDEST DUP4 DUP9 MSTORE PUSH1 0x20 DUP9 KECCAK256 PUSH1 0x1F DUP5 ADD PUSH1 0x5 SHR DUP2 ADD SWAP2 PUSH1 0x20 DUP6 LT PUSH2 0xF51 JUMPI JUMPDEST PUSH1 0x1F ADD PUSH1 0x5 SHR ADD SWAP1 JUMPDEST DUP2 DUP2 LT PUSH2 0xF46 JUMPI POP PUSH2 0xE13 JUMP JUMPDEST DUP9 DUP2 SSTORE PUSH1 0x1 ADD PUSH2 0xF39 JUMP JUMPDEST SWAP1 SWAP2 POP DUP2 SWAP1 PUSH2 0xF30 JUMP JUMPDEST PUSH4 0x4E487B71 PUSH1 0xE0 SHL DUP8 MSTORE PUSH1 0x41 PUSH1 0x4 MSTORE PUSH1 0x24 DUP8 REVERT JUMPDEST PUSH4 0x4E487B71 PUSH1 0xE0 SHL DUP14 MSTORE PUSH1 0x21 PUSH1 0x4 MSTORE PUSH1 0x24 DUP14 REVERT JUMPDEST PUSH4 0x4E487B71 PUSH1 0xE0 SHL DUP15 MSTORE PUSH1 0x21 PUSH1 0x4 MSTORE PUSH1 0x24 DUP15 REVERT JUMPDEST PUSH4 0x4E487B71 PUSH1 0xE0 SHL DUP16 MSTORE PUSH1 0x41 PUSH1 0x4 MSTORE PUSH1 0x24 DUP16 REVERT JUMPDEST PUSH1 0x40 MLOAD PUSH3 0x461BCD PUSH1 0xE5 SHL DUP2 MSTORE PUSH1 0x20 PUSH1 0x4 DUP3 ADD MSTORE PUSH1 0x7 PUSH1 0x24 DUP3 ADD MSTORE PUSH7 0x125B9D985B1A59 PUSH1 0xCA SHL PUSH1 0x44 DUP3 ADD MSTORE PUSH1 0x64 SWAP1 REVERT JUMPDEST DUP4 DUP1 REVERT JUMPDEST POP CALLVALUE PUSH2 0x229 JUMPI DUP1 PUSH1 0x3 NOT CALLDATASIZE ADD SLT PUSH2 0x229 JUMPI PUSH2 0xFF7 PUSH2 0x1B7B JUMP JUMPDEST DUP1 SLOAD PUSH1 0x1 PUSH1 0x1 PUSH1 0xA0 SHL SUB NOT DUP2 AND DUP3 SSTORE DUP2 SWAP1 PUSH1 0x1 PUSH1 0x1 PUSH1 0xA0 SHL SUB AND PUSH32 0x8BE0079C531659141344CD1FD0A4F28419497F9722A3DAAFE3B4186F6B6457E0 DUP3 DUP1 LOG3 DUP1 RETURN JUMPDEST POP CALLVALUE PUSH2 0x229 JUMPI PUSH1 0x20 CALLDATASIZE PUSH1 0x3 NOT ADD SLT PUSH2 0x229 JUMPI PUSH1 0x4 CALLDATALOAD SWAP1 PUSH1 0x3 DUP3 LT ISZERO PUSH2 0x229 JUMPI PUSH1 0x20 PUSH2 0x1062 DUP4 PUSH2 0x18C9 JUMP JUMPDEST SLOAD PUSH1 0x40 MLOAD SWAP1 DUP2 MSTORE RETURN JUMPDEST POP CALLVALUE PUSH2 0x229 JUMPI DUP1 PUSH1 0x3 NOT CALLDATASIZE ADD SLT PUSH2 0x229 JUMPI PUSH1 0x20 PUSH1 0xFF PUSH1 0x2 SLOAD AND PUSH1 0x40 MLOAD SWAP1 ISZERO ISZERO DUP2 MSTORE RETURN JUMPDEST POP CALLVALUE PUSH2 0x229 JUMPI PUSH1 0x40 CALLDATASIZE PUSH1 0x3 NOT ADD SLT PUSH2 0x229 JUMPI PUSH2 0x10A8 PUSH2 0x188A JUMP JUMPDEST PUSH1 0x1 PUSH1 0x1 PUSH1 0xA0 SHL SUB AND DUP2 MSTORE PUSH1 0x8 PUSH1 0x20 MSTORE PUSH1 0x40 DUP2 KECCAK256 DUP1 SLOAD PUSH1 0x24 CALLDATALOAD SWAP3 SWAP1 DUP4 LT ISZERO PUSH2 0x229 JUMPI PUSH1 0x20 PUSH2 0x10D6 DUP5 DUP5 PUSH2 0x18A0 JUMP JUMPDEST SWAP1 SLOAD SWAP1 PUSH1 0x3 SHL SHR PUSH1 0x40 MLOAD SWAP1 DUP2 MSTORE RETURN JUMPDEST POP CALLVALUE PUSH2 0x229 JUMPI PUSH1 0x20 CALLDATASIZE PUSH1 0x3 NOT ADD SLT PUSH2 0x229 JUMPI PUSH1 0x40 PUSH1 0xE0 SWAP2 PUSH1 0x4 CALLDATALOAD DUP2 MSTORE PUSH1 0x7 PUSH1 0x20 MSTORE KECCAK256 DUP1 SLOAD SWAP1 PUSH1 0x1 DUP1 PUSH1 0xA0 SHL SUB PUSH1 0x1 DUP3 ADD SLOAD AND SWAP1 PUSH1 0x2 DUP2 ADD SLOAD PUSH1 0x3 DUP3 ADD SLOAD PUSH1 0x4 DUP4 ADD SLOAD SWAP2 PUSH1 0x6 PUSH1 0xFF PUSH1 0x5 DUP7 ADD SLOAD AND SWAP5 ADD SLOAD SWAP5 PUSH1 0x40 MLOAD SWAP7 DUP8 MSTORE PUSH1 0x20 DUP8 ADD MSTORE PUSH1 0x40 DUP7 ADD MSTORE PUSH1 0x60 DUP6 ADD MSTORE PUSH1 0x80 DUP5 ADD MSTORE ISZERO ISZERO PUSH1 0xA0 DUP4 ADD MSTORE PUSH1 0xC0 DUP3 ADD MSTORE RETURN JUMPDEST POP CALLVALUE PUSH2 0x229 JUMPI DUP1 PUSH1 0x3 NOT CALLDATASIZE ADD SLT PUSH2 0x229 JUMPI PUSH2 0x1177 PUSH2 0x1B7B JUMP JUMPDEST PUSH1 0x2 SLOAD PUSH1 0xFF DUP2 AND ISZERO PUSH2 0x11B7 JUMPI PUSH1 0xFF NOT AND PUSH1 0x2 SSTORE PUSH32 0x5DB9EE0A495BF2E6FF9C91A7834C1BA4FDD244A5E8AA4E537BD38AEAE4B073AA PUSH1 0x20 PUSH1 0x40 MLOAD CALLER DUP2 MSTORE LOG1 DUP1 RETURN JUMPDEST PUSH1 0x40 MLOAD PUSH3 0x461BCD PUSH1 0xE5 SHL DUP2 MSTORE PUSH1 0x20 PUSH1 0x4 DUP3 ADD MSTORE PUSH1 0x14 PUSH1 0x24 DUP3 ADD MSTORE PUSH20 0x14185D5CD8589B194E881B9BDD081C185D5CD959 PUSH1 0x62 SHL PUSH1 0x44 DUP3 ADD MSTORE PUSH1 0x64 SWAP1 REVERT JUMPDEST POP CALLVALUE PUSH2 0x229 JUMPI PUSH1 0x20 CALLDATASIZE PUSH1 0x3 NOT ADD SLT PUSH2 0x229 JUMPI PUSH1 0x40 PUSH1 0xA0 SWAP2 PUSH1 0x4 CALLDATALOAD DUP2 MSTORE PUSH1 0x7 PUSH1 0x20 MSTORE KECCAK256 PUSH1 0x40 MLOAD SWAP1 PUSH2 0x1222 DUP3 PUSH2 0x192C JUMP JUMPDEST DUP1 SLOAD DUP3 MSTORE PUSH1 0x1 DUP1 DUP5 SHL SUB PUSH1 0x1 DUP3 ADD SLOAD AND SWAP2 DUP3 PUSH1 0x20 DUP3 ADD MSTORE PUSH1 0x2 DUP3 ADD SLOAD DUP1 PUSH1 0x40 DUP4 ADD MSTORE PUSH1 0x3 DUP4 ADD SLOAD SWAP1 DUP2 PUSH1 0x60 DUP5 ADD MSTORE PUSH1 0x4 DUP5 ADD SLOAD SWAP3 DUP4 PUSH1 0x80 DUP3 ADD MSTORE PUSH1 0xC0 PUSH1 0x6 PUSH1 0xFF PUSH1 0x5 DUP9 ADD SLOAD AND ISZERO ISZERO SWAP7 DUP8 DUP11 DUP6 ADD MSTORE ADD SLOAD SWAP2 ADD MSTORE PUSH1 0x40 MLOAD SWAP5 DUP6 MSTORE PUSH1 0x20 DUP6 ADD MSTORE PUSH1 0x40 DUP5 ADD MSTORE PUSH1 0x60 DUP4 ADD MSTORE PUSH1 0x80 DUP3 ADD MSTORE RETURN JUMPDEST POP CALLVALUE PUSH2 0x229 JUMPI PUSH1 0x20 CALLDATASIZE PUSH1 0x3 NOT ADD SLT PUSH2 0x229 JUMPI PUSH2 0x12AB PUSH2 0x188A JUMP JUMPDEST PUSH2 0x12B3 PUSH2 0x1B7B JUMP JUMPDEST PUSH1 0x1 PUSH1 0x1 PUSH1 0xA0 SHL SUB AND DUP2 MSTORE PUSH1 0x6 PUSH1 0x20 MSTORE PUSH1 0x40 DUP2 KECCAK256 PUSH1 0x4 ADD DUP1 SLOAD PUSH1 0xFF NOT AND SWAP1 SSTORE DUP1 RETURN JUMPDEST POP CALLVALUE PUSH2 0x229 JUMPI PUSH1 0x40 CALLDATASIZE PUSH1 0x3 NOT ADD SLT PUSH2 0x229 JUMPI PUSH2 0x12EF PUSH2 0x188A JUMP JUMPDEST PUSH1 0x24 CALLDATALOAD SWAP1 PUSH1 0x3 DUP3 LT ISZERO PUSH2 0x4B3 JUMPI PUSH2 0x1304 PUSH2 0x1B7B JUMP JUMPDEST PUSH1 0x1 PUSH1 0x1 PUSH1 0xA0 SHL SUB AND DUP1 DUP4 MSTORE PUSH1 0x6 PUSH1 0x20 MSTORE PUSH1 0x40 DUP4 KECCAK256 PUSH1 0x4 ADD SLOAD SWAP1 SWAP2 SWAP1 PUSH1 0xFF AND ISZERO PUSH2 0x138C JUMPI PUSH1 0x40 PUSH32 0xDC1910737B70A1E92A78532527EB68D7B419DB69F74792E7B4DDB1018B73DAEF SWAP2 DUP4 DUP6 MSTORE PUSH1 0x6 PUSH1 0x20 MSTORE PUSH2 0x5E3 PUSH1 0xFF DUP4 DUP8 KECCAK256 SLOAD PUSH1 0xA0 SHR AND SWAP2 DUP6 DUP8 MSTORE PUSH1 0x6 PUSH1 0x20 MSTORE PUSH2 0x1376 DUP2 DUP6 DUP10 KECCAK256 PUSH2 0x1AE3 JUMP JUMPDEST PUSH2 0x1382 DUP5 MLOAD DUP1 SWAP5 PUSH2 0x1A58 JUMP JUMPDEST PUSH1 0x20 DUP4 ADD SWAP1 PUSH2 0x1A58 JUMP JUMPDEST PUSH1 0x40 MLOAD PUSH3 0x461BCD PUSH1 0xE5 SHL DUP2 MSTORE PUSH1 0x20 PUSH1 0x4 DUP3 ADD MSTORE PUSH1 0x16 PUSH1 0x24 DUP3 ADD MSTORE PUSH22 0x10DC99585D1BDC881B9BDD081C9959DA5CDD195C9959 PUSH1 0x52 SHL PUSH1 0x44 DUP3 ADD MSTORE PUSH1 0x64 SWAP1 REVERT JUMPDEST POP CALLVALUE PUSH2 0x229 JUMPI DUP1 PUSH1 0x3 NOT CALLDATASIZE ADD SLT PUSH2 0x229 JUMPI PUSH1 0x3 SLOAD PUSH1 0x40 MLOAD PUSH1 0x1 PUSH1 0x1 PUSH1 0xA0 SHL SUB SWAP1 SWAP2 AND DUP2 MSTORE PUSH1 0x20 SWAP1 RETURN JUMPDEST POP CALLVALUE PUSH2 0x1603 JUMPI PUSH1 0x20 CALLDATASIZE PUSH1 0x3 NOT ADD SLT PUSH2 0x1603 JUMPI PUSH2 0x140D PUSH2 0x188A JUMP JUMPDEST PUSH2 0x1415 PUSH2 0x1B7B JUMP JUMPDEST PUSH2 0x141D PUSH2 0x1BD2 JUMP JUMPDEST PUSH2 0x1425 PUSH2 0x1C28 JUMP JUMPDEST PUSH1 0x1 DUP1 PUSH1 0xA0 SHL SUB DUP2 AND SWAP1 DUP2 PUSH0 MSTORE PUSH1 0x6 PUSH1 0x20 MSTORE PUSH2 0x144A PUSH1 0xFF PUSH1 0x4 PUSH1 0x40 PUSH0 KECCAK256 ADD SLOAD AND PUSH2 0x1A72 JUMP JUMPDEST DUP2 PUSH0 MSTORE PUSH1 0x9 PUSH1 0x20 MSTORE PUSH1 0x40 PUSH0 KECCAK256 SLOAD SWAP1 PUSH1 0xB SLOAD DUP3 LT PUSH2 0x1832 JUMPI DUP3 PUSH0 MSTORE PUSH1 0x6 PUSH1 0x20 MSTORE PUSH1 0x40 PUSH0 KECCAK256 SWAP2 DUP4 PUSH1 0x64 PUSH2 0x147F PUSH1 0x1 DUP7 ADD SLOAD DUP5 PUSH2 0x1AAB JUMP JUMPDEST DIV PUSH1 0x64 PUSH2 0x1490 PUSH1 0x2 DUP8 ADD SLOAD DUP6 PUSH2 0x1AAB JUMP JUMPDEST DIV SWAP3 PUSH1 0x64 PUSH2 0x14A2 PUSH1 0x3 DUP9 ADD SLOAD DUP4 PUSH2 0x1AAB JUMP JUMPDEST DIV SWAP6 DUP4 PUSH0 MSTORE PUSH1 0x9 PUSH1 0x20 MSTORE PUSH0 PUSH1 0x40 DUP2 KECCAK256 SSTORE PUSH1 0x6 TIMESTAMP SWAP2 ADD SSTORE DUP3 PUSH0 MSTORE PUSH1 0xA PUSH1 0x20 MSTORE PUSH2 0x14CF PUSH1 0x40 PUSH0 KECCAK256 SWAP2 DUP3 SLOAD PUSH2 0x1ABE JUMP JUMPDEST SWAP1 SSTORE DUP1 PUSH2 0x1800 JUMPI JUMPDEST POP POP DUP1 ISZERO DUP1 ISZERO PUSH2 0x164F JUMPI JUMPDEST POP POP DUP2 ISZERO SWAP1 DUP2 ISZERO PUSH2 0x14F6 JUMPI JUMPDEST DUP5 PUSH1 0x1 DUP1 SSTORE DUP1 RETURN JUMPDEST PUSH2 0x2710 DUP4 MUL SWAP2 DUP4 DUP4 DIV PUSH2 0x2710 EQ OR ISZERO PUSH2 0x163B JUMPI PUSH1 0x20 PUSH1 0x1 DUP1 PUSH1 0xA0 SHL SUB PUSH1 0x4 SLOAD AND SWAP3 PUSH1 0x24 PUSH1 0x40 MLOAD DUP1 SWAP6 DUP2 SWAP4 PUSH4 0x6B076141 PUSH1 0xE1 SHL DUP4 MSTORE PUSH1 0x4 DUP4 ADD MSTORE GAS STATICCALL SWAP2 DUP3 ISZERO PUSH2 0x15F8 JUMPI PUSH0 SWAP3 PUSH2 0x1607 JUMPI JUMPDEST POP PUSH1 0x2 SLOAD PUSH1 0x8 SHR PUSH1 0x1 PUSH1 0x1 PUSH1 0xA0 SHL SUB AND SWAP2 DUP3 EXTCODESIZE ISZERO PUSH2 0x1603 JUMPI PUSH1 0x40 MLOAD PUSH4 0xDF9DA37 PUSH1 0xE1 SHL DUP2 MSTORE PUSH1 0x1 PUSH1 0x1 PUSH1 0xA0 SHL SUB SWAP3 SWAP1 SWAP3 AND PUSH1 0x4 DUP4 ADD MSTORE PUSH1 0x24 DUP3 ADD MSTORE SWAP1 PUSH0 SWAP1 DUP3 SWAP1 PUSH1 0x44 SWAP1 DUP3 SWAP1 DUP5 SWAP1 GAS CALL DUP1 ISZERO PUSH2 0x15F8 JUMPI PUSH2 0x15E2 JUMPI JUMPDEST POP PUSH1 0x80 PUSH32 0x606FF1E9632BEB4E08A56115FA1B41C0F8BD35344E8527DDD9967C1260B60194 SWAP2 PUSH1 0x40 MLOAD SWAP1 DUP2 MSTORE PUSH1 0x40 PUSH1 0x20 DUP3 ADD MSTORE PUSH1 0x3 PUSH1 0x40 DUP3 ADD MSTORE PUSH3 0x535443 PUSH1 0xE8 SHL PUSH1 0x60 DUP3 ADD MSTORE LOG2 PUSH0 DUP1 DUP1 DUP1 PUSH2 0x14EE JUMP JUMPDEST PUSH2 0x15EF SWAP2 SWAP4 POP PUSH0 SWAP1 PUSH2 0x1996 JUMP JUMPDEST PUSH0 SWAP2 PUSH1 0x80 PUSH2 0x1593 JUMP JUMPDEST PUSH1 0x40 MLOAD RETURNDATASIZE PUSH0 DUP3 RETURNDATACOPY RETURNDATASIZE SWAP1 REVERT JUMPDEST PUSH0 DUP1 REVERT JUMPDEST SWAP1 SWAP2 POP PUSH1 0x20 DUP2 RETURNDATASIZE PUSH1 0x20 GT PUSH2 0x1633 JUMPI JUMPDEST DUP2 PUSH2 0x1623 PUSH1 0x20 SWAP4 DUP4 PUSH2 0x1996 JUMP JUMPDEST DUP2 ADD SUB SLT PUSH2 0x1603 JUMPI MLOAD SWAP1 PUSH0 PUSH2 0x153F JUMP JUMPDEST RETURNDATASIZE SWAP2 POP PUSH2 0x1616 JUMP JUMPDEST PUSH4 0x4E487B71 PUSH1 0xE0 SHL PUSH0 MSTORE PUSH1 0x11 PUSH1 0x4 MSTORE PUSH1 0x24 PUSH0 REVERT JUMPDEST PUSH2 0x2710 DUP3 MUL SWAP1 DUP3 DUP3 DIV PUSH2 0x2710 EQ OR ISZERO PUSH2 0x163B JUMPI PUSH1 0x3 SLOAD PUSH1 0xD SLOAD PUSH1 0x40 MLOAD PUSH4 0x70A08231 PUSH1 0xE0 SHL DUP2 MSTORE PUSH1 0x1 PUSH1 0x1 PUSH1 0xA0 SHL SUB SWAP2 DUP3 AND PUSH1 0x4 DUP3 ADD DUP2 SWAP1 MSTORE SWAP3 SWAP1 SWAP2 AND SWAP3 SWAP1 PUSH1 0x20 DUP2 PUSH1 0x24 DUP2 DUP8 GAS STATICCALL DUP1 ISZERO PUSH2 0x15F8 JUMPI DUP3 SWAP2 PUSH0 SWAP2 PUSH2 0x17CB JUMPI JUMPDEST POP LT PUSH2 0x1792 JUMPI PUSH1 0x64 PUSH1 0x20 SWAP3 PUSH0 PUSH1 0x40 MLOAD SWAP6 DUP7 SWAP5 DUP6 SWAP4 PUSH4 0x23B872DD PUSH1 0xE0 SHL DUP6 MSTORE PUSH1 0x4 DUP6 ADD MSTORE DUP12 PUSH1 0x24 DUP6 ADD MSTORE PUSH1 0x44 DUP5 ADD MSTORE GAS CALL SWAP1 DUP2 ISZERO PUSH2 0x15F8 JUMPI PUSH0 SWAP2 PUSH2 0x1773 JUMPI JUMPDEST POP ISZERO PUSH2 0x1737 JUMPI PUSH32 0x606FF1E9632BEB4E08A56115FA1B41C0F8BD35344E8527DDD9967C1260B60194 PUSH1 0x80 DUP6 SWAP3 PUSH1 0x40 MLOAD SWAP1 DUP2 MSTORE PUSH1 0x40 PUSH1 0x20 DUP3 ADD MSTORE PUSH1 0x4 PUSH1 0x40 DUP3 ADD MSTORE PUSH4 0x55534443 PUSH1 0xE0 SHL PUSH1 0x60 DUP3 ADD MSTORE LOG2 PUSH0 DUP1 PUSH2 0x14E2 JUMP JUMPDEST PUSH1 0x40 MLOAD PUSH3 0x461BCD PUSH1 0xE5 SHL DUP2 MSTORE PUSH1 0x20 PUSH1 0x4 DUP3 ADD MSTORE PUSH1 0x14 PUSH1 0x24 DUP3 ADD MSTORE PUSH20 0x1554D110C81D1C985B9CD9995C8819985A5B1959 PUSH1 0x62 SHL PUSH1 0x44 DUP3 ADD MSTORE PUSH1 0x64 SWAP1 REVERT JUMPDEST PUSH2 0x178C SWAP2 POP PUSH1 0x20 RETURNDATASIZE PUSH1 0x20 GT PUSH2 0x925 JUMPI PUSH2 0x919 DUP2 DUP4 PUSH2 0x1996 JUMP JUMPDEST PUSH0 PUSH2 0x16E3 JUMP JUMPDEST PUSH1 0x40 MLOAD PUSH3 0x461BCD PUSH1 0xE5 SHL DUP2 MSTORE PUSH1 0x20 PUSH1 0x4 DUP3 ADD MSTORE PUSH1 0x11 PUSH1 0x24 DUP3 ADD MSTORE PUSH17 0x496E73756666696369656E742055534443 PUSH1 0x78 SHL PUSH1 0x44 DUP3 ADD MSTORE PUSH1 0x64 SWAP1 REVERT JUMPDEST SWAP2 POP POP PUSH1 0x20 DUP2 RETURNDATASIZE PUSH1 0x20 GT PUSH2 0x17F8 JUMPI JUMPDEST DUP2 PUSH2 0x17E7 PUSH1 0x20 SWAP4 DUP4 PUSH2 0x1996 JUMP JUMPDEST DUP2 ADD SUB SLT PUSH2 0x1603 JUMPI DUP2 SWAP1 MLOAD PUSH0 PUSH2 0x16A5 JUMP JUMPDEST RETURNDATASIZE SWAP2 POP PUSH2 0x17DA JUMP JUMPDEST PUSH1 0x20 PUSH32 0xA3E51F2957F5E7C63F9EDF1654D5E767111F6EA0C4C9A8002B52AA01DE7D4FC0 SWAP2 PUSH1 0x40 MLOAD SWAP1 DUP2 MSTORE LOG2 DUP4 PUSH0 PUSH2 0x14D7 JUMP JUMPDEST PUSH1 0x40 MLOAD PUSH3 0x461BCD PUSH1 0xE5 SHL DUP2 MSTORE PUSH1 0x20 PUSH1 0x4 DUP3 ADD MSTORE PUSH1 0xF PUSH1 0x24 DUP3 ADD MSTORE PUSH15 0x10995B1BDDC81D1A1C995CDA1BDB19 PUSH1 0x8A SHL PUSH1 0x44 DUP3 ADD MSTORE PUSH1 0x64 SWAP1 REVERT JUMPDEST CALLVALUE PUSH2 0x1603 JUMPI PUSH1 0x20 CALLDATASIZE PUSH1 0x3 NOT ADD SLT PUSH2 0x1603 JUMPI PUSH2 0x1882 PUSH2 0x1B7B JUMP JUMPDEST PUSH1 0x4 CALLDATALOAD PUSH1 0xB SSTORE STOP JUMPDEST PUSH1 0x4 CALLDATALOAD SWAP1 PUSH1 0x1 PUSH1 0x1 PUSH1 0xA0 SHL SUB DUP3 AND DUP3 SUB PUSH2 0x1603 JUMPI JUMP JUMPDEST DUP1 SLOAD DUP3 LT ISZERO PUSH2 0x18B5 JUMPI PUSH0 MSTORE PUSH1 0x20 PUSH0 KECCAK256 ADD SWAP1 PUSH0 SWAP1 JUMP JUMPDEST PUSH4 0x4E487B71 PUSH1 0xE0 SHL PUSH0 MSTORE PUSH1 0x32 PUSH1 0x4 MSTORE PUSH1 0x24 PUSH0 REVERT JUMPDEST PUSH1 0x3 DUP2 LT ISZERO PUSH2 0x18E0 JUMPI PUSH0 MSTORE PUSH1 0x5 PUSH1 0x20 MSTORE PUSH1 0x40 PUSH0 KECCAK256 SWAP1 JUMP JUMPDEST PUSH4 0x4E487B71 PUSH1 0xE0 SHL PUSH0 MSTORE PUSH1 0x21 PUSH1 0x4 MSTORE PUSH1 0x24 PUSH0 REVERT JUMPDEST SWAP1 PUSH1 0x1 DUP3 DUP2 SHR SWAP3 AND DUP1 ISZERO PUSH2 0x1922 JUMPI JUMPDEST PUSH1 0x20 DUP4 LT EQ PUSH2 0x190E JUMPI JUMP JUMPDEST PUSH4 0x4E487B71 PUSH1 0xE0 SHL PUSH0 MSTORE PUSH1 0x22 PUSH1 0x4 MSTORE PUSH1 0x24 PUSH0 REVERT JUMPDEST SWAP2 PUSH1 0x7F AND SWAP2 PUSH2 0x1903 JUMP JUMPDEST PUSH1 0xE0 DUP2 ADD SWAP1 DUP2 LT PUSH8 0xFFFFFFFFFFFFFFFF DUP3 GT OR PUSH2 0x1948 JUMPI PUSH1 0x40 MSTORE JUMP JUMPDEST PUSH4 0x4E487B71 PUSH1 0xE0 SHL PUSH0 MSTORE PUSH1 0x41 PUSH1 0x4 MSTORE PUSH1 0x24 PUSH0 REVERT JUMPDEST PUSH2 0x140 DUP2 ADD SWAP1 DUP2 LT PUSH8 0xFFFFFFFFFFFFFFFF DUP3 GT OR PUSH2 0x1948 JUMPI PUSH1 0x40 MSTORE JUMP JUMPDEST PUSH2 0x100 DUP2 ADD SWAP1 DUP2 LT PUSH8 0xFFFFFFFFFFFFFFFF DUP3 GT OR PUSH2 0x1948 JUMPI PUSH1 0x40 MSTORE JUMP JUMPDEST SWAP1 PUSH1 0x1F DUP1 NOT SWAP2 ADD AND DUP2 ADD SWAP1 DUP2 LT PUSH8 0xFFFFFFFFFFFFFFFF DUP3 GT OR PUSH2 0x1948 JUMPI PUSH1 0x40 MSTORE JUMP JUMPDEST SWAP1 PUSH1 0x40 MLOAD SWAP2 DUP3 PUSH0 DUP3 SLOAD SWAP3 PUSH2 0x19CB DUP5 PUSH2 0x18F4 JUMP JUMPDEST DUP1 DUP5 MSTORE SWAP4 PUSH1 0x1 DUP2 AND SWAP1 DUP2 ISZERO PUSH2 0x1A36 JUMPI POP PUSH1 0x1 EQ PUSH2 0x19F2 JUMPI JUMPDEST POP PUSH2 0x19F0 SWAP3 POP SUB DUP4 PUSH2 0x1996 JUMP JUMPDEST JUMP JUMPDEST SWAP1 POP PUSH0 SWAP3 SWAP2 SWAP3 MSTORE PUSH1 0x20 PUSH0 KECCAK256 SWAP1 PUSH0 SWAP2 JUMPDEST DUP2 DUP4 LT PUSH2 0x1A1A JUMPI POP POP SWAP1 PUSH1 0x20 PUSH2 0x19F0 SWAP3 DUP3 ADD ADD PUSH0 PUSH2 0x19E3 JUMP JUMPDEST PUSH1 0x20 SWAP2 SWAP4 POP DUP1 PUSH1 0x1 SWAP2 SLOAD DUP4 DUP6 DUP10 ADD ADD MSTORE ADD SWAP2 ADD SWAP1 SWAP2 DUP5 SWAP3 PUSH2 0x1A01 JUMP JUMPDEST SWAP1 POP PUSH1 0x20 SWAP3 POP PUSH2 0x19F0 SWAP5 SWAP2 POP PUSH1 0xFF NOT AND DUP3 DUP5 ADD MSTORE ISZERO ISZERO PUSH1 0x5 SHL DUP3 ADD ADD PUSH0 PUSH2 0x19E3 JUMP JUMPDEST SWAP1 PUSH1 0x3 DUP3 LT ISZERO PUSH2 0x18E0 JUMPI MSTORE JUMP JUMPDEST SWAP1 PUSH1 0x4 DUP3 LT ISZERO PUSH2 0x18E0 JUMPI MSTORE JUMP JUMPDEST ISZERO PUSH2 0x1A79 JUMPI JUMP JUMPDEST PUSH1 0x40 MLOAD PUSH3 0x461BCD PUSH1 0xE5 SHL DUP2 MSTORE PUSH1 0x20 PUSH1 0x4 DUP3 ADD MSTORE PUSH1 0xA PUSH1 0x24 DUP3 ADD MSTORE PUSH10 0x4E6F7420616374697665 PUSH1 0xB0 SHL PUSH1 0x44 DUP3 ADD MSTORE PUSH1 0x64 SWAP1 REVERT JUMPDEST DUP2 DUP2 MUL SWAP3 SWAP2 DUP2 ISZERO SWAP2 DUP5 DIV EQ OR ISZERO PUSH2 0x163B JUMPI JUMP JUMPDEST SWAP2 SWAP1 DUP3 ADD DUP1 SWAP3 GT PUSH2 0x163B JUMPI JUMP JUMPDEST SWAP1 DUP2 PUSH1 0x20 SWAP2 SUB SLT PUSH2 0x1603 JUMPI MLOAD DUP1 ISZERO ISZERO DUP2 SUB PUSH2 0x1603 JUMPI SWAP1 JUMP JUMPDEST SWAP1 PUSH1 0x3 DUP2 LT ISZERO PUSH2 0x18E0 JUMPI DUP2 SLOAD PUSH1 0xFF PUSH1 0xA0 SHL NOT AND PUSH1 0xA0 SWAP2 SWAP1 SWAP2 SHL PUSH1 0xFF PUSH1 0xA0 SHL AND OR SWAP1 SSTORE JUMP JUMPDEST ISZERO PUSH2 0x1B0E JUMPI JUMP JUMPDEST PUSH1 0x40 MLOAD PUSH3 0x461BCD PUSH1 0xE5 SHL DUP2 MSTORE PUSH1 0x20 PUSH1 0x4 DUP3 ADD MSTORE PUSH1 0x9 PUSH1 0x24 DUP3 ADD MSTORE PUSH9 0x109859081CDC1B1A5D PUSH1 0xBA SHL PUSH1 0x44 DUP3 ADD MSTORE PUSH1 0x64 SWAP1 REVERT JUMPDEST PUSH1 0x3 DUP3 LT ISZERO PUSH2 0x18E0 JUMPI MSTORE JUMP JUMPDEST PUSH1 0x4 DUP3 LT ISZERO PUSH2 0x18E0 JUMPI MSTORE JUMP JUMPDEST SWAP1 PUSH1 0x4 DUP2 LT ISZERO PUSH2 0x18E0 JUMPI DUP2 SLOAD PUSH1 0xFF PUSH1 0xA8 SHL NOT AND PUSH1 0xA8 SWAP2 SWAP1 SWAP2 SHL PUSH1 0xFF PUSH1 0xA8 SHL AND OR SWAP1 SSTORE JUMP JUMPDEST PUSH0 SLOAD PUSH1 0x1 PUSH1 0x1 PUSH1 0xA0 SHL SUB AND CALLER SUB PUSH2 0x1B8E JUMPI JUMP JUMPDEST PUSH1 0x64 PUSH1 0x40 MLOAD PUSH3 0x461BCD PUSH1 0xE5 SHL DUP2 MSTORE PUSH1 0x20 PUSH1 0x4 DUP3 ADD MSTORE PUSH1 0x20 PUSH1 0x24 DUP3 ADD MSTORE PUSH32 0x4F776E61626C653A2063616C6C6572206973206E6F7420746865206F776E6572 PUSH1 0x44 DUP3 ADD MSTORE REVERT JUMPDEST PUSH1 0x2 PUSH1 0x1 SLOAD EQ PUSH2 0x1BE3 JUMPI PUSH1 0x2 PUSH1 0x1 SSTORE JUMP JUMPDEST PUSH1 0x40 MLOAD PUSH3 0x461BCD PUSH1 0xE5 SHL DUP2 MSTORE PUSH1 0x20 PUSH1 0x4 DUP3 ADD MSTORE PUSH1 0x1F PUSH1 0x24 DUP3 ADD MSTORE PUSH32 0x5265656E7472616E637947756172643A207265656E7472616E742063616C6C00 PUSH1 0x44 DUP3 ADD MSTORE PUSH1 0x64 SWAP1 REVERT JUMPDEST PUSH1 0xFF PUSH1 0x2 SLOAD AND PUSH2 0x1C34 JUMPI JUMP JUMPDEST PUSH1 0x40 MLOAD PUSH3 0x461BCD PUSH1 0xE5 SHL DUP2 MSTORE PUSH1 0x20 PUSH1 0x4 DUP3 ADD MSTORE PUSH1 0x10 PUSH1 0x24 DUP3 ADD MSTORE PUSH16 0x14185D5CD8589B194E881C185D5CD959 PUSH1 0x82 SHL PUSH1 0x44 DUP3 ADD MSTORE PUSH1 0x64 SWAP1 REVERT INVALID LOG2 PUSH5 0x6970667358 0x22 SLT KECCAK256 SIGNEXTEND LOG2 PUSH30 0x7032986F86C47749215368ABE2E4D17EED18F3672B21339E54E6852D0664 PUSH20 0x6F6C634300081C00330000000000000000000000 "},"methodIdentifiers":{"contentRevenues(uint256)":"433514a9","creatorContentIds(address,uint256)":"537822aa","creatorProfiles(address)":"95b04be2","deactivateCreator(address)":"24d85b19","emergencyWithdraw(address,uint256)":"95ccea67","getContentRevenue(uint256)":"31231e6d","getCreatorContentIds(address)":"8afc32d2","getCreatorProfile(address)":"9e39e58d","minimumPayoutAmount()":"7c5909a9","owner()":"8da5cb5b","pause()":"8456cb59","paused()":"5c975abb","pendingPayments(address)":"7f38e526","platformTreasury()":"e138818c","processCreatorPayment(address)":"067698db","recordContentRevenue(uint256,address,uint256)":"e4aabfcf","registerCreator(address,uint8,uint8,uint256,uint256,uint256)":"7991c068","renounceOwnership()":"715018a6","stcToken()":"f2792c23","tierRevenueShares(uint8)":"68047f06","tokenAMM()":"cb31c6f9","totalLifetimeEarnings(address)":"bd1da356","transferOwnership(address)":"f2fde38b","unpause()":"3f4ba83a","updateCreatorPaymentMethod(address,uint8,uint256,uint256,uint256)":"c1a6e203","updateCreatorTier(address,uint8)":"21bc687f","updateMinimumPayoutAmount(uint256)":"02f8e5fa","updateTierRevenueShare(uint8,uint256)":"823e5c14","usdcToken()":"11eac855","usdcTreasury()":"7afd6558"}}}}}