{
  "_format": "hh3-artifact-1",
  "contractName": "StudioToken",
  "sourceName": "contracts/StudioToken.sol",
  "abi": [
    {
      "inputs": [
        {
          "internalType": "address",
          "name": "_platformTreasury",
          "type": "address"
        },
        {
          "internalType": "address",
          "name": "_creatorRewardsPool",
          "type": "address"
        },
        {
          "internalType": "address",
          "name": "_userRewardsPool",
          "type": "address"
        },
        {
          "internalType": "address",
          "name": "_governancePool",
          "type": "address"
        },
        {
          "internalType": "address",
          "name": "_usdcToken",
          "type": "address"
        }
      ],
      "stateMutability": "nonpayable",
      "type": "constructor"
    },
    {
      "anonymous": false,
      "inputs": [
        {
          "indexed": true,
          "internalType": "address",
          "name": "owner",
          "type": "address"
        },
        {
          "indexed": true,
          "internalType": "address",
          "name": "spender",
          "type": "address"
        },
        {
          "indexed": false,
          "internalType": "uint256",
          "name": "value",
          "type": "uint256"
        }
      ],
      "name": "Approval",
      "type": "event"
    },
    {
      "anonymous": false,
      "inputs": [
        {
          "indexed": false,
          "internalType": "uint256",
          "name": "usdcAmount",
          "type": "uint256"
        }
      ],
      "name": "BuybackExecuted",
      "type": "event"
    },
    {
      "anonymous": false,
      "inputs": [
        {
          "indexed": true,
          "internalType": "address",
          "name": "creator",
          "type": "address"
        },
        {
          "indexed": false,
          "internalType": "uint256",
          "name": "amount",
          "type": "uint256"
        }
      ],
      "name": "CreatorIncentivePaid",
      "type": "event"
    },
    {
      "anonymous": false,
      "inputs": [
        {
          "indexed": true,
          "internalType": "address",
          "name": "previousOwner",
          "type": "address"
        },
        {
          "indexed": true,
          "internalType": "address",
          "name": "newOwner",
          "type": "address"
        }
      ],
      "name": "OwnershipTransferred",
      "type": "event"
    },
    {
      "anonymous": false,
      "inputs": [
        {
          "indexed": false,
          "internalType": "address",
          "name": "account",
          "type": "address"
        }
      ],
      "name": "Paused",
      "type": "event"
    },
    {
      "anonymous": false,
      "inputs": [
        {
          "indexed": false,
          "internalType": "uint256",
          "name": "stcAmount",
          "type": "uint256"
        },
        {
          "indexed": false,
          "internalType": "string",
          "name": "poolType",
          "type": "string"
        }
      ],
      "name": "PoolReplenished",
      "type": "event"
    },
    {
      "anonymous": false,
      "inputs": [
        {
          "indexed": false,
          "internalType": "uint256",
          "name": "usdcAmount",
          "type": "uint256"
        },
        {
          "indexed": false,
          "internalType": "uint256",
          "name": "stcReceived",
          "type": "uint256"
        },
        {
          "indexed": false,
          "internalType": "uint256",
          "name": "timestamp",
          "type": "uint256"
        }
      ],
      "name": "RevenueReplenishment",
      "type": "event"
    },
    {
      "anonymous": false,
      "inputs": [
        {
          "indexed": true,
          "internalType": "address",
          "name": "user",
          "type": "address"
        },
        {
          "indexed": false,
          "internalType": "uint256",
          "name": "amount",
          "type": "uint256"
        },
        {
          "indexed": false,
          "internalType": "string",
          "name": "rewardType",
          "type": "string"
        }
      ],
      "name": "RewardClaimed",
      "type": "event"
    },
    {
      "anonymous": false,
      "inputs": [
        {
          "indexed": true,
          "internalType": "address",
          "name": "user",
          "type": "address"
        },
        {
          "indexed": false,
          "internalType": "uint256",
          "name": "discountPercentage",
          "type": "uint256"
        }
      ],
      "name": "SubscriptionDiscount",
      "type": "event"
    },
    {
      "anonymous": false,
      "inputs": [
        {
          "indexed": true,
          "internalType": "address",
          "name": "user",
          "type": "address"
        },
        {
          "indexed": false,
          "internalType": "uint256",
          "name": "amount",
          "type": "uint256"
        },
        {
          "indexed": false,
          "internalType": "uint256",
          "name": "lockPeriod",
          "type": "uint256"
        }
      ],
      "name": "TokensStaked",
      "type": "event"
    },
    {
      "anonymous": false,
      "inputs": [
        {
          "indexed": true,
          "internalType": "address",
          "name": "user",
          "type": "address"
        },
        {
          "indexed": false,
          "internalType": "uint256",
          "name": "amount",
          "type": "uint256"
        }
      ],
      "name": "TokensUnstaked",
      "type": "event"
    },
    {
      "anonymous": false,
      "inputs": [
        {
          "indexed": true,
          "internalType": "address",
          "name": "from",
          "type": "address"
        },
        {
          "indexed": true,
          "internalType": "address",
          "name": "to",
          "type": "address"
        },
        {
          "indexed": false,
          "internalType": "uint256",
          "name": "value",
          "type": "uint256"
        }
      ],
      "name": "Transfer",
      "type": "event"
    },
    {
      "anonymous": false,
      "inputs": [
        {
          "indexed": false,
          "internalType": "address",
          "name": "account",
          "type": "address"
        }
      ],
      "name": "Unpaused",
      "type": "event"
    },
    {
      "inputs": [],
      "name": "COMMUNITY_GOVERNANCE_ALLOCATION",
      "outputs": [
        {
          "internalType": "uint256",
          "name": "",
          "type": "uint256"
        }
      ],
      "stateMutability": "view",
      "type": "function"
    },
    {
      "inputs": [],
      "name": "CREATOR_INCENTIVES_ALLOCATION",
      "outputs": [
        {
          "internalType": "uint256",
          "name": "",
          "type": "uint256"
        }
      ],
      "stateMutability": "view",
      "type": "function"
    },
    {
      "inputs": [],
      "name": "PLATFORM_DEVELOPMENT_ALLOCATION",
      "outputs": [
        {
          "internalType": "uint256",
          "name": "",
          "type": "uint256"
        }
      ],
      "stateMutability": "view",
      "type": "function"
    },
    {
      "inputs": [],
      "name": "TOTAL_SUPPLY",
      "outputs": [
        {
          "internalType": "uint256",
          "name": "",
          "type": "uint256"
        }
      ],
      "stateMutability": "view",
      "type": "function"
    },
    {
      "inputs": [],
      "name": "USER_REWARDS_ALLOCATION",
      "outputs": [
        {
          "internalType": "uint256",
          "name": "",
          "type": "uint256"
        }
      ],
      "stateMutability": "view",
      "type": "function"
    },
    {
      "inputs": [
        {
          "internalType": "address",
          "name": "owner",
          "type": "address"
        },
        {
          "internalType": "address",
          "name": "spender",
          "type": "address"
        }
      ],
      "name": "allowance",
      "outputs": [
        {
          "internalType": "uint256",
          "name": "",
          "type": "uint256"
        }
      ],
      "stateMutability": "view",
      "type": "function"
    },
    {
      "inputs": [
        {
          "internalType": "address",
          "name": "spender",
          "type": "address"
        },
        {
          "internalType": "uint256",
          "name": "amount",
          "type": "uint256"
        }
      ],
      "name": "approve",
      "outputs": [
        {
          "internalType": "bool",
          "name": "",
          "type": "bool"
        }
      ],
      "stateMutability": "nonpayable",
      "type": "function"
    },
    {
      "inputs": [
        {
          "internalType": "uint256",
          "name": "subscriptionRevenue",
          "type": "uint256"
        },
        {
          "internalType": "uint256",
          "name": "replenishPercentage",
          "type": "uint256"
        }
      ],
      "name": "autoReplenishFromRevenue",
      "outputs": [],
      "stateMutability": "nonpayable",
      "type": "function"
    },
    {
      "inputs": [
        {
          "internalType": "address",
          "name": "account",
          "type": "address"
        }
      ],
      "name": "balanceOf",
      "outputs": [
        {
          "internalType": "uint256",
          "name": "",
          "type": "uint256"
        }
      ],
      "stateMutability": "view",
      "type": "function"
    },
    {
      "inputs": [
        {
          "internalType": "uint256",
          "name": "amount",
          "type": "uint256"
        }
      ],
      "name": "burn",
      "outputs": [],
      "stateMutability": "nonpayable",
      "type": "function"
    },
    {
      "inputs": [
        {
          "internalType": "uint256",
          "name": "amount",
          "type": "uint256"
        }
      ],
      "name": "burnExcessSupply",
      "outputs": [],
      "stateMutability": "nonpayable",
      "type": "function"
    },
    {
      "inputs": [
        {
          "internalType": "address",
          "name": "account",
          "type": "address"
        },
        {
          "internalType": "uint256",
          "name": "amount",
          "type": "uint256"
        }
      ],
      "name": "burnFrom",
      "outputs": [],
      "stateMutability": "nonpayable",
      "type": "function"
    },
    {
      "inputs": [
        {
          "internalType": "uint256",
          "name": "usdcAmount",
          "type": "uint256"
        }
      ],
      "name": "buybackTokens",
      "outputs": [],
      "stateMutability": "nonpayable",
      "type": "function"
    },
    {
      "inputs": [
        {
          "internalType": "address",
          "name": "",
          "type": "address"
        }
      ],
      "name": "creatorIncentivesEarned",
      "outputs": [
        {
          "internalType": "uint256",
          "name": "",
          "type": "uint256"
        }
      ],
      "stateMutability": "view",
      "type": "function"
    },
    {
      "inputs": [],
      "name": "creatorRewardsPool",
      "outputs": [
        {
          "internalType": "address",
          "name": "",
          "type": "address"
        }
      ],
      "stateMutability": "view",
      "type": "function"
    },
    {
      "inputs": [],
      "name": "dailyUserRewardLimit",
      "outputs": [
        {
          "internalType": "uint256",
          "name": "",
          "type": "uint256"
        }
      ],
      "stateMutability": "view",
      "type": "function"
    },
    {
      "inputs": [],
      "name": "decimals",
      "outputs": [
        {
          "internalType": "uint8",
          "name": "",
          "type": "uint8"
        }
      ],
      "stateMutability": "view",
      "type": "function"
    },
    {
      "inputs": [
        {
          "internalType": "address",
          "name": "spender",
          "type": "address"
        },
        {
          "internalType": "uint256",
          "name": "subtractedValue",
          "type": "uint256"
        }
      ],
      "name": "decreaseAllowance",
      "outputs": [
        {
          "internalType": "bool",
          "name": "",
          "type": "bool"
        }
      ],
      "stateMutability": "nonpayable",
      "type": "function"
    },
    {
      "inputs": [
        {
          "internalType": "uint256",
          "name": "amount",
          "type": "uint256"
        },
        {
          "internalType": "string",
          "name": "fromPool",
          "type": "string"
        }
      ],
      "name": "emergencyPoolRebalance",
      "outputs": [],
      "stateMutability": "nonpayable",
      "type": "function"
    },
    {
      "inputs": [],
      "name": "getPoolSustainabilityMetrics",
      "outputs": [
        {
          "internalType": "uint256",
          "name": "userRewardsRemaining",
          "type": "uint256"
        },
        {
          "internalType": "uint256",
          "name": "dailyBurnRate",
          "type": "uint256"
        },
        {
          "internalType": "uint256",
          "name": "daysRemaining",
          "type": "uint256"
        },
        {
          "internalType": "uint256",
          "name": "monthlyReplenishmentRate",
          "type": "uint256"
        },
        {
          "internalType": "bool",
          "name": "isSustainable",
          "type": "bool"
        }
      ],
      "stateMutability": "view",
      "type": "function"
    },
    {
      "inputs": [
        {
          "internalType": "address",
          "name": "user",
          "type": "address"
        }
      ],
      "name": "getStakingInfo",
      "outputs": [
        {
          "internalType": "uint256",
          "name": "amount",
          "type": "uint256"
        },
        {
          "internalType": "uint256",
          "name": "stakingTime",
          "type": "uint256"
        },
        {
          "internalType": "uint256",
          "name": "lockPeriod",
          "type": "uint256"
        },
        {
          "internalType": "uint256",
          "name": "discountTier",
          "type": "uint256"
        },
        {
          "internalType": "bool",
          "name": "isUnlocked",
          "type": "bool"
        }
      ],
      "stateMutability": "view",
      "type": "function"
    },
    {
      "inputs": [
        {
          "internalType": "address",
          "name": "user",
          "type": "address"
        }
      ],
      "name": "getUserDiscount",
      "outputs": [
        {
          "internalType": "uint256",
          "name": "",
          "type": "uint256"
        }
      ],
      "stateMutability": "view",
      "type": "function"
    },
    {
      "inputs": [],
      "name": "governancePool",
      "outputs": [
        {
          "internalType": "address",
          "name": "",
          "type": "address"
        }
      ],
      "stateMutability": "view",
      "type": "function"
    },
    {
      "inputs": [
        {
          "internalType": "address",
          "name": "spender",
          "type": "address"
        },
        {
          "internalType": "uint256",
          "name": "addedValue",
          "type": "uint256"
        }
      ],
      "name": "increaseAllowance",
      "outputs": [
        {
          "internalType": "bool",
          "name": "",
          "type": "bool"
        }
      ],
      "stateMutability": "nonpayable",
      "type": "function"
    },
    {
      "inputs": [],
      "name": "lastReplenishmentTime",
      "outputs": [
        {
          "internalType": "uint256",
          "name": "",
          "type": "uint256"
        }
      ],
      "stateMutability": "view",
      "type": "function"
    },
    {
      "inputs": [
        {
          "internalType": "address",
          "name": "",
          "type": "address"
        }
      ],
      "name": "lastRewardClaim",
      "outputs": [
        {
          "internalType": "uint256",
          "name": "",
          "type": "uint256"
        }
      ],
      "stateMutability": "view",
      "type": "function"
    },
    {
      "inputs": [],
      "name": "monthlyRevenue",
      "outputs": [
        {
          "internalType": "uint256",
          "name": "",
          "type": "uint256"
        }
      ],
      "stateMutability": "view",
      "type": "function"
    },
    {
      "inputs": [],
      "name": "name",
      "outputs": [
        {
          "internalType": "string",
          "name": "",
          "type": "string"
        }
      ],
      "stateMutability": "view",
      "type": "function"
    },
    {
      "inputs": [],
      "name": "owner",
      "outputs": [
        {
          "internalType": "address",
          "name": "",
          "type": "address"
        }
      ],
      "stateMutability": "view",
      "type": "function"
    },
    {
      "inputs": [],
      "name": "pause",
      "outputs": [],
      "stateMutability": "nonpayable",
      "type": "function"
    },
    {
      "inputs": [],
      "name": "paused",
      "outputs": [
        {
          "internalType": "bool",
          "name": "",
          "type": "bool"
        }
      ],
      "stateMutability": "view",
      "type": "function"
    },
    {
      "inputs": [
        {
          "internalType": "address",
          "name": "creator",
          "type": "address"
        },
        {
          "internalType": "uint256",
          "name": "amount",
          "type": "uint256"
        }
      ],
      "name": "payCreatorIncentive",
      "outputs": [],
      "stateMutability": "nonpayable",
      "type": "function"
    },
    {
      "inputs": [],
      "name": "platformTreasury",
      "outputs": [
        {
          "internalType": "address",
          "name": "",
          "type": "address"
        }
      ],
      "stateMutability": "view",
      "type": "function"
    },
    {
      "inputs": [],
      "name": "referralReward",
      "outputs": [
        {
          "internalType": "uint256",
          "name": "",
          "type": "uint256"
        }
      ],
      "stateMutability": "view",
      "type": "function"
    },
    {
      "inputs": [],
      "name": "renounceOwnership",
      "outputs": [],
      "stateMutability": "nonpayable",
      "type": "function"
    },
    {
      "inputs": [
        {
          "internalType": "uint256",
          "name": "usdcAmount",
          "type": "uint256"
        }
      ],
      "name": "replenishRewardsPool",
      "outputs": [],
      "stateMutability": "nonpayable",
      "type": "function"
    },
    {
      "inputs": [
        {
          "internalType": "address",
          "name": "user",
          "type": "address"
        },
        {
          "internalType": "uint256",
          "name": "amount",
          "type": "uint256"
        },
        {
          "internalType": "string",
          "name": "rewardType",
          "type": "string"
        }
      ],
      "name": "rewardUser",
      "outputs": [],
      "stateMutability": "nonpayable",
      "type": "function"
    },
    {
      "inputs": [
        {
          "internalType": "address",
          "name": "_tokenAMM",
          "type": "address"
        }
      ],
      "name": "setTokenAMM",
      "outputs": [],
      "stateMutability": "nonpayable",
      "type": "function"
    },
    {
      "inputs": [
        {
          "internalType": "uint256",
          "name": "amount",
          "type": "uint256"
        },
        {
          "internalType": "uint256",
          "name": "lockPeriod",
          "type": "uint256"
        }
      ],
      "name": "stakeForDiscount",
      "outputs": [],
      "stateMutability": "nonpayable",
      "type": "function"
    },
    {
      "inputs": [
        {
          "internalType": "address",
          "name": "",
          "type": "address"
        }
      ],
      "name": "stakingInfo",
      "outputs": [
        {
          "internalType": "uint256",
          "name": "amount",
          "type": "uint256"
        },
        {
          "internalType": "uint256",
          "name": "stakingTime",
          "type": "uint256"
        },
        {
          "internalType": "uint256",
          "name": "lockPeriod",
          "type": "uint256"
        },
        {
          "internalType": "uint256",
          "name": "discountTier",
          "type": "uint256"
        }
      ],
      "stateMutability": "view",
      "type": "function"
    },
    {
      "inputs": [],
      "name": "symbol",
      "outputs": [
        {
          "internalType": "string",
          "name": "",
          "type": "string"
        }
      ],
      "stateMutability": "view",
      "type": "function"
    },
    {
      "inputs": [],
      "name": "tokenAMM",
      "outputs": [
        {
          "internalType": "contract TokenAMM",
          "name": "",
          "type": "address"
        }
      ],
      "stateMutability": "view",
      "type": "function"
    },
    {
      "inputs": [],
      "name": "totalBuybacks",
      "outputs": [
        {
          "internalType": "uint256",
          "name": "",
          "type": "uint256"
        }
      ],
      "stateMutability": "view",
      "type": "function"
    },
    {
      "inputs": [],
      "name": "totalReplenished",
      "outputs": [
        {
          "internalType": "uint256",
          "name": "",
          "type": "uint256"
        }
      ],
      "stateMutability": "view",
      "type": "function"
    },
    {
      "inputs": [],
      "name": "totalStaked",
      "outputs": [
        {
          "internalType": "uint256",
          "name": "",
          "type": "uint256"
        }
      ],
      "stateMutability": "view",
      "type": "function"
    },
    {
      "inputs": [],
      "name": "totalSupply",
      "outputs": [
        {
          "internalType": "uint256",
          "name": "",
          "type": "uint256"
        }
      ],
      "stateMutability": "view",
      "type": "function"
    },
    {
      "inputs": [
        {
          "internalType": "address",
          "name": "to",
          "type": "address"
        },
        {
          "internalType": "uint256",
          "name": "amount",
          "type": "uint256"
        }
      ],
      "name": "transfer",
      "outputs": [
        {
          "internalType": "bool",
          "name": "",
          "type": "bool"
        }
      ],
      "stateMutability": "nonpayable",
      "type": "function"
    },
    {
      "inputs": [
        {
          "internalType": "address",
          "name": "from",
          "type": "address"
        },
        {
          "internalType": "address",
          "name": "to",
          "type": "address"
        },
        {
          "internalType": "uint256",
          "name": "amount",
          "type": "uint256"
        }
      ],
      "name": "transferFrom",
      "outputs": [
        {
          "internalType": "bool",
          "name": "",
          "type": "bool"
        }
      ],
      "stateMutability": "nonpayable",
      "type": "function"
    },
    {
      "inputs": [
        {
          "internalType": "address",
          "name": "newOwner",
          "type": "address"
        }
      ],
      "name": "transferOwnership",
      "outputs": [],
      "stateMutability": "nonpayable",
      "type": "function"
    },
    {
      "inputs": [],
      "name": "unpause",
      "outputs": [],
      "stateMutability": "nonpayable",
      "type": "function"
    },
    {
      "inputs": [],
      "name": "unstake",
      "outputs": [],
      "stateMutability": "nonpayable",
      "type": "function"
    },
    {
      "inputs": [
        {
          "internalType": "uint256",
          "name": "_dailyLimit",
          "type": "uint256"
        },
        {
          "internalType": "uint256",
          "name": "_viewingRate",
          "type": "uint256"
        },
        {
          "internalType": "uint256",
          "name": "_referralReward",
          "type": "uint256"
        }
      ],
      "name": "updateRewardRates",
      "outputs": [],
      "stateMutability": "nonpayable",
      "type": "function"
    },
    {
      "inputs": [],
      "name": "usdcToken",
      "outputs": [
        {
          "internalType": "address",
          "name": "",
          "type": "address"
        }
      ],
      "stateMutability": "view",
      "type": "function"
    },
    {
      "inputs": [
        {
          "internalType": "address",
          "name": "",
          "type": "address"
        }
      ],
      "name": "userRewardsEarned",
      "outputs": [
        {
          "internalType": "uint256",
          "name": "",
          "type": "uint256"
        }
      ],
      "stateMutability": "view",
      "type": "function"
    },
    {
      "inputs": [],
      "name": "userRewardsPool",
      "outputs": [
        {
          "internalType": "address",
          "name": "",
          "type": "address"
        }
      ],
      "stateMutability": "view",
      "type": "function"
    },
    {
      "inputs": [],
      "name": "viewingRewardRate",
      "outputs": [
        {
          "internalType": "uint256",
          "name": "",
          "type": "uint256"
        }
      ],
      "stateMutability": "view",
      "type": "function"
    }
  ],
  "bytecode": "0x6080604052346106ac57612def60a0813803918261001c816106b0565b9384928339810103126106ac57610032816106d5565b61003e602083016106d5565b9161004b604082016106d5565b610063608061005c606085016106d5565b93016106d5565b9261006e60406106b0565b600c81526b29ba3ab234b7902a37b5b2b760a11b602082015261009160406106b0565b600381526253544360e81b6020820152815190916001600160401b0382116105af5760035490600182811c921680156106a2575b60208310146105915781601f849311610634575b50602090601f83116001146105ce575f926105c3575b50508160011b915f199060031b1c1916176003555b8051906001600160401b0382116105af5760045490600182811c921680156105a5575b60208310146105915781601f849311610523575b50602090601f83116001146104bd575f926104b2575b50508160011b915f199060031b1c1916176004555b60058054336001600160a01b0319821681179092556001600160a01b03167f8be0079c531659141344cd1fd0a4f28419497f9722a3daafe3b4186f6b6457e05f80a360016006556007805460ff191690556802b5e3af16b1880000601155674563918244f4000060125568056bc75e2d63100000601355600b80546001600160a01b03199081166001600160a01b03938416908117909255600c8054821697841697909717909655600d8054871693831693909317909255600e8054861693821693909317909255601080549094169290911691909117909155801561046d5760ff60075416610435576002546af8277896582678ac000000810180911161042157600255805f525f60205260405f206af8277896582678ac00000081540190555f5f516020612dcf5f395f51905f5260206040516af8277896582678ac0000008152a3600c546001600160a01b0316801561046d5760ff60075416610435576002546b019d971e4fe8401e74000000810180911161042157600255805f525f60205260405f206b019d971e4fe8401e7400000081540190555f5f516020612dcf5f395f51905f5260206040516b019d971e4fe8401e740000008152a3600d546001600160a01b0316801561046d5760ff60075416610435576002546b033b2e3c9fd0803ce8000000810180911161042157600255805f525f60205260405f206b033b2e3c9fd0803ce800000081540190555f5f516020612dcf5f395f51905f5260206040516b033b2e3c9fd0803ce80000008152a3600e546001600160a01b0316801561046d5760ff60075416610435576002546aa56fa5b99019a5c8000000810180911161042157600255805f525f60205260405f206aa56fa5b99019a5c800000081540190555f5f516020612dcf5f395f51905f5260206040516aa56fa5b99019a5c80000008152a36040516126e590816106ea8239f35b634e487b7160e01b5f52601160045260245ffd5b60405162461bcd60e51b815260206004820152601060248201526f14185d5cd8589b194e881c185d5cd95960821b6044820152606490fd5b60405162461bcd60e51b815260206004820152601f60248201527f45524332303a206d696e7420746f20746865207a65726f2061646472657373006044820152606490fd5b015190505f80610151565b60045f9081528281209350601f198516905b81811061050b57509084600195949392106104f3575b505050811b01600455610166565b01515f1960f88460031b161c191690555f80806104e5565b929360206001819287860151815501950193016104cf565b60045f529091507f8a35acfbc15ff81a39ae7d344fd709f28e8600b4aa8c65c6b64bfe7fe36bd19b601f840160051c81019160208510610587575b90601f859493920160051c01905b818110610579575061013b565b5f815584935060010161056c565b909150819061055e565b634e487b7160e01b5f52602260045260245ffd5b91607f1691610127565b634e487b7160e01b5f52604160045260245ffd5b015190505f806100ef565b60035f9081528281209350601f198516905b81811061061c5750908460019594939210610604575b505050811b01600355610104565b01515f1960f88460031b161c191690555f80806105f6565b929360206001819287860151815501950193016105e0565b60035f529091507fc2575a0e9e593c00f959f8c92f12db2869c3395a3b0502d05e2516446f71f85b601f840160051c81019160208510610698575b90601f859493920160051c01905b81811061068a57506100d9565b5f815584935060010161067d565b909150819061066f565b91607f16916100c5565b5f80fd5b6040519190601f01601f191682016001600160401b038111838210176105af57604052565b51906001600160a01b03821682036106ac5756fe6080806040526004361015610012575f80fd5b5f905f3560e01c908163057c4db814611ef95750806306fdde0314611e05578063095ea7b314611ddf5780630b71e00b14611dc25780630deb344814611da557806311eac85514611d7d57806318160ddd14611d605780631a5e3c9d14611d3a5780631bf3b46e14611c2057806323b872dd14611be85780632d25232514611bc05780632def662014611ab65780633034033714611a91578063313ce56714611a765780633950935114611a285780633ce62d9f14611a0b5780633f4ba83a1461197857806342966c681461195957806347c5cd2a146117845780634d683674146117675780635c975abb14611745578063624c0cdd1461160757806364906198146113dc5780636f7e3cc2146113be57806370a0823114611385578063715018a614611328578063778603eb1461115a57806379cc679014611126578063817b1cd2146111085780638456cb59146110ad57806384fb3a9a146110815780638da5cb5b14611058578063902d55a51461103157806394eecb5014610fd557806395d89b4114610ec85780639b6c701c14610e8f578063a457c2d714610dec578063a79775ed14610dc6578063a9059cbb14610d94578063aa4704f314610cf2578063b0c5900114610a53578063ba75909714610852578063bca671ed14610819578063bcc6cc41146107ea578063bea5b7951461062c578063cb31c6f914610603578063cb371f83146105e5578063cfdb2146146105bc578063d405d8d114610595578063d8ad52311461055c578063d93fd0ac14610472578063dd62ed3e1461041f578063de67507c14610401578063e0d571ce1461037a578063e138818c146103515763f2fde38b14610286575f80fd5b3461034e57602036600319011261034e5761029f611f40565b6102a761224d565b6001600160a01b031680156102fa57600580546001600160a01b0319811683179091556001600160a01b03167f8be0079c531659141344cd1fd0a4f28419497f9722a3daafe3b4186f6b6457e08380a380f35b60405162461bcd60e51b815260206004820152602660248201527f4f776e61626c653a206e6577206f776e657220697320746865207a65726f206160448201526564647265737360d01b6064820152608490fd5b80fd5b503461034e578060031936011261034e57600b546040516001600160a01b039091168152602090f35b503461034e57602036600319011261034e57610394611f40565b61039c61224d565b6001600160a01b031680156103c6576bffffffffffffffffffffffff60a01b600f541617600f5580f35b60405162461bcd60e51b8152602060048201526013602482015272496e76616c696420414d4d206164647265737360681b6044820152606490fd5b503461034e578060031936011261034e576020601754604051908152f35b503461034e57604036600319011261034e57604061043b611f40565b91610444611f56565b9260018060a01b031681526001602052209060018060a01b03165f52602052602060405f2054604051908152f35b503461034e578060031936011261034e57600d546001600160a01b03165f908152602081905260409020546011546103e88102918183046103e8148215171561054857801561054257821561052e578281045b60175490601e820293828504601e148315171561051a576175300294808604601e148115171561051a576040805194855260208501919091528301526060820152911115608082015290508060a081015b0390f35b634e487b7160e01b87526011600452602487fd5b634e487b7160e01b84526012600452602484fd5b836104c5565b634e487b7160e01b84526011600452602484fd5b503461034e57602036600319011261034e576020906040906001600160a01b03610584611f40565b168152600a83522054604051908152f35b503461034e578060031936011261034e5760206040516b033b2e3c9fd0803ce80000008152f35b503461034e578060031936011261034e57600e546040516001600160a01b039091168152602090f35b503461034e578060031936011261034e576020601654604051908152f35b503461034e578060031936011261034e57600f546040516001600160a01b039091168152602090f35b503461034e57602036600319011261034e5760043561064961224d565b61065481151561207e565b600b546001600160a01b03165f8181526020819052604090205490919081116107a5578115610752576106856122a5565b8183528260205260408320548181106106fe57828261dead9492859387528660205203604086205581855284602052604085208381540190555f5160206126905f395f51905f526020604051858152a3600b546040519182526001600160a01b0316905f5160206126905f395f51905f5290602090a380f35b60405162461bcd60e51b815260206004820152602660248201527f45524332303a207472616e7366657220616d6f756e7420657863656564732062604482015265616c616e636560d01b6064820152608490fd5b60405162461bcd60e51b815260206004820152602560248201527f45524332303a207472616e736665722066726f6d20746865207a65726f206164604482015264647265737360d81b6064820152608490fd5b60405162461bcd60e51b815260206004820152601d60248201527f496e73756666696369656e742074726561737572792062616c616e63650000006044820152606490fd5b503461034e57606036600319011261034e5761080461224d565b60043560115560243560125560443560135580f35b503461034e57602036600319011261034e576020906040906001600160a01b03610841611f40565b168152600983522054604051908152f35b503461034e5761086136611f6c565b610869612445565b6108716122a5565b8115610a1e576276a70081148015610a12575b8015610a05575b80156109f8575b156109c457338352826020528160408420541061098857816108b782610954946125d0565b913385526014602052604085206108cf83825461202a565b90553385526014602052426001604087200155338552601460205280600260408720015533855260146020528260036040872001556109108260155461202a565b60155561091e8230336122e9565b60405191825260208201527fdd2a19c3bdd089cbe77c04f5655f83de0504d6140d12c8667646f55d0557c4dc60403392a2612596565b6040519081527f166b66141eddf1022b455c0df20ff3fc626cc5a985b305ac9be44e4481e32e3b60203392a2600160065580f35b60405162461bcd60e51b8152602060048201526014602482015273496e73756666696369656e742062616c616e636560601b6044820152606490fd5b60405162461bcd60e51b815260206004820152600c60248201526b496e76616c6964206c6f636b60a01b6044820152606490fd5b506303c267008114610892565b506301e13380811461088b565b5062ed4e008114610884565b60405162461bcd60e51b815260206004820152600d60248201526c496e76616c6964207374616b6560981b6044820152606490fd5b503461034e57602036600319011261034e57600435610a7061224d565b610a78612445565b600f54610a8f906001600160a01b03161515612044565b610a9a81151561207e565b6010546040516323b872dd60e01b815233600482015230602482015260448101839052906020908290606490829087906001600160a01b03165af18015610cca57610cd5575b50601054600f5460405163095ea7b360e01b81526001600160a01b0391821660048201526024810184905291602091839160449183918891165af18015610cca57610c9d575b5030825281602052604082205482602060018060a01b03600f541660446040518094819363f10de81b60e01b83528860048401528160248401525af18015610c9257610c4f575b505f5160206126705f395f51905f52917f19d7be5674e942aab4e8ddacce8deac21b36cdba15a7741bd125850aa0dad417610c0e610bb9610c4494308852876020526040882054612037565b92610bcf8460018060a01b03600d5416306122e9565b610bdb8160165461202a565b601655610bea8460175461202a565b60175542601981905560408051928352602083018690528201529081906060820190565b0390a160405191829182608091815260406020820152600c60408201526b757365725f7265776172647360a01b60608201520190565b0390a1600160065580f35b916020833d602011610c8a575b81610c6960209383611fb2565b81010312610c865791505f5160206126705f395f51905f52610b6d565b5f80fd5b3d9150610c5c565b6040513d86823e3d90fd5b610cbe9060203d602011610cc3575b610cb68183611fb2565b8101906120bb565b610b26565b503d610cac565b6040513d85823e3d90fd5b610ced9060203d602011610cc357610cb68183611fb2565b610ae0565b503461034e57602036600319011261034e576040906001600160a01b03610d17611f40565b16815260146020522060405190610d2d82611f82565b6105168154918284526060600182015494856020820152600360028401549384604084015201549182910152610d63828661202a565b421015916040519586958693909594919260809360a086019786526020860152604085015260608401521515910152565b503461034e57604036600319011261034e57610dbb610db1611f40565b60243590336122e9565b602060405160018152f35b503461034e578060031936011261034e5760206040516aa56fa5b99019a5c80000008152f35b503461034e57604036600319011261034e57610e06611f40565b60406024359233815260016020522060018060a01b0382165f5260205260405f205491808310610e3c57610dbb92039033612149565b60405162461bcd60e51b815260206004820152602560248201527f45524332303a2064656372656173656420616c6c6f77616e63652062656c6f77604482015264207a65726f60d81b6064820152608490fd5b503461034e57602036600319011261034e576020906040906001600160a01b03610eb7611f40565b168152600883522054604051908152f35b503461034e578060031936011261034e576040519080600454908160011c91600181168015610fcb575b602084108114610fb757838652908115610f905750600114610f33575b61051684610f1f81860382611fb2565b604051918291602083526020830190611f1c565b600481527f8a35acfbc15ff81a39ae7d344fd709f28e8600b4aa8c65c6b64bfe7fe36bd19b939250905b808210610f7657509091508101602001610f1f82610f0f565b919260018160209254838588010152019101909291610f5d565b60ff191660208087019190915292151560051b85019092019250610f1f9150839050610f0f565b634e487b7160e01b83526022600452602483fd5b92607f1692610ef2565b503461034e57602036600319011261034e576080906040906001600160a01b03610ffd611f40565b1681526014602052208054906001810154906003600282015491015491604051938452602084015260408301526060820152f35b503461034e578060031936011261034e5760206040516b06765c793fa10079d00000008152f35b503461034e578060031936011261034e576005546040516001600160a01b039091168152602090f35b503461034e57602036600319011261034e5760206110a56110a0611f40565b6120d3565b604051908152f35b503461034e578060031936011261034e576110c661224d565b6110ce6122a5565b600160ff1960075416176007557f62e78cea01bee320cd4e420270b5ea74000d11b0c9f74754ebdbfc544b05a2586020604051338152a180f35b503461034e578060031936011261034e576020601554604051908152f35b503461034e57604036600319011261034e57611157611143611f40565b602435906111528233836123ad565b61249b565b80f35b503461034e57604036600319011261034e5760043560243567ffffffffffffffff81116113245761118f903690600401611fd4565b61119761224d565b6111a282151561207e565b805160208201908120916040926008602085516111bf8782611fb2565b8281520167706c6174666f726d60c01b815220145f146112ab575050600b546001600160a01b03165b6001600160a01b0381168452602084905281842054831161125b5791601360809261122d835f5160206126705f395f51905f529660018060a01b03600d5416906122e9565b805192835280602084015282015272656d657267656e63795f726562616c616e636560681b6060820152a180f35b815162461bcd60e51b815260206004820152602360248201527f496e73756666696369656e742062616c616e636520696e20736f7572636520706044820152621bdbdb60ea1b6064820152608490fd5b519020600a602083516112be8582611fb2565b8281520169676f7665726e616e636560b01b815220145f146112eb57600e546001600160a01b03166111e8565b5162461bcd60e51b8152602060048201526013602482015272125b9d985b1a59081cdbdd5c98d9481c1bdbdb606a1b6044820152606490fd5b8280fd5b503461034e578060031936011261034e5761134161224d565b600580546001600160a01b0319811690915581906001600160a01b03167f8be0079c531659141344cd1fd0a4f28419497f9722a3daafe3b4186f6b6457e08280a380f35b503461034e57602036600319011261034e5760206110a56113a4611f40565b6001600160a01b03165f9081526020819052604090205490565b503461034e578060031936011261034e576020601254604051908152f35b503461034e57606036600319011261034e576113f6611f40565b6024359060443567ffffffffffffffff81116116035761141a903690600401611fd4565b61142261224d565b61142a6122a5565b6001600160a01b0382169283156115cf57801561158a57838552600a60205260408520546201518081018091116115765742101561152f57838552600860205261147881604087205461202a565b601154106114f3576114d1817fc7207087d1b9602815027342116944238a53ba3db91a70042ead521a6fcff5c8945b8688526008602052604088206114be83825461202a565b9055600d546001600160a01b03166122e9565b6114ed6040519283928352604060208401526040830190611f1c565b0390a280f35b60405162461bcd60e51b815260206004820152601460248201527311185a5b1e481b1a5b5a5d08195e18d95959195960621b6044820152606490fd5b6114d1817fc7207087d1b9602815027342116944238a53ba3db91a70042ead521a6fcff5c8948688526008602052876040812055868852600a6020524260408920556114a7565b634e487b7160e01b86526011600452602486fd5b60405162461bcd60e51b815260206004820152601760248201527f526577617264206d75737420626520706f7369746976650000000000000000006044820152606490fd5b60405162461bcd60e51b815260206004820152600c60248201526b24b73b30b634b2103ab9b2b960a11b6044820152606490fd5b8380fd5b5034610c86576020366003190112610c865760043561162461224d565b600f5461168c9060209083906001600160a01b0316611644811515612044565b61164f82151561207e565b60105460405163095ea7b360e01b81526001600160a01b0392831660048201526024810193909352919384929091169082905f9082906044820190565b03925af1801561171d57611728575b50600f546001600160a01b0316803b15610c86575f8091602460405180948193636869c67360e01b83528760048401525af1801561171d57611707575b5060207fd2c5a6b66fbd4c28346666274dd95b77fd31d5c730deb119439b2b5482deafc991604051908152a180f35b6117149192505f90611fb2565b5f9060206116d8565b6040513d5f823e3d90fd5b6117409060203d602011610cc357610cb68183611fb2565b61169b565b34610c86575f366003190112610c8657602060ff600754166040519015158152f35b34610c86575f366003190112610c86576020601354604051908152f35b34610c865761179236611f6c565b61179a61224d565b6117a2612445565b6064811161191f5780820290828204148215171561190b5760646117ca91049160185461202a565b601855801515806117dd575b6001600655005b6020826118039261164f60018060a01b03600f5416916117fe831515612044565b61207e565b03925af1801561171d576118ee575b50305f525f60205260405f20545f602060018060a01b03600f541660446040518094819363f10de81b60e01b83528860048401528160248401525af1801561171d576118af575b505f5160206126705f395f51905f52917f19d7be5674e942aab4e8ddacce8deac21b36cdba15a7741bd125850aa0dad417610c0e610bb96118a594305f525f60205260405f2054612037565b0390a180806117d6565b916020833d6020116118e6575b816118c960209383611fb2565b81010312610c865791505f5160206126705f395f51905f52611859565b3d91506118bc565b6119069060203d602011610cc357610cb68183611fb2565b611812565b634e487b7160e01b5f52601160045260245ffd5b60405162461bcd60e51b8152602060048201526012602482015271496e76616c69642070657263656e7461676560701b6044820152606490fd5b34610c86576020366003190112610c86576119766004353361249b565b005b34610c86575f366003190112610c865761199061224d565b60075460ff8116156119cf5760ff19166007557f5db9ee0a495bf2e6ff9c91a7834c1ba4fdd244a5e8aa4e537bd38aeae4b073aa6020604051338152a1005b60405162461bcd60e51b815260206004820152601460248201527314185d5cd8589b194e881b9bdd081c185d5cd95960621b6044820152606490fd5b34610c86575f366003190112610c86576020601954604051908152f35b34610c86576040366003190112610c8657610dbb611a44611f40565b335f52600160205260405f2060018060a01b0382165f52602052611a6f60405f20602435905461202a565b9033612149565b34610c86575f366003190112610c8657602060405160128152f35b34610c86575f366003190112610c865760206040516af8277896582678ac0000008152f35b34610c86575f366003190112610c8657611ace612445565b335f52601460205260405f208054908115611b8a576001810190815490611afb600282019283549061202a565b4210611b5c575f60039281809581855555550155611b1b81601554612037565b601555611b298133306122e9565b6040519081527f9845e367b683334e5c0b12d7b81721ac518e649376fa65e3d68324e8f34f267960203392a26001600655005b60405162461bcd60e51b8152602060048201526006602482015265131bd8dad95960d21b6044820152606490fd5b60405162461bcd60e51b815260206004820152600e60248201526d139bdd1a1a5b99c81cdd185ad95960921b6044820152606490fd5b34610c86575f366003190112610c8657600c546040516001600160a01b039091168152602090f35b34610c86576060366003190112610c8657610dbb611c04611f40565b611c0c611f56565b60443591611c1b8333836123ad565b6122e9565b34610c86576040366003190112610c8657611c39611f40565b602435611c4461224d565b611c4c6122a5565b6001600160a01b038216918215611d03578115611cbe5781611cb57fe876cc410803e6d5fe8014d579482bf680a25d7d9b96f30d08634efaeb1f81bc93602093865f526009855260405f20611ca283825461202a565b9055600c546001600160a01b03166122e9565b604051908152a2005b60405162461bcd60e51b815260206004820152601a60248201527f496e63656e74697665206d75737420626520706f7369746976650000000000006044820152606490fd5b60405162461bcd60e51b815260206004820152600f60248201526e24b73b30b634b21031b932b0ba37b960891b6044820152606490fd5b34610c86575f366003190112610c865760206040516b019d971e4fe8401e740000008152f35b34610c86575f366003190112610c86576020600254604051908152f35b34610c86575f366003190112610c86576010546040516001600160a01b039091168152602090f35b34610c86575f366003190112610c86576020601154604051908152f35b34610c86575f366003190112610c86576020601854604051908152f35b34610c86576040366003190112610c8657610dbb611dfb611f40565b6024359033612149565b34610c86575f366003190112610c86576040515f6003548060011c90600181168015611eef575b602083108114611edb57828552908115611eb75750600114611e59575b61051683610f1f81850382611fb2565b91905060035f527fc2575a0e9e593c00f959f8c92f12db2869c3395a3b0502d05e2516446f71f85b915f905b808210611e9d57509091508101602001610f1f611e49565b919260018160209254838588010152019101909291611e85565b60ff191660208086019190915291151560051b84019091019150610f1f9050611e49565b634e487b7160e01b5f52602260045260245ffd5b91607f1691611e2c565b34610c86575f366003190112610c8657600d546001600160a01b03168152602090f35b805180835260209291819084018484015e5f828201840152601f01601f1916010190565b600435906001600160a01b0382168203610c8657565b602435906001600160a01b0382168203610c8657565b6040906003190112610c86576004359060243590565b6080810190811067ffffffffffffffff821117611f9e57604052565b634e487b7160e01b5f52604160045260245ffd5b90601f8019910116810190811067ffffffffffffffff821117611f9e57604052565b81601f82011215610c865780359067ffffffffffffffff8211611f9e5760405192612009601f8401601f191660200185611fb2565b82845260208383010111610c8657815f926020809301838601378301015290565b9190820180921161190b57565b9190820391821161190b57565b1561204b57565b60405162461bcd60e51b815260206004820152600b60248201526a105353481b9bdd081cd95d60aa1b6044820152606490fd5b1561208557565b60405162461bcd60e51b815260206004820152600e60248201526d125b9d985b1a5908185b5bdd5b9d60921b6044820152606490fd5b90816020910312610c8657518015158103610c865790565b60018060a01b03165f52601460205260405f20604051906120f382611f82565b8054908183526001810154918260208501526060600360028401549384604088015201549401938452156121425761212a9161202a565b421061213557505f90565b61213f9051612596565b90565b5050505f90565b6001600160a01b03169081156121fc576001600160a01b03169182156121ac5760207f8c5be1e5ebec7d5bd14f71427d1e84f3dd0314c0f7b2291e5b200ac8c7c3b92591835f526001825260405f20855f5282528060405f2055604051908152a3565b60405162461bcd60e51b815260206004820152602260248201527f45524332303a20617070726f766520746f20746865207a65726f206164647265604482015261737360f01b6064820152608490fd5b60405162461bcd60e51b8152602060048201526024808201527f45524332303a20617070726f76652066726f6d20746865207a65726f206164646044820152637265737360e01b6064820152608490fd5b6005546001600160a01b0316330361226157565b606460405162461bcd60e51b815260206004820152602060248201527f4f776e61626c653a2063616c6c6572206973206e6f7420746865206f776e65726044820152fd5b60ff600754166122b157565b60405162461bcd60e51b815260206004820152601060248201526f14185d5cd8589b194e881c185d5cd95960821b6044820152606490fd5b6001600160a01b0316908115610752576001600160a01b031691821561235c576123116122a5565b815f525f60205260405f20548181106106fe57815f5160206126905f395f51905f5292602092855f525f84520360405f2055845f525f825260405f20818154019055604051908152a3565b60405162461bcd60e51b815260206004820152602360248201527f45524332303a207472616e7366657220746f20746865207a65726f206164647260448201526265737360e81b6064820152608490fd5b9060018060a01b0382165f52600160205260405f2060018060a01b0382165f5260205260405f2054925f1984036123e5575b50505050565b808410612400576123f7930391612149565b5f8080806123df565b60405162461bcd60e51b815260206004820152601d60248201527f45524332303a20696e73756666696369656e7420616c6c6f77616e63650000006044820152606490fd5b600260065414612456576002600655565b60405162461bcd60e51b815260206004820152601f60248201527f5265656e7472616e637947756172643a207265656e7472616e742063616c6c006044820152606490fd5b6001600160a01b03168015612547576124b26122a5565b805f525f60205260405f2054918083106124f7576020815f5160206126905f395f51905f52925f958587528684520360408620558060025403600255604051908152a3565b60405162461bcd60e51b815260206004820152602260248201527f45524332303a206275726e20616d6f756e7420657863656564732062616c616e604482015261636560f01b6064820152608490fd5b60405162461bcd60e51b815260206004820152602160248201527f45524332303a206275726e2066726f6d20746865207a65726f206164647265736044820152607360f81b6064820152608490fd5b600181146125ca57600281146125c457600381146125be576004146125b9575f90565b603290565b50602390565b50601490565b50600a90565b691fc3842bd1f071c0000081101561265a57690a968163f0a57b4000008110156126455769032d26d12e980b6000008110156126305769010f0cf064dd59200000111561261c57505f90565b6303c267001161262b57600290565b600190565b506303c267001161264057600390565b600290565b506303c267001161265557600490565b600390565b506303c267001161266a57600490565b60049056fe2a9565427c30ec85c6645c285a5c911f49dcd2360efa9cb858979eadbc5700ecddf252ad1be2c89b69c2b068fc378daa952ba7f163c4a11628f55a4df523b3efa2646970667358221220ce53d36f8b415a970095e55b36c36d08ed637361907b769e070a49ceb7e3475064736f6c634300081c0033ddf252ad1be2c89b69c2b068fc378daa952ba7f163c4a11628f55a4df523b3ef",
  "linkReferences": {},
  "deployedLinkReferences": {},
  "immutableReferences": {},
  "inputSourceName": "project/contracts/StudioToken.sol",
  "buildInfoId": "solc-0_8_28-f93a728f0e8dd6f5f7f1123fb9551d190c5a58e6"
}