{
  "_format": "hh3-artifact-1",
  "contractName": "TokenAMM",
  "sourceName": "contracts/TokenAMM.sol",
  "abi": [
    {
      "inputs": [
        {
          "internalType": "address",
          "name": "_stcToken",
          "type": "address"
        },
        {
          "internalType": "address",
          "name": "_usdcToken",
          "type": "address"
        },
        {
          "internalType": "address",
          "name": "_treasury",
          "type": "address"
        }
      ],
      "stateMutability": "nonpayable",
      "type": "constructor"
    },
    {
      "anonymous": false,
      "inputs": [
        {
          "indexed": false,
          "internalType": "uint256",
          "name": "usdcUsed",
          "type": "uint256"
        },
        {
          "indexed": false,
          "internalType": "uint256",
          "name": "stcBurned",
          "type": "uint256"
        }
      ],
      "name": "BuybackExecuted",
      "type": "event"
    },
    {
      "anonymous": false,
      "inputs": [
        {
          "indexed": true,
          "internalType": "address",
          "name": "provider",
          "type": "address"
        },
        {
          "indexed": false,
          "internalType": "uint256",
          "name": "stcAmount",
          "type": "uint256"
        },
        {
          "indexed": false,
          "internalType": "uint256",
          "name": "usdcAmount",
          "type": "uint256"
        },
        {
          "indexed": false,
          "internalType": "uint256",
          "name": "lpMinted",
          "type": "uint256"
        }
      ],
      "name": "LiquidityAdded",
      "type": "event"
    },
    {
      "anonymous": false,
      "inputs": [
        {
          "indexed": true,
          "internalType": "address",
          "name": "provider",
          "type": "address"
        },
        {
          "indexed": false,
          "internalType": "uint256",
          "name": "stcAmount",
          "type": "uint256"
        },
        {
          "indexed": false,
          "internalType": "uint256",
          "name": "usdcAmount",
          "type": "uint256"
        },
        {
          "indexed": false,
          "internalType": "uint256",
          "name": "lpBurned",
          "type": "uint256"
        }
      ],
      "name": "LiquidityRemoved",
      "type": "event"
    },
    {
      "anonymous": false,
      "inputs": [
        {
          "indexed": true,
          "internalType": "address",
          "name": "previousOwner",
          "type": "address"
        },
        {
          "indexed": true,
          "internalType": "address",
          "name": "newOwner",
          "type": "address"
        }
      ],
      "name": "OwnershipTransferred",
      "type": "event"
    },
    {
      "anonymous": false,
      "inputs": [
        {
          "indexed": false,
          "internalType": "address",
          "name": "account",
          "type": "address"
        }
      ],
      "name": "Paused",
      "type": "event"
    },
    {
      "anonymous": false,
      "inputs": [
        {
          "indexed": false,
          "internalType": "uint256",
          "name": "newRevenue",
          "type": "uint256"
        },
        {
          "indexed": false,
          "internalType": "uint256",
          "name": "timestamp",
          "type": "uint256"
        }
      ],
      "name": "RevenueUpdated",
      "type": "event"
    },
    {
      "anonymous": false,
      "inputs": [
        {
          "indexed": true,
          "internalType": "address",
          "name": "trader",
          "type": "address"
        },
        {
          "indexed": true,
          "internalType": "address",
          "name": "tokenIn",
          "type": "address"
        },
        {
          "indexed": true,
          "internalType": "address",
          "name": "tokenOut",
          "type": "address"
        },
        {
          "indexed": false,
          "internalType": "uint256",
          "name": "amountIn",
          "type": "uint256"
        },
        {
          "indexed": false,
          "internalType": "uint256",
          "name": "amountOut",
          "type": "uint256"
        }
      ],
      "name": "TokenSwapped",
      "type": "event"
    },
    {
      "anonymous": false,
      "inputs": [
        {
          "indexed": false,
          "internalType": "address",
          "name": "account",
          "type": "address"
        }
      ],
      "name": "Unpaused",
      "type": "event"
    },
    {
      "inputs": [
        {
          "internalType": "uint256",
          "name": "stcAmount",
          "type": "uint256"
        },
        {
          "internalType": "uint256",
          "name": "usdcAmount",
          "type": "uint256"
        },
        {
          "internalType": "uint256",
          "name": "minLp",
          "type": "uint256"
        }
      ],
      "name": "addLiquidity",
      "outputs": [
        {
          "internalType": "uint256",
          "name": "lpMinted",
          "type": "uint256"
        }
      ],
      "stateMutability": "nonpayable",
      "type": "function"
    },
    {
      "inputs": [],
      "name": "buybackPercentage",
      "outputs": [
        {
          "internalType": "uint256",
          "name": "",
          "type": "uint256"
        }
      ],
      "stateMutability": "view",
      "type": "function"
    },
    {
      "inputs": [],
      "name": "buybackReserve",
      "outputs": [
        {
          "internalType": "uint256",
          "name": "",
          "type": "uint256"
        }
      ],
      "stateMutability": "view",
      "type": "function"
    },
    {
      "inputs": [
        {
          "internalType": "address",
          "name": "token",
          "type": "address"
        },
        {
          "internalType": "uint256",
          "name": "amount",
          "type": "uint256"
        }
      ],
      "name": "emergencyWithdraw",
      "outputs": [],
      "stateMutability": "nonpayable",
      "type": "function"
    },
    {
      "inputs": [
        {
          "internalType": "uint256",
          "name": "usdcAmount",
          "type": "uint256"
        }
      ],
      "name": "executeBuyback",
      "outputs": [],
      "stateMutability": "nonpayable",
      "type": "function"
    },
    {
      "inputs": [],
      "name": "getPoolInfo",
      "outputs": [
        {
          "internalType": "uint256",
          "name": "",
          "type": "uint256"
        },
        {
          "internalType": "uint256",
          "name": "",
          "type": "uint256"
        },
        {
          "internalType": "uint256",
          "name": "",
          "type": "uint256"
        },
        {
          "internalType": "uint256",
          "name": "",
          "type": "uint256"
        },
        {
          "internalType": "uint256",
          "name": "",
          "type": "uint256"
        }
      ],
      "stateMutability": "view",
      "type": "function"
    },
    {
      "inputs": [],
      "name": "getSTCPrice",
      "outputs": [
        {
          "internalType": "uint256",
          "name": "",
          "type": "uint256"
        }
      ],
      "stateMutability": "view",
      "type": "function"
    },
    {
      "inputs": [
        {
          "internalType": "uint256",
          "name": "usdcAmount",
          "type": "uint256"
        }
      ],
      "name": "getStcAmountOut",
      "outputs": [
        {
          "internalType": "uint256",
          "name": "",
          "type": "uint256"
        }
      ],
      "stateMutability": "view",
      "type": "function"
    },
    {
      "inputs": [],
      "name": "lastRevenueUpdate",
      "outputs": [
        {
          "internalType": "uint256",
          "name": "",
          "type": "uint256"
        }
      ],
      "stateMutability": "view",
      "type": "function"
    },
    {
      "inputs": [],
      "name": "lpToken",
      "outputs": [
        {
          "internalType": "contract LPToken",
          "name": "",
          "type": "address"
        }
      ],
      "stateMutability": "view",
      "type": "function"
    },
    {
      "inputs": [],
      "name": "maxPriceImpact",
      "outputs": [
        {
          "internalType": "uint256",
          "name": "",
          "type": "uint256"
        }
      ],
      "stateMutability": "view",
      "type": "function"
    },
    {
      "inputs": [],
      "name": "maxTradeSize",
      "outputs": [
        {
          "internalType": "uint256",
          "name": "",
          "type": "uint256"
        }
      ],
      "stateMutability": "view",
      "type": "function"
    },
    {
      "inputs": [],
      "name": "monthlyPlatformRevenue",
      "outputs": [
        {
          "internalType": "uint256",
          "name": "",
          "type": "uint256"
        }
      ],
      "stateMutability": "view",
      "type": "function"
    },
    {
      "inputs": [],
      "name": "owner",
      "outputs": [
        {
          "internalType": "address",
          "name": "",
          "type": "address"
        }
      ],
      "stateMutability": "view",
      "type": "function"
    },
    {
      "inputs": [],
      "name": "pause",
      "outputs": [],
      "stateMutability": "nonpayable",
      "type": "function"
    },
    {
      "inputs": [],
      "name": "paused",
      "outputs": [
        {
          "internalType": "bool",
          "name": "",
          "type": "bool"
        }
      ],
      "stateMutability": "view",
      "type": "function"
    },
    {
      "inputs": [],
      "name": "protocolFeeShare",
      "outputs": [
        {
          "internalType": "uint256",
          "name": "",
          "type": "uint256"
        }
      ],
      "stateMutability": "view",
      "type": "function"
    },
    {
      "inputs": [
        {
          "internalType": "uint256",
          "name": "lpAmount",
          "type": "uint256"
        },
        {
          "internalType": "uint256",
          "name": "minStc",
          "type": "uint256"
        },
        {
          "internalType": "uint256",
          "name": "minUsdc",
          "type": "uint256"
        }
      ],
      "name": "removeLiquidity",
      "outputs": [
        {
          "internalType": "uint256",
          "name": "stcOut",
          "type": "uint256"
        },
        {
          "internalType": "uint256",
          "name": "usdcOut",
          "type": "uint256"
        }
      ],
      "stateMutability": "nonpayable",
      "type": "function"
    },
    {
      "inputs": [],
      "name": "renounceOwnership",
      "outputs": [],
      "stateMutability": "nonpayable",
      "type": "function"
    },
    {
      "inputs": [],
      "name": "stcReserve",
      "outputs": [
        {
          "internalType": "uint256",
          "name": "",
          "type": "uint256"
        }
      ],
      "stateMutability": "view",
      "type": "function"
    },
    {
      "inputs": [],
      "name": "stcToken",
      "outputs": [
        {
          "internalType": "contract StudioToken",
          "name": "",
          "type": "address"
        }
      ],
      "stateMutability": "view",
      "type": "function"
    },
    {
      "inputs": [
        {
          "internalType": "uint256",
          "name": "stcIn",
          "type": "uint256"
        },
        {
          "internalType": "uint256",
          "name": "minUsdcOut",
          "type": "uint256"
        }
      ],
      "name": "swapSTCForUSDC",
      "outputs": [
        {
          "internalType": "uint256",
          "name": "usdcOut",
          "type": "uint256"
        }
      ],
      "stateMutability": "nonpayable",
      "type": "function"
    },
    {
      "inputs": [
        {
          "internalType": "uint256",
          "name": "usdcIn",
          "type": "uint256"
        },
        {
          "internalType": "uint256",
          "name": "minStcOut",
          "type": "uint256"
        }
      ],
      "name": "swapUSDCForSTC",
      "outputs": [
        {
          "internalType": "uint256",
          "name": "stcOut",
          "type": "uint256"
        }
      ],
      "stateMutability": "nonpayable",
      "type": "function"
    },
    {
      "inputs": [],
      "name": "tradingFee",
      "outputs": [
        {
          "internalType": "uint256",
          "name": "",
          "type": "uint256"
        }
      ],
      "stateMutability": "view",
      "type": "function"
    },
    {
      "inputs": [
        {
          "internalType": "address",
          "name": "newOwner",
          "type": "address"
        }
      ],
      "name": "transferOwnership",
      "outputs": [],
      "stateMutability": "nonpayable",
      "type": "function"
    },
    {
      "inputs": [],
      "name": "treasury",
      "outputs": [
        {
          "internalType": "address",
          "name": "",
          "type": "address"
        }
      ],
      "stateMutability": "view",
      "type": "function"
    },
    {
      "inputs": [],
      "name": "unpause",
      "outputs": [],
      "stateMutability": "nonpayable",
      "type": "function"
    },
    {
      "inputs": [
        {
          "internalType": "uint256",
          "name": "newRevenue",
          "type": "uint256"
        }
      ],
      "name": "updatePlatformRevenue",
      "outputs": [],
      "stateMutability": "nonpayable",
      "type": "function"
    },
    {
      "inputs": [
        {
          "internalType": "uint256",
          "name": "_tradingFee",
          "type": "uint256"
        },
        {
          "internalType": "uint256",
          "name": "_maxImpact",
          "type": "uint256"
        },
        {
          "internalType": "uint256",
          "name": "_maxTradeSize",
          "type": "uint256"
        }
      ],
      "name": "updateTradingParameters",
      "outputs": [],
      "stateMutability": "nonpayable",
      "type": "function"
    },
    {
      "inputs": [],
      "name": "usdcReserve",
      "outputs": [
        {
          "internalType": "uint256",
          "name": "",
          "type": "uint256"
        }
      ],
      "stateMutability": "view",
      "type": "function"
    },
    {
      "inputs": [],
      "name": "usdcToken",
      "outputs": [
        {
          "internalType": "contract IERC20",
          "name": "",
          "type": "address"
        }
      ],
      "stateMutability": "view",
      "type": "function"
    }
  ],
  "bytecode": "0x608080604052346101b457606081612d41803803809161001f82856101cc565b8339810103126101b457610032816101ef565b9061004b6040610044602084016101ef565b92016101ef565b5f8054336001600160a01b0319821681178355604051959394939290916001600160a01b0316907f8be0079c531659141344cd1fd0a4f28419497f9722a3daafe3b4186f6b6457e09080a36001805560028054610320600a908155601e600c55600d556101f4600e5569152d02c7e14af6800000600f556001600160a81b03191660089290921b610100600160a81b0316919091179055600380546001600160a01b03199081166001600160a01b03938416179091556004805490911692909116919091179055610f9c8181016001600160401b038111838210176101b8578291611da5833903905ff080156101a957600580546001600160a01b0319166001600160a01b03929092169182179055803b156101b4575f809160246040518094819363f2fde38b60e01b83523060048401525af180156101a957610199575b604051611ba190816102048239f35b5f6101a3916101cc565b5f61018a565b6040513d5f823e3d90fd5b5f80fd5b634e487b7160e01b5f52604160045260245ffd5b601f909101601f19168101906001600160401b038211908210176101b857604052565b51906001600160a01b03821682036101b45756fe6080806040526004361015610012575f80fd5b5f905f3560e01c90816310fa79e2146115645750806311eac8551461153c57806316c8357f1461151f57806327453ef9146114815780633ac932761461127e5780633f4ba83a146111eb578063422f104314610e1c57806342854c5414610dfe57806356f4335214610de05780635c975abb14610dbd5780635fcbd28514610d9457806360246c8814610c7d57806361d027b314610c545780636869c67314610b025780636a5809cc14610ae4578063715018a614610a8a57806371b59c5814610a6f5780638456cb5914610a14578063857620e1146107875780638da5cb5b1461076057806395ccea6714610655578063960b26a214610637578063b8e4c9c914610619578063d60ec282146105f2578063e9573bc2146105d4578063f10de81b14610319578063f2792c23146102ec578063f2fde38b14610226578063f59eb2dc14610208578063fa86f649146101935763ff90956014610173575f80fd5b346101905780600319360112610190576020600954604051908152f35b80fd5b5034610190576020366003190112610190577fea69ac0d1d4089d1beeb438a97b8828b39e2b7bc649baf674b8d5a375bf88b7460406004356101d36118a5565b8060085542600b556101f66127106101ed600a54846117dd565b04600954611720565b6009558151908152426020820152a180f35b50346101905780600319360112610190576020600a54604051908152f35b5034610190576020366003190112610190576102406115ae565b6102486118a5565b6001600160a01b031680156102985781546001600160a01b03198116821783556001600160a01b03167f8be0079c531659141344cd1fd0a4f28419497f9722a3daafe3b4186f6b6457e08380a380f35b60405162461bcd60e51b815260206004820152602660248201527f4f776e61626c653a206e6577206f776e657220697320746865207a65726f206160448201526564647265737360d01b6064820152608490fd5b503461019057806003193601126101905760025460405160089190911c6001600160a01b03168152602090f35b50346101905761032836611598565b906103316118fc565b610339611952565b6103448115156115c4565b600754600654610355818385611a53565b929094851015806105c8575b156105835761037e916103749185611996565b600e541015611600565b6003546040516323b872dd60e01b815233600482015230602482015260448101849052906020908290606490829089906001600160a01b03165af18015610559576103d0918691610564575b5061174e565b6103dc82600754611720565b6007556103eb83600654611741565b60065560025460405163a9059cbb60e01b81523360048201526024810185905290602090829060081c6001600160a01b03168188816044810103925af180156105595761043f91869161053a575b506116de565b806104a0575b60035460025460408051858152602081810188905293879360081c6001600160a01b039081169391169133917fd36cc53ba71bc76a3db3364981f5296dd4ca5eba0e8c89874f2170515bd20d2491a460018055604051908152f35b6002546004805460405163a9059cbb60e01b81526001600160a01b039182169281019290925260248201939093529160209183916044918391899160081c165af190811561052f57906104fc9160209591610502575b50611791565b5f610445565b6105229150853d8711610528575b61051a8183611690565b8101906116c6565b5f6104f6565b503d610510565b6040513d86823e3d90fd5b610553915060203d6020116105285761051a8183611690565b5f610439565b6040513d87823e3d90fd5b61057d915060203d6020116105285761051a8183611690565b5f6103ca565b60405162461bcd60e51b815260206004820152601b60248201527f536c697070616765206f7220747261646520746f6f206c6172676500000000006044820152606490fd5b50600f54851115610361565b50346101905780600319360112610190576020600654604051908152f35b5034610190576020366003190112610190576020610611600435611873565b604051908152f35b50346101905780600319360112610190576020600b54604051908152f35b50346101905780600319360112610190576020600d54604051908152f35b50346101905760403660031901126101905761066f6115ae565b6106776118a5565b6002546001600160a01b039182169160089190911c168114158061074b575b1561070657815460405163a9059cbb60e01b81526001600160a01b0390911660048201526024803590820152906020908290604490829086905af180156106fb576106df575080f35b6106f79060203d6020116105285761051a8183611690565b5080f35b6040513d84823e3d90fd5b60405162461bcd60e51b815260206004820152601d60248201527f43616e6e6f7420776974686472617720636f72652072657365727665730000006044820152606490fd5b506003546001600160a01b0316811415610696565b5034610190578060031936011261019057546040516001600160a01b039091168152602090f35b5034610190576107963661157e565b90916107a06118fc565b6107a8611952565b80156109db576005546040516318160ddd60e01b81529385916001600160a01b031690602086600481855afa9586156109d0578396610992575b50610837906006549661082f610801826107fc8b8a6117dd565b6117f0565b809961082a610817600754956107fc878d6117dd565b9a8b968410159081610987575b50611644565b611741565b600655611741565b600755803b1561098357604051632770a7eb60e21b8152336004820152602481018490529082908290604490829084905af180156106fb5761096a575b505060025460405163a9059cbb60e01b81523360048201526024810185905290602090829060081c6001600160a01b03168188816044810103925af18015610559576108c691869161053a57506116de565b60035460405163a9059cbb60e01b815233600482015260248101849052906020908290604490829089906001600160a01b03165af190811561055957906109159160409691610564575061174e565b7f1dc8bb69df2b8e91fbdcbfcf93d951b3f0000f085a95fe3f7946d6161439245d84518061095733948688846040919493926060820195825260208201520152565b0390a26001805582519182526020820152f35b8161097491611690565b61097f57835f610874565b8380fd5b5080fd5b90508610155f610824565b925094506020823d6020116109c8575b816109af60209383611690565b810103126109c45761083786925195906107e2565b5f80fd5b3d91506109a2565b6040513d85823e3d90fd5b60405162461bcd60e51b8152602060048201526011602482015270125b9d985b1a5908131408185b5bdd5b9d607a1b6044820152606490fd5b5034610190578060031936011261019057610a2d6118a5565b610a35611952565b600160ff1960025416176002557f62e78cea01bee320cd4e420270b5ea74000d11b0c9f74754ebdbfc544b05a2586020604051338152a180f35b5034610190578060031936011261019057602061061161180e565b5034610190578060031936011261019057610aa36118a5565b80546001600160a01b03198116825581906001600160a01b03167f8be0079c531659141344cd1fd0a4f28419497f9722a3daafe3b4186f6b6457e08280a380f35b50346101905780600319360112610190576020600754604051908152f35b503461019057602036600319011261019057600435610b1f6118a5565b610b276118fc565b610b2f611952565b80151580610c48575b15610c0a5780610b66600754600654610b5e610b55828487611a53565b50948593611720565b600755611741565b600655610b7582600954611741565b600955600254839060081c6001600160a01b0316803b1561098357818091602460405180948193630852cd8d60e31b83528860048401525af180156106fb57610bf1575b507f8e8412cac6b961b95ef832e2bac486977bbd29eb9725f9eddd97f3380c31f6496040848482519182526020820152a16001805580f35b81610bfb91611690565b610c0657825f610bb9565b8280fd5b60405162461bcd60e51b8152602060048201526016602482015275125b9d985b1a5908189d5e589858dac8185b5bdd5b9d60521b6044820152606490fd5b50600954811115610b38565b50346101905780600319360112610190576004546040516001600160a01b039091168152602090f35b50346101905780600319360112610190576006546007546005546040516318160ddd60e01b81529390602090859060049082906001600160a01b03165afa938415610d87578194610d53575b50604051630e36b38b60e31b815293602085600481305afa918215610d475791610d12575b60a09450600854926040519485526020850152604084015260608301526080820152f35b90506020843d602011610d3f575b81610d2d60209383611690565b810103126109c45760a0935190610cee565b3d9150610d20565b604051903d90823e3d90fd5b9093506020813d602011610d7f575b81610d6f60209383611690565b810103126109c45751925f610cc9565b3d9150610d62565b50604051903d90823e3d90fd5b50346101905780600319360112610190576005546040516001600160a01b039091168152602090f35b5034610190578060031936011261019057602060ff600254166040519015158152f35b50346101905780600319360112610190576020600c54604051908152f35b50346101905780600319360112610190576020600854604051908152f35b346109c457610e2a3661157e565b9091610e346118fc565b610e3c611952565b801515806111e2575b156111ab576002546040516323b872dd60e01b81523360048201523060248201526044810183905290602090829060081c6001600160a01b0316815f816064810103925af18015610ff757610ea0915f9161118c57506116de565b6003546040516323b872dd60e01b81523360048201523060248201526044810185905290602090829060649082905f906001600160a01b03165af18015610ff757610ef1915f9161116d575061174e565b6005546040516318160ddd60e01b81526001600160a01b0390911690602081600481855afa908115610ff7575f9161113b575b5061104657610f3b610f3685846117dd565b611add565b925b831061100257610f4f82600654611720565b600655610f5e84600754611720565b600755803b156109c4576040516340c10f1960e01b815233600482015260248101849052905f908290604490829084905af18015610ff7576020947f64b83944e79c3ce8d4c297411de637c3e102d064677aac0c163976ebdcd6f50e928592610fe7575b506040805194855260208501919091528301523391606090a260018055604051908152f35b5f610ff191611690565b5f610fc2565b6040513d5f823e3d90fd5b606460405162461bcd60e51b815260206004820152602060248201527f536c6970706167653a20696e73756666696369656e74204c50206d696e7465646044820152fd5b6040516318160ddd60e01b8152602081600481855afa908115610ff7575f91611107575b5061107861108191846117dd565b600654906117f0565b6040516318160ddd60e01b8152602081600481865afa908115610ff7575f916110d3575b506110b36110bc91876117dd565b600754906117f0565b808210156110cc57505b92610f3d565b90506110c6565b90506020813d6020116110ff575b816110ee60209383611690565b810103126109c457516110b36110a5565b3d91506110e1565b90506020813d602011611133575b8161112260209383611690565b810103126109c4575161107861106a565b3d9150611115565b90506020813d602011611165575b8161115660209383611690565b810103126109c4575185610f24565b3d9150611149565b611186915060203d6020116105285761051a8183611690565b856103ca565b6111a5915060203d6020116105285761051a8183611690565b85610439565b60405162461bcd60e51b815260206004820152600f60248201526e496e76616c696420616d6f756e747360881b6044820152606490fd5b50821515610e45565b346109c4575f3660031901126109c4576112036118a5565b60025460ff8116156112425760ff19166002557f5db9ee0a495bf2e6ff9c91a7834c1ba4fdd244a5e8aa4e537bd38aeae4b073aa6020604051338152a1005b60405162461bcd60e51b815260206004820152601460248201527314185d5cd8589b194e881b9bdd081c185d5cd95960621b6044820152606490fd5b346109c4576112db61128f36611598565b906112986118fc565b6112a0611952565b80151580611475575b6112b2906115c4565b6112d0600654600754906112ca610374838387611996565b83611a53565b939092831015611644565b6002546040516323b872dd60e01b81523360048201523060248201526044810183905290602090829060081c6001600160a01b0316815f816064810103925af18015610ff757611331915f9161118c57506116de565b61133d81600654611720565b60065561134c82600754611741565b60075560035460405163a9059cbb60e01b81523360048201526024810184905290602090829060449082905f906001600160a01b03165af18015610ff75761139a915f9161116d575061174e565b826113fb575b6020925060018060a01b0360025460081c1660018060a01b03600354169160405190815283858201527fd36cc53ba71bc76a3db3364981f5296dd4ca5eba0e8c89874f2170515bd20d2460403392a460018055604051908152f35b6003546004805460405163a9059cbb60e01b81526001600160a01b0391821692810192909252602482019590955293602091859160449183915f91165af1928315610ff757602093611453915f916114585750611791565b6113a0565b61146f9150853d87116105285761051a8183611690565b856104f6565b50600f548111156112a9565b346109c45761148f3661157e565b916114986118a5565b606481116114eb576103e882116114b457600c55600e55600f55005b60405162461bcd60e51b815260206004820152600f60248201526e092dae0c2c6e840e8dede40d0d2ced608b1b6044820152606490fd5b60405162461bcd60e51b815260206004820152600c60248201526b08ccaca40e8dede40d0d2ced60a31b6044820152606490fd5b346109c4575f3660031901126109c4576020600e54604051908152f35b346109c4575f3660031901126109c4576003546040516001600160a01b039091168152602090f35b346109c4575f3660031901126109c457602090600f548152f35b60609060031901126109c457600435906024359060443590565b60409060031901126109c4576004359060243590565b600435906001600160a01b03821682036109c457565b156115cb57565b60405162461bcd60e51b815260206004820152600d60248201526c125b9d985b1a59081a5b9c1d5d609a1b6044820152606490fd5b1561160757565b60405162461bcd60e51b81526020600482015260156024820152740a0e4d2c6ca40d2dae0c2c6e840e8dede40d0d2ced605b1b6044820152606490fd5b1561164b57565b60405162461bcd60e51b815260206004820152601d60248201527f536c6970706167653a20696e73756666696369656e74206f75747075740000006044820152606490fd5b90601f8019910116810190811067ffffffffffffffff8211176116b257604052565b634e487b7160e01b5f52604160045260245ffd5b908160209103126109c4575180151581036109c45790565b156116e557565b60405162461bcd60e51b815260206004820152601360248201527214d510c81d1c985b9cd9995c8819985a5b1959606a1b6044820152606490fd5b9190820180921161172d57565b634e487b7160e01b5f52601160045260245ffd5b9190820391821161172d57565b1561175557565b60405162461bcd60e51b81526020600482015260146024820152731554d110c81d1c985b9cd9995c8819985a5b195960621b6044820152606490fd5b1561179857565b60405162461bcd60e51b815260206004820152601c60248201527f50726f746f636f6c20666565207472616e73666572206661696c6564000000006044820152606490fd5b8181029291811591840414171561172d57565b81156117fa570490565b634e487b7160e01b5f52601260045260245ffd5b60065480158015611869575b6118645760075490670de0b6b3a7640000820291808304670de0b6b3a7640000149015171561172d57611852611860916064936117f0565b61185a611b23565b906117dd565b0490565b505f90565b506007541561181a565b600754908115801561189b575b611895576118919160065491611a53565b5090565b50505f90565b5060065415611880565b5f546001600160a01b031633036118b857565b606460405162461bcd60e51b815260206004820152602060248201527f4f776e61626c653a2063616c6c6572206973206e6f7420746865206f776e65726044820152fd5b60026001541461190d576002600155565b60405162461bcd60e51b815260206004820152601f60248201527f5265656e7472616e637947756172643a207265656e7472616e742063616c6c006044820152606490fd5b60ff6002541661195e57565b60405162461bcd60e51b815260206004820152601060248201526f14185d5cd8589b194e881c185d5cd95960821b6044820152606490fd5b9091670de0b6b3a7640000810290808204670de0b6b3a7640000148115171561172d576119ee6119c9856119f4946117f0565b946119e86119d78683611720565b956119e285826117dd565b92611720565b906117f0565b90611741565b90670de0b6b3a7640000820291808304670de0b6b3a7640000149015171561172d57611a1f916117f0565b8181101561189557611a319082611741565b90612710820291808304612710149015171561172d57611a50916117f0565b90565b9080151580611ad4575b15611aa0576119e8611a9d926119e26064611a95611a8b612710611a83600c54876117dd565b048095611741565b93600d54906117dd565b0495826117dd565b91565b60405162461bcd60e51b815260206004820152600c60248201526b4e6f206c697175696469747960a01b6044820152606490fd5b50821515611a5d565b908115611b1e576001820180831161172d5760011c825b838210611aff575050565b909250611b1583611b1081846117f0565b611720565b60011c90611af4565b5f9150565b6008548015611b6557620f42406103e891040460058102908082046005149015171561172d576064018060641161172d5761012c811115611a50575061012c90565b5060649056fea26469706673582212207c0adc786578b13d324a15fe551b92d4ef465d26e70ceec088fa7687fddfadf164736f6c634300081c003360806040523461035e57604080519081016001600160401b03811182821017610271576040908152600e82526d053747564696f436861696e204c560941b602083015280519081016001600160401b0381118282101761027157604052600681526505354432d4c560d41b602082015281516001600160401b03811161027157600354600181811c91168015610354575b602082101461025357601f81116102f1575b50602092601f821160011461029057928192935f92610285575b50508160011b915f199060031b1c1916176003555b80516001600160401b03811161027157600454600181811c91168015610267575b602082101461025357601f81116101f0575b50602091601f8211600114610190579181925f92610185575b50508160011b915f199060031b1c1916176004555b60058054336001600160a01b03198216811790925560405191906001600160a01b03167f8be0079c531659141344cd1fd0a4f28419497f9722a3daafe3b4186f6b6457e05f80a3610c3990816103638239f35b015190505f8061011d565b601f1982169260045f52805f20915f5b8581106101d8575083600195106101c0575b505050811b01600455610132565b01515f1960f88460031b161c191690555f80806101b2565b919260206001819286850151815501940192016101a0565b60045f527f8a35acfbc15ff81a39ae7d344fd709f28e8600b4aa8c65c6b64bfe7fe36bd19b601f830160051c81019160208410610249575b601f0160051c01905b81811061023e5750610104565b5f8155600101610231565b9091508190610228565b634e487b7160e01b5f52602260045260245ffd5b90607f16906100f2565b634e487b7160e01b5f52604160045260245ffd5b015190505f806100bc565b601f1982169360035f52805f20915f5b8681106102d957508360019596106102c1575b505050811b016003556100d1565b01515f1960f88460031b161c191690555f80806102b3565b919260206001819286850151815501940192016102a0565b60035f527fc2575a0e9e593c00f959f8c92f12db2869c3395a3b0502d05e2516446f71f85b601f830160051c8101916020841061034a575b601f0160051c01905b81811061033f57506100a2565b5f8155600101610332565b9091508190610329565b90607f1690610090565b5f80fdfe6080806040526004361015610012575f80fd5b5f3560e01c90816306fdde03146107eb57508063095ea7b3146107c557806318160ddd146107a857806323b872dd146106eb578063313ce567146106d0578063395093511461068257806340c10f19146105bb57806370a0823114610584578063715018a6146105295780638da5cb5b1461050157806395d89b41146103e65780639dc29fac146102bb578063a457c2d714610218578063a9059cbb146101e7578063dd62ed3e146101975763f2fde38b146100cc575f80fd5b34610193576020366003190112610193576100e56108e4565b6100ed610bab565b6001600160a01b0316801561013f57600580546001600160a01b0319811683179091556001600160a01b03167f8be0079c531659141344cd1fd0a4f28419497f9722a3daafe3b4186f6b6457e05f80a3005b60405162461bcd60e51b815260206004820152602660248201527f4f776e61626c653a206e6577206f776e657220697320746865207a65726f206160448201526564647265737360d01b6064820152608490fd5b5f80fd5b34610193576040366003190112610193576101b06108e4565b6101b86108fa565b6001600160a01b039182165f908152600160209081526040808320949093168252928352819020549051908152f35b346101935760403660031901126101935761020d6102036108e4565b6024359033610a35565b602060405160018152f35b34610193576040366003190112610193576102316108e4565b60243590335f52600160205260405f2060018060a01b0382165f5260205260405f2054918083106102685761020d92039033610931565b60405162461bcd60e51b815260206004820152602560248201527f45524332303a2064656372656173656420616c6c6f77616e63652062656c6f77604482015264207a65726f60d81b6064820152608490fd5b34610193576040366003190112610193576102d46108e4565b602435906102e0610bab565b6001600160a01b0316801561039757805f525f60205260405f205491808310610347576020817fddf252ad1be2c89b69c2b068fc378daa952ba7f163c4a11628f55a4df523b3ef925f958587528684520360408620558060025403600255604051908152a3005b60405162461bcd60e51b815260206004820152602260248201527f45524332303a206275726e20616d6f756e7420657863656564732062616c616e604482015261636560f01b6064820152608490fd5b60405162461bcd60e51b815260206004820152602160248201527f45524332303a206275726e2066726f6d20746865207a65726f206164647265736044820152607360f81b6064820152608490fd5b34610193575f366003190112610193576040515f6004548060011c906001811680156104f7575b6020831081146104e3578285529081156104c75750600114610472575b50819003601f01601f191681019067ffffffffffffffff82118183101761045e5761045a829182604052826108ba565b0390f35b634e487b7160e01b5f52604160045260245ffd5b905060045f527f8a35acfbc15ff81a39ae7d344fd709f28e8600b4aa8c65c6b64bfe7fe36bd19b5f905b8282106104b15750602091508201018261042a565b600181602092548385880101520191019061049c565b90506020925060ff191682840152151560051b8201018261042a565b634e487b7160e01b5f52602260045260245ffd5b91607f169161040d565b34610193575f366003190112610193576005546040516001600160a01b039091168152602090f35b34610193575f36600319011261019357610541610bab565b600580546001600160a01b031981169091555f906001600160a01b03167f8be0079c531659141344cd1fd0a4f28419497f9722a3daafe3b4186f6b6457e08280a3005b34610193576020366003190112610193576001600160a01b036105a56108e4565b165f525f602052602060405f2054604051908152f35b34610193576040366003190112610193576105d46108e4565b602435906105e0610bab565b6001600160a01b031690811561063d577fddf252ad1be2c89b69c2b068fc378daa952ba7f163c4a11628f55a4df523b3ef6020826106215f94600254610910565b60025584845283825260408420818154019055604051908152a3005b60405162461bcd60e51b815260206004820152601f60248201527f45524332303a206d696e7420746f20746865207a65726f2061646472657373006044820152606490fd5b346101935760403660031901126101935761020d61069e6108e4565b335f52600160205260405f2060018060a01b0382165f526020526106c960405f206024359054610910565b9033610931565b34610193575f36600319011261019357602060405160128152f35b34610193576060366003190112610193576107046108e4565b61070c6108fa565b6001600160a01b0382165f908152600160208181526040808420338552909152909120549260443592918401610747575b61020d9350610a35565b8284106107635761075e8361020d95033383610931565b61073d565b60405162461bcd60e51b815260206004820152601d60248201527f45524332303a20696e73756666696369656e7420616c6c6f77616e63650000006044820152606490fd5b34610193575f366003190112610193576020600254604051908152f35b346101935760403660031901126101935761020d6107e16108e4565b6024359033610931565b34610193575f366003190112610193575f6003548060011c906001811680156108b0575b6020831081146104e3578285529081156104c7575060011461085b5750819003601f01601f191681019067ffffffffffffffff82118183101761045e5761045a829182604052826108ba565b905060035f527fc2575a0e9e593c00f959f8c92f12db2869c3395a3b0502d05e2516446f71f85b5f905b82821061089a5750602091508201018261042a565b6001816020925483858801015201910190610885565b91607f169161080f565b602060409281835280519182918282860152018484015e5f828201840152601f01601f1916010190565b600435906001600160a01b038216820361019357565b602435906001600160a01b038216820361019357565b9190820180921161091d57565b634e487b7160e01b5f52601160045260245ffd5b6001600160a01b03169081156109e4576001600160a01b03169182156109945760207f8c5be1e5ebec7d5bd14f71427d1e84f3dd0314c0f7b2291e5b200ac8c7c3b92591835f526001825260405f20855f5282528060405f2055604051908152a3565b60405162461bcd60e51b815260206004820152602260248201527f45524332303a20617070726f766520746f20746865207a65726f206164647265604482015261737360f01b6064820152608490fd5b60405162461bcd60e51b8152602060048201526024808201527f45524332303a20617070726f76652066726f6d20746865207a65726f206164646044820152637265737360e01b6064820152608490fd5b6001600160a01b0316908115610b58576001600160a01b0316918215610b0757815f525f60205260405f2054818110610ab357817fddf252ad1be2c89b69c2b068fc378daa952ba7f163c4a11628f55a4df523b3ef92602092855f525f84520360405f2055845f525f825260405f20818154019055604051908152a3565b60405162461bcd60e51b815260206004820152602660248201527f45524332303a207472616e7366657220616d6f756e7420657863656564732062604482015265616c616e636560d01b6064820152608490fd5b60405162461bcd60e51b815260206004820152602360248201527f45524332303a207472616e7366657220746f20746865207a65726f206164647260448201526265737360e81b6064820152608490fd5b60405162461bcd60e51b815260206004820152602560248201527f45524332303a207472616e736665722066726f6d20746865207a65726f206164604482015264647265737360d81b6064820152608490fd5b6005546001600160a01b03163303610bbf57565b606460405162461bcd60e51b815260206004820152602060248201527f4f776e61626c653a2063616c6c6572206973206e6f7420746865206f776e65726044820152fdfea26469706673582212202594e35b5519efd4cebf9b326cf1d5ed35182f0e1c98c54f75b6a23f7664331464736f6c634300081c0033",
  "linkReferences": {},
  "deployedLinkReferences": {},
  "immutableReferences": {},
  "inputSourceName": "project/contracts/TokenAMM.sol",
  "buildInfoId": "solc-0_8_28-f93a728f0e8dd6f5f7f1123fb9551d190c5a58e6"
}